:02000004080AE8
:1000000000000A08306C0A0800000600060005011E
:0800100004027C050000000061
:0400180044630A082B
:1000200009480A4908B5884205D0094A824202D0E7
:10003000121A06F085F80748074A0021121A06F03E
:100040008AF8064808BD00BF000000204C6B0A0873
:10005000BC000020BC000020EC080020EC080020C0
:1000600070B503F017FD074B074C1E46E41AA408B1
:100070000025A54204D056F8253098470135F8E709
:1000800070BD00BF786A0A08CC6A0A0800F010BF89
:1000900008B501F0F9F8BDE8084003F0BDBC02F076
:1000A000B5BE02F0B3BE02F0B9BE02F0B7BE007832
:1000B000B0FA80F040097047012303707047704721
:1000C00003681847012A02D0022A02D004E0016026
:1000D00002E00B6800B103600020704738B5064DA0
:1000E000002404F1E0002844103C03F0C7F914F1A7
:1000F000F00FF6D138BD00BFE401002010B5012398
:100100000374836804460BB1C06806E0006828B138
:1001100083680BB904F0C9FBC36898470123637473
:100120000020BDE8104002F0ABBC10B58368044667
:1001300013B1032201469847204610BD38B5044646
:1001400070B1056835B12846FFF7EFFF102128464A
:1001500004F09AFB2046BDE83840142104F094BB1B
:1001600038BD10B543690446BBB1586802F068FC5D
:1001700078B963695A7C12B9586802F069FC6369FE
:10018000586802F06DFC60690023636128B1FFF7D5
:10019000D5FF606908B1FFF7D1FF201DFFF7C5FF4C
:1001A000204610BD08B502F01BFC014B186008BDCD
:1001B0001408002030B51D4687B000230446049380
:1001C00022B1214B02920593204B04930023E3605C
:1001D000049B21603BB1022202A9201D9847059B88
:1001E0002361049BE3601A49142004F04FFB30B1F3
:1001F00000230374036043608360C36043746061E1
:10020000A0B1144B0922836063691349DC60606903
:10021000124B8DE82100043002F00AFC30B963690A
:100220001B7C4BB9012002F0CBFBF8E7606900238F
:10023000636108B1FFF782FFFFF7B4FF02A8FFF781
:1002400074FF204607B030BDC1000A08C5000A0887
:1002500004690A08ED470A0878630A08FD000A08DD
:1002600000B500218DB0072004F049FAFFF79AFF8E
:100270002149684603F049F9694608A803F067F97F
:100280001E4904A803F041F904A908A803F0A5F940
:1002900001681B4801F0FCFF04A803F0EFF808A870
:1002A00003F0ECF8684603F0E9F81548154901F049
:1002B00043FE134801F007FFD0B10121072004F0ED
:1002C0001EFA0D4908A803F020F908A904A803F0B4
:1002D0003EF90D4904A803F08CF902220168084890
:1002E00002F080F904A803F0C9F808A803F0C6F8E2
:1002F0000DB05DF804FB00BF7F630A0883630A0842
:1003000044010020BF000A088A630A0870B5054648
:1003100092B021480C4601F0D6FE002839D01F4982
:100320000AA803F0F2F80AA906A803F010F91C497C
:1003300006A803F05EF906461A490EA803F0E5F890
:100340000EA9304603F049F9154903F052F9294640
:1003500003F043F90546204605F05BFF0DF1160357
:1003600003930121022200238DE80E00034622465A
:100370002968094801F09CFF0EA803F07FF806A841
:1003800003F07CF80AA803F079F8BDF81620064BB4
:100390001A8012B070BD00BF440100207F630A08BC
:1003A0008D630A0883630A089C01002010B503F0DE
:1003B00032F9B0F5805F044605DA82B200230821E5
:1003C000024802F0ABF9204610BD00BFD00100206A
:1003D00010B503F020F9B0F5805F044605DA82B26B
:1003E00000230421024802F099F9204610BD00BF05
:1003F000D001002010B504F019FA04F05BF80A4CA3
:1004000004F014FA242104F06BF8FF23237004F0A5
:100410000DFA036821789B68984704F007FABDE855
:10042000104004F064B800BF4800002010B504F08C
:10043000FDF904F03FF80A4C04F0F8F9242104F027
:100440004FF80023237004F0F1F9036821789B68CA
:10045000984704F0EBF9BDE8104004F048B800BF3D
:1004600048000020F8B51C4C01232370FFF7C2FFA1
:1004700041F2707003F076FA2546184C0026A01958
:100480001749103603F06EF8F02EF8D1FFF78AFE08
:100490000A2003F067FA134801F075FBC82003F047
:1004A00061FA114F0024002607EBC4010D4801F04A
:1004B0004EFB4FF4967003F055FA0C4B43F8246052
:1004C00001340F2CF0D10024FFF76CFE2C70FFF7E5
:1004D000ADFF2046F8BD00BF9E010020E4010020D2
:1004E00084670A0824030020004002400400002022
:1004F00070B506460024002231460A4801F046FB4A
:100500000546084801F0FCFB28B90134042CF2D15F
:100510000020054970BD032CFAD0284604F078FF6E
:1005200070BD00BF2403002000C058C030B5174A7A
:10053000174B12681B78002ACCBF022200221343FB
:10054000144A154D1268154C002ACCBF0422002213
:1005500013432A6889B09342236014D01049684637
:1005600002F0D3FF0222216804A803F00CF80499DA
:100570006846FFF7CBFE04A802F080FF684602F051
:100580007DFF23682B6009B030BD00BFF80200205A
:100590009E010020FC02002038010020D40200202F
:1005A0008F630A0830B5184D89B0002422461749D8
:1005B000684603F035F805EB0412154904A803F06A
:1005C0002FF804996846FFF7A1FE04A802F056FF31
:1005D0000134684602F052FF0F2CE7D10D4904A800
:1005E00002F093FF0C4B02221968684602F0CBFF21
:1005F000009904A8FFF78AFE684602F03FFF04A8AE
:1006000002F03CFF09B030BDE401002098630A0805
:10061000A8630A088F630A08D4020020022A05D0C2
:10062000032A06D0012A06D10843704720EA0100B8
:10063000704748407047002070470000082870B598
:1006400004460E461ADC04F0F1F8242103F048FFBA
:100650000B4D013C0121A14032462878C9B2FFF779
:10066000DDFF287004F0E2F8036829789B6898475A
:1006700004F0DCF8BDE8704003F039BF70BD00BF86
:10068000480000200221FFF7D9BF0121FFF7D6BFA4
:100690002DE9F041824B834C1A68216888B0914261
:1006A00006461D4600D1F8B17F4904A802F02DFF8F
:1006B0007E4B2768D3F8008002F092F93A46C0EBEF
:1006C00008037B49684602F0ABFF009904A8FFF7D6
:1006D0001DFE684602F0D2FE04A802F0CFFE236899
:1006E0002B600EB16F4B1E6023680B2B00F2D58080
:1006F000DFE813F00C00130066006E0079007B0049
:100700008300D3009400AA00AE00BC00694B1B68B4
:10071000002B40F3C2800123A6E00021664801F0CF
:10072000A5FF664B01211880634801F09FFF644BD1
:1007300008211880604801F099FF02F051F95B4DE3
:1007400028600520FFF7A1FF0720FFF79EFF062086
:10075000FFF79BFF5B4A137883F0010313701BB113
:1007600002F03EF9584B1860524B01211E461A68A0
:100770005148022AC8BF2B684FF4FA72C4BFA3F5D0
:10078000FA632B60002301F0C9FF002319464FF4E0
:10079000FA72494801F0C2FF4C4904A802F0B5FEC4
:1007A0000A223168684602F0EEFE009904A8FFF7BD
:1007B000ADFD684602F062FE04A802F05FFE51E063
:1007C00002F00EF9394B1B6803F5C343283347E0A9
:1007D0000720FFF757FF02F003F9344B1B6803F5BE
:1007E000E24348333CE005233EE002F0F9F82F4BAA
:1007F0001B6803F55643D83332E00720FFF742FF6A
:100800000520FFF73FFF02F0EBF8284B1B6803F5CC
:100810007D43E833984240D9082325E0284A002345
:1008200012880121244801F079FF244A0023194647
:100830001288214801F072FF02F0D2F81B4B1B68AE
:1008400003F59233F8330BE00620FFF71BFF09E0B6
:1008500002F0C6F8154B1B6803F5B93303F58C732A
:1008600098421AD923680133236016E0114D002302
:10087000164904A82B60236002F047FE0A2229686B
:10088000684602F080FE009904A8FFF73FFD684625
:1008900002F0F4FD04A802F0F1FD08B0BDE8F0811B
:1008A000F4000020CC000020AB630A08C800002040
:1008B000B9630A08FC020020D001002000000020DB
:1008C00002000020C0000020FC000020A0640A08F4
:1008D00010B5052088B0FFF7D5FE0720FFF7D2FE40
:1008E0000620FFF7CFFE0E4B00240E4904A81C7013
:1008F00002F00BFE0C4B0A221968684602F043FE18
:10090000009904A8FFF702FD684602F0B7FD04A8AD
:1009100002F0B4FD0820FFF7BBFE204608B010BD72
:10092000C0000020A0640A08FC0200201FB502F0ED
:1009300072FE084B18601C4648B90749684602F029
:10094000E4FD6846FFF7C4FF684602F097FD2068A3
:1009500004B010BDFC02002096630A082DE9F041A6
:10096000AE4BAF4C1A68216888B0914206461D46CE
:1009700000D1F8B1AB4904A802F0C7FDAA4B276823
:10098000D3F8008002F02CF83A46C0EB0803A749E0
:10099000684602F045FE009904A8FFF7B7FC6846D8
:1009A00002F06CFD04A802F069FD23682B600EB113
:1009B0009B4B1E6023680A2B00F22D81DFE813F0A9
:1009C0000B0012006F0089002B019D00A700B100F1
:1009D000CE00F7001401964B1B68002B40F31B81DF
:1009E0000123E2E00421934801F040FE924B0221F2
:1009F0001880904801F03AFE904B032118808D48F2
:100A000001F034FE8E4B884D188001F0E9FF002381
:100A100040F6FF7204212860864801F07FFE032023
:100A2000FFF733FE0120FFF730FE0420FFF72DFE15
:100A3000844A137883F0010313701BB101F0D0FFD7
:100A4000814B18607A4B03211E461A687948012AA7
:100A5000C8BF2B684FF4FA72C2BFA3F5C343283B4B
:100A60002B60002301F05AFE00234FF4FA7202219A
:100A7000704801F053FE754904A802F046FD0A22B1
:100A80003168684602F07FFD009904A8FFF73EFC3C
:100A9000684602F0F3FC04A802F0F0FC83E06C4B23
:100AA0006C49186905F01AFB10B10220FFF7EDFD43
:100AB00001F096FF5C4B1B6803F59C53083398428A
:100AC00040F2A9802368022001332360FFF7DDFD97
:100AD000A1E001F085FF544B1B6803F57D43E8332B
:100AE000984240F2988005235B4904A8236002F0F5
:100AF0000CFD5A4B0A22196880E00120FFF7C2FD65
:100B00000320FFF7C2FD0220FFF7BCFD4BE001F020
:100B100067FF474B1A68444B1B6803F5F4334833AF
:100B20003BE00120FFF7AEFD0320FFF7ABFD454B97
:100B3000002502201D70FFF7A5FD3F4A2B461288B5
:100B400004213C4801F0EAFD01F04AFF384B1A68E5
:100B5000354B1B6803F5213388331EE0384A0023E8
:100B600012880321334801F0D9FD344A002312884A
:100B70000221304801F0D2FD2F4A002312880421BF
:100B80002C4801F0CBFD01F02BFF294B1A68264BB6
:100B90001B6803F5433303F5A07342F2107101FBA8
:100BA0000233984237D923680133236033E00420AD
:100BB000FFF768FD01F014FF42F210711C4B1A6838
:100BC000194B1B6803F5563303F5587301FB0233C9
:100BD000984220D92368022001332360FFF752FD99
:100BE0000120FFF74FFD16E0114D0023174904A81F
:100BF0002B60236002F089FC29680A22684602F013
:100C0000C2FC009904A8FFF781FB684602F036FC9D
:100C100004A802F033FC08B0BDE8F081AC0100206C
:100C2000D8000020D4630A0840010020B9630A08F4
:100C3000F8020020D00100204600002040000020E3
:100C400042000020C4010020F80000208A640A0845
:100C5000040300200080D443A0640A08FC020020A2
:100C600010B5032088B0FFF70DFD0120FFF70AFD46
:100C70000420FFF707FD0E4B00240E4904A81C704A
:100C800002F043FC0C4B0A221968684602F07BFC18
:100C9000009904A8FFF73AFB684602F0EFFB04A8AE
:100CA00002F0ECFB0820FFF759FE204608B010BD0B
:100CB000C40100208A640A08F80200201FB502F06F
:100CC000AAFC084B18601C4648B90749684602F060
:100CD0001CFC6846FFF7C4FF684602F0CFFB2068A3
:100CE00004B010BDF802002096630A08B0B515469E
:100CF000044602F1080388B023F0070300AFADEB10
:100D0000030D684605F01CFAFFF74CFA002369460C
:100D100038460DF8053002F0F8FB4B49204605F047
:100D20004BFA48B9394607F1100002F010FC07F100
:100D30001000FFF74DFB0DE04449204605F03CFA5A
:100D400068B9394607F1100002F001FC07F1100004
:100D5000FFF72CFB07F1100002F090FB6EE03C491E
:100D6000204605F029FA054630B9384602F053FC12
:100D70002B4682B202210BE03649204605F01CFAD0
:100D8000054648B9384602F046FC2B4682B203219C
:100D9000314801F0C3FC51E03049204605F00CFA1F
:100DA000054630B9384602F036FC2B4682B2294659
:100DB000EEE72B49204605F0FFF9054630B93846E5
:100DC00002F029FC2B4682B20121E1E725492046A9
:100DD00005F0F2F968B9394607F1100002F0B7FBE7
:100DE00007F11000FFF73EFB07F1100002F046FB91
:100DF00022E01D49204605F0DFF948B9394607F1E0
:100E0000100002F0A4FB07F11000FFF757FFA1E765
:100E10001649204605F0D0F948B9394607F11000C7
:100E200002F095FB07F11000FFF780FD92E71049F3
:100E3000204605F0C1F908B9FFF7B4FB384602F0C7
:100E40001DFB2037BD46B0BDE1630A08F3630A0805
:100E500005640A081C640A08D001002033640A08EB
:100E60004A640A0861640A087D640A0893640A08EF
:100E7000A9640A0808B503F0D9FC242103F030FB6B
:100E800003F0D4FC036800219B689847064B0022BE
:100E90001A7003F0CBFC03F02AFB044A137883F0AA
:100EA0000103137008BD00BF48000020340100207A
:100EB00030B585B0002504AC44F8105D2A462946BB
:100EC000204601F0ADFD009B822B02D1284601F0A7
:100ED0008FFD0121072003F001FC264801F088FC6A
:100EE0002549244801F090FC002340F6B832012146
:100EF000204801F013FC0023194640F654321D48E7
:100F000001F00CFC002340F6B8320321194801F02F
:100F100005FC40F6543200230221164801F0FEFB86
:100F2000FFF740F903F082FC03F0C4FA134D03F01D
:100F30007DFC242103F0D4FAFF232B7003F076FC10
:100F4000036829789B68984701210846FFF792FFBC
:100F500003F06CFC03F0CBFA0949204602F0D5FA05
:100F60002046FFF77FFA204602F088FAFFF71AF9C9
:100F700005B030BDD00100200080BB4448000020F7
:100F800084670A082DE9F3413C4B93F90E4003F0C6
:100F90004DFC214603F0A4FA03F048FC03F0A7FA45
:100FA000002832D10446661C02231022F1B20093BD
:100FB0003248012300F0BCFE304800F01FFF304BE8
:100FC000304D43F8240004F079FE2F4904F0C0FDB1
:100FD0002E4904F07BFF2E4B074653F8240004F003
:100FE0006DFE0146384604F0BDFE042E45F824008F
:100FF0003446D8D12C682749204605F051F820B155
:101000002549204604F0A6FD2860FFF7CBF8234BC6
:1010100093F90E4003F00AFC214603F061FA03F055
:1010200005FC03F064FA30BB1D4F1E4E1E4D042418
:1010300002231022E1B200931848012300F078FE49
:10104000164800F0DBFE47F8040F04F037FE0E49A7
:1010500004F07EFD0D4904F039FF804656F8040F78
:1010600004F02CFE0146404604F07CFE0134092CBD
:1010700045F8040FDCD102B0BDE8F081D8020020B1
:10108000400300200403002000A8B5450032B84604
:1010900058630A080000164400007041E80200206E
:1010A0004803002060630A080C03002038B5046878
:1010B00005467CB16368013B63605BB923682046E9
:1010C0009B689847A368013BA3601BB9236820462F
:1010D000DB689847284638BD2DE9D043344CDCB056
:1010E000A06A04F095F90646E06A0F4604F090F90C
:1010F0008046A06B894604F08BF9CDE92001606B36
:1011000004F086F9CDE91E01206B04F081F9CDE9E8
:101110001C01606ACDE91A89CDE91867CDE9168905
:10112000CDE9146704F074F9CDE91201206A04F0E6
:101130006FF9CDE91001E06904F06AF9CDE90E011B
:10114000A06904F065F9CDE90C01606904F060F96B
:10115000CDE90A01206904F05BF9CDE90801E068F6
:1011600004F056F9CDE90601A06804F051F9CDE983
:101170000401606804F04CF9CDE90201206804F034
:1011800047F90C4ACDE90001DC2125A801F056FE03
:10119000094B25AA1B7809498DF8003023A83C2368
:1011A00002F0E6FD24A8FFF781FF5CB0BDE8D08324
:1011B0000400002011650A08D40000205C650A08BC
:1011C0002DE9F0432A4CC5B00221204601F04EFA29
:1011D00003210546204601F049FA00210646204633
:1011E00001F044FA01210746204601F03FFA0421AC
:1011F0008046204601F03AFA08218146204601F057
:1012000035FA1C4C0F90CDF83890CDF834800C97FF
:101210000B960A95206904F0FBF8CDE90801E06817
:1012200004F0F6F8CDE90601A06804F0F1F8CDE984
:101230000401606804F0ECF8CDE90201206804F0D4
:10124000E7F80D4ACDE90001C82112A801F0F6FD2A
:101250000A4B12AA1B780A498DF8003010A83C23CB
:1012600002F086FD11A8FFF721FF45B0BDE8F0832D
:10127000D00100200403002064650A08D400002087
:1012800095650A0800000000F0B565488BB000F0D5
:101290001AFF10B1624801F09FF801F09FFD20B1E4
:1012A000604E3378002B40F0BA8101F099FB5E4C20
:1012B0005E4E2060FEF776FF336853B9206804F075
:1012C00085F855A3D3E9002303F044FF04F0CCFBD9
:1012D0003060574D2B682BB9236803F5C31303F512
:1012E00020632B60534FFEF75DFF5349386804F0CD
:1012F000F5FE10B10820FFF7C8F94F49386904F02E
:10130000EDFE10B10220FFF7C0F94C4F23683A6898
:101310009B1A40F26B72934202D901F061FB386074
:10132000326823689B1A464A934215D9454B0021DF
:10133000186804F0B5FE60B1434B1B684BB94349D4
:1013400006A802F0E2F806A8FFF7B8FC06A802F02B
:1013500095F801F045FB30602A6823689B1A384AEB
:10136000934215D9374B0021986804F099FE60B17B
:10137000374B1B684BB9354906A802F0C6F806A8DA
:10138000FFF7D4FA06A802F079F801F029FB2860EB
:10139000FEF708FF2F4B226819681D46521AB2F556
:1013A000FA6F0DD31E4800F08EFE10B9FEF758FFFD
:1013B00003E00121072003F0A2F901F011FB2860EE
:1013C000FEF7F0FE40F2513322689A424FD9224B89
:1013D0001A78002A4BD1214B19681D460E2945DC8D
:1013E0001F4800EBC100FFF783F804F05DFB1D4BC5
:1013F00001461860064604F07BFE124B2A6810B9BD
:1014000043F8226002E0184943F822102B680133A8
:101410002B602CE0AFF3008000000000804F3241D1
:101420004401002044000020A8010020C801002041
:10143000CC01002004030020000002443C010020F5
:10144000FF340C0004000020F80200209C650A080C
:10145000FC020020C40000209E010020A00100200A
:1014600000400240000300200000C6C21A607C4D0C
:10147000FEF798FE2A6823689B1A43F69722934248
:101480000AD9FFF77FFD01F0ABFA286001F0A8FA56
:1014900001F0A6FAFEF786FE0020724DFFF75EFA15
:1014A000FEF780FE0020FFF7F3F82A6823689B1AF6
:1014B00041F65732934240F2958001F091FA28604C
:1014C000FEF770FEFFF77CFEFEF76CFE664906A88D
:1014D00002F01BF80221654801F0C8F80A22014613
:1014E00002A802F050F8029906A8FEF70FFF02A822
:1014F00001F0C4FF06A801F0C1FF5D4906A802F093
:1015000004F80321594801F0B1F80A22014602A863
:1015100002F039F8029906A8FEF7F8FE02A801F0D9
:10152000ADFF06A801F0AAFF524906A801F0EDFFA1
:1015300000214E4801F09AF80A22014602A802F062
:1015400022F8029906A8FEF7E1FE02A801F096FF34
:1015500006A801F093FF484906A801F0D6FF012133
:10156000424801F083F80A22014602A802F00BF873
:10157000029906A8FEF7CAFE02A801F07FFF06A89E
:1015800001F07CFF3D4906A801F0BFFF0421374868
:1015900001F06CF80A22014602A801F0F4FF02995A
:1015A00006A8FEF7B3FE02A801F068FF06A801F046
:1015B00065FF334906A801F0A8FF08212B4801F078
:1015C00055F80A22014602A801F0DDFF029906A89B
:1015D000FEF79CFE02A801F051FF06A801F04EFFA5
:1015E000FEF7A4FF274D23682A689B1A264A9342D8
:1015F00002D901F0F5F92860244D23682A689B1A66
:1016000041F28732934206D9FFF766FDFEF7CAFD25
:1016100001F0E6F92860FEF7C5FD0BB0F0BD00252E
:101620000AAC44F8105D2A462946204601F0F8F934
:101630000A220699204601F0A6FF154B069A1B7850
:1016400014498DF8003002A83C2302F091FB03A856
:10165000FFF72CFD204601F011FF357025E600BF95
:10166000D0000020C001002012640A08D001002030
:1016700029640A0840640A0857640A089E650A0833
:10168000A3650A0800010020BFD40100A4010020C6
:10169000D4000020A8650A0838B52F4B01221A7023
:1016A00001F03EF94FF4B2632C4A4EF660212C480B
:1016B000FEF780FD2B4A2C49294803F0D7F82B4D23
:1016C000002428192A49103401F01FFFF02CF8D10A
:1016D000244A2849002003F0C9F82549264801F08A
:1016E00014FF204A2549244803F0C0F800220221B3
:1016F000234800F015FA1B4A2249214803F0B6F8A6
:101700006821214800F004FB164A20491E4803F0D6
:10171000ADF86E211E4800F0FBFA124A1B491C4826
:1017200003F0A4F81B4B40F25B721B491B4800F00E
:10173000E1FB0C4A1A49194803F098F840210122AC
:10174000184800F090FF184800F0CCF9BDE8384088
:101750000121042001F054B9D4000020D52E0A083C
:10176000DC000020BC00002063010A08E401002026
:1017700084670A08DD000A08B00100207D340A08E9
:1017800024030020771B0A08D8020020291D0A081C
:10179000E8020020ED0C0A08B4650A0844010020A4
:1017A00031260A08D00100200401002001F0B8B859
:1017B00002881C2353434268D118D3588A885A831D
:1017C000704738B504460D4601F0AAF80021606064
:1017D000284602F083FF2580204638BD38B50546EF
:1017E00002F090FD0021288801F0A2F802F08CFDA3
:1017F0007D24013C14F0FF042DD0022001F0E8F814
:10180000288801F0ADF810F0FF0FF2D002F07AFD59
:101810002846FFF7CDFF0121288801F089F802F062
:1018200073FD4FF4F07001F0D3F802F06BFD00216E
:10183000288801F07DF8462001F0CAF8288801F0D8
:101840008FF8C0B2B0FA80F402F05EFD4FF4CD70B4
:10185000640901F0BDF8204638BD38B511F0010526
:10186000044613D002F04EFD2046FFF7A1FF0121F0
:10187000208801F05DF80A2001F0AAF820880021F4
:1018800001F056F802F040FD372012E002F03AFD78
:101890002046FFF78DFF0121208801F049F8412003
:1018A00001F096F82088294601F042F802F02CFD5C
:1018B0000520BDE8384001F08BB810B5044602F0B1
:1018C00021FD2046FFF774FF0121208801F030F848
:1018D000032001F07DF80021208801F029F80A207A
:1018E00001F076F8208801F03BF8044602F00CFD88
:1018F000352001F06DF8E0B210BD2DE9F04105464C
:10190000884617460826012418EA040F14BF01214F
:1019100000212846FFF7A1FF6400013EE4B2F3D1A5
:101920008FB102F0EFFC2A881C2353436A68D11858
:10193000D3588A8801211A83288800F0F9FFBDE86E
:10194000F04102F0E1BCBDE8F081F8B50746082699
:10195000002501243846FFF7B0FF00B1254364009D
:10196000013EE4B2F6D12846F8BD70B500220C461F
:1019700055210646FFF7C1FF651E073415F8011F04
:1019800000223046FFF7B9FFA542F7D170BD002213
:10199000CC21FFF7B2BF002303748374437400F1BA
:1019A0001002083002F8013D8242FBD170472DE958
:1019B000F047857C04468846002D5ED1FFF70EFF78
:1019C00020B92074A0746074BDE8F0872A46F02125
:1019D00020460126FFF791FFAA4637462046FFF72B
:1019E0006CFF81462046FFF768FFB9F1010F02D175
:1019F00001281BD137E0814504EB05031ED1227C71
:101A0000974207D21A7A164214BF4FF001094FF0DD
:101A1000000904E00CBF4FF001094FF00009B9F1D3
:101A2000000F03D1082F08D8677406E06219137AF3
:101A30004FF001093343137204E0BA461A7A22EADE
:101A400006021A72494620467600FFF706FF16F096
:101A5000FF0604BF0135EDB207F1010708BF0126FB
:101A6000072DFFB2BAD9402F07D984F810A0BAF1D8
:101A7000000F12D10123A3740FE000202074A07482
:101A80006074E31D08F1FF380F3413F8012FA342EF
:101A900008F8012FF9D1BDE8F087237A002BECD0AC
:101AA0000120EEE730B5054600200139C9B2FF2913
:101AB00013D015F8014B082280EA040313F0010F3C
:101AC0004FEA50001CBF80F08C03D8B2531E13F0B5
:101AD000FF024FEA5404EFD1E7E730BD00F020BF2A
:101AE00000F01EBF0346094900F10C0203C982E859
:101AF000030000225A619A611A771A6220219A62C1
:101B00000A22596283F82C2018467047C4650A08D7
:101B1000024B00221A7000F003BF00BF60030020D8
:101B200070B5044600236360A360E36023616361D2
:101B300023766376A27614200E46FEF7B0FA0546A9
:101B400010B13146FFF73DFE2560204670BD38B527
:101B500000F110050C4600682946FFF728FF031E18
:101B600017BF2B68236023606B6818BF0120636078
:101B700008BF002038BD10B504461421006802F0EB
:101B800083FE204610BD0068FFF705BFF8B5837ED1
:101B900004460D4616461BB90B78002B00F0A480B6
:101BA0002068FFF71BFEA37E23B11EB92068FFF754
:101BB000EEFE03E029462068FFF7D7FE002244210D
:101BC0002068FFF79AFE40F2EE2001F0CBFE20687D
:101BD000FFF704FEA37E23B11EB92068FFF7D7FEEE
:101BE00003E029462068FFF7C0FE0022BE212068DE
:101BF000FFF783FE2B78262B04D1002211462068A4
:101C0000FFF77BFEE61C04F10C072068FFF79DFE42
:101C100006F8010FBE42F8D10821201DFFF742FF50
:101C2000237B2076984263765ED12B78222B1BD0C3
:101C300016D8102B58D1E37AA088102B08BFA37AAE
:101C40004FEAC00002BF20F00F00C3F10C03C01820
:101C500000B204F033F84FF0765104F083F8F8BD89
:101C6000262B1FD0282B3FD1227A237902F0600245
:101C7000202A05D0402A06D042B923F0070304E009
:101C800023F0030301E023F001032371237960793A
:101C900043EA002000B203F0A9FB0022134B03F03B
:101CA0000BFC1EE0A579284603F0A0FB06466079F0
:101CB0000F46C00804F002F803F0AAFB00220C4B08
:101CC00003F0FAFB0B462906024648BF09494FF0CC
:101CD000000058BF084903F0EFFB32463B4603F0D3
:101CE00039FA03F0E1FEF8BD0448F8BD0000B03F4A
:101CF0000000A03F0000F0BF0000F03F0000C07FE8
:101D0000027E407E131A58425841704700F008BEC8
:101D100038B50C46054644F0680402F087FD02F031
:101D2000C9FBAC73284638BD7047000000000000B6
:101D300038B5044602F0FD059DF810000C2D6072C8
:101D400002D0102A18BF0C22227122790139637146
:101D50000C3A43EA4103022192FBF1F242EA830387
:101D60008B40237203F032FB02F072FF0EA3D3E923
:101D7000002303F0CBFC03F04FFE237A18432072BC
:101D800002F054FDA17B02F0A7FB02F04FFD217A87
:101D9000036841F080019B682172984702F046FD7C
:101DA000BDE8384002F0A3BBEF39FAFE422EE63F11
:101DB00070B504460323837202F038FDA27AA17B3A
:101DC00002F087FB002502F031FD03686E1C1B69E1
:101DD000984770B102F02AFD0368EDB25B6998473D
:101DE0002544E872A37A354623449B7ADB11E371DC
:101DF000E9E7E079003018BF012070BD10B5044656
:101E0000002303602046FFF7D3FF0028FAD123798F
:101E10000E2B0FD0102B19D00C2B21D1E37A03F00D
:101E20000F02237B43EA0223B3F5006FA8BFA3F59B
:101E3000805314E0E37A03F03F02237B43EA02235A
:101E4000B3F5005FA8BFA3F5804308E0E27A237BE7
:101E500043EA0223B3F5004FA8BFA3F58033236004
:101E6000206810BD00F05CBD38B50B4B8469054699
:101E700003607CB16368013B63605BB92368204603
:101E80009B689847A368013BA3601BB92368204661
:101E9000DB689847284638BD70660A0810B50446C6
:101EA000FFF7E2FF20461C2102F0EEFC204610BDA9
:101EB00038B51D46059B044603630023436302B106
:101EC000826419B104F1380001F04CFB049BE06915
:101ED0002365069BA4F84C50FF2BB8BFFF23A4F842
:101EE000543008B1FEF7E1F8B4F85400FEF7D9F821
:101EF000E06138BD2DE9FF410446174698460E467D
:101F0000002501F063FAE5610A4904F1380001F0A7
:101F1000FCFAFF2302930F2300932046A564CDF81B
:101F200004803B462A463146FFF7C2FF204604B0F4
:101F3000BDE8F08184670A084163704710B5044624
:101F4000204601F0D7F80028FAD0204601F087F8A3
:101F5000C0B210BD2DE9F0470546C4698A46FFF7B7
:101F6000EDFF4FF0010846462070EB69002793F81B
:101F7000009009F0F0092846FFF7E0FFEB69741CB8
:101F8000985500F07F0303FB08770306A4B2BFB2A5
:101F90004FEAC81801D52646EDE7631EB9F1300FA8
:101FA0008AF8003013D12846D5F81C80FFF7C6FF09
:101FB00008F804002846D5F81C80FFF7BFFFF41C82
:101FC0000236B6B2A4B208F80600022300E00023ED
:101FD0001B1B9EB2A3199BB29F420BD92846FFF749
:101FE000ADFFB5F85430A34284BFEB6918550134F6
:101FF000A4B2EFE7B5F85400A0422CBF2046002061
:10200000BDE8F087F7B507468E461E461D460024FC
:1020100005F07F0302A9ED09214418BF43F08003B6
:10202000013401F8043CE4B2002DF1D1C4F1040301
:10203000D11802F803E0A54206DA01A82B1B285CA0
:10204000134458710135F6E7721C2244384600F0FB
:10205000ADFF054600F0C4FC013478623444A8B2F8
:10206000231A5842584103B0F0BD10B50446C36965
:10207000E0221A70C36900225A70C169022200F07E
:1020800095FF204601F072F800F0AAFC6062A062A1
:1020900010BDF0B50D4602339BB26C1A15F8016BFA
:1020A000A4B23EB1B0F854709F4203D95C1CD65420
:1020B000A3B2F2E7191B0A44211202F8021C02F82B
:1020C000014C1846F0BD38B5054601F010F900285E
:1020D00014BF0124002402D1284601F047F820460D
:1020E00038BD00002DE9F04387B004468946174605
:1020F0001E46DDF83880FFF7E6FF0546002840F071
:10210000BD80A16C39B90346B4F84C20A16B2046C0
:1021100001F07EF909E0684602F01CF82B46B4F89D
:102120004C206946204601F03BF8002800F0A280D0
:10213000012323849DF84C30042B15D1524B186891
:102140009A880090ADF804209B79E26900988DF898
:102150000630C2F80500531DBDF804109DF8062096
:1021600099809A710C2312E06A46484BD4F81CC03F
:10217000186859681B7A03C213706B4603CBCCF8FE
:102180000500CCF8091013788CF80D300E23B8F147
:10219000000F0AD09DF840209DF83C10520142F0FB
:1021A000060242EAC102D2B200E002229DF84810C3
:1021B00009B902F0FD022FB116B942F0800201E028
:1021C00042F0C002E169581CCA54226DE169121242
:1021D0000A54E169206D9A1C88540333E269494628
:1021E0002046FFF756FFB8F1000F0BD00346E26917
:1021F00041462046FFF74DFFE2690346119920460C
:10220000FFF747FF67B10346E26939462046FFF70B
:1022100040FF2EB10346E26931462046FFF739FF01
:10222000431F9BB2E26910212046FFF7EBFE00F04E
:10223000D7FB4FF47A766062A062204600F05AFF26
:1022400040B900F0CDFBA36AC01A236D73439842D6
:10225000F3D90FE069462046FFF77CFE042809D138
:10226000E369DE7836B900F0BBFB0125A06284F893
:102270002C6004E0204600F079FF00E000252846AD
:1022800007B0BDE8F08300BFCC650A08D3650A0833
:102290007FB5042305930123049300230393029342
:1022A000019300931A46FFF71DFF07B05DF804FB8A
:1022B0002DE9F14F0D9E04468B4691469A469DF8B6
:1022C00028809DF82C509DF83070FFF7FCFE002808
:1022D0004BD0B4F854200021E06903F03CFF052303
:1022E000E26959462046FFF7D4FE6B1E012B12D837
:1022F000238CE26901339BB223841B121354411CCB
:10230000E369228C89B2023080B25A541EB1238C08
:102310005A1C22843380002291B283188A459BB2D2
:1023200009D9B4F8546001329E4204D919F8016009
:10233000E169CE54F0E7B8F1000F0CBF3021312134
:102340000FB141F00801022D02D141F0040103E078
:10235000012D08BF41F002012046053BE2699BB216
:1023600001B0BDE8F04FFFF74DBE01B0BDE8F08F02
:1023700038B504460D46FFF7A6FE90B1E369622228
:102380001A70E36902225A70E3692A129A70E369AB
:102390000422DD70E169204600F008FE003018BF1D
:1023A000012038BD38B504460D46FFF78CFE90B1CC
:1023B000E36972221A70E36902225A70E3692A12F1
:1023C0009A70E3690422DD70E169204600F0EEFDB9
:1023D000003018BF012038BD2DE9F04F83B000AFA9
:1023E0000446FFF770FE8146002800F0F68000F0FA
:1023F000F7FA226D4FF47A735343A26A0546821AA4
:102400009A4203D8626A821A934217D294F82C3007
:102410002BB1204600F0AAFE4FF00009DDE0E26992
:10242000C0211170E26920465370E169022200F078
:10243000BDFD01236562A56284F82C30204600F0C2
:1024400059FE002800F0C980F91D2046FFF782FDE3
:102450000246002800F0C180E369A562187800F008
:10246000F00130297DD1D4F830B0BBF1000F00F07D
:10247000B48097F807C0EA4603EB0C00817890F827
:1024800001E001EB0E2E1FFA8EFE0EF1080121F085
:102490000701ADEB010D684600218EB2B64506D9A5
:1024A0000CEB01061E44F67846540131F5E7002195
:1024B00000F80E101E780CF1030106F00606022E3D
:1024C000CCEB02021ED1714413F801801944497803
:1024D000CEEB020201EB08280CF105017144053A2C
:1024E0001944D847E36940221A70E3691FFA88F853
:1024F0005E70E3694FEA28229A70E369042283F848
:10250000038020E0042E24D1714413F80180194483
:102510004978CEEB020201EB08280CF10501714469
:10252000053A1944D847E36950221A70E369022238
:102530005A70E3691FFA88F84FEA28229A703246E7
:10254000E36983F80380E169204600F02FFD6562AE
:1025500005E0033A7144CEEB02021944D847D54650
:102560003BE0502908D19978DB78204603EB012124
:1025700089B2FFF7FDFE30E040290CD0602908D178
:102580009978DB78204603EB012189B2FFF70AFF37
:1025900023E070290DD1616BF9B1042A1DD110F02F
:1025A000060F1AD19878DB7803EB002080B28847B9
:1025B00013E0902911D0C0290AD1D0221A70E36902
:1025C00000225A70E1690222204600F0EFFC04E08C
:1025D000D02904BF002384F82C3048460C37BD4670
:1025E000BDE8F08F70B504460E461546FFF76BFD4B
:1025F000E8B1238C01339BB203B901232384238CDC
:10260000E2691B125371E369228C31469A71E269C7
:1026100007232046FFF73DFDE36982211D54031F78
:10262000E2692046BDE870409BB2FFF7EBBC70BD8D
:1026300010B50446FFF747FD10B12046FFF715FD22
:10264000E06908B1FDF731FD04F1380000F016FF34
:102650002046FFF709FC204610BD00F061B9036871
:10266000C9B29B68184701704270704700EB410186
:1026700048887047F8B51D46437807460C4616460D
:1026800003B301F0DDFD224901F018F801F0D8FD97
:102690000A22214601F04FF801F0D2FD1D4901F058
:1026A0000DF801F0CDFD0A22314601F072F801F07B
:1026B000C7FD194901F002F801F0C2FD0A222946BE
:1026C00001F069F802F0B2F8397801F005FF02F084
:1026D000ADF8A1000631FFF7C2FF02F0A7F83146BE
:1026E000FFF7BDFF02F0A2F8310AFFF7B8FF02F0D2
:1026F0009DF82946FFF7B3FF02F098F8290AFFF783
:10270000AEFF02F093F8BDE8F84001F0F0BE00BF64
:10271000DC650A08F1650A08F6650A08F0B540F6B6
:10272000FF7E7245A8BF724622EAE275ACB200EBAA
:102730004102548006460F461A4693B11DB9002344
:102740004FF4805204E0754505D14FF480530022C8
:10275000394630460AE0C4F57F630F339BB200224E
:1027600004E07545EBD0002DEFD02346BDE8F040E6
:10277000FFF780BF38B504460D4602F057F82178C0
:1027800001F0AAFE02F052F8036829469B689847B8
:1027900002F04CF801F0ABFE02F048F8012221787B
:1027A00001F097FE02F042F803685B699847C0B2F7
:1027B00038BD70B5064614460D4602F037F831783C
:1027C00001F08AFE02F032F8036829469B689847B8
:1027D00002F02CF8036821469B68984702F026F81F
:1027E000BDE8704001F083BE00221146FFF7E1BF53
:1027F00010B5044602F01AF801F05CFE2046BDE870
:102800001040FFF7F1BF000073B5437804460D4652
:102810008BB101F015FD3C4900F050FF01F010FDB7
:102820000646284602F0F4FD0223009302460B46BA
:10283000304601F069F8284602F0EAFD30A3D3E9FA
:10284000002302F039FE03F02FF901462F4803F070
:102850003DFB4FF07E5103F07BF9637805468BB169
:1028600001F0EEFC2A4900F029FF01F0E9FC0646E0
:10287000284602F0CDFD0223009302460B46304667
:1028800001F042F8284602F0C3FD224B002202F07C
:1028900061FC02F055F903F0E7F86378C6B253B172
:1028A00001F0CEFC1C4900F009FF01F0C9FC0A222E
:1028B000314600F042FF00212046FFF75BFF05464E
:1028C00000F06F0242F0100220460021FFF771FF76
:1028D00032462046FE21FFF76CFF2A4600212046A3
:1028E000FFF767FF052001F03DF8204665F05E0226
:1028F000D2B2002102B0BDE87040FFF75ABF00BF5E
:10290000CDCCCCCCCCCCEC3FFB650A0820BCBE4582
:1029100013660A080000E03F29660A0800F000B8C4
:1029200008B5024B1B681B68019308BDB00106087F
:1029300008B5024B1B689B68019308BDB0010608EF
:1029400008B5024B1B68DB68019308BDB00106089F
:1029500008B5024B1B681B69019308BDB00106084E
:1029600008B5024B1B685B69019308BDB0010608FE
:1029700008B5024B1B681B6A019308BDB00106082D
:1029800008B5024B1B685B6A019308BDB0010608DD
:1029900008B5024B1B68DB69019308BDB40106084A
:1029A00008B5024B1B681B6A019308BDB4010608F9
:1029B00008B5024B1B685B68019308BD9C010608C3
:1029C00008B5024B1B689B68019308BD9C01060873
:1029D00008B5024B1B68DB68019308BD9C01060823
:1029E00008B5024B1B685B69019308BD9C01060892
:1029F00008B5024B1B68DB6D019308BDB8010608E2
:102A000008B5024B1B685B6E019308BDB801060850
:102A100008B5024B1B689B6E019308BDB801060800
:102A200008B5024B1B68DB6E019308BDB8010608B0
:102A300008B5024B1B685B68019308BDD00106080E
:102A400008B5024B1B689B68019308BDD0010608BE
:102A500008B5024B1B681B69019308BDD00106082D
:102A600008B5024B1B685B69019308BDD0010608DD
:102A700008B5024B1B681B6B019308BDD00106080B
:102A800008B5024B1B68DB6E019308BDD001060838
:102A900008B5024B1B689B69019308BDC401060879
:102AA00008B5024B1B685B6A019308BDC4010608A8
:102AB00008B5024B1B689B6A019308BDC401060858
:102AC00008B5024B1B68DB6A019308BDC401060808
:102AD00008B5024B1B681B6B019308BDC4010608B7
:102AE00008B5024B1B685B6B019308BDC401060867
:102AF00008B5024B1B689B6B019308BDC401060817
:102B000008B5024B1B681B6C019308BDC401060885
:102B100008B5024B1B68DB6C019308BDAC010608CD
:102B200008B5024B1B685B6D019308BDAC0106083C
:102B300008B5024B1B689B6D019308BDAC010608EC
:102B400008B5024B1B68DB6D019308BDAC0106089C
:102B500008B5024B1B681B6E019308BDAC0106084B
:102B600008B5024B1B685B6E019308BDAC010608FB
:102B700008B5024B1B689B6E019308BDAC010608AB
:102B800008B5024B1B68DB6E019308BDAC0106085B
:102B900008B5024B1B681B6F019308BDAC0106080A
:102BA00008B5024B1B685B6F019308BDAC010608BA
:102BB00008B5034B1B68D3F88030019308BD0000B3
:102BC000AC01060808B5024B1B681B68019308BDE1
:102BD000BC01060808B5024B1B685B68019308BD81
:102BE000BC01060808B5024B1B689B68019308BD31
:102BF000BC01060808B5024B1B68DB68019308BDE1
:102C0000BC01060808B5024B1B681B69019308BD8F
:102C1000BC01060808B5024B1B681B6A019308BD7E
:102C2000BC01060808B5024B1B681B6B019308BD6D
:102C3000BC01060808B5024B1B685B6C019308BD1C
:102C4000BC01060808B5024B1B681B68019308BD50
:102C5000D801060808B5024B1B681B69019308BD23
:102C6000D801060808B5024B1B685B69019308BDD3
:102C7000D801060808B5024B1B689B69019308BD83
:102C8000D801060808B5024B1B68DB69019308BD33
:102C9000D801060808B5024B1B681B6A019308BDE2
:102CA000D801060808B5024B1B685B6C019308BD90
:102CB000C001060808B5024B1B689B6C019308BD58
:102CC000C001060808B5024B1B681B6D019308BDC7
:102CD000A801020808B5024B1B685B68019308BD98
:102CE000A401060808B5024B1B685B69019308BD87
:102CF000A401060808B5024B1B68DB6C019308BDF4
:102D0000A401060808B5024B1B685B6D019308BD62
:102D1000A401060808B5034B1B68D3F89030019353
:102D200008BD0000A401060808B5034B1B68D3F8D2
:102D30009C30019308BD0000A401060808B5024BB1
:102D40001B685B68019308BDC801060808B5024B03
:102D50001B689B68019308BDC801060808B5024BB3
:102D60001B68DB68019308BDC801060808B5024B63
:102D70001B681B69019308BDC801060808B5024B12
:102D80001B685B69019308BDC801060808B5024BC2
:102D90001B689B69019308BDC801060808B5024B72
:102DA0001B68DB69019308BDC801060808B5024B22
:102DB0001B681B6A019308BDC801060808B5024BD1
:102DC0001B681B6B019308BDC801060808B5024BC0
:102DD0001B685B6B019308BDC801060808B5024B70
:102DE0001B685B69019308BDCC01060808B5024B5E
:102DF0001B681B6A019308BDCC01060808B5024B8D
:102E00001B68DB6B019308BDCC01060808B5024BBB
:102E10001B681B68019308BDA001060808B5024B9A
:102E20001B685B68019308BDA001060808B5024B4A
:102E30001B689B68019308BDA001060808B5024BFA
:102E40001B68DB69019308BDA001060808B5024BA9
:102E50001B685B6A019308BDA001060808B5024B18
:102E60001B68DB6A019308BDA001060808B5024B88
:102E70001B681B6B019308BDA001060808B5024B37
:102E80001B68DB6B019308BDA0010608704710B5F5
:102E90000446102101F0F8FC204610BD70B5044630
:102EA0000E46074B0025036040F80C5FFFF7E0FD7E
:102EB00030462671FFF76CFDA560204670BD00BF4F
:102EC00044660A080079FFF76BBD014600228C209A
:102ED000FFF79EBD0020FFF7F8BF00004FF6FF721E
:102EE000034B0020187058809A80FFF7F3BE00BF94
:102EF0006203002010B5044603F08BF90138231853
:102F00002046984206D20278197800F8011B03F88F
:102F10000129F6E710BD70B50C46911E222920D874
:102F20002546294610B9234430220EE0B0FBF2F6C4
:102F300002FB1600C1B2092805F8011B94BF30310D
:102F4000573105F8011C3046EBE7994202D201F8EF
:102F5000012BFAE7002320460B70FFF7CBFF20463A
:102F600070BD002070BD38B5031E0C4615460BDA47
:102F7000B3F1004F4FF02D0214BF58421846012301
:102F80000A702A46194400E00123FFF7C4FF2046D7
:102F900038BD37B502AC036804F8011DDD6B0122B2
:102FA00047F230532146A84703B030BD10B4036840
:102FB000DC6B47F23053A44610BC604737B502AC17
:102FC000036804F8011DDD6B214613460122A84762
:102FD00003B030BD704770470020704710B50446FD
:102FE000142101F051FC204610BDFDF75CB810B56E
:102FF000044603689B689847A368013BA3602BB90C
:1030000023682046BDE81040DB68184710BD00006B
:1030100070B5044606464D69044B8C3544F8043BB4
:103020000FCD0FC42B683046237070BD08680A08A6
:1030300010B543690446B3F88620B3F884309A4249
:1030400005D06269B2F884301344187910BD036862
:103050001B6998470028F4D14FF0FF3010BD10B520
:1030600043690446B3F88620B3F884309A4208D006
:103070006269B2F88430591CA2F88410134418799C
:1030800010BD03681B6998470028F1D14FF0FF304D
:1030900010BDF8B543691746B3F88620B3F88430FD
:1030A00005469A420E4606D103681B69984710B937
:1030B0004FF0FF3414E069693046B1F88430B1F85C
:1030C00086401944E41ABC4228BF3C4604312246DB
:1030D00003F036F86A69B2F884302344A2F88430E9
:1030E0002046F8BD42690023A2F884304269A2F864
:1030F0008630704738B542690446B2F886301BB155
:10310000B2F884209A420CD0206901F0ADFA03682D
:10311000DB68984718B363691868FFF75BFD18B957
:103120001DE0FFF7DFFFEFE76069B0F886107F2949
:1031300015D8051DC1F18002002329440068FFF75E
:1031400061FD00280BDD6369B3F886200AB9A3F896
:1031500084206269B2F886301844A2F88600626959
:10316000B2F88630B2F88400181A38BD38B5436911
:1031700004461868FFF72EFD18B163691868FFF759
:1031800049FD6569FFF74EFD286060691122002145
:103190008C3002F0E0FF2046BDE83840FFF7A2BFC8
:1031A0002DE9F0411F4603688AB0DB6A06460C46EB
:1031B00015469847384601F057FA0368DB68984788
:1031C000002856D000972B46062201210220D6F86F
:1031D0001480FFF707FD2023C8F8000000270293A2
:1031E000736903971B6801200193234B02AA009384
:1031F00022493B46FFF766FD73691868FFF7EAFC52
:10320000002836D03046FFF76DFF0223ADF80830B6
:103210002B0A8DF80A30E3794FF4FA508DF80C3010
:10322000A3798DF80B508DF80D3063798DF80E3041
:1032300014F8043F8DF80F30FFF734FD736905462D
:10324000102202A91868FFF7D5FC80462846FFF730
:1032500029FD0FCC75698C350FC523682B70B8F12B
:10326000000F05D033683046DB6A9847384600E0E7
:1032700001200AB0BDE8F081BB660A08B4660A08FE
:1032800010B5436904461868FFF7A4FC08B900208C
:1032900010BD206901F0E8F90368DB689847002851
:1032A000F5D063691868FFF78DFCB0FA80F040092B
:1032B00010BD2DE9F3410025456004460E46174632
:1032C0009846FFF7DDFF60B160690195CDF8008099
:1032D0002B463A4631460068FFF7ACFC002803DA7B
:1032E00001E04FF0FF30606002B0BDE8F08138B51A
:1032F0000446FFF7C5FF00BB6369B3F88610B3F857
:103300008420914219D11868FFF764FC28B16369E1
:103310001868FFF757FC012801D000250EE023684C
:1033200020461B699847002814BF0125002505D1B8
:1033300023682046DB6A984700E00125284638BD0F
:1033400008B5FFF79DFF003018BF012008BD10B57C
:10335000044600230160A0F88430A0F8863088304D
:1033600000F0AAFE204610BD4FF47A7270B582605C
:10337000144A002343600260436183610446A02035
:103380000E46FCF78CFE054610B13146FFF7DFFF15
:103390001420FCF784FE034628B1012242608260BB
:1033A000094A05610260A0696561A36128B14368AB
:1033B000013B43600BB9FFF71AFE2046FFF792FE70
:1033C000204670BD70660A0854660A0810B50446A7
:1033D000FFF728FC01462046FFF7C6FF204610BD38
:1033E00010B504460068FFF7F5FB10B12068FFF741
:1033F00011FC204610BD10B504692046FFF7F0FF10
:1034000024B12046BDE81040FCF74DBE10BD0000C1
:103410002DE9F0431F4603688FB0DB6A06460D4670
:1034200090469847134801F0D2F800B302A800F084
:1034300043FE284602F0EDFE002481B200943B4694
:1034400003AA2846FFF736FC80B9336809ADD3F8E4
:103450002090094B03AC08930FCC0FC5236842465C
:103460002B7008A93B463046C84700E020460FB005
:10347000BDE8F083EC07002008680A0810B5044690
:103480000068FFF7CBFC204610BD10B5044600686D
:1034900008B1FFF7C3FC00232360A360636010BD85
:1034A00038B504460D4600680131FFF7BFFC10B186
:1034B00084E82100012038BD10B50368044613B12B
:1034C00043688B4207D22046FFF7EAFF20B1A3688A
:1034D0000BB922681370012010BD70B50E4611465D
:1034E00004461546FFF7E8FF18B92046FFF7CDFF61
:1034F00009E02A463146A560206802F021FE2268D4
:10350000A3680021D154204670BD38B5002304467D
:1035100003604360836003730D4639B1084602F0CF
:1035200078FE294602462046FFF7D7FF204638BDE1
:10353000884210B50B46044607D0096819B19A684D
:10354000FFF7CBFF01E0FFF7A0FF204610BD10B54D
:10355000044600230360436083600373FFF7E8FFC2
:10356000204610BD38B505460C4641B1084602F06C
:1035700050FE214602462846FFF7AFFF01E0FFF765
:1035800084FF284638BD10B5044600238AB0236066
:103590006360A3602373084601A9FFF7E4FC01A957
:1035A0002046FFF7DFFF20460AB010BD70B5044685
:1035B0000E4609B9002070BD6AB18368D518294646
:1035C000FFF77AFF0028F5D02068A3683146184439
:1035D00002F0FCFDA560012070BD10B58A68096885
:1035E0000446FFF7E3FF10B92046FFF74EFF2046E1
:1035F00010BD38B504460D4641B1084602F009FE3B
:10360000294602462046FFF7D1FF10B92046FFF7B2
:103610003CFF204638BD006808B102F07FBD70470E
:103620000EB4FFB509AC54F8047B054623463A4670
:10363000052102A80194FFF709FC06460B4928461C
:10364000FFF763FF31462846FFF736FF286830B1A1
:1036500023463A46711C0194FFF7F8FBA860284600
:1036600004B0BDE8F04003B0704700BF84670A08AB
:10367000F8B506460D468F180024BD420CD03368BD
:1036800015F8011B9B6830469847002801DB04446D
:10369000F3E7002C08BF04462046F8BD70B5054688
:1036A0000C46084649B102F0B4FD2B68024621469B
:1036B0002846BDE87040DB68184770BD08B5FFF7C5
:1036C000EDFF08BD03689B68184738B50D21054616
:1036D000FFF7F8FF0A2104462846FFF7F3FF2044CE
:1036E00038BD012A98BF0A2230B50B468BB00021A5
:1036F0008DF824100DF12304B3FBF2F505FB123312
:10370000DBB2092B94BF30333733DBB2214604F8E8
:1037100001392B46002DEFD1FFF7C0FF0BB030BDB4
:1037200010B422B90368C9B29B6810BC1847D2B262
:1037300010BCFFF7D6BFFFF7F3BF38B50546FFF75C
:10374000EFFF04462846FFF7C0FF204438BD2DE9AF
:10375000F04107460E4615462AB9BDE8F041036818
:10376000C9B29B6818470A2A02D1002901DA04E08D
:10377000D2B2BDE8F041FFF7B4BF2D21FFF7A2FFA1
:103780002A46044671423846FFF7ABFF2044BDE8A5
:10379000F081FFF7DCBF38B50546FFF7D8FF0446D8
:1037A0002846FFF792FF204438BD00002DE9F8437A
:1037B00019468046104617461E469DF8205002F0D6
:1037C00015F908B1474912E026F000444FF0FF32E6
:1037D000454B3846214602F009F968B94FF0FF32EF
:1037E000414B3846214602F0E3F828B93F494046AC
:1037F000FFF754FFBDE8F8834FF060423C4B38467A
:10380000314602F0E9F808B13A49F0E74FF060427A
:10381000394B3846314602F0C1F80028F4D1002275
:1038200000233846314602F0B9F838B12D21404620
:10383000FFF748FF06F10046044600E004462F4922
:103840004FF0000900205FFA89F39D4206D900225B
:103850002B4B01F05BFF09F10109F4E73A463346CF
:1038600001F078FC0F46064602F0FEF80A220146F7
:1038700081464046FFF735FF04447DB3484601F0DA
:10388000A5FD02460B463046394601F061FC06466E
:103890000F4640461B49FFF701FF0444184B002226
:1038A0003046394601F008FE0F46064602F0B4F8ED
:1038B0000A22014681464046FFF749FF0444484634
:1038C00001F094FD02460B463046394601F040FCBB
:1038D000013D15F0FF0506460F46DFD12046BDE845
:1038E000F88300BFCF660A08FFFFEF7FD9660A089A
:1038F000FFFFEF41D3660A08FFFFEFC10000E03F82
:1039000000002440D7660A0837B59DF81810054610
:103910000091FFF74BFF04462846FFF7D6FE2044F0
:1039200003B030BD00231A4619464068FFF726BA97
:103930000B68036013B15A6801325A607047000087
:10394000014A024B1A60704753670A086803002057
:10395000024B1A68024B1A60704700BF4C000020EF
:103960006C0300200021FFF7BDB910B50446FCF739
:10397000DCFB204610BD13B50B46044603C88DE89A
:10398000030093E8030084E803009DE8030083E854
:10399000030002B010BD0000034800238360034A07
:1039A000034900F063BF00BF70030020BC0000208B
:1039B0006B390A0808B5144B33B100F041FC0368B9
:1039C0001B699847002816DC104B33B100F0FAFC55
:1039D00003681B699847002810DC0D4B0BB1AFF34F
:1039E00000800C4B7BB100F067FC03681B699847B3
:1039F000002806DC08BDAFF30080E5E7AFF30080E8
:103A0000EBE7AFF3008008BD0000000000000000FD
:103A1000000000000000000008B5FFF7CBFFFEF734
:103A2000DFFF014B186008BD140800200248034A5C
:103A30000349121A02F084BB004002407C4002405D
:103A4000D06A0A0807B5002300931A466FF0770181
:103A5000FFF76AF903B05DF804FB000007B543887F
:103A60000A2B08D0502B09D1094B1B683BB103B07E
:103A70005DF804EB1847FFF7E5FF06E0002300932D
:103A80001A466FF07701FFF74FF903B05DF804FBBA
:103A90008003002038B5104C104D2368AB42104B0A
:103AA0000CBF012200221A7002D0FFF7BFFF256071
:103AB000FEF77EFF044602F057FB0A4B13B1204687
:103AC000AFF3008000210748FFF798F9BDE83840C0
:103AD00000210548FFF71EB9784002401E1C279AB6
:103AE00084030020000000005D3A0A0870470020AF
:103AF000704710B50446102100F0C6FE204610BDE8
:103B000008B508B1FFF7F5FF08BD002202604FF6C7
:103B10009C72828010B5B1F9044084808A8002686A
:103B20000C6804600A6010BD10B504460068FFF719
:103B300075F9204610BD38B5C468F4B12378022B5E
:103B400003D104F10C00FFF7EFFF656835B128469B
:103B5000FCF7EBFA1021284600F096FEA56835B177
:103B60002846FCF7E2FA1021284600F08DFE204698
:103B7000BDE83840142100F087BE38BD13B50446B7
:103B800091E8050000234B600B602060626001A893
:103B900001930093FDF78AFA204602B010BDF7B5F5
:103BA0000C4606460F4654F8043B02AD45F8083D66
:103BB000214601A8FFF7BCFE29463046FFF7DEFF8D
:103BC00001A8FDF773FA2046FDF770FA3846082180
:103BD00000F05AFE304603B0F0BD000038B50023B7
:103BE0000446036010200D46FCF759FA28B1012362
:103BF00043608360024BC56003602060204638BD8F
:103C0000EC670A08826810B50AB900F04EFEC36876
:103C1000BDE81040184708B5006800F11001FFF733
:103C2000F1FF08BD826810B50AB900F03EFEC36816
:103C3000BDE81040184708B5006800F11001FFF713
:103C4000F1FF08BD38B5002383608B6804460D463C
:103C50002BB102229847EB68E360AB68A360204673
:103C600038BD0000F0B589B004686846FFF74DFF25
:103C70004FF0020200238DF80830D4E84F3F002BAC
:103C800003D1C4E8412F0029F7D102D08DF80830C4
:103C900063E014F10C0503D069462846FFF735FFB1
:103CA000BFF35F8F01236370BFF35F8F04F10803DD
:103CB000002053E8006F43E80002002AF9D1BFF367
:103CC0005F8F002E49D0FFF715F820B12946304606
:103CD000FFF798FF3AE0314602A8FFF7B3FFE0682C
:103CE000B4F9105008B102F079FA06901020ADF83E
:103CF0001C50FCF7D4F90546E8B10027876018206E
:103D0000FCF7CDF9044688B10146876002A8FFF7A9
:103D100032FE049BA268A360059B0492E26806A998
:103D2000E36004F110000592FFF7EFFE0D4B2C60ED
:103D3000EB600D4BAB6006A8FFF7F6FE02A8FCF7A0
:103D4000F4F9002229460948FEF7DCFF3046FCF76B
:103D5000ECF91021304600F097FD6846FFF7E4FECD
:103D600009B0F0BD173C0A088D3E0A0811440A0844
:103D70002DE9F04F8BB006460F46904699469DF8C8
:103D800050A0FFF72BF807AD834630BB4FF62E73DC
:103D9000059005A92846ADF81830FFF7B6FE1420A7
:103DA000FCF77DF9044658B10223037001234370E8
:103DB000C0F804B0C0F808B029460C30FFF7A5FEE3
:103DC0003046214640F8044BFFF708FF2846FFF72E
:103DD000ABFE05A8FFF7A8FE52E000240C23142038
:103DE0006C60AC600793FCF75AF9014618B1047097
:103DF00044704460846004A80391FFF7EFFE224BF7
:103E000008200893FCF74BF9044628B1039B04A94A
:103E100040F8043BFFF78CFD00955FFA8AF34A46B1
:103E2000414638460994FEF7E1FF20B9039B5B78D1
:103E300003F0FF0283B1039B04A906A80593FFF7D3
:103E400077FD05A93046FFF799FE06A8FDF72EF984
:103E500004A8FDF72BF913E04FF69C7305A903A8FE
:103E60000592ADF81830FFF7FDFE05A8FFF75CFEE0
:103E700005A80999FFF793FE06A8FDF717F9DAE7F9
:103E800030460BB0BDE8F08FFD3F0A08022AF8B5B6
:103E9000044606D0032A17D0012A22D10B680360FA
:103EA0001FE018200E68FCF7FAF8054650B13146BD
:103EB000FFF7C8FE3069B6F9147008B102F08EF948
:103EC0002861AF8225600CE0046854B104F1100051
:103ED000FFF72AFE2046FCF728F91821204600F0BB
:103EE000D3FC0020F8BD38B5002383608B680446FE
:103EF0000D462BB102229847EB68E360AB68A360E4
:103F0000204638BD022A70B5044606D0032A11D0D7
:103F1000012A18D10B68036015E014200E68FCF725
:103F2000BEF8054620B13146FFF7DDFF337C2B7428
:103F3000256008E0046834B12046FCF7F6F8142147
:103F4000204600F0A1FC002070BD0000F0B50C463A
:103F5000BFF35F8F87B0002350E8006F40E8003266
:103F6000002AF9D1BFF35F8F002E3FD01846FEF72D
:103F7000C1FE074620B121463046FFF753FE2EE032
:103F8000314601A8FFF7AFFF237810208DF81430D9
:103F9000FCF785F80546D0B187601420FCF77FF860
:103FA000044678B18760014601A8FFF7E4FC039B53
:103FB000A268A360049B0392E268E3609DF814305A
:103FC000049223740A4B2C60EB600A4BAB6001A88F
:103FD000FCF7ABF8002229460748FEF793FE30466F
:103FE000FCF7A3F81021304600F04EFC07B0F0BDFE
:103FF000373C0A08053F0A0811440A0830B5044650
:1040000085B00D4668461146FFF7C9FD7CB124B264
:1040100028460DB102F0E2F8029002A96846ADF818
:104020000C40FFF71FFE02A8FFF77EFD1DE04FF0DA
:10403000010200988DF80840D0E84F3FA34203D119
:10404000C0E8412F0029F7D102D08DF808300CE0EC
:1040500010F10C014FF0010318BF0373BFF35F8F22
:10406000043000F8033CFFF771FF01A8FDF71EF8CC
:1040700005B030BD704710B50446182100F004FCAF
:10408000204610BDF8B50F4600F10806051D0024B6
:1040900016F8011D0A223846FFF74DFBAE420444D4
:1040A00007D0002CF4D02E213846FFF70BFB044438
:1040B000EEE72046F8BD000010B50446044B11227F
:1040C00040F8043B002102F046F8204610BD00BF36
:1040D00008680A080346074A10B543F8042B01F1A3
:1040E000100251F8044B914243F8044BF9D10A787D
:1040F0001A7010BD08680A08024A41600260042272
:104100000275704708680A0810B59DF8084044EA2F
:10411000032343EA024242EA01610423416003753A
:1041200010BD000037B5044D05609DF8185000958E
:10413000FFF7EAFF03B030BD08680A0837B50D780D
:104140008B784A78C97800912946FFF7DDFF03B0E4
:1041500030BD000010B50446024B0360FFF7EEFFD0
:10416000204610BD08680A0841747047704708B5BA
:104170000021007CFEF77EFD30EA200028BF4FF0D2
:10418000FF3008BD08B50121007CFEF773FD30EA61
:10419000200028BF4FF0FF3008BD08B5007CFEF7B7
:1041A00061FD20EAE07008BD08B5007CFEF752FD15
:1041B00020EAE07008BD007CFEF76CBD10B5044637
:1041C000142100F061FB204610BD38B50446007C88
:1041D0000D46FEF747FD002801DC607C28B129462A
:1041E000207CFEF74FFD20EAE07038BD10B5044694
:1041F000002363604FF47A73A360054B0846236085
:104200000123217463741146FEF71CFD204610BD86
:104210001C680A0810B504461422002101F09BFF17
:10422000054B20466360054BE36040F20113238198
:104230008123238210BD00BF0D0400208C030020C9
:1042400030B50E4D87B001A8FFF7E4FF296811F0E3
:10425000010410D12846FBF72AFF60B101AA2146CC
:104260000748FFF7C3FF2846FBF726FF054A064924
:10427000034800F0FBFA024807B030BD8803002075
:1042800010050020BC0000206D410A0810B504464E
:104290001422002101F05FFF054B20466360054BAF
:1042A000E36040F2011323818123238210BD00BF0C
:1042B000C00500202805002010B50E4C86B001A8CE
:1042C000FFF7E4FF2368DB0710D42046FBF7EFFE7F
:1042D00060B101AA01210848FFF788FF2046FBF7DB
:1042E000EBFE064A0649044800F0C0FA024806B050
:1042F00010BD00BF24050020AC050020BC0000203C
:104300006D410A08FEF73CBBFEF732BB70474174B3
:10431000704708B5007CFEF7F3FB20EAE07008BDAB
:1043200008B5007CFEF7C4FB20EAE07008BD08B5C4
:10433000007CFEF7CDFB30EA200028BF4FF0FF30B5
:1043400008BD08B5007CFEF7BBFB30EA200028BFA3
:104350004FF0FF3008BD007CFEF7C2BB10B504462D
:10436000142100F091FA204610BD70B5457C04463A
:104370000E4625B9007CFEF7C3FB002805DD31465B
:10438000207CBDE87040FEF78BBB284670BD000066
:1043900010B5044608461146002262604FF47A7256
:1043A000A260054A20742260012262741A46FEF758
:1043B0006FFB204610BD00BF4C680A08007CFEF76A
:1043C00097BB000038B50C4D296811F0010411D1DC
:1043D0002846FBF76CFE68B1084A2146084B09489D
:1043E000FFF7D6FF2846FBF767FE074A074905484F
:1043F00000F03CFA034838BD5C070020600700204D
:10440000D8060020C4060020BC0000200D430A0886
:1044100010B5836804460BB900F047FAC3689847A3
:10442000A3681BB103222146204698472046BDE8D9
:104430001040102100F028BA7047F8B5064615461E
:104440000C468F18BC4206D0336814F8011B9B68D9
:1044500030469847F6E72846F8BD0022007CFEF774
:1044600077BB0021007CFEF77BBB0021007CFEF7C0
:104470007FBB0021007CFEF783BB0021007CFEF7A0
:1044800087BB10B50446142100F0FEF9204610BD8C
:1044900010B5044608464FF47A73A360044B00211C
:1044A000207461602360FEF783FB204610BD00BFCF
:1044B0007C680A0800231A461946007CFEF728BBD0
:1044C00013B50024007C0094FEF72AFBC0B202B0B2
:1044D00010BD0123FFF7F4BF0022007CFEF728BBCC
:1044E000C9B2FFF7F9BF0022007CFEF729BB01210A
:1044F000FFF7F9BF0021007CFEF752BB00221146F6
:104500004068FEF733BCF0B5164689B011220F465D
:104510000446002103A801F01EFE304601F079FE9A
:104520000025009581B27B6803AA3046FEF7C2FBE6
:1045300020B129462046FFF7DFFD03E003A920460E
:10454000FFF7C8FD204609B0F0BD002211464068C3
:10455000FEF72CBC002211464068FEF737BC002253
:104560004068FEF72BBC002281F001014068FEF795
:1045700015BC00231A4619464068FEF707BC002206
:1045800011464068FEF7E2BB002202214068FEF7B8
:10459000E5BB00231A464068FEF7D0BB024B04225D
:1045A0005A60024A1A607047E4070020A4680A08AB
:1045B00000231A464068FEF7C1BB00220221406872
:1045C000FEF7CCBB002211464068FEF7BFBB0022BD
:1045D00011464068FEF7CABB00231A4619464068D8
:1045E000FEF7CCBB00231A4619464068FEF7CEBB47
:1045F000002281F001014068FEF7D0BB0022406834
:10460000FEF7DCBB002211464068FEF7DFBB00224C
:1046100011464068FEF7CABB70B516468EB0044618
:1046200008A8FFF749FD1122002103A801F093FD1E
:10463000304601F0EEFD00250A4B009581B25B6823
:1046400003AA3046FEF736FB20B129462046FFF785
:1046500053FD03E003A92046FFF73CFD20460EB0C2
:1046600070BD00BFE4070020034B044A04280CBFC0
:1046700010461846704700BFEC070020E4070020F2
:10468000024B034A1A6000225A607047EC07002070
:10469000D8680A0810B504460F48FEF713FC28B185
:1046A000A4F10D03022B01D8002010BD00F0BEF8CC
:1046B000FFF720FF08B1012CF6D9FFF783FEFFF7C3
:1046C0007DFE18B1A4F11203012BEDD9172C8CBF7C
:1046D0000020012010BD00BFF4070020172838B5C6
:1046E00004460D460AD8FF2908D0FFF7D3FF28B1AA
:1046F00029462046BDE83840FEF71AB938BD38B51E
:1047000004460D46FEF71CF9FF2810D0062804D8F1
:104710004D2323FA00F0C30709D42046FFF7BAFF60
:1047200028B129462046BDE83840FEF711B938BD0A
:1047300070B50C4C0C4E0D4D00212046FEF7AEFB23
:1047400020460B4C3246294600F090F801212046C5
:10475000FEF7A4FB324629462046BDE8704000F033
:1047600085B800BFF4070020BC0000208D2E0A0889
:104770000408002030B504461B4D89B02068FEF7C0
:104780001FF9FEF72DF92B682268C01A9042F5D365
:10479000236833B3E36823B3251D2369284698476C
:1047A000002304A9684602930693FFF7E4F8029BEE
:1047B000069A06930292039B079A294604A803923D
:1047C0000793FFF7D8F8069BE268E360079B069221
:1047D000226904A823610792FBF7A7FC6846FBF750
:1047E000A4FC09B030BD00BF1408002008B5FFF7D5
:1047F000C1FFBDE808400020FEF732B913B5084CF0
:1048000000231A46194600932046FFF78BFC2046EA
:10481000044A054902B0BDE8104000F027B800BFC7
:1048200018080020BC00002075400A0838B50B4D60
:10483000296811F001040FD12846FBF738FC58B164
:1048400021460748FFF724FE2846FBF735FC054ABA
:104850000549034800F00AF8014838BD3008002037
:1048600034080020BC00002039440A080B460146E9
:10487000184601F057BC0000024B1868BFF35F8F69
:10488000704700BF48080020FBF70DBC10B500289A
:1048900014BF044601242046FEF7B8FA20B9FFF7FA
:1048A000EBFF08B18047F6E710BD08B5FEF7D6FA72
:1048B000184B1A68D1075CBF01221A60164B1A68A0
:1048C000D2075CBF01221A60144B1A68D0075CBF84
:1048D00001221A60124B1A68D1075CBF01221A60CC
:1048E000104B1A68D2075CBF01221A600E4B1A687F
:1048F000D0075CBF01221A600C4B1A68D1075CBF5D
:1049000001221A600A4B1A68D2075CBF01221A60A2
:10491000704700BF6808002064080020600800207D
:104920005C0800205808002054080020500800208F
:104930004C080020244B1A68D0075CBF01221A6083
:10494000224B1A68D1075CBF01221A60204B1A68FB
:10495000D2075CBF01221A601E4B1A68D0075CBFE9
:1049600001221A601C4B1A68D1075CBF01221A6031
:104970001A4B1A68D2075CBF01221A60184B1A68DA
:10498000D0075CBF01221A60164B1A68D1075CBFC2
:1049900001221A60144B1A68D2075CBF01221A6008
:1049A000124B1A68D0075CBF01221A60104B1A68BC
:1049B000D1075CBF01221A600E4B1A68D2075CBF98
:1049C00001221A60704700BF980800209408002058
:1049D000900800208C08002088080020840800200F
:1049E000800800207C08002078080020740800203F
:1049F000700800206C080020244B1A68D0075CBFA8
:104A000001221A60224B1A68D1075CBF01221A608A
:104A1000204B1A68D2075CBF01221A601E4B1A682D
:104A2000D0075CBF01221A601C4B1A68D1075CBF1B
:104A300001221A601A4B1A68D2075CBF01221A6061
:104A4000184B1A68D0075CBF01221A60164B1A680F
:104A5000D1075CBF01221A60144B1A68D2075CBFF1
:104A600001221A60124B1A68D0075CBF01221A603B
:104A7000104B1A68D1075CBF01221A600E4B1A68EE
:104A8000D2075CBF01221A60704700BFC80800202F
:104A9000C4080020C0080020BC080020B80800207E
:104AA000B4080020B0080020AC080020A8080020AE
:104AB000A4080020A00800209C080020184B1A68B9
:104AC000D1075CBF01221A60164B1A68D2075CBF7F
:104AD00001221A60144B1A68D0075CBF01221A60C9
:104AE000124B1A68D1075CBF01221A60104B1A687A
:104AF000D2075CBF01221A600E4B1A68D0075CBF58
:104B000001221A600C4B1A68D1075CBF01221A609F
:104B10000A4B1A68D2075CBF01221A60704700BFB7
:104B2000E8080020E4080020E0080020DC0800205D
:104B3000D8080020D4080020D0080020CC0800208D
:104B4000C1F30A522DE9F843A2F2FF36132E0B46A9
:104B500004460D46884607461CDC002E3FDB3A4AD9
:104B6000864642FA06F901EA0902024317D034A345
:104B7000D3E9002300F0EEFA0022002300F02CFF1E
:104B800020B1002D40DB28EA0905002738462946D8
:104B9000BDE8F883332E06DDB6F5806F2FD02046B2
:104BA0001946BDE8F883A2F213424FF0FF3929FA03
:104BB00002F910EA090FF2D021A3D3E9002300F093
:104BC000C9FA0022002300F007FF0028DED0002DE4
:104BD00020DB454627EA090738462946D8E718A3C7
:104BE000D3E9002300F0B6FA0022002300F0F4FE1F
:104BF0000028CBD0002D18DB00273D46C6E7024633
:104C00000B4600F0A7FACCE74FF4801343FA06F600
:104C1000B044B8E7142E10D00123C6F1340603FACD
:104C200006F6371928BF9844D3E725F00042074B12
:104C3000224318BF1D460027A8E705F10108C8E771
:104C40009C7500883CE4377EFFFF0F000000F0BF3A
:104C50002DE9F0418AB004460D4600F079F8374B53
:104C6000064693F900800F46B8F1FF3F0DD022466B
:104C70002B462046294600F0B9FE30B90022002319
:104C80002046294600F0A8FE20B1304639460AB039
:104C9000BDE8F0812A4B0890CDE90245CDE90445F5
:104CA0000193B8F1000F19D1264F4FF0604620460E
:104CB000294600220023CDE9066700F065FE0028A2
:104CC00034D002230093684600F036FAA8B1089B5E
:104CD000C3B9DDE906010AB0BDE8F0811A4F00262C
:104CE0002046294600220023CDE9066700F04CFE4D
:104CF00068B1022398450093E5D1FEF7BFF822235F
:104D00000360E4E7FEF7BAF8089B0360E1E70123DC
:104D1000B8F1020F00930BD1FEF7B0F82123036026
:104D20000A4800F00BFACDE90601D0E70123009311
:104D3000684600F001FA0028F2D1EDE750000020AB
:104D400008690A08FFFFEFC70000F0FF0C690A08B6
:104D50002DE9F04FB1F5801F85B006460F460B4692
:104D60005ADA024621F00044224300F0F78000297D
:104D7000C0F279810022D64B00F09EFB0B460F4615
:104D8000D44906468B426FF0350249DCC3F3130564
:104D900005F5152404F6647404F4801E8EF07F512A
:104DA00081F440111B15A3F2FF3341EA05079C185B
:104DB00030460022C84B394604EB1E5400F0C8F9B7
:104DC000AB1CC3F31303022B82468B464FF0000249
:104DD0002FDC002300F0D8FD002800F0C880002C54
:104DE00000F04A81204600F001FBA5A3D3E900238F
:104DF00006460F4600F060FBA3A3D3E90023044658
:104E00000D463046394600F057FB02460B46204619
:104E1000294600F09FF909E0AE4900228B42B5DD3A
:104E200032463B463046394600F094F905B0BDE8BD
:104E3000F08F4FF0804300F08DF902460B4650464C
:104E4000594600F063FC064620460F4600F0CEFAB5
:104E50003246CDE900013B4630463946CDE902678E
:104E600000F02AFB02460B468046894600F024FBF0
:104E700087A3D3E9002306460F4600F01DFB86A357
:104E8000D3E9002300F066F932463B4600F014FBFC
:104E900083A3D3E9002300F05DF932463B4600F0DE
:104EA0000BFB81A3D3E9002300F054F942464B46A3
:104EB00000F002FB7EA3D3E90023804689463046FA
:104EC000394600F0F9FA7CA3D3E9002300F042F957
:104ED00032463B4600F0F0FA79A3D3E9002300F014
:104EE00039F932463B4600F0E7FA0B46024649469E
:104EF000404600F02FF9A5F5C223C5F5D725A3F24A
:104F00007A4351351D43002D8046894656DD0022E7
:104F1000724B5046594600F0CFFA52465B4600F0BD
:104F2000CBFA06460F46002C68D132463B46404637
:104F3000494600F00FF9DDE9022300F0BDFA024610
:104F40000B463046394600F003F902460B46504600
:104F5000594600F0FDF805B0BDE8F08F00220023AF
:104F600000205F4900F0D2FB05B0BDE8F08F56A3EA
:104F7000D3E900235046594600F09EFA02460B46FC
:104F80000020564900F0E4F8524606460F465B46BC
:104F90005046594600F090FA02460B4630463946D4
:104FA00000F08AFA06460F46002C40F09B8002462D
:104FB0000B465046594600F0CBF837E7002C00F07E
:104FC000A5802FA3D3E90023DDE9000100F074FAE6
:104FD00042464B4604460D465046594600F0B8F846
:104FE000DDE9022300F068FA27A3D3E9002306468F
:104FF0000F46DDE9000100F05FFA21E020A3D3E9CC
:105000000023DDE9000100F057FA32463B46044632
:105010000D464046494600F09DF8DDE9022300F0C8
:105020004BFA19A3D3E9002380468946DDE9000144
:1050300000F042FA02460B464046494600F08AF824
:1050400002460B463046394600F082F852465B462F
:1050500000F07EF802460B462046294600F078F81C
:1050600005B0BDE8F08F02460B4600F071F8002253
:10507000002300F04BFBD9E600200021D6E600BF5C
:105080000000E0FE422EE63F763C7935EF39EA3DFE
:1050900044523EDF12F1C23FDE03CB966446C73F67
:1050A000599322942449D23F935555555555E53F80
:1050B0009FC678D0099AC33FAF788E1DC571CC3F8B
:1050C00004FA97999999D93F555555555555D53F56
:1050D00000005043FFFFEF7F0000F03F0000E03F83
:1050E000000050C3204600F081F90FA3D3E900234C
:1050F0008046894600F0E0F90DA3D3E90023044679
:105100000D464046494600F0D7F999E702460B465E
:105110005046594600F01CF8DDE9022300F0CCF9B6
:1051200013E700BFAFF300800000E0FE422EE63F31
:10513000763C7935EF39EA3D00207047002001497F
:10514000704700BF0000F87F81F0004102E000BF1F
:1051500083F0004330B54FEA41044FEA430594EA37
:10516000050F08BF90EA020F1FBF54EA000C55EA72
:10517000020C7FEA645C7FEA655C00F0E2804FEA43
:105180005454D4EB5555B8BF6D420CDD2C4480EA25
:10519000020281EA030382EA000083EA010180EA55
:1051A000020281EA0303362D88BF30BD11F0004FA3
:1051B0004FEA01314FF4801C4CEA113102D04042D9
:1051C00061EB410113F0004F4FEA03334CEA133314
:1051D00002D0524263EB430394EA050F00F0A7802C
:1051E000A4F10104D5F1200E0DDB02FA0EFC22FA27
:1051F00005F2801841F1000103FA0EF2801843FA1B
:1052000005F359410EE0A5F120050EF1200E012A0B
:1052100003FA0EFC28BF4CF0020C43FA05F3C01849
:1052200051EBE37101F0004507D54FF0000EDCF1C2
:10523000000C7EEB00006EEB0101B1F5801F1BD36B
:10524000B1F5001F0CD349085FEA30004FEA3C0C6F
:1052500004F101044FEA445212F5800F80F09A8065
:10526000BCF1004F08BF5FEA500C50F1000041EB69
:10527000045141EA050130BD5FEA4C0C404141EB6D
:10528000010111F4801FA4F10104E9D191F0000F94
:1052900004BF01460020B1FA81F308BF2033A3F117
:1052A0000B03B3F120020CDA0C3208DD02F1140C0E
:1052B000C2F10C0201FA0CF021FA02F10CE002F149
:1052C0001402D8BFC2F1200C01FA02F120FA0CFC42
:1052D000DCBF41EA0C019040E41AA2BF01EB04518B
:1052E000294330BD6FEA04041F3C1CDA0C340EDC89
:1052F00004F11404C4F1200220FA04F001FA02F3CC
:1053000040EA030021FA04F345EA030130BDC4F189
:105310000C04C4F1200220FA02F001FA04F340EA7E
:105320000300294630BD21FA04F0294630BD94F02F
:10533000000F83F4801306BF81F480110134013D16
:105340004EE77FEA645C18BF7FEA655C29D094EA87
:10535000050F08BF90EA020F05D054EA000C04BF05
:105360001946104630BD91EA030F1EBF00210020F0
:1053700030BD5FEA545C05D14000494128BF41F08F
:10538000004130BD14F580043CBF01F5801130BDF3
:1053900001F0004545F0FE4141F470014FF000007E
:1053A00030BD7FEA645C1ABF194610467FEA655C2F
:1053B0001CBF0B46024650EA013406BF52EA0335D1
:1053C00091EA030F41F4002130BD00BF90F0000FBF
:1053D00004BF0021704730B54FF4806404F13204FB
:1053E0004FF000054FF0000150E700BF90F0000FB4
:1053F00004BF0021704730B54FF4806404F13204DB
:1054000010F0004548BF40424FF000013EE700BFAA
:1054100042004FEAE2014FEA31014FEA02701FBF3A
:1054200012F07F4393F07F4F81F06051704792F00C
:10543000000F14BF93F07F4F704730B54FF4607486
:1054400001F0004521F0004120E700BF50EA0102D1
:1054500008BF704730B54FF000050AE050EA01027E
:1054600008BF704730B511F0004502D5404261EBEE
:1054700041014FF4806404F132045FEA915C3FF42F
:10548000DCAE4FF003025FEADC0C18BF03325FEAC8
:10549000DC0C18BF033202EBDC02C2F1200300FA7D
:1054A00003FC20FA02F001FA03FE40EA0E0021FAA2
:1054B00002F11444C1E600BF70B54FF0FF0C4CF48C
:1054C000E06C1CEA11541DBF1CEA135594EA0C0F42
:1054D00095EA0C0F00F0DEF82C4481EA030621EA7D
:1054E0004C5123EA4C5350EA013518BF52EA0335B8
:1054F00041F4801143F4801338D0A0FB02CE4FF06A
:105500000005E1FB02E506F00042E0FB03E54FF099
:105510000006E1FB03569CF0000F18BF4EF0010E91
:10552000A4F1FF04B6F5007F64F5407404D25FEA8D
:105530004E0E6D4146EB060642EAC62141EA555140
:105540004FEAC52040EA5E504FEACE2EB4F1FD0C82
:1055500088BFBCF5E06F1ED8BEF1004F08BF5FEA00
:10556000500E50F1000041EB045170BD06F00046B2
:1055700046EA010140EA020081EA0301B4EB5C045F
:10558000C2BFD4EB0C0541EA045170BD41F4801157
:105590004FF0000E013C00F3AB8014F1360FDEBF7C
:1055A000002001F0004170BDC4F10004203C35DA58
:1055B0000C341BDC04F11404C4F1200500FA05F3DB
:1055C00020FA04F001FA05F240EA020001F000427C
:1055D00021F0004110EBD37021FA04F642EB0601F2
:1055E0005EEA430E08BF20EAD37070BDC4F10C041C
:1055F000C4F1200500FA04F320FA05F001FA04F2E0
:1056000040EA020001F0004110EBD37041F10001CB
:105610005EEA430E08BF20EAD37070BDC4F12005D6
:1056200000FA05F24EEA020E20FA04F301FA05F23E
:1056300043EA020321FA04F001F0004121FA04F2E6
:1056400020EA020000EBD3705EEA430E08BF20EAB6
:10565000D37070BD94F0000F0FD101F000464000F0
:1056600041EB010111F4801F08BF013CF7D041EA72
:10567000060195F0000F18BF704703F00046520076
:1056800043EB030313F4801F08BF013DF7D043EA47
:105690000603704794EA0C0F0CEA135518BF95EAFD
:1056A0000C0F0CD050EA410618BF52EA4306D1D184
:1056B00081EA030101F000414FF0000070BD50EAA3
:1056C000410606BF1046194652EA430619D094EA2D
:1056D0000C0F02D150EA013613D195EA0C0F05D117
:1056E00052EA03361CBF104619460AD181EA03016B
:1056F00001F0004141F0FE4141F470014FF0000023
:1057000070BD41F0FE4141F4780170BD70B54FF0BD
:10571000FF0C4CF4E06C1CEA11541DBF1CEA13553D
:1057200094EA0C0F95EA0C0F00F0A7F8A4EB05041F
:1057300081EA030E52EA03354FEA013100F0888016
:105740004FEA03334FF0805545EA131343EA1263DF
:105750004FEA022245EA111545EA10654FEA002694
:105760000EF000419D4208BF964244F1FD0404F54D
:10577000407402D25B084FEA3202B61A65EB0305A9
:105780005B084FEA32024FF480104FF4002CB6EB66
:10579000020E75EB030E22BFB61A754640EA0C00E6
:1057A0005B084FEA3202B6EB020E75EB030E22BF26
:1057B000B61A754640EA5C005B084FEA3202B6EB67
:1057C000020E75EB030E22BFB61A754640EA9C0026
:1057D0005B084FEA3202B6EB020E75EB030E22BFF6
:1057E000B61A754640EADC0055EA060E18D04FEAB4
:1057F000051545EA16754FEA06164FEAC30343EA54
:1058000052734FEAC2025FEA1C1CC0D111F4801F20
:105810000BD141EA00014FF000004FF0004CB6E719
:1058200011F4801F04BF01430020B4F1FD0C88BFB8
:10583000BCF5E06F3FF6AFAEB5EB030C04BFB6EBC3
:10584000020C5FEA500C50F1000041EB045170BDB6
:105850000EF0004E4EEA113114EB5C04C2BFD4EBE3
:105860000C0541EA045170BD41F480114FF0000E67
:10587000013C90E645EA060E8DE60CEA135594EAE3
:105880000C0F08BF95EA0C0F3FF43BAF94EA0C0FE6
:105890000AD150EA01347FF434AF95EA0C0F7FF45B
:1058A00025AF104619462CE795EA0C0F06D152EAAF
:1058B00003353FF4FDAE1046194622E750EA410693
:1058C00018BF52EA43067FF4C5AE50EA41047FF4A4
:1058D0000DAF52EA43057FF4EBAE12E74FF0FF3C09
:1058E00006E000BF4FF0010C02E000BF4FF0010CDA
:1058F0004DF804CD4FEA410C7FEA6C5C4FEA430C53
:1059000018BF7FEA6C5C1BD001B050EA410C0CBFA1
:1059100052EA430C91EA030F02BF90EA020F002003
:10592000704710F1000F91EA030F58BF994208BF6A
:1059300090422CBFD8176FEAE37040F00100704727
:105940004FEA410C7FEA6C5C02D150EA013C07D17E
:105950004FEA430C7FEA6C5CD6D152EA033CD3D0C9
:105960005DF8040B704700BF8446104662468C46C3
:105970001946634600E000BF01B5FFF7B7FF0028F6
:1059800048BF10F1000F01BD4DF808EDFFF7F4FF1F
:105990000CBF012000205DF808FB00BF4DF808EDAA
:1059A000FFF7EAFF34BF012000205DF808FB00BFCD
:1059B0004DF808EDFFF7E0FF94BF012000205DF8EF
:1059C00008FB00BF4DF808EDFFF7CEFF94BF0120A4
:1059D00000205DF808FB00BF4DF808EDFFF7C4FF9D
:1059E00034BF012000205DF808FB00BF4FEA410CE6
:1059F0007FEA6C5C02D150EA013C0AD14FEA430CC9
:105A00007FEA6C5C02D152EA033C02D14FF0000005
:105A100070474FF0010070474FEA410212F5001243
:105A200015D211D56FF47873B3EB625212D94FEAE5
:105A3000C12343F0004343EA505311F0004F23FACF
:105A400002F018BF404270474FF00000704750EA24
:105A5000013005D111F0004008BF6FF000407047E1
:105A60004FF00000704700BF4A0011D212F500123B
:105A700011D20DD56FF47873B3EB62520ED44FEAA6
:105A8000C12343F0004343EA505323FA02F0704726
:105A90004FF00000704750EA013002D14FF0FF3064
:105AA00070474FF0000070474FEA4102B2F1E04307
:105AB00024BFB3F5001CDCF1FE5C0DD901F0004CF5
:105AC0004FEAC0024CEA5070B2F1004F40EB830045
:105AD00008BF20F00100704711F0804F21D113F171
