:02000004080AE8
:1000000000000A08BC6C0A08000006000600050192
:08001000040279050000000064
:04001800F8630A0877
:1000200009480A4908B5884205D0094A824202D0E7
:10003000121A06F0CDF80748074A0021121A06F0F6
:10004000D2F8064808BD00BF00000020E46B0A0893
:10005000B0000020B0000020B0080020B008002050
:1000600070B503F05FFD074B074C1E46E41AA40869
:100070000025A54204D056F8253098470135F8E709
:1000800070BD00BF206B0A08746B0A0800F024BF23
:1000900008B501F01DF9BDE8084003F005BD02F008
:1000A000E1BE02F0DFBE02F0E5BE02F0E3BE007882
:1000B000B0FA80F040097047012303707047704721
:1000C00003681847012A02D0022A02D004E0016026
:1000D00002E00B6800B103600020704738B5064DA0
:1000E000002404F1B0002844103C03F0F3F914F1AB
:1000F000C00FF6D138BD00BFD401002010B50123D8
:100100000374836804460BB1C06806E0006828B138
:1001100083680BB904F011FCC3689847012363742A
:100120000020BDE8104002F0D7BC10B5836804463B
:1001300013B1032201469847204610BD38B5044646
:1001400070B1056835B12846FFF7EFFF102128464A
:1001500004F0E2FB2046BDE83840142104F0DCBB8B
:1001600038BD10B543690446BBB1586802F094FC31
:1001700078B963695A7C12B9586802F095FC6369D2
:10018000586802F099FC60690023636128B1FFF7A9
:10019000D5FF606908B1FFF7D1FF201DFFF7C5FF4C
:1001A000204610BD08B502F047FC014B186008BDA1
:1001B000D807002030B51D4687B0002304460493BD
:1001C00022B1214B02920593204B04930023E3605C
:1001D000049B21603BB1022202A9201D9847059B88
:1001E0002361049BE3601A49142004F097FB30B1AB
:1001F00000230374036043608360C36043746061E1
:10020000A0B1144B0922836063691349DC60606903
:10021000124B8DE82100043002F036FC30B96369DE
:100220001B7C4BB9012002F0F7FBF8E76069002363
:10023000636108B1FFF782FFFFF7B4FF02A8FFF781
:1002400074FF204607B030BDC1000A08C5000A0887
:10025000AC690A087D480A082C640A08FD000A08EF
:1002600000B500218DB0072004F091FAFFF79AFF46
:100270002149684603F075F9694608A803F093F927
:100280001E4904A803F06DF904A908A803F0D5F9E4
:1002900001681B4802F088F904A803F01BF908A8BC
:1002A00003F018F9684603F015F91548154901F0EF
:1002B000CFFF134802F093F8D0B10121072004F0DA
:1002C00066FA0D4908A803F04CF908A904A803F040
:1002D0006AF90D4904A803F0BCF902220168084834
:1002E00002F00CFB04A803F0F5F808A803F0F2F8FC
:1002F0000DB05DF804FB00BF33640A0837640A08D8
:1003000038010020BF000A083E640A0870B505469F
:1003100092B021480C4602F062F8002839D01F49FB
:100320000AA803F01EF90AA906A803F03CF91C4923
:1003300006A803F08EF906461A490EA803F011F933
:100340000EA9304603F079F9154903F082F92946E0
:1003500003F073F90546204605F0A3FF0DF11603DF
:1003600003930121022200238DE80E00034622465A
:100370002968094802F028F90EA803F0ABF806A88E
:1003800003F0A8F80AA803F0A5F8BDF81620064B5C
:100390001A8012B070BD00BF3801002033640A0813
:1003A00041640A0837640A089001002010B503F080
:1003B0007AF9B0F5805F044605DA82B2002308219D
:1003C000024801F0D9FD204610BD00BFC001002049
:1003D00010B503F068F9B0F5805F044605DA82B223
:1003E00000230421024801F0C7FD204610BD00BFD4
:1003F000C001002010B504F061FA04F0A3F80A4C23
:1004000004F05CFA242104F0B3F8FF23237004F015
:1004100055FA036821789B68984704F04FFABDE8C5
:10042000104004F0ACB800BF3C00002010B504F050
:1004300045FA04F087F80A4C04F040FA242104F04D
:1004400097F80023237004F039FA036821789B6839
:10045000984704F033FABDE8104004F090B800BFAC
:100460003C0000202DE9F0432A4D012385B02B707C
:10047000FFF7C0FF41F2707003F0BCFA2E46264D24
:10048000002428192549103403F098F8C02C224F75
:10049000F7D1FFF787FE0A2003F0ACFA204801F0FD
:1004A0009AFB642003F0A6FADFF880900024002570
:1004B00009EBC4011A4801F072FB342003F09AFAE8
:1004C000184BDFF8688043F8245001340C2CEFD12E
:1004D000FFF768FE002407EB4409002508EB05033D
:1004E0001A5D1149684603F0E3F86946484603F08F
:1004F000A0F80135684602F0EDFF082DEED1083472
:10050000602CE8D100243470FFF790FF204605B03E
:10051000BDE8F08392010020D40100202C680A0875
:10052000E80200200400002043640A080040024062
:1005300070B506460024002231460A4801F04EFB01
:100540000546084801F004FC28B90134042CF2D116
:100550000020054970BD032CFAD0284604F0A0FF06
:1005600070BD00BFE802002000C058C030B5174A77
:10057000174B12681B78002ACCBF022200221343BB
:10058000144A154D1268154C002ACCBF04220022D3
:1005900013432A6889B09342236014D010496846F7
:1005A00002F0DFFF0222216804A803F018F8049982
:1005B0006846FFF7ABFE04A802F08CFF684602F025
:1005C00089FF23682B6009B030BD00BFB80200204E
:1005D00092010020BC0200202C0100209402002087
:1005E00048640A0830B5184D89B0002422461749DE
:1005F000684603F05DF805EB0412154904A803F002
:1006000057F804996846FFF781FE04A802F062FFDC
:100610000134684602F05EFF0C2CE7D10D4904A8B6
:1006200002F09FFF0C4B02221968684602F0D7FFC8
:10063000009904A8FFF76AFE684602F04BFF04A881
:1006400002F048FF09B030BDD401002051640A080F
:1006500061640A0848640A0894020020022A05D04E
:10066000032A06D0012A06D10843704720EA010078
:10067000704748407047002070470000082870B558
:1006800004460E461ADC04F019F9242103F070FF29
:100690000B4D013C0121A14032462878C9B2FFF739
:1006A000DDFF287004F00AF9036829789B689847F1
:1006B00004F004F9BDE8704003F061BF70BD00BFF5
:1006C0003C0000200221FFF7D9BF0121FFF7D6BF70
:1006D0002DE9F041824B834C1A68216888B0914221
:1006E00006461D4600D1F8B17F4904A802F039FF43
:1006F0007E4B2768D3F8008002F09EF93A46C0EBA3
:1007000008037B49684602F0D3FF009904A8FFF76D
:10071000FDFD684602F0DEFE04A802F0DBFE236861
:100720002B600EB16F4B1E6023680B2B00F2D5803F
:10073000DFE813F00C00130066006E0079007B0008
:100740008300D3009400AA00AE00BC00694B1B6874
:10075000002B40F3C2800123A6E00021664801F08F
:10076000B2FB664B01211880634801F0ACFB644B7F
:1007700008211880604801F0A6FB02F05DF95B4D8E
:1007800028600520FFF7A1FF0720FFF79EFF062046
:10079000FFF79BFF5B4A137883F0010313701BB1D3
:1007A00002F04AF9584B1860524B01211E461A6854
:1007B0005148022AC8BF2B684FF4FA72C4BFA3F590
:1007C000FA632B60002301F0D7FB002319464FF496
:1007D000FA72494801F0D0FB4C4904A802F0C1FE6E
:1007E0000A223168684602F0FAFE009904A8FFF771
:1007F0008DFD684602F06EFE04A802F06BFE51E02B
:1008000002F01AF9394B1B6803F5C343283347E05C
:100810000720FFF757FF02F00FF9344B1B6803F571
:10082000E24348333CE005233EE002F005F92F4B5C
:100830001B6803F55643D83332E00720FFF742FF29
:100840000520FFF73FFF02F0F7F8284B1B6803F580
:100850007D43E833984240D9082325E0284A002305
:1008600012880121244801F087FB244A00231946FD
:100870001288214801F080FB02F0DEF81B4B1B6858
:1008800003F59233F8330BE00620FFF71BFF09E076
:1008900002F0D2F8154B1B6803F5B93303F58C73DE
:1008A00098421AD923680133236016E0114D0023C2
:1008B000164904A82B60236002F053FE0A2229681F
:1008C000684602F08CFE009904A8FFF71FFD6846F9
:1008D00002F000FE04A802F0FDFD08B0BDE8F081C2
:1008E000E8000020C000002064640A08BC0000206A
:1008F00072640A08BC020020C00100200000002031
:1009000002000020B4000020F000002059650A0811
:1009100010B5052088B0FFF7D5FE0720FFF7D2FEFF
:100920000620FFF7CFFE0E4B00240E4904A81C70D2
:1009300002F017FE0C4B0A221968684602F04FFEBF
:10094000009904A8FFF7E2FC684602F0C3FD04A882
:1009500002F0C0FD0820FFF7BBFE204608B010BD26
:10096000B400002059650A08BC0200201FB502F03F
:100970009AFE084B18601C4648B90749684602F0C1
:10098000F0FD6846FFF7C4FF684602F0A3FD20684B
:1009900004B010BDBC0200204F640A082DE9F041EC
:1009A000AA4BAB4C1A68216888B0914206461D4696
:1009B00000D1F8B1A74904A802F0D3FDA64B2768DF
:1009C000D3F8008002F038F83A46C0EB0803A34998
:1009D000684602F06DFE009904A8FFF797FC684690
:1009E00002F078FD04A802F075FD23682B600EB1BB
:1009F000974B1E6023680A2B00F22581DFE813F075
:100A00000B0012006F008900230195009F00A900D0
:100A1000C600EF000C01924B1B68002B40F31381C2
:100A20000123DAE004218F4801F04DFA8E4B0221B8
:100A300018808C4801F047FA8C4B032118808948B4
:100A400001F041FA8A4B844D188001F0F5FF002334
:100A500040F6FF7204212860824801F08DFA0320DD
:100A6000FFF733FE0220FFF730FE0420FFF72DFED4
:100A7000804A137883F0010313701BB101F0DCFF8F
:100A80007D4B1860764B03211E461A687548012A73
:100A9000C8BF2B684FF4FA72C2BFA3F5C343283B0B
:100AA0002B60002301F068FA00234FF4FA72022150
:100AB0006C4801F061FA714904A802F052FD0A2263
:100AC0003168684602F08BFD009904A8FFF71EFC10
:100AD000684602F0FFFC04A802F0FCFC7BE0684BD7
:100AE0006849186905F042FB10B10120FFF7EDFDE0
:100AF00001F0A2FF584B1B6803F59C530833984242
:100B000040F2A1802368012001332360FFF7DDFD5F
:100B100099E001F091FF504B1B6803F57D43E833EA
:100B2000984240F29080052357E00220FFF7CAFD6B
:100B30000320FFF7CAFD0120FFF7C4FD4BE001F0E1
:100B40007BFF474B1A68444B1B6803F5F43348336B
:100B50003BE00220FFF7B6FD0320FFF7B3FD454B56
:100B6000002501201D70FFF7ADFD3F4A2B4612887E
:100B700004213C4801F000FA01F05EFF384B1A688E
:100B8000354B1B6803F5213388331EE0384A0023B8
:100B900012880321334801F0EFF9344A0023128808
:100BA0000221304801F0E8F92F4A0023128804217D
:100BB0002C4801F0E1F901F03FFF294B1A68264B60
:100BC0001B6803F5433303F5A07342F2107101FB78
:100BD0000233984237D923680133236033E004207D
:100BE000FFF770FD01F028FF42F210711C4B1A68EC
:100BF000194B1B6803F5563303F5587301FB023399
:100C0000984220D92368012001332360FFF75AFD61
:100C10000220FFF757FD16E0114D0023174904A8E5
:100C20002B60236002F09DFC0A222968684602F0CE
:100C3000D6FC009904A8FFF769FB684602F04AFC5D
:100C400004A802F047FC08B0BDE8F0819C01002038
:100C5000CC0000208D640A083401002072640A0868
:100C6000B8020020C00100203A000020340000201B
:100C700036000020B4010020EC00002043650A0883
:100C8000C80200200080D44310B5032088B0FFF7CD
:100C900019FD0220FFF716FD0420FFF713FD0E4B90
:100CA00000240E4904A81C7002F05BFC0C4B0A22C5
:100CB0001968684602F093FC009904A8FFF726FB28
:100CC000684602F007FC04A802F004FC0820FFF7C5
:100CD00065FE204608B010BDB401002043650A0837
:100CE000B80200201FB502F0DEFC084B18601C465D
:100CF00048B90749684602F034FC6846FFF7C4FF6C
:100D0000684602F0E7FB206804B010BDB80200207E
:100D10004F640A08B0B51546044602F1080388B0CE
:100D200023F0070300AFADEB030D684605F050FA62
:100D30000023694638460DF8053002F012FCFFF733
:100D400031FA4B49204605F07FFA48B9394607F198
:100D5000100002F028FC07F11000FFF739FB0DE04E
:100D60004449204605F070FA68B9394607F1100089
:100D700002F019FC07F11000FFF718FB07F1100053
:100D800002F0A8FB6EE03C49204605F05DFA0546FE
:100D900030B9384602F087FC2B4682B202210BE0C4
:100DA0003649204605F050FA054648B9384602F063
:100DB0007AFC2B4682B20321314801F0DDF851E084
:100DC0003049204605F040FA054630B9384602F071
:100DD0006AFC2B4682B22946EEE72B49204605F0F5
:100DE00033FA054630B9384602F05DFC2B4682B234
:100DF0000121E1E72549204605F026FA68B9394680
:100E000007F1100002F0CFFB07F11000FFF72AFBFB
:100E100007F1100002F05EFB22E01D49204605F0BC
:100E200013FA48B9394607F1100002F0BCFB07F18C
:100E30001000FFF757FFA1E71649204605F004FA16
:100E400048B9394607F1100002F0ADFB07F1100078
:100E5000FFF78CFD92E71049204605F0F5F908B937
:100E6000FFF7C0FB384602F035FB2037BD46B0BD6A
:100E70009A640A08AC640A08BE640A08D5640A08C1
:100E8000C0010020EC640A0803650A081A650A0814
:100E900036650A084C650A0862650A0808B503F059
:100EA0000DFD242103F064FB03F008FD036800211D
:100EB0009B689847064B00221A7003F0FFFC03F072
:100EC0005EFB044A137883F00103137008BD00BF72
:100ED0003C0000202801002030B585B0002504AC7E
:100EE00044F8105D2A462946204601F0C5FD009BC6
:100EF000822B02D1284601F0A7FD0121072003F033
:100F000035FC244801F0A2F82349224801F0ACF84E
:100F1000002340F6B83201211E4801F02DF80023CD
:100F2000194640F654321B4801F026F8002340F6DB
:100F3000B8320321174801F01FF840F6543200235D
:100F40000221144801F018F803F0B8FC03F0FAFA93
:100F5000124D03F0B3FC242103F00AFBFF232B7096
:100F600003F0ACFC036829789B6898470121084688
:100F7000FFF794FF03F0A2FC03F001FB08492046B1
:100F800002F0EFFA2046FFF76DFA204602F0A2FACF
:100F900005B030BDC00100200080BB443C000020F3
:100FA0002C680A082DE9F3413C4B93F90E4003F0FD
:100FB00085FC214603F0DCFA03F080FC03F0DFFA45
:100FC000002832D10446661C02231022F1B200939D
:100FD0003248012300F0D4FE304800F037FF304B98
:100FE000304D43F8240004F0B1FE2F4904F0F8FD21
:100FF0002E4904F0B3FF2E4B074653F8240004F0AB
:10100000A5FE0146384604F0F5FE042E45F82400FE
:101010003446D8D12C682749204605F089F820B1FC
:101020002549204604F0DEFD2860FFF7BBF8234B7E
:1010300093F90E4003F042FC214603F099FA03F0C5
:101040003DFC03F09CFA30BB1D4F1E4E1E4D042488
:1010500002231022E1B200931848012300F090FE11
:10106000164800F0F3FE47F8040F04F06FFE0E4937
:1010700004F0B6FD0D4904F071FF804656F8040FE8
:1010800004F064FE0146404604F0B4FE0134092C2D
:1010900045F8040FDCD102B0BDE8F08198020020D1
:1010A00004030020C802002000A8B5450032B8465D
:1010B0000C640A080000164400007041A8020020D9
:1010C0000C03002014640A08D002002038B504681C
:1010D00005467CB16368013B63605BB923682046C9
:1010E0009B689847A368013BA3601BB9236820460F
:1010F000DB689847284638BD10B588B0104C1149B8
:1011000004A802F02EFA104904A802F057FA21466A
:1011100004A80023082202F0AEFA0C4B22461B78EA
:101120000B498DF8003002A83C2302F069FE03A8A9
:10113000FFF7CCFF04A802F0CDF908B010BD00BF46
:10114000004002402C680A08B1650A08C800002067
:10115000C2650A0810B5294CCCB0E06A04F0A0F9C9
:10116000CDE91601A06A04F09BF9CDE91401606A8B
:1011700004F096F9CDE91201206A04F091F9CDE965
:101180001001E06904F08CF9CDE90E01A06904F0CA
:1011900087F9CDE90C01606904F082F9CDE90A0113
:1011A000206904F07DF9CDE90801E06804F078F9E0
:1011B000CDE90601A06804F073F9CDE90401606887
:1011C00004F06EF9CDE90201206804F069F90C4AD7
:1011D000CDE90001C8211AA801F05CFE094B1AAA4A
:1011E0001B7809498DF8003018A83C2302F008FE4E
:1011F00019A8FFF76BFF4CB010BD00BF0400002022
:10120000C7650A08C800002003660A082DE9F043F4
:101210002A4CC5B00221204600F055FE03210546A8
:10122000204600F050FE00210646204600F04BFE0E
:1012300001210746204600F046FE04218046204654
:1012400000F041FE08218146204600F03CFE1C4C87
:101250000F90CDF83890CDF834800C970B960A9506
:10126000206904F01DF9CDE90801E06804F018F9DF
:10127000CDE90601A06804F013F9CDE90401606826
:1012800004F00EF9CDE90201206804F009F90D4AD5
:10129000CDE90001C82112A801F0FCFD0A4B12AAF9
:1012A0001B780A498DF8003010A83C2302F0A8FDF5
:1012B00011A8FFF70BFF45B0BDE8F083C001002087
:1012C000C80200200B660A08C80000203C660A0815
:1012D0002DE9F04F6A488BB001F081F810B16848F1
:1012E00001F006FA01F0A6FD20B1664E3378002B1E
:1012F00040F0BD8101F0A0FB634E644C33680746AB
:1013000020604BB904F0AAF85BA3D3E9002303F0F3
:1013100069FF04F0F1FB30605D4D2B6823B907F5E0
:10132000920000F5785028605A4FFEF73BFF5A496B
:10133000386804F01BFF10B10820FFF7C6F95649C2
:10134000386904F013FF10B10120FFF7BEF9534FC5
:1013500023683A689B1A40F26B72934202D901F0FB
:101360006BFB3860326823689B1A4D4A93421746DC
:1013700015D94C4B0021186804F0DAFE60B14A4BD5
:101380001B684BB9494906A802F0EBF806A8FFF71D
:10139000A9FC06A802F09EF801F04EFB306023681D
:1013A0002A689B1ABB4215D93E4B0021986804F06D
:1013B000BFFE60B13E4B1B684BB93C4906A802F02A
:1013C000D0F806A8FFF7D2FA06A802F083F801F0D9
:1013D00033FB2860FEF7E6FE364B226819681D468F
:1013E000521AB2F5FA6F0DD3254800F0F8FF10B984
:1013F000FEF736FF03E00121072003F0C8F901F0F2
:101400001BFB28602C4EFEF7CDFE326823689B1A2A
:1014100040F6B732934257D9284B1D781DB101F0E1
:101420000BFB306050E0DFF898A0DFF89880DFF821
:1014300074900AEBC50B5846FFF77AF804F07CFB72
:1014400001460746C8F8000004F09AFE58B1584615
:10145000FFF76EF804F070FB01460746C8F800007D
:1014600004F08EFE08B949F825700135FEF79AFEA2
:101470000C2DDED1D3E700BF0000000040774B41C8
:101480003801002038000020B80100209801002019
:10149000BC010020C80200200000024430010020EE
:1014A000FF9E240004000020B802002043660A08C2
:1014B000BC020020B8000020C002002092010020E1
:1014C00000400240C4020020794D23682A689B1A1C
:1014D000B3F5C87F0CD3FFF765FD01F0ADFA2860C6
:1014E000FFF70AFE01F0A8FA01F0A6FAFEF75AFE8D
:1014F0000020704DFFF752FA0020FFF7E9F82A6844
:1015000023689B1A40F6B732934240F2938001F071
:1015100093FA2860FFF77AFEFEF744FE664906A8B4
:1015200002F01FF80221654800F0CDFC0A220146B6
:1015300002A802F054F8029906A8FEF7E7FE02A8F6
:1015400001F0C8FF06A801F0C5FF5D4906A802F03A
:1015500008F80321594800F0B6FC0A22014602A807
:1015600002F03DF8029906A8FEF7D0FE02A801F0AD
:10157000B1FF06A801F0AEFF524906A801F0F1FF45
:1015800000214E4800F09FFC0A22014602A802F00A
:1015900026F8029906A8FEF7B9FE02A801F09AFF04
:1015A00006A801F097FF484906A801F0DAFF0121DB
:1015B000424800F088FC0A22014602A802F00FF817
:1015C000029906A8FEF7A2FE02A801F083FF06A872
:1015D00001F080FF3D4906A801F0C3FF0421374810
:1015E00000F071FC0A22014602A801F0F8FF0299FE
:1015F00006A8FEF78BFE02A801F06CFF06A801F01A
:1016000069FF334906A801F0ACFF08212B4800F020
:101610005AFC0A22014602A801F0E1FF029906A83D
:10162000FEF774FE02A801F055FF06A801F052FF74
:10163000FEF79CFF274D23682A689B1A264A93428F
:1016400002D901F0F9F92860244D23682A689B1A11
:10165000B3F5FA5F06D3FFF77DFDFEF7A3FD01F0BA
:10166000EBF92860FEF79EFD0BB0BDE8F08F00257A
:101670000AAC44F8105D2A462946204601F0FCF9E0
:101680000A220699204601F0AAFF154B069A1B78FC
:1016900014498DF8003002A83C2302F0B1FB03A8E6
:1016A000FFF714FD204601F015FF357022E600BF5C
:1016B000C4000020B0010020CB640A08C001002053
:1016C000E2640A08F9640A0810650A0845660A080F
:1016D0004A660A08F4000020BFD4010094010020EB
:1016E000C80000204F660A0838B52F4B01221A7037
:1016F00001F042F94FF4B2632C4A4EF660212C48B7
:10170000FEF758FD2B4A2C49294803F0F7F82B4DDA
:10171000002428192A49103401F023FFC02CF8D1E5
:10172000244A2849002003F0E9F82549264801F019
:1017300018FF204A2549244803F0E0F8002204213C
:10174000234800F015FA1B4A2249214803F0D6F835
:101750006821214800F004FB164A20491E4803F086
:10176000CDF86E211E4800F0FBFA124A1B491C48B6
:1017700003F0C4F81B4B40F25B721B491B4800F09E
:1017800045FD0C4A1A49194803F0B8F840210122D6
:10179000184800F095FB184800F0CCF9BDE8384037
:1017A0000121042001F058B9C80000202D2F0A089B
:1017B000D0000020B000002063010A08D4010020FE
:1017C0002C680A08DD000A08A0010020D5340A08A8
:1017D000E8020020C71B0A0898020020791D0A08A9
:1017E000A8020020150D0A085B660A0838010020CF
:1017F00049290A08C0010020F800002001F0BCB807
:1018000002881C2353434268D118D3588A885A83CC
:10181000704738B504460D4601F0AEF8002160600F
:10182000284602F0A3FF2580204638BD38B505467E
:1018300002F0B0FD0021288801F0A6F802F0ACFD0E
:101840007D24013C14F0FF042DD0022001F0ECF8BF
:10185000288801F0B1F810F0FF0FF2D002F09AFDE5
:101860002846FFF7CDFF0121288801F08DF802F00E
:1018700093FD4FF4F07001F0D7F802F08BFD0021DA
:10188000288801F081F8462001F0CEF8288801F080
:1018900093F8C0B2B0FA80F402F07EFD4FF4CD7040
:1018A000640901F0C1F8204638BD38B511F00105D2
:1018B000044613D002F06EFD2046FFF7A1FF012180
:1018C000208801F061F80A2001F0AEF8208800219C
:1018D00001F05AF802F060FD372012E002F05AFDE4
:1018E0002046FFF78DFF0121208801F04DF84120AF
:1018F00001F09AF82088294601F046F802F04CFDE4
:101900000520BDE8384001F08FB810B5044602F05C
:1019100041FD2046FFF774FF0121208801F034F8D3
:10192000032001F081F80021208801F02DF80A2021
:1019300001F07AF8208801F03FF8044602F02CFD0F
:10194000352001F071F8E0B210BD2DE9F0410546F7
:10195000884617460826012418EA040F14BF0121FF
:1019600000212846FFF7A1FF6400013EE4B2F3D155
:101970008FB102F00FFD2A881C2353436A68D118E7
:10198000D3588A8801211A83288800F0FDFFBDE81A
:10199000F04102F001BDBDE8F081F8B50746082628
:1019A000002501243846FFF7B0FF00B1254364004D
:1019B000013EE4B2F6D12846F8BD70B500220C46CF
:1019C00055210646FFF7C1FF651E073415F8011FB4
:1019D00000223046FFF7B9FFA542F7D170BD0022C3
:1019E000CC21FFF7B2BF002303748374437400F16A
:1019F0001002083002F8013D8242FBD170472DE908
:101A0000F047857C04468846002D5ED1FFF70EFF27
:101A100020B92074A0746074BDE8F0872A46F021D4
:101A200020460126FFF791FFAA4637462046FFF7DA
:101A30006CFF81462046FFF768FFB9F1010F02D124
:101A400001281BD137E0814504EB05031ED1227C20
:101A5000974207D21A7A164214BF4FF001094FF08D
:101A6000000904E00CBF4FF001094FF00009B9F183
:101A7000000F03D1082F08D8677406E06219137AA3
:101A80004FF001093343137204E0BA461A7A22EA8E
:101A900006021A72494620467600FFF706FF16F046
:101AA000FF0604BF0135EDB207F1010708BF0126AB
:101AB000072DFFB2BAD9402F07D984F810A0BAF188
:101AC000000F12D10123A3740FE000202074A07432
:101AD0006074E31D08F1FF380F3413F8012FA3429F
:101AE00008F8012FF9D1BDE8F087237A002BECD05C
:101AF0000120EEE730B5054600200139C9B2FF29C3
:101B000013D015F8014B082280EA040313F0010FEB
:101B10004FEA50001CBF80F08C03D8B2531E13F064
:101B2000FF024FEA5404EFD1E7E730BD00F024BFD5
:101B300000F022BF0346094900F10C0203C982E804
:101B4000030000225A619A611A771A6220219A6270
:101B50000A22596283F82C20184670476C660A08DE
:101B6000024B00221A7000F007BF00BF24030020C0
:101B700070B5044600236360A360E3602361636182
:101B800023766376A27614200E46FEF788FA054681
:101B900010B13146FFF73DFE2560204670BD38B5D7
:101BA00000F110050C4600682946FFF728FF031EC8
:101BB00017BF2B68236023606B6818BF0120636028
:101BC00008BF002038BD10B504461421006802F09B
:101BD000A3FE204610BD0068FFF705BFF8B5837E61
:101BE00004460D4616461BB90B78002B00F0A48066
:101BF0002068FFF71BFEA37E23B11EB92068FFF704
:101C0000EEFE03E029462068FFF7D7FE00224421BC
:101C10002068FFF79AFE40F2EE2001F0EBFE20680C
:101C2000FFF704FEA37E23B11EB92068FFF7D7FE9D
:101C300003E029462068FFF7C0FE0022BE2120688D
:101C4000FFF783FE2B78262B04D100221146206853
:101C5000FFF77BFEE61C04F10C072068FFF79DFEF2
:101C600006F8010FBE42F8D10821201DFFF742FF00
:101C7000237B2076984263765ED12B78222B1BD073
:101C800016D8102B58D1E37AA088102B08BFA37A5E
:101C90004FEAC00002BF20F00F00C3F10C03C018D0
:101CA00000B204F053F84FF0765104F0A3F8F8BDF9
:101CB000262B1FD0282B3FD1227A237902F06002F5
:101CC000202A05D0402A06D042B923F0070304E0B9
:101CD00023F0030301E023F00103237123796079EA
:101CE00043EA002000B203F0C9FB0022134B03F0CB
:101CF0002BFC1EE0A579284603F0C0FB0646607960
:101D00000F46C00804F022F803F0CAFB00220C4B77
:101D100003F01AFC0B462906024648BF09494FF05A
:101D2000000058BF084903F00FFC32463B4603F061
:101D300059FA03F001FFF8BD0448F8BD0000B03FB8
:101D40000000A03F0000F0BF0000F03F0000C07F97
:101D5000027E407E131A58425841704700F00CBE74
:101D600038B50C46054644F0680402F0A7FD02F0C1
:101D7000E9FBAC73284638BD704700000000000046
:101D800038B5044602F0FD059DF810000C2D607278
:101D900002D0102A18BF0C222271227901396371F6
:101DA0000C3A43EA4103022192FBF1F242EA830337
:101DB0008B40237203F052FB02F092FF0EA3D3E993
:101DC000002303F0EBFC03F06FFE237A184320722C
:101DD00002F074FDA17B02F0C7FB02F06FFD217AD7
:101DE000036841F080019B682172984702F066FD0C
:101DF000BDE8384002F0C3BBEF39FAFE422EE63FA1
:101E000070B504460323837202F058FDA27AA17BC9
:101E100002F0A7FB002502F051FD03686E1C1B6950
:101E2000984770B102F04AFD0368EDB25B699847CC
:101E30002544E872A37A354623449B7ADB11E3718B
:101E4000E9E7E079003018BF012070BD10B5044605
:101E5000002303602046FFF7D3FF0028FAD123793F
:101E60000E2B0FD0102B19D00C2B21D1E37A03F0BD
:101E70000F02237B43EA0223B3F5006FA8BFA3F54B
:101E8000805314E0E37A03F03F02237B43EA02230A
:101E9000B3F5005FA8BFA3F5804308E0E27A237B97
:101EA00043EA0223B3F5004FA8BFA3F580332360B4
:101EB000206810BD00F060BD0368C9B29B68184778
:101EC00001704270704700EB410148887047000084
:101ED000F8B51D46437807460C46164603B302F094
:101EE000F7F9224901F032FC02F0F2F90A22214608
:101EF00001F069FC02F0ECF91D4901F027FC02F049
:101F0000E7F90A22314601F08CFC02F0E1F91949A7
:101F100001F01CFC02F0DCF90A22294601F083FCE6
:101F200002F0CCFC397802F01FFB02F0C7FCA100E4
:101F30000631FFF7C1FF02F0C1FC3146FFF7BCFFDD
:101F400002F0BCFC310AFFF7B7FF02F0B7FC2946EC
:101F5000FFF7B2FF02F0B2FC290AFFF7ADFF02F073
:101F6000ADFCBDE8F84002F00ABB00BF74660A0889
:101F700089660A088E660A08F0B540F6FF7E72454B
:101F8000A8BF724622EAE275ACB200EB410254806F
:101F900006460F461A4693B11DB900234FF48052EE
:101FA00004E0754505D14FF4805300223946304690
:101FB0000AE0C4F57F630F339BB2002204E075454D
:101FC000EBD0002DEFD02346BDE8F040FFF780BFF7
:101FD00038B504460D4602F071FC217802F0C4FACF
:101FE00002F06CFC036829469B68984702F066FC87
:101FF00002F0C5FA02F062FC0122217802F0B1FA87
:1020000002F05CFC03685B699847C0B238BD70B5EC
:10201000064614460D4602F051FC317802F0A4FA4F
:1020200002F04CFC036829469B68984702F046FC86
:10203000036821469B68984702F040FCBDE8704069
:1020400002F09DBA00221146FFF7E1BF10B5044629
:1020500002F034FC02F076FA2046BDE81040FFF7AB
:10206000F1BF00000000000073B5437804460D4640
:102070008BB102F02DF93C4901F068FB02F028F920
:102080000646284603F00CFA0223009302460B464C
:10209000304601F081FC284603F002FA30A3D3E970
:1020A000002303F051FA03F047FD01462F4803F0E7
:1020B00055FF4FF07E5103F093FD637805468BB1D9
:1020C00002F006F92A4901F041FB02F001F9064647
:1020D000284603F0E5F90223009302460B463046FA
:1020E00001F05AFC284603F0DBF9224B002203F0F2
:1020F00079F802F06DFD03F0FFFC6378C6B253B1CE
:1021000002F0E6F81C4901F021FB02F0E1F80A2296
:10211000314601F05AFB00212046FFF759FF0546E2
:1021200000F06F0242F0100220460021FFF76FFF1F
:1021300032462046FE21FFF76AFF2A46002120464C
:10214000FFF765FF052001F055FC204665F05E02B3
:10215000D2B2002102B0BDE87040FFF758BF00BF07
:10216000CDCCCCCCCCCCEC3F93660A0820BCBE4591
:10217000AB660A080000E03FC1660A0800F0FCBB3D
:1021800038B50B4B8469054603607CB16368013B3D
:1021900063605BB9236820469B689847A368013B4E
:1021A000A3601BB923682046DB689847284638BDE2
:1021B00018670A0810B50446FFF7E2FF20461C2105
:1021C00002F0AAFB204610BD38B51D46059B04460B
:1021D00003630023436302B1826419B104F1380040
:1021E00001F0ECF9049BE0692365069BA4F84C50D0
:1021F000FF2BB8BFFF23A4F8543008B1FDF755FFFB
:10220000B4F85400FDF74DFFE06138BD2DE9FF4102
:102210000446174698460E46002501F003F9E5618D
:102220000A4904F1380001F09CF9FF2302930F23BF
:1022300000932046A564CDF804803B462A463146EB
:10224000FFF7C2FF204604B0BDE8F0812C680A0801
:102250004163704710B50446204600F077FF002820
:10226000FAD0204600F027FFC0B210BD2DE9F0479C
:102270000546C4698A46FFF7EDFF4FF00108464660
:102280002070EB69002793F8009009F0F0092846C8
:10229000FFF7E0FFEB69741C985500F07F0303FB28
:1022A00008770306A4B2BFB24FEAC81801D5264684
:1022B000EDE7631EB9F1300F8AF8003013D12846DC
:1022C000D5F81C80FFF7C6FF08F804002846D5F8AB
:1022D0001C80FFF7BFFFF41C0236B6B2A4B208F8A8
:1022E0000600022300E000231B1B9EB2A3199BB231
:1022F0009F420BD92846FFF7ADFFB5F85430A342F3
:1023000084BFEB6918550134A4B2EFE7B5F8540067
:10231000A0422CBF20460020BDE8F087F7B5074655
:102320008E461E461D46002405F07F0302A9ED09D6
:10233000214418BF43F08003013401F8043CE4B2A7
:10234000002DF1D1C4F10403D11802F803E0A54235
:1023500006DA01A82B1B285C134458710135F6E7F7
:10236000721C2244384600F04DFE054600F064FB26
:10237000013478623444A8B2231A5842584103B059
:10238000F0BD10B50446C369E0221A70C36900228B
:102390005A70C169022200F035FE204600F012FF9B
:1023A00000F04AFB6062A06210BDF0B50D4602333A
:1023B0009BB26C1A15F8016BA4B23EB1B0F8547020
:1023C0009F4203D95C1CD654A3B2F2E7191B0A44FE
:1023D000211202F8021C02F8014C1846F0BD38B573
:1023E000054600F0B0FF002814BF0124002402D1EC
:1023F000284600F0E7FE204638BD00002DE9F043F6
:1024000087B00446894617461E46DDF83880FFF738
:10241000E6FF0546002840F0BD80A16C39B90346AF
:10242000B4F84C20A16B204601F01EF809E0684684
:1024300001F0D8FE2B46B4F84C206946204600F047
:10244000DBFE002800F0A280012323849DF84C309D
:10245000042B15D1524B18689A880090ADF80420CF
:102460009B79E26900988DF80630C2F80500531D8B
:10247000BDF804109DF8062099809A710C2312E093
:102480006A46484BD4F81CC0186859681B7A03C2C6
:1024900013706B4603CBCCF80500CCF80910137809
:1024A0008CF80D300E23B8F1000F0AD09DF84020B3
:1024B0009DF83C10520142F0060242EAC102D2B23B
:1024C00000E002229DF8481009B902F0FD022FB188
:1024D00016B942F0800201E042F0C002E169581CE6
:1024E000CA54226DE16912120A54E169206D9A1CE6
:1024F00088540333E26949462046FFF756FFB8F196
:10250000000F0BD00346E26941462046FFF74DFF1E
:10251000E269034611992046FFF747FF67B103467A
:10252000E26939462046FFF740FF2EB10346E269D3
:1025300031462046FFF739FF431F9BB2E269102165
:102540002046FFF7EBFE00F077FA4FF47A766062F0
:10255000A062204600F0FAFD40B900F06DFAA36ACF
:10256000C01A236D73439842F3D90FE069462046A1
:10257000FFF77CFE042809D1E369DE7836B900F064
:102580005BFA0125A06284F82C6004E0204600F08C
:1025900019FE00E00025284607B0BDE8F08300BF23
:1025A000D3660A08DA660A087FB504230593012377
:1025B0000493002303930293019300931A46FFF7B9
:1025C0001DFF07B05DF804FB2DE9F14F0D9E044699
:1025D0008B4691469A469DF828809DF82C509DF890
:1025E0003070FFF7FCFE00284BD0B4F854200021D7
:1025F000E06903F0F8FD0523E26959462046FFF73C
:10260000D4FE6B1E012B12D8238CE26901339BB2DE
:1026100023841B121354411CE369228C89B20230BB
:1026200080B25A541EB1238C5A1C2284338000225B
:1026300091B283188A459BB209D9B4F8546001322B
:102640009E4204D919F80160E169CE54F0E7B8F16F
:10265000000F0CBF302131210FB141F00801022DD4
:1026600002D141F0040103E0012D08BF41F0020155
:102670002046053BE2699BB201B0BDE8F04FFFF791
:102680004DBE01B0BDE8F08F38B504460D46FFF7EA
:10269000A6FE90B1E36962221A70E36902225A70C1
:1026A000E3692A129A70E3690422DD70E169204629
:1026B00000F0A8FC003018BF012038BD38B5044632
:1026C0000D46FFF78CFE90B1E36972221A70E36940
:1026D00002225A70E3692A129A70E3690422DD70BB
:1026E000E169204600F08EFC003018BF012038BDA3
:1026F0002DE9F04F83B000AF0446FFF770FE81462E
:10270000002800F0F68000F097F9226D4FF47A73FC
:102710005343A26A0546821A9A4203D8626A821A11
:10272000934217D294F82C302BB1204600F04AFD8A
:102730004FF00009DDE0E269C0211170E269204636
:102740005370E169022200F05DFC01236562A5621D
:1027500084F82C30204600F0F9FC002800F0C980F5
:10276000F91D2046FFF782FD0246002800F0C180D7
:10277000E369A562187800F0F00130297DD1D4F822
:1027800030B0BBF1000F00F0B48097F807C0EA4604
:1027900003EB0C00817890F801E001EB0E2E1FFA9C
:1027A0008EFE0EF1080121F00701ADEB010D684628
:1027B00000218EB2B64506D90CEB01061E44F67810
:1027C00046540131F5E7002100F80E101E780CF197
:1027D000030106F00606022ECCEB02021ED1714464
:1027E00013F8018019444978CEEB020201EB082866
:1027F0000CF105017144053A1944D847E3694022B8
:102800001A70E3691FFA88F85E70E3694FEA2822BC
:102810009A70E369042283F8038020E0042E24D117
:10282000714413F8018019444978CEEB020201EBA0
:1028300008280CF105017144053A1944D847E369A9
:1028400050221A70E36902225A70E3691FFA88F86D
:102850004FEA28229A703246E36983F80380E169DF
:10286000204600F0CFFB656205E0033A7144CEEBF1
:1028700002021944D847D5463BE0502908D199783F
:10288000DB78204603EB012189B2FFF7FDFE30E043
:1028900040290CD0602908D19978DB78204603EBD9
:1028A000012189B2FFF70AFF23E070290DD1616B86
:1028B000F9B1042A1DD110F0060F1AD19878DB78EF
:1028C00003EB002080B2884713E0902911D0C02983
:1028D0000AD1D0221A70E36900225A70E1690222FB
:1028E000204600F08FFB04E0D02904BF002384F8C9
:1028F0002C3048460C37BD46BDE8F08F70B5044615
:102900000E461546FFF76BFDE8B1238C01339BB2F1
:1029100003B901232384238CE2691B125371E369F9
:10292000228C31469A71E26907232046FFF73DFD6C
:10293000E36982211D54031FE2692046BDE870400F
:102940009BB2FFF7EBBC70BD10B50446FFF747FD27
:1029500010B12046FFF715FDE06908B1FDF7A5FBB2
:1029600004F1380000F0B6FD2046FFF709FC2046D0
:1029700010BD00F001B8000008B5024B1B681B68D1
:10298000019308BDB001060808B5024B1B689B689F
:10299000019308BDB001060808B5024B1B68DB684F
:1029A000019308BDB001060808B5024B1B681B69FE
:1029B000019308BDB001060808B5024B1B685B69AE
:1029C000019308BDB001060808B5024B1B681B6ADD
:1029D000019308BDB001060808B5024B1B685B6A8D
:1029E000019308BDB001060808B5024B1B68DB69FE
:1029F000019308BDB401060808B5024B1B681B6AA9
:102A0000019308BDB401060808B5024B1B685B685A
:102A1000019308BD9C01060808B5024B1B689B6822
:102A2000019308BD9C01060808B5024B1B68DB68D2
:102A3000019308BD9C01060808B5024B1B685B6941
:102A4000019308BD9C01060808B5024B1B68DB6DAD
:102A5000019308BDB801060808B5024B1B685B6E00
:102A6000019308BDB801060808B5024B1B689B6EB0
:102A7000019308BDB801060808B5024B1B68DB6E60
:102A8000019308BDB801060808B5024B1B685B68D6
:102A9000019308BDD001060808B5024B1B689B686E
:102AA000019308BDD001060808B5024B1B681B69DD
:102AB000019308BDD001060808B5024B1B685B698D
:102AC000019308BDD001060808B5024B1B681B6BBB
:102AD000019308BDD001060808B5024B1B68DB6EE8
:102AE000019308BDD001060808B5024B1B689B691D
:102AF000019308BDC401060808B5024B1B685B6A58
:102B0000019308BDC401060808B5024B1B689B6A07
:102B1000019308BDC401060808B5024B1B68DB6AB7
:102B2000019308BDC401060808B5024B1B681B6B66
:102B3000019308BDC401060808B5024B1B685B6B16
:102B4000019308BDC401060808B5024B1B689B6BC6
:102B5000019308BDC401060808B5024B1B681B6C35
:102B6000019308BDC401060808B5024B1B68DB6C65
:102B7000019308BDAC01060808B5024B1B685B6DEC
:102B8000019308BDAC01060808B5024B1B689B6D9C
:102B9000019308BDAC01060808B5024B1B68DB6D4C
:102BA000019308BDAC01060808B5024B1B681B6EFB
:102BB000019308BDAC01060808B5024B1B685B6EAB
:102BC000019308BDAC01060808B5024B1B689B6E5B
:102BD000019308BDAC01060808B5024B1B68DB6E0B
:102BE000019308BDAC01060808B5024B1B681B6FBA
:102BF000019308BDAC01060808B5024B1B685B6F6A
:102C0000019308BDAC01060808B5034B1B68D3F857
:102C10008030019308BD0000AC01060808B5024BE6
:102C20001B681B68019308BDBC01060808B5024B70
:102C30001B685B68019308BDBC01060808B5024B20
:102C40001B689B68019308BDBC01060808B5024BD0
:102C50001B68DB68019308BDBC01060808B5024B80
:102C60001B681B69019308BDBC01060808B5024B2F
:102C70001B681B6A019308BDBC01060808B5024B1E
:102C80001B681B6B019308BDBC01060808B5024B0D
:102C90001B685B6C019308BDBC01060808B5024BBC
:102CA0001B681B68019308BDD801060808B5024BD4
:102CB0001B681B69019308BDD801060808B5024BC3
:102CC0001B685B69019308BDD801060808B5024B73
:102CD0001B689B69019308BDD801060808B5024B23
:102CE0001B68DB69019308BDD801060808B5024BD3
:102CF0001B681B6A019308BDD801060808B5024B82
:102D00001B685B6C019308BDC001060808B5024B47
:102D10001B689B6C019308BDC001060808B5024BF7
:102D20001B681B6D019308BDA801020808B5024B82
:102D30001B685B68019308BDA401060808B5024B37
:102D40001B685B69019308BDA401060808B5024B26
:102D50001B68DB6C019308BDA401060808B5024B93
:102D60001B685B6D019308BDA401060808B5034B01
:102D70001B68D3F89030019308BD0000A401060839
:102D800008B5034B1B68D3F89C30019308BD0000C5
:102D9000A401060808B5024B1B685B68019308BDD7
:102DA000C801060808B5024B1B689B68019308BD63
:102DB000C801060808B5024B1B68DB68019308BD13
:102DC000C801060808B5024B1B681B69019308BDC2
:102DD000C801060808B5024B1B685B69019308BD72
:102DE000C801060808B5024B1B689B69019308BD22
:102DF000C801060808B5024B1B68DB69019308BDD2
:102E0000C801060808B5024B1B681B6A019308BD80
:102E1000C801060808B5024B1B681B6B019308BD6F
:102E2000C801060808B5024B1B685B6B019308BD1F
:102E3000C801060808B5024B1B685B69019308BD11
:102E4000CC01060808B5024B1B681B6A019308BD3C
:102E5000CC01060808B5024B1B68DB6B019308BD6B
:102E6000CC01060808B5024B1B681B68019308BD1E
:102E7000A001060808B5024B1B685B68019308BDFA
:102E8000A001060808B5024B1B689B68019308BDAA
:102E9000A001060808B5024B1B68DB69019308BD59
:102EA000A001060808B5024B1B685B6A019308BDC8
:102EB000A001060808B5024B1B68DB6A019308BD38
:102EC000A001060808B5024B1B681B6B019308BDE7
:102ED000A001060808B5024B1B68DB6B019308BD17
:102EE000A0010608704710B50446102101F014FD3A
:102EF000204610BD70B504460E46074B0025036002
:102F000040F80C5FFFF7E0FD30462671FFF76CFDDF
:102F1000A560204670BD00BFEC660A080079FFF787
:102F20006BBD014600228C20FFF79EBD0020FFF7FD
:102F3000F8BF00004FF6FF72034B00201870588056
:102F40009A80FFF7F3BE00BF2603002010B50446A9
:102F500003F0A7F9013823182046984206D20278D8
:102F6000197800F8011B03F80129F6E710BD70B5C8
:102F70000C46911E222920D82546294610B9234403
:102F800030220EE0B0FBF2F602FB1600C1B20928B7
:102F900005F8011B94BF3031573105F8011C30464C
:102FA000EBE7994202D201F8012BFAE70023204611
:102FB0000B70FFF7CBFF204670BD002070BD38B509
:102FC000031E0C4615460BDAB3F1004F4FF02D02ED
:102FD00014BF5842184601230A702A46194400E0DB
:102FE0000123FFF7C4FF204638BD37B502AC0368A4
:102FF00004F8011DDD6B012247F230532146A8473A
:1030000003B030BD10B40368DC6B47F23053A44604
:1030100010BC604737B502AC036804F8011DDD6BD6
:10302000214613460122A84703B030BD70477047C0
:103030000020704710B50446142101F06DFC2046B5
:1030400010BDFDF730B810B5044603689B6898477B
:10305000A368013BA3602BB923682046BDE810405C
:10306000DB68184710BD000070B5044606464D6980
:10307000044B8C3544F8043B0FCD0FC42B6830460D
:10308000237070BDB0680A0810B543690446B3F8F0
:103090008620B3F884309A4205D06269B2F8843051
:1030A0001344187910BD03681B6998470028F4D1B0
:1030B0004FF0FF3010BD10B543690446B3F88620C9
:1030C000B3F884309A4208D06269B2F88430591C4F
:1030D000A2F884101344187910BD03681B6998473F
:1030E0000028F1D14FF0FF3010BDF8B54369174605
:1030F000B3F88620B3F8843005469A420E4606D1CE
:1031000003681B69984710B94FF0FF3414E06969F0
:103110003046B1F88430B1F886401944E41ABC4214
:1031200028BF3C460431224603F052F86A69B2F8DF
:1031300084302344A2F884302046F8BD426900233D
:10314000A2F884304269A2F88630704738B54269E7
:103150000446B2F886301BB1B2F884209A420CD0F3
:10316000206901F0C9FA0368DB68984718B36369FE
:103170001868FFF75BFD18B91DE0FFF7DFFFEFE709
:103180006069B0F886107F2915D8051DC1F180024D
:10319000002329440068FFF761FD00280BDD636907
:1031A000B3F886200AB9A3F884206269B2F88630A1
:1031B0001844A2F886006269B2F88630B2F884003A
:1031C000181A38BD38B5436904461868FFF72EFD54
:1031D00018B163691868FFF749FD6569FFF74EFD8F
:1031E00028606069112200218C3002F0FCFF20462B
:1031F000BDE83840FFF7A2BF2DE9F0411F46036844
:103200008AB0DB6A06460C4615469847384601F0F8
:1032100073FA0368DB689847002856D000972B465E
:10322000062201210220D6F81480FFF707FD202393
:10323000C8F8000000270293736903971B680120F8
:103240000193234B02AA009322493B46FFF766FDF8
:1032500073691868FFF7EAFC002836D03046FFF79C
:103260006DFF0223ADF808302B0A8DF80A30E379A0
:103270004FF4FA508DF80C30A3798DF80B508DF87F
:103280000D3063798DF80E3014F8043F8DF80F304F
:10329000FFF734FD73690546102202A91868FFF78D
:1032A000D5FC80462846FFF729FD0FCC75698C3583
:1032B0000FC523682B70B8F1000F05D03368304676
:1032C000DB6A9847384600E001200AB0BDE8F0818B
:1032D00063670A085C670A0810B543690446186802
:1032E000FFF7A4FC08B9002010BD206901F004FA22
:1032F0000368DB6898470028F5D063691868FFF712
:103300008DFCB0FA80F0400910BD2DE9F341002595
:10331000456004460E4617469846FFF7DDFF60B14C
:1033200060690195CDF800802B463A463146006829
:10333000FFF7ACFC002803DA01E04FF0FF306060DB
:1033400002B0BDE8F08138B50446FFF7C5FF00BB09
:103350006369B3F88610B3F88420914219D11868D4
:10336000FFF764FC28B163691868FFF757FC012870
:1033700001D000250EE0236820461B6998470028ED
:1033800014BF0125002505D123682046DB6A984734
:1033900000E00125284638BD08B5FFF79DFF003045
:1033A00018BF012008BD10B5044600230160A0F835
:1033B0008430A0F88630883000F0C6FE204610BD6C
:1033C0004FF47A7270B58260144A00234360026041
:1033D000436183610446A0200E46FCF760FE05466B
:1033E00010B13146FFF7DFFF1420FCF758FE03460B
:1033F00028B1012242608260094A05610260A06929
:103400006561A36128B14368013B43600BB9FFF7D5
:103410001AFE2046FFF792FE204670BD18670A0884
:10342000FC660A0810B50446FFF728FC0146204652
:10343000FFF7C6FF204610BD10B504460068FFF731
:10344000F5FB10B12068FFF711FC204610BD10B548
:1034500004692046FFF7F0FF24B12046BDE8104084
:10346000FCF721BE10BD00002DE9F0431F460368A4
:103470008FB0DB6A06460D4690469847134801F028
:10348000EEF800B302A800F05FFE284602F009FF44
:10349000002481B200943B4603AA2846FFF736FC7D
:1034A00080B9336809ADD3F82090094B03AC089379
:1034B0000FCC0FC5236842462B7008A93B46304607
:1034C000C84700E020460FB0BDE8F083B0070020F9
:1034D000B0680A0810B504460068FFF7CBFC204628
:1034E00010BD10B50446006808B1FFF7C3FC002307
:1034F0002360A360636010BD38B504460D460068C4
:103500000131FFF7BFFC10B184E82100012038BD74
:1035100010B50368044613B143688B4207D22046B6
:10352000FFF7EAFF20B1A3680BB9226813700120EE
:1035300010BD70B50E46114604461546FFF7E8FF6C
:1035400018B92046FFF7CDFF09E02A463146A560AD
:10355000206802F03DFE2268A3680021D154204675
:1035600070BD38B500230446036043608360037375
:103570000D4639B1084602F094FE2946024620461F
:10358000FFF7D7FF204638BD884210B50B460446EA
:1035900007D0096819B19A68FFF7CBFF01E0FFF780
:1035A000A0FF204610BD10B5044600230360436011
:1035B00083600373FFF7E8FF204610BD38B505466A
:1035C0000C4641B1084602F06CFE214602462846F0
:1035D000FFF7AFFF01E0FFF784FF284638BD10B5C5
:1035E000044600238AB023606360A3602373084607
:1035F00001A9FFF7E4FC01A92046FFF7DFFF204601
:103600000AB010BD70B504460E4609B9002070BD61
:103610006AB18368D5182946FFF77AFF0028F5D0EC
:103620002068A3683146184402F018FEA560012006
:1036300070BD8A680968FFF7E5BF10B58A68096838
:103640000446FFF7DFFF10B92046FFF74AFF204688
:1036500010BD38B504460D4641B1084602F021FEC2
:10366000294602462046FFF7CDFF10B92046FFF756
:1036700038FF204638BD70B50E469AB191B18568C5
:103680009D4202D800230B7070BD541EED1AAC424F
:1036900028BF2C46016822461944304602F009FE34
:1036A0000023335570BD006808B102F07FBD70473C
:1036B0000EB4FFB509AC54F8047B054623463A46E0
:1036C000052102A80194FFF7EDFB06460B492846A9
:1036D000FFF747FF31462846FFF71AFF286830B149
:1036E00023463A46711C0194FFF7DCFBA86028468C
:1036F00004B0BDE8F04003B0704700BF2C680A0872
:10370000F8B506460D468F180024BD420CD033682C
:1037100015F8011B9B6830469847002801DB0444DC
:10372000F3E7002C08BF04462046F8BD70B50546F7
:103730000C46084649B102F0B4FD2B68024621460A
:103740002846BDE87040DB68184770BD08B5FFF734
:10375000EDFF08BD03689B68184738B50D21054685
:10376000FFF7F8FF0A2104462846FFF7F3FF20443D
:1037700038BD012A98BF0A2230B50B468BB0002114
:103780008DF824100DF12304B3FBF2F505FB123381
:10379000DBB2092B94BF30333733DBB2214604F858
:1037A00001392B46002DEFD1FFF7C0FF0BB030BD24
:1037B00010B422B90368C9B29B6810BC1847D2B2D2
:1037C00010BCFFF7D6BFFFF7F3BF38B50546FFF7CC
:1037D000EFFF04462846FFF7C0FF204438BD2DE91F
:1037E000F04107460E4615462AB9BDE8F041036888
:1037F000C9B29B6818470A2A02D1002901DA04E0FD
:10380000D2B2BDE8F041FFF7B4BF2D21FFF7A2FF10
:103810002A46044671423846FFF7ABFF2044BDE814
:10382000F081FFF7DCBF38B50546FFF7D8FF044647
:103830002846FFF792FF204438BD00002DE9F843E9
:1038400019468046104617461E469DF8205002F045
:1038500015F908B1474912E026F000444FF0FF3255
:10386000454B3846214602F009F968B94FF0FF325E
:10387000414B3846214602F0E3F828B93F4940461B
:10388000FFF754FFBDE8F8834FF060423C4B3846E9
:10389000314602F0E9F808B13A49F0E74FF06042EA
:1038A000394B3846314602F0C1F80028F4D10022E5
:1038B00000233846314602F0B9F838B12D21404690
:1038C000FFF748FF06F10046044600E004462F4992
:1038D0004FF0000900205FFA89F39D4206D90022CB
:1038E0002B4B01F05BFF09F10109F4E73A4633463F
:1038F00001F078FC0F46064602F0FEF80A22014667
:1039000081464046FFF735FF04447DB3484601F049
:10391000A5FD02460B463046394601F061FC0646DD
:103920000F4640461B49FFF701FF0444184B002295
:103930003046394601F008FE0F46064602F0B4F85C
:103940000A22014681464046FFF749FF04444846A3
:1039500001F094FD02460B463046394601F040FC2A
:10396000013D15F0FF0506460F46DFD12046BDE8B4
:10397000F88300BF77670A08FFFFEF7F81670A08B7
:10398000FFFFEF417B670A08FFFFEFC10000E03F48
:10399000000024407F670A0837B59DF818100546D7
:1039A0000091FFF74BFF04462846FFF7D6FE204460
:1039B00003B030BD00231A4619464068FFF70ABA23
:1039C0000B68036013B15A6801325A6070470000F7
:1039D000014A024B1A607047FB670A082C0300205B
:1039E000024B1A68024B1A60704700BF400000206B
:1039F000300300200021FFF7A1B910B50446FCF701
:103A000094FB204610BD13B50B46044603C88DE851
:103A1000030093E8030084E803009DE8030083E8C3
:103A2000030002B010BD0000034800238360034A76
:103A3000034900F063BF00BF34030020B000002042
:103A4000FB390A0808B5144B33B100F041FC036898
:103A50001B699847002816DC104B33B100F0FAFCC4
:103A600003681B699847002810DC0D4B0BB1AFF3BE
:103A700000800C4B7BB100F067FC03681B69984722
:103A8000002806DC08BDAFF30080E5E7AFF3008057
:103A9000EBE7AFF3008008BD00000000000000006D
:103AA000000000000000000008B5FFF7CBFFFEF7A4
:103AB000C3FF014B186008BDD80700200248034A25
:103AC0000349121A02F084BB0040024064400240E5
:103AD000806B0A0807B5002300931A466FF0770140
:103AE000FFF74EF903B05DF804FB000007B543880B
:103AF0000A2B08D0502B09D1094B1B683BB103B0EE
:103B00005DF804EB1847FFF7E5FF06E0002300939C
:103B10001A466FF07701FFF733F903B05DF804FB45
:103B20004403002038B5104C104D2368AB42104BB5
:103B30000CBF012200221A7002D0FFF7BFFF2560E0
:103B4000FEF762FF044602F057FB0A4B13B1204612
:103B5000AFF3008000210748FFF77CF9BDE838404B
:103B600000210548FFF702B9604002401E1C279A59
:103B70004803002000000000ED3A0A0870470020CA
:103B8000704710B50446102100F0C6FE204610BD57
:103B900008B508B1FFF7F5FF08BD002202604FF637
:103BA0009C72828010B5B1F9044084808A800268DA
:103BB0000C6804600A6010BD10B504460068FFF789
:103BC00059F9204610BD38B5C468F4B12378022BEA
:103BD00003D104F10C00FFF7EFFF656835B128460B
:103BE000FCF7A3FA1021284600F096FEA56835B12F
:103BF0002846FCF79AFA1021284600F08DFE204650
:103C0000BDE83840142100F087BE38BD13B5044626
:103C100091E8050000234B600B602060626001A802
:103C200001930093FDF752FA204602B010BDF7B59C
:103C30000C4606460F4654F8043B02AD45F8083DD5
:103C4000214601A8FFF7BCFE29463046FFF7DEFFFC
:103C500001A8FDF73BFA2046FDF738FA384608215F
:103C600000F05AFE304603B0F0BD000038B5002326
:103C70000446036010200D46FCF711FA28B1012319
:103C800043608360024BC56003602060204638BDFE
:103C900094680A08826810B50AB900F04EFEC3683D
:103CA000BDE81040184708B5006800F11001FFF7A3
:103CB000F1FF08BD826810B50AB900F03EFEC36886
:103CC000BDE81040184708B5006800F11001FFF783
:103CD000F1FF08BD38B5002383608B6804460D46AC
:103CE0002BB102229847EB68E360AB68A3602046E3
:103CF00038BD0000F0B589B004686846FFF74DFF95
:103D00004FF0020200238DF80830D4E84F3F002B1B
:103D100003D1C4E8412F0029F7D102D08DF8083033
:103D200063E014F10C0503D069462846FFF735FF20
:103D3000BFF35F8F01236370BFF35F8F04F108034C
:103D4000002053E8006F43E80002002AF9D1BFF3D6
:103D50005F8F002E49D0FEF7F9FF20B1294630468B
:103D6000FFF798FF3AE0314602A8FFF7B3FFE0689B
:103D7000B4F9105008B102F079FA06901020ADF8AD
:103D80001C50FCF78CF90546E8B100278760182025
:103D9000FCF785F9044688B10146876002A8FFF761
:103DA00032FE049BA268A360059B0492E26806A908
:103DB000E36004F110000592FFF7EFFE0D4B2C605D
:103DC000EB600D4BAB6006A8FFF7F6FE02A8FCF710
:103DD000ACF9002229460948FEF7C0FF3046FCF73F
:103DE000A4F91021304600F097FD6846FFF7E4FE85
:103DF00009B0F0BDA73C0A081D3F0A08A1440A0803
:103E00002DE9F04F8BB006460F46904699469DF837
:103E100050A0FFF70FF807AD834630BB4FF62E7367
:103E2000059005A92846ADF81830FFF7B6FE142016
:103E3000FCF735F9044658B102230370012343709F
:103E4000C0F804B0C0F808B029460C30FFF7A5FE52
:103E50003046214640F8044BFFF708FF2846FFF79D
:103E6000ABFE05A8FFF7A8FE52E000240C231420A7
:103E70006C60AC600793FCF712F9014618B104704E
:103E800044704460846004A80391FFF7EFFE224B66
:103E900008200893FCF703F9044628B1039B04A902
:103EA00040F8043BFFF78CFD00955FFA8AF34A4621
:103EB000414638460994FEF7C5FF20B9039B5B785D
:103EC00003F0FF0283B1039B04A906A80593FFF743
:103ED00077FD05A93046FFF799FE06A8FDF7F6F82D
:103EE00004A8FDF7F3F813E04FF69C7305A903A8A7
:103EF0000592ADF81830FFF7FDFE05A8FFF75CFE50
:103F000005A80999FFF793FE06A8FDF7DFF8DAE7A1
:103F100030460BB0BDE8F08F8D400A08022AF8B594
:103F2000044606D0032A17D0012A22D10B68036069
:103F30001FE018200E68FCF7B2F8054650B1314674
:103F4000FFF7C8FE3069B6F9147008B102F08EF9B7
:103F50002861AF8225600CE0046854B104F11000C0
:103F6000FFF72AFE2046FCF7E0F81821204600F073
:103F7000D3FC0020F8BD38B5002383608B6804466D
:103F80000D462BB102229847EB68E360AB68A36053
:103F9000204638BD022A70B5044606D0032A11D047
:103FA000012A18D10B68036015E014200E68FCF795
:103FB00076F8054620B13146FFF7DDFF337C2B74E0
:103FC000256008E0046834B12046FCF7AEF81421FF
:103FD000204600F0A1FC002070BD0000F0B50C46AA
:103FE000BFF35F8F87B0002350E8006F40E80032D6
:103FF000002AF9D1BFF35F8F002E3FD01846FEF79D
:10400000A5FE074620B121463046FFF753FE2EE0BD
:10401000314601A8FFF7AFFF237810208DF8143048
:10402000FCF73DF80546D0B187601420FCF737F85F
:10403000044678B18760014601A8FFF7E4FC039BC2
:10404000A268A360049B0392E268E3609DF81430C9
:10405000049223740A4B2C60EB600A4BAB6001A8FE
:10406000FCF763F8002229460748FEF777FE304642
:10407000FCF75BF81021304600F04EFC07B0F0BDB5
:10408000C73C0A08953F0A08A1440A0830B504460F
:1040900085B00D4668461146FFF7C9FD7CB124B2D4
:1040A00028460DB102F0E2F8029002A96846ADF888
:1040B0000C40FFF71FFE02A8FFF77EFD1DE04FF04A
:1040C000010200988DF80840D0E84F3FA34203D189
:1040D000C0E8412F0029F7D102D08DF808300CE05C
:1040E00010F10C014FF0010318BF0373BFF35F8F92
:1040F000043000F8033CFFF771FF01A8FCF7E6FF6E
:1041000005B030BD704710B50446182100F004FC1E
:10411000204610BDF8B50F4600F10806051D002425
:1041200016F8011D0A223846FFF74DFBAE42044443
:1041300007D0002CF4D02E213846FFF70BFB0444A7
:10414000EEE72046F8BD000010B50446044B1122EE
:1041500040F8043B002102F046F8204610BD00BFA5
:10416000B0680A080346074A10B543F8042B01F16A
:10417000100251F8044B914243F8044BF9D10A78EC
:104180001A7010BDB0680A08024A41600260042239
:1041900002757047B0680A0810B59DF8084044EAF7
:1041A000032343EA024242EA0161042341600375AA
:1041B00010BD000037B5044D05609DF818500095FE
:1041C000FFF7EAFF03B030BDB0680A0837B50D78D5
:1041D0008B784A78C97800912946FFF7DDFF03B054
:1041E00030BD000010B50446024B0360FFF7EEFF40
:1041F000204610BDB0680A0841747047704708B582
:104200000021007CFEF762FD30EA200028BF4FF05D
:10421000FF3008BD08B50121007CFEF757FD30EAEC
:10422000200028BF4FF0FF3008BD08B5007CFEF726
:1042300045FD20EAE07008BD08B5007CFEF736FDBC
:1042400020EAE07008BD007CFEF750BD10B50446C2
:10425000142100F061FB204610BD38B50446007CF7
:104260000D46FEF72BFD002801DC607C28B12946B5
:10427000207CFEF733FD20EAE07038BD10B504461F
:10428000002363604FF47A73A360054B08462360F4
:104290000123217463741146FEF700FD204610BD12
:1042A000C4680A0810B504461422002101F09BFFDF
:1042B000054B20466360054BE36040F20113238108
:1042C0008123238210BD00BFD103002050030020B2
:1042D00030B50E4D87B001A8FFF7E4FF296811F053
:1042E000010410D12846FBF7E2FE60B101AA214685
:1042F0000748FFF7C3FF2846FBF7DEFE054A0649DD
:10430000034800F0FBFA024807B030BD4C03002020
:10431000D4040020B0000020FD410A0810B5044676
:104320001422002101F05FFF054B20466360054B1E
:10433000E36040F2011323818123238210BD00BF7B
:1043400084050020EC04002010B50E4C86B001A8B6
:10435000FFF7E4FF2368DB0710D42046FBF7A7FE36
:1043600060B101AA01210848FFF788FF2046FBF74A
:10437000A3FE064A0649044800F0C0FA024806B007
:1043800010BD00BFE804002070050020B000002030
:10439000FD410A08FEF720BBFEF716BB70474174CB
:1043A000704708B5007CFEF7D7FB20EAE07008BD37
:1043B00008B5007CFEF7A8FB20EAE07008BD08B550
:1043C000007CFEF7B1FB30EA200028BF4FF0FF3041
:1043D00008BD08B5007CFEF79FFB30EA200028BF2F
:1043E0004FF0FF3008BD007CFEF7A6BB10B50446B9
:1043F000142100F091FA204610BD70B5457C0446AA
:104400000E4625B9007CFEF7A7FB002805DD3146E6
:10441000207CBDE87040FEF76FBB284670BD0000F1
:1044200010B5044608461146002262604FF47A72C5
:10443000A260054A20742260012262741A46FEF7C7
:1044400053FB204610BD00BFF4680A08007CFEF74D
:104450007BBB000038B50C4D296811F0010411D167
:104460002846FBF724FE68B1084A2146084B094854
:10447000FFF7D6FF2846FBF71FFE074A0749054806
:1044800000F03CFA034838BD200700202407002034
:104490009C06002088060020B00000209D430A08EA
:1044A00010B5836804460BB900F047FAC368984713
:1044B000A3681BB103222146204698472046BDE849
:1044C0001040102100F028BA7047F8B5064615468E
:1044D0000C468F18BC4206D0336814F8011B9B6849
:1044E00030469847F6E72846F8BD0022007CFEF7E4
:1044F0005BBB0021007CFEF75FBB0021007CFEF768
:1045000063BB0021007CFEF767BB0021007CFEF747
:104510006BBB10B50446142100F0FEF9204610BD17
:1045200010B5044608464FF47A73A360044B00218B
:10453000207461602360FEF767FB204610BD00BF5A
:1045400024690A0800231A461946007CFEF70CBBB2
:1045500013B50024007C0094FEF70EFBC0B202B03D
:1045600010BD0123FFF7F4BF0022007CFEF70CBB57
:10457000C9B2FFF7F9BF0022007CFEF70DBB012195
:10458000FFF7F9BF0021007CFEF736BB0022114681
:104590004068FEF717BCF0B5164689B011220F46E9
:1045A0000446002103A801F01EFE304601F079FE0A
:1045B0000025009581B27B6803AA3046FEF7A6FB72
:1045C00020B129462046FFF7DFFD03E003A920467E
:1045D000FFF7C8FD204609B0F0BD00221146406833
:1045E000FEF710BC002211464068FEF71BBC0022FB
:1045F0004068FEF70FBC002281F001014068FEF721
:10460000F9BB00231A4619464068FEF7EBBB0022AF
:1046100011464068FEF7C6BB002202214068FEF743
:10462000C9BB00231A464068FEF7B4BB024B042204
:104630005A60024A1A607047A80700204C690A08AD
:1046400000231A464068FEF7A5BB002202214068FD
:10465000FEF7B0BB002211464068FEF7A3BB002264
:1046600011464068FEF7AEBB00231A461946406863
:10467000FEF7B0BB00231A4619464068FEF7B2BBEE
:10468000002281F001014068FEF7B4BB00224068BF
:10469000FEF7C0BB002211464068FEF7C3BB0022F4
:1046A00011464068FEF7AEBB70B516468EB00446A4
:1046B00008A8FFF749FD1122002103A801F093FD8E
:1046C000304601F0EEFD00250A4B009581B25B6893
:1046D00003AA3046FEF71AFB20B129462046FFF711
:1046E00053FD03E003A92046FFF73CFD20460EB032
:1046F00070BD00BFA8070020034B044A04280CBF6C
:1047000010461846704700BFB0070020A8070020D9
:10471000024B034A1A6000225A607047B00700201B
:1047200080690A0810B504460F48FEF7F7FB28B168
:10473000A4F10D03022B01D8002010BD00F0BEF83B
:10474000FFF720FF08B1012CF6D9FFF783FEFFF732
:104750007DFE18B1A4F11203012BEDD9172C8CBFEB
:104760000020012010BD00BFB8070020172838B571
:1047700004460D460AD8FF2908D0FFF7D3FF28B119
:1047800029462046BDE83840FEF7FEB838BD38B5AA
:1047900004460D46FEF700F9FF2810D0062804D87D
:1047A0004D2323FA00F0C30709D42046FFF7BAFFD0
:1047B00028B129462046BDE83840FEF7F5B838BD97
:1047C00070B50C4C0C4E0D4D00212046FEF792FBAF
:1047D00020460B4C3246294600F090F80121204635
:1047E000FEF788FB324629462046BDE8704000F0BF
:1047F00085B800BFB8070020B0000020E52E0A08E9
:10480000C807002030B504461B4D89B02068FEF76C
:1048100003F9FEF711F92B682268C01A9042F5D30C
:10482000236833B3E36823B3251D236928469847DB
:10483000002304A9684602930693FFF7E4F8029B5D
:10484000069A06930292039B079A294604A80392AC
:104850000793FFF7D8F8069BE268E360079B069290
:10486000226904A823610792FBF75FFC6846FBF707
:104870005CFC09B030BD00BFD807002008B5FFF7C9
:10488000C1FFBDE808400020FEF716B913B5084C7B
:1048900000231A46194600932046FFF78BFC20465A
:1048A000044A054902B0BDE8104000F027B800BF37
:1048B000DC070020B000002005410A0838B50B4D88
:1048C000296811F001040FD12846FBF7F0FB58B11D
:1048D00021460748FFF724FE2846FBF7EDFB054A73
:1048E0000549034800F00AF8014838BDF4070020E4
:1048F000F8070020B0000020C9440A080B46014612
:10490000184601F057BC0000024B1868BFF35F8FD8
:10491000704700BF0C080020FBF7C5BB10B500288E
:1049200014BF044601242046FEF79CFA20B9FFF785
:10493000EBFF08B18047F6E710BD08B5FEF7BAFAFD
:10494000184B1A68D1075CBF01221A60164B1A680F
:10495000D2075CBF01221A60144B1A68D0075CBFF3
:1049600001221A60124B1A68D1075CBF01221A603B
:10497000104B1A68D2075CBF01221A600E4B1A68EE
:10498000D0075CBF01221A600C4B1A68D1075CBFCC
:1049900001221A600A4B1A68D2075CBF01221A6012
:1049A000704700BF2C0800202808002024080020A1
:1049B000200800201C0800201808002014080020EF
:1049C00010080020244B1A68D0075CBF01221A602F
:1049D000224B1A68D1075CBF01221A60204B1A686B
:1049E000D2075CBF01221A601E4B1A68D0075CBF59
:1049F00001221A601C4B1A68D1075CBF01221A60A1
:104A00001A4B1A68D2075CBF01221A60184B1A6849
:104A1000D0075CBF01221A60164B1A68D1075CBF31
:104A200001221A60144B1A68D2075CBF01221A6077
:104A3000124B1A68D0075CBF01221A60104B1A682B
:104A4000D1075CBF01221A600E4B1A68D2075CBF07
:104A500001221A60704700BF5C080020580800203F
:104A600054080020500800204C080020480800206E
:104A700044080020400800203C080020380800209E
:104A80003408002030080020244B1A68D0075CBF8F
:104A900001221A60224B1A68D1075CBF01221A60FA
:104AA000204B1A68D2075CBF01221A601E4B1A689D
:104AB000D0075CBF01221A601C4B1A68D1075CBF8B
:104AC00001221A601A4B1A68D2075CBF01221A60D1
:104AD000184B1A68D0075CBF01221A60164B1A687F
:104AE000D1075CBF01221A60144B1A68D2075CBF61
:104AF00001221A60124B1A68D0075CBF01221A60AB
:104B0000104B1A68D1075CBF01221A600E4B1A685D
:104B1000D2075CBF01221A60704700BF8C080020DA
:104B20008808002084080020800800207C080020DD
:104B30007808002074080020700800206C0800200D
:104B4000680800206408002060080020184B1A68DC
:104B5000D1075CBF01221A60164B1A68D2075CBFEE
:104B600001221A60144B1A68D0075CBF01221A6038
:104B7000124B1A68D1075CBF01221A60104B1A68E9
:104B8000D2075CBF01221A600E4B1A68D0075CBFC7
:104B900001221A600C4B1A68D1075CBF01221A600F
:104BA0000A4B1A68D2075CBF01221A60704700BF27
:104BB000AC080020A8080020A4080020A0080020BD
:104BC0009C080020980800209408002090080020ED
:104BD000C1F30A522DE9F843A2F2FF36132E0B4619
:104BE00004460D46884607461CDC002E3FDB3A4A49
:104BF000864642FA06F901EA0902024317D034A3B5
:104C0000D3E9002300F0EEFA0022002300F02CFF8D
:104C100020B1002D40DB28EA090500273846294647
:104C2000BDE8F883332E06DDB6F5806F2FD0204621
:104C30001946BDE8F883A2F213424FF0FF3929FA72
:104C400002F910EA090FF2D021A3D3E9002300F002
:104C5000C9FA0022002300F007FF0028DED0002D53
:104C600020DB454627EA090738462946D8E718A336
:104C7000D3E9002300F0B6FA0022002300F0F4FE8E
:104C80000028CBD0002D18DB00273D46C6E70246A2
:104C90000B4600F0A7FACCE74FF4801343FA06F670
:104CA000B044B8E7142E10D00123C6F1340603FA3D
:104CB00006F6371928BF9844D3E725F00042074B82
:104CC000224318BF1D460027A8E705F10108C8E7E1
:104CD0009C7500883CE4377EFFFF0F000000F0BFAA
:104CE0002DE9F0418AB004460D4600F079F8374BC3
:104CF000064693F900800F46B8F1FF3F0DD02246DB
:104D00002B462046294600F0B9FE30B90022002388
:104D10002046294600F0A8FE20B1304639460AB0A8
:104D2000BDE8F0812A4B0890CDE90245CDE9044564
:104D30000193B8F1000F19D1264F4FF0604620467D
:104D4000294600220023CDE9066700F065FE002811
:104D500034D002230093684600F036FAA8B1089BCD
:104D6000C3B9DDE906010AB0BDE8F0811A4F00269B
:104D70002046294600220023CDE9066700F04CFEBC
:104D800068B1022398450093E5D1FEF7A3F82223EA
:104D90000360E4E7FEF79EF8089B0360E1E7012368
:104DA000B8F1020F00930BD1FEF794F821230360B2
:104DB0000A4800F00BFACDE90601D0E70123009381
:104DC000684600F001FA0028F2D1EDE74400002027
:104DD000B0690A08FFFFEFC70000F0FFB4690A08D6
:104DE0002DE9F04FB1F5801F85B006460F460B4602
:104DF0005ADA024621F00044224300F0F7800029ED
:104E0000C0F279810022D64B00F09EFB0B460F4684
:104E1000D44906468B426FF0350249DCC3F31305D3
:104E200005F5152404F6647404F4801E8EF07F5199
:104E300081F440111B15A3F2FF3341EA05079C18CA
:104E400030460022C84B394604EB1E5400F0C8F926
:104E5000AB1CC3F31303022B82468B464FF00002B8
:104E60002FDC002300F0D8FD002800F0C880002CC3
:104E700000F04A81204600F001FBA5A3D3E90023FE
:104E800006460F4600F060FBA3A3D3E900230446C7
:104E90000D463046394600F057FB02460B46204689
:104EA000294600F09FF909E0AE4900228B42B5DDAA
:104EB00032463B463046394600F094F905B0BDE82D
:104EC000F08F4FF0804300F08DF902460B465046BC
:104ED000594600F063FC064620460F4600F0CEFA25
:104EE0003246CDE900013B4630463946CDE90267FE
:104EF00000F02AFB02460B468046894600F024FB60
:104F000087A3D3E9002306460F4600F01DFB86A3C6
:104F1000D3E9002300F066F932463B4600F014FB6B
:104F200083A3D3E9002300F05DF932463B4600F04D
:104F30000BFB81A3D3E9002300F054F942464B4612
:104F400000F002FB7EA3D3E9002380468946304669
:104F5000394600F0F9FA7CA3D3E9002300F042F9C6
:104F600032463B4600F0F0FA79A3D3E9002300F083
:104F700039F932463B4600F0E7FA0B46024649460D
:104F8000404600F02FF9A5F5C223C5F5D725A3F2B9
:104F90007A4351351D43002D8046894656DD002257
:104FA000724B5046594600F0CFFA52465B4600F02D
:104FB000CBFA06460F46002C68D132463B464046A7
:104FC000494600F00FF9DDE9022300F0BDFA024680
:104FD0000B463046394600F003F902460B46504670
:104FE000594600F0FDF805B0BDE8F08F002200231F
:104FF00000205F4900F0D2FB05B0BDE8F08F56A35A
:10500000D3E900235046594600F09EFA02460B466B
:105010000020564900F0E4F8524606460F465B462B
:105020005046594600F090FA02460B463046394643
:1050300000F08AFA06460F46002C40F09B8002469C
:105040000B465046594600F0CBF837E7002C00F0ED
:10505000A5802FA3D3E90023DDE9000100F074FA55
:1050600042464B4604460D465046594600F0B8F8B5
:10507000DDE9022300F068FA27A3D3E900230646FE
:105080000F46DDE9000100F05FFA21E020A3D3E93B
:105090000023DDE9000100F057FA32463B460446A2
:1050A0000D464046494600F09DF8DDE9022300F038
:1050B0004BFA19A3D3E9002380468946DDE90001B4
:1050C00000F042FA02460B464046494600F08AF894
:1050D00002460B463046394600F082F852465B469F
:1050E00000F07EF802460B462046294600F078F88C
:1050F00005B0BDE8F08F02460B4600F071F80022C3
:10510000002300F04BFBD9E600200021D6E600BFCB
:105110000000E0FE422EE63F763C7935EF39EA3D6D
:1051200044523EDF12F1C23FDE03CB966446C73FD6
:10513000599322942449D23F935555555555E53FEF
:105140009FC678D0099AC33FAF788E1DC571CC3FFA
:1051500004FA97999999D93F555555555555D53FC5
:1051600000005043FFFFEF7F0000F03F0000E03FF2
:10517000000050C3204600F081F90FA3D3E90023BB
:105180008046894600F0E0F90DA3D3E900230446E8
:105190000D464046494600F0D7F999E702460B46CE
:1051A0005046594600F01CF8DDE9022300F0CCF926
:1051B00013E700BFAFF300800000E0FE422EE63FA1
:1051C000763C7935EF39EA3D0020704700200149EF
:1051D000704700BF0000F87F81F0004102E000BF8F
:1051E00083F0004330B54FEA41044FEA430594EAA7
:1051F000050F08BF90EA020F1FBF54EA000C55EAE2
:10520000020C7FEA645C7FEA655C00F0E2804FEAB2
:105210005454D4EB5555B8BF6D420CDD2C4480EA94
:10522000020281EA030382EA000083EA010180EAC4
:10523000020281EA0303362D88BF30BD11F0004F12
:105240004FEA01314FF4801C4CEA113102D0404248
:1052500061EB410113F0004F4FEA03334CEA133383
:1052600002D0524263EB430394EA050F00F0A7809B
:10527000A4F10104D5F1200E0DDB02FA0EFC22FA96
:1052800005F2801841F1000103FA0EF2801843FA8A
:1052900005F359410EE0A5F120050EF1200E012A7B
:1052A00003FA0EFC28BF4CF0020C43FA05F3C018B9
:1052B00051EBE37101F0004507D54FF0000EDCF132
:1052C000000C7EEB00006EEB0101B1F5801F1BD3DB
:1052D000B1F5001F0CD349085FEA30004FEA3C0CDF
:1052E00004F101044FEA445212F5800F80F09A80D5
:1052F000BCF1004F08BF5FEA500C50F1000041EBD9
:10530000045141EA050130BD5FEA4C0C404141EBDC
:10531000010111F4801FA4F10104E9D191F0000F03
:1053200004BF01460020B1FA81F308BF2033A3F186
:105330000B03B3F120020CDA0C3208DD02F1140C7D
:10534000C2F10C0201FA0CF021FA02F10CE002F1B8
:105350001402D8BFC2F1200C01FA02F120FA0CFCB1
:10536000DCBF41EA0C019040E41AA2BF01EB0451FA
:10537000294330BD6FEA04041F3C1CDA0C340EDCF8
:1053800004F11404C4F1200220FA04F001FA02F33B
:1053900040EA030021FA04F345EA030130BDC4F1F9
:1053A0000C04C4F1200220FA02F001FA04F340EAEE
:1053B0000300294630BD21FA04F0294630BD94F09F
:1053C000000F83F4801306BF81F480110134013D86
:1053D0004EE77FEA645C18BF7FEA655C29D094EAF7
:1053E000050F08BF90EA020F05D054EA000C04BF75
:1053F0001946104630BD91EA030F1EBF0021002060
:1054000030BD5FEA545C05D14000494128BF41F0FE
:10541000004130BD14F580043CBF01F5801130BD62
:1054200001F0004545F0FE4141F470014FF00000ED
:1054300030BD7FEA645C1ABF194610467FEA655C9E
:105440001CBF0B46024650EA013406BF52EA033540
:1054500091EA030F41F4002130BD00BF90F0000F2E
:1054600004BF0021704730B54FF4806404F132046A
:105470004FF000054FF0000150E700BF90F0000F23
:1054800004BF0021704730B54FF4806404F132044A
:1054900010F0004548BF40424FF000013EE700BF1A
:1054A00042004FEAE2014FEA31014FEA02701FBFAA
:1054B00012F07F4393F07F4F81F06051704792F07C
:1054C000000F14BF93F07F4F704730B54FF46074F6
:1054D00001F0004521F0004120E700BF50EA010241
:1054E00008BF704730B54FF000050AE050EA0102EE
:1054F00008BF704730B511F0004502D5404261EB5E
:1055000041014FF4806404F132045FEA915C3FF49E
:10551000DCAE4FF003025FEADC0C18BF03325FEA37
:10552000DC0C18BF033202EBDC02C2F1200300FAEC
:1055300003FC20FA02F001FA03FE40EA0E0021FA11
:1055400002F11444C1E600BF70B54FF0FF0C4CF4FB
:10555000E06C1CEA11541DBF1CEA135594EA0C0FB1
:1055600095EA0C0F00F0DEF82C4481EA030621EAEC
:105570004C5123EA4C5350EA013518BF52EA033527
:1055800041F4801143F4801338D0A0FB02CE4FF0D9
:105590000005E1FB02E506F00042E0FB03E54FF009
:1055A0000006E1FB03569CF0000F18BF4EF0010E01
:1055B000A4F1FF04B6F5007F64F5407404D25FEAFD
:1055C0004E0E6D4146EB060642EAC62141EA5551B0
:1055D0004FEAC52040EA5E504FEACE2EB4F1FD0CF2
:1055E00088BFBCF5E06F1ED8BEF1004F08BF5FEA70
:1055F000500E50F1000041EB045170BD06F0004622
:1056000046EA010140EA020081EA0301B4EB5C04CE
:10561000C2BFD4EB0C0541EA045170BD41F48011C6
:105620004FF0000E013C00F3AB8014F1360FDEBFEB
:10563000002001F0004170BDC4F10004203C35DAC7
:105640000C341BDC04F11404C4F1200500FA05F34A
:1056500020FA04F001FA05F240EA020001F00042EB
:1056600021F0004110EBD37021FA04F642EB060161
:105670005EEA430E08BF20EAD37070BDC4F10C048B
:10568000C4F1200500FA04F320FA05F001FA04F24F
:1056900040EA020001F0004110EBD37041F100013B
:1056A0005EEA430E08BF20EAD37070BDC4F1200546
:1056B00000FA05F24EEA020E20FA04F301FA05F2AE
:1056C00043EA020321FA04F001F0004121FA04F256
:1056D00020EA020000EBD3705EEA430E08BF20EA26
:1056E000D37070BD94F0000F0FD101F00046400060
:1056F00041EB010111F4801F08BF013CF7D041EAE2
:10570000060195F0000F18BF704703F000465200E5
:1057100043EB030313F4801F08BF013DF7D043EAB6
:105720000603704794EA0C0F0CEA135518BF95EA6C
:105730000C0F0CD050EA410618BF52EA4306D1D1F3
:1057400081EA030101F000414FF0000070BD50EA12
:10575000410606BF1046194652EA430619D094EA9C
:105760000C0F02D150EA013613D195EA0C0F05D186
:1057700052EA03361CBF104619460AD181EA0301DA
:1057800001F0004141F0FE4141F470014FF0000092
:1057900070BD41F0FE4141F4780170BD70B54FF02D
:1057A000FF0C4CF4E06C1CEA11541DBF1CEA1355AD
:1057B00094EA0C0F95EA0C0F00F0A7F8A4EB05048F
:1057C00081EA030E52EA03354FEA013100F0888086
:1057D0004FEA03334FF0805545EA131343EA12634F
:1057E0004FEA022245EA111545EA10654FEA002604
:1057F0000EF000419D4208BF964244F1FD0404F5BD
:10580000407402D25B084FEA3202B61A65EB030518
:105810005B084FEA32024FF480104FF4002CB6EBD5
:10582000020E75EB030E22BFB61A754640EA0C0055
:105830005B084FEA3202B6EB020E75EB030E22BF95
:10584000B61A754640EA5C005B084FEA3202B6EBD6
:10585000020E75EB030E22BFB61A754640EA9C0095
:105860005B084FEA3202B6EB020E75EB030E22BF65
:10587000B61A754640EADC0055EA060E18D04FEA23
:10588000051545EA16754FEA06164FEAC30343EAC3
:1058900052734FEAC2025FEA1C1CC0D111F4801F90
:1058A0000BD141EA00014FF000004FF0004CB6E789
:1058B00011F4801F04BF01430020B4F1FD0C88BF28
:1058C000BCF5E06F3FF6AFAEB5EB030C04BFB6EB33
:1058D000020C5FEA500C50F1000041EB045170BD26
:1058E0000EF0004E4EEA113114EB5C04C2BFD4EB53
:1058F0000C0541EA045170BD41F480114FF0000ED7
:10590000013C90E645EA060E8DE60CEA135594EA52
:105910000C0F08BF95EA0C0F3FF43BAF94EA0C0F55
:105920000AD150EA01347FF434AF95EA0C0F7FF4CA
:1059300025AF104619462CE795EA0C0F06D152EA1E
:1059400003353FF4FDAE1046194622E750EA410602
:1059500018BF52EA43067FF4C5AE50EA41047FF413
:105960000DAF52EA43057FF4EBAE12E74FF0FF3C78
:1059700006E000BF4FF0010C02E000BF4FF0010C49
:105980004DF804CD4FEA410C7FEA6C5C4FEA430CC2
:1059900018BF7FEA6C5C1BD001B050EA410C0CBF11
:1059A00052EA430C91EA030F02BF90EA020F002073
:1059B000704710F1000F91EA030F58BF994208BFDA
:1059C00090422CBFD8176FEAE37040F00100704797
:1059D0004FEA410C7FEA6C5C02D150EA013C07D1EE
:1059E0004FEA430C7FEA6C5CD6D152EA033CD3D039
:1059F0005DF8040B704700BF8446104662468C4633
:105A00001946634600E000BF01B5FFF7B7FF002865
:105A100048BF10F1000F01BD4DF808EDFFF7F4FF8E
:105A20000CBF012000205DF808FB00BF4DF808ED19
:105A3000FFF7EAFF34BF012000205DF808FB00BF3C
:105A40004DF808EDFFF7E0FF94BF012000205DF85E
:105A500008FB00BF4DF808EDFFF7CEFF94BF012013
:105A600000205DF808FB00BF4DF808EDFFF7C4FF0C
:105A700034BF012000205DF808FB00BF4FEA410C55
:105A80007FEA6C5C02D150EA013C0AD14FEA430C38
:105A90007FEA6C5C02D152EA033C02D14FF0000075
:105AA00070474FF0010070474FEA410212F50012B3
:105AB00015D211D56FF47873B3EB625212D94FEA55
:105AC000C12343F0004343EA505311F0004F23FA3F
:105AD00002F018BF404270474FF00000704750EA94
