:02000004080AE8
:1000000000000A08D0680A08000006000600050182
:08001000040279050000000064
:0400180084600A08EE
:1000200009480A4908B5884205D0094A824202D0E7
:10003000121A05F025FF0748074A0021121A05F099
:100040002AFF064808BD00BF0000002004680A0817
:10005000A4000020A40000201008002010080020A8
:1000600070B503F08BFB074B074C1E46E41AA4083F
:100070000025A54204D056F8253098470135F8E709
:1000800070BD00BF4C670A08A0670A0800F0CABD2F
:1000900008B500F08DFFBDE8084003F031BB02F069
:1000A00015BD02F013BD02F019BD02F017BD0078B6
:1000B000B0FA80F040097047012303707047704721
:1000C00003681847012A02D0022A02D004E0016026
:1000D00002E00B6800B103600020704708B503F030
:1000E0000DF9014B186008BD3402002008B503F07B
:1000F00005F9014B186008BD3802002010B5012336
:100100000374836804460BB1C06806E0006828B138
:1001100083680BB904F069FAC368984701236374D4
:100120000020BDE8104002F003BB10B58368044610
:1001300013B1032201469847204610BD38B5044646
:1001400070B1056835B12846FFF7EFFF102128464A
:1001500004F03AFA2046BDE83840142104F034BADD
:1001600038BD10B543690446BBB1586802F0C0FA07
:1001700078B963695A7C12B9586802F0C1FA6369A8
:10018000586802F0C5FA60690023636128B1FFF77F
:10019000D5FF606908B1FFF7D1FF201DFFF7C5FF4C
:1001A000204610BD08B502F08BFA014B186008BD5F
:1001B0003807002030B51D4687B00023044604935D
:1001C00022B1214B02920593204B04930023E3605C
:1001D000049B21603BB1022202A9201D9847059B88
:1001E0002361049BE3601A49142004F0EFF930B155
:1001F00000230374036043608360C36043746061E1
:10020000A0B1144B0922836063691349DC60606903
:10021000124B8DE82100043002F062FA30B96369B4
:100220001B7C4BB9012002F03BFAF8E76069002320
:10023000636108B1FFF782FFFFF7B4FF02A8FFF781
:1002400074FF204607B030BDC1000A08C5000A0887
:10025000D8650A082D450A08B8600A08FD000A0892
:1002600000B500218DB0072004F0E9F8FFF79AFFF0
:100270002149684602F0A9FF694608A802F0C7FFB5
:100280001E4904A802F0A1FF04A908A803F018F869
:1002900001681B4801F0CCFF04A802F04FFF08A83A
:1002A00002F04CFF684602F049FF1548154901F07D
:1002B00013FE134801F0D7FED0B10121072004F04E
:1002C000BEF80D4908A802F080FF08A904A802F0B2
:1002D0009EFF0D4904A802F0FFFF022201680848B2
:1002E00002F050F904A802F029FF08A802F026FF46
:1002F0000DB05DF804FB00BFBF600A08C3600A08C8
:1003000070010020BF000A08CA600A0870B50546DF
:1003100092B021480C4601F0A6FE002839D01F49B2
:100320000AA802F052FF0AA906A802F070FF1C49B1
:1003300006A802F0D1FF06461A490EA802F045FFB2
:100340000EA9304602F0BCFF154902F0C5FF294650
:1003500002F0B6FF0546204605F0FBFD0DF1160341
:1003600003930121022200238DE80E00034622465A
:100370002968094801F06CFF0EA802F0DFFE06A80C
:1003800002F0DCFE0AA802F0D9FEBDF81620064BEA
:100390001A8012B070BD00BF70010020BF600A0853
:1003A000CD600A08C3600A086001002010B502F0A1
:1003B000A5FFB0F5805F044605DA82B2002308216C
:1003C000024801F01DFC204610BD00BFF0010020D6
:1003D00010B502F093FFB0F5805F044605DA82B2F3
:1003E00000230421024801F00BFC204610BD00BF91
:1003F000F001002010B504F0B9F803F0FBFE0A4C40
:1004000004F0B4F8242103F00BFFFF23237004F061
:10041000ADF8036821789B68984704F0A7F8BDE819
:10042000104003F004BF00BF3000002010B504F0FE
:100430009DF803F0DFFE0A4C04F098F8242103F045
:10044000EFFE0023237004F091F8036821789B6885
:10045000984704F08BF8BDE8104003F0E8BE00BFF9
:10046000300000202DE9FF412F4D01232B70FFF7B5
:10047000C1FF4FF4FA5003F0E9F8FFF793FE2B4861
:1004800001F0EDF9C82003F0E1F82949294802F00C
:10049000C9FEDFF8A8802E460024002508EBC40121
:1004A000224801F0C0F9F02003F0D0F8224B234F8E
:1004B00043F8245001340C2CF0D1FFF773FE0024D4
:1004C0000A222146684602F0BEFE6946194802F03B
:1004D000E4FE684602F032FE1949164802F0E1FED9
:1004E0004FEAC40800257B1913F80820154968460F
:1004F00002F00AFF69460F4802F0CFFE0135684658
:1005000002F01CFE082DEED10F490A48013402F01A
:10051000C8FE0C2CD4D100243470FFF787FF20468E
:1005200004B0BDE8F08100BF62010020600200203D
:100530005B640A0804020020000000200040024022
:10054000CF600A08D1600A08D6600A0870B506466E
:100550000024002231460A4801F084F90546084883
:1005600001F03AFA28B90134042CF2D100200549EF
:1005700070BD032CFAD0284604F0EAFD70BD00BF20
:100580006002002000C058C010B50D4C88B0236830
:10059000A3B10C49684602F018FE0222002104A80B
:1005A00002F051FE04996846FFF7B0FE04A802F07D
:1005B000C5FD684602F0C2FD0023236008B010BDEF
:1005C000B0000020D8600A081FB50749684602F04D
:1005D000FCFD064B68461968FFF798FE684602F076
:1005E000ADFD05B05DF804FBE1600A0804020020DF
:1005F000B0B51546044602F1080388B023F007039E
:1006000000AFADEB030D684605F03AFC00236946E8
:1006100038460DF8053002F0D8FDFFF7C3FD484914
:10062000204605F069FC48B9394607F1100002F090
:10063000EEFD07F11000FFF7CBFE77E041492046C1
:1006400005F05AFC48B9394607F1100002F0DFFD09
:1006500007F11000FFF7AAFE68E03B49204605F0CD
:100660004BFC054630B9384602F048FE2B4682B2B4
:1006700002210BE03549204605F03EFC054648B90D
:10068000384602F03BFE2B4682B20321304801F08F
:10069000B7FA4FE02F49204605F02EFC054630B949
:1006A000384602F02BFE2B4682B22946EEE72A4955
:1006B000204605F021FC054630B9384602F01EFE02
:1006C0002B4682B20121E1E72449204605F014FCC3
:1006D00078B9394607F1100002F099FD07F11000D2
:1006E000FFF7C0FE07F1100002F028FDFFF76CFFD6
:1006F00020E01B49204605F0FFFB48B9394607F1C9
:10070000100002F084FD07F11000FFF7E7FC0DE098
:100710001449204605F0F0FB60B9394607F1100096
:1007200002F075FD07F11000FFF7E0FC07F1100083
:1007300002F004FD384602F001FD2037BD46B0BD91
:10074000F1600A0803610A0815610A082C610A08A9
:10075000F001002043610A085A610A0871610A0821
:100760008D610A08A3610A08022A05D0032A06D06F
:10077000012A06D10843704720EA0100704748402B
:100780007047002070470000082870B504460E46E8
:100790001ADC03F0EBFE242103F042FD0B4D013C7B
:1007A0000121A14032462878C9B2FFF7DDFF287049
:1007B00003F0DCFE036829789B68984703F0D6FEB7
:1007C000BDE8704003F033BD70BD00BF30000020B5
:1007D0000221FFF7D9BF0121FFF7D6BF38B55A4D27
:1007E000296811F001040CD12846FFF760FC40B1E4
:1007F0002146564801F0ABF9554B18602846FFF7E3
:100800005BFC544C2368DB070CD42046FFF74FFCFD
:1008100040B101214D4801F09AF94F4B1860204634
:10082000FFF74AFC4D4C2368092B00F28C80DFE86F
:1008300003F005343C4749515F75798601F040FF6C
:10084000474D28600520FFF7C6FF0720FFF7C3FFCD
:100850000620FFF7C0FF434A137883F001031370AB
:100860001BB101F02DFF404B1860404B4FF4FA7262
:100870001B680121022BC8BF2B683448C4BFA3F5F5
:10088000FA632B60002301F0BBF900234FF4FA72E6
:1008900019462E4801F0B4F94EE001F011FF304B3B
:1008A0001B6803F5C343283344E00720FFF790FF9C
:1008B00001F006FF2A4B1B6803F5E243483339E099
:1008C00004233FE001F0FCFE254B1B6803F5564373
:1008D000D8332FE00720FFF77BFF0520FFF778FFD5
:1008E00001F0EEFE1E4B1B6803F57D43E83321E06B
:1008F000194A002312880121144801F081F9144A91
:10090000002319461288114801F07AF901F0D8FE47
:10091000134B1B6803F59233F8330BE00620FFF707
:1009200057FF09E001F0CCFE0D4B1B6803F5B9330E
:1009300003F58C73984206D92368013302E00B4A11
:1009400000231360236038BDCC010020F00100209B
:10095000DC000020EC000020E0000020C8010020A6
:10096000D8000020A8000020F40000203802002059
:1009700038B58F4C2368D9070CD42046FFF797FB76
:1009800040B102218B4801F0E2F88B4B1860204601
:10099000FFF792FB894C2368DA070CD42046FFF757
:1009A00086FB40B10321834801F0D1F8844B1860E5
:1009B0002046FFF781FB834C2368DB070CD42046DD
:1009C000FFF775FB40B104217A4801F0C0F87E4B77
:1009D00018602046FFF770FB7C4C23680A2B00F25E
:1009E000E580DFE813F00B0042005D00E300E30068
:1009F000680072007C009900C100DF0001F060FE19
:100A0000734D002340F6FF7204212860694801F00D
:100A1000F7F80320FFF7DFFE0220FFF7DCFE0420DB
:100A2000FFF7D9FE6B4A137883F0010313701BB1F3
:100A300001F046FE684B1860684B4FF4FA721B6871
:100A40000321012BC8BF2B685A48C2BFA3F5C3437B
:100A5000283B2B60002301F0D3F800234FF4FA72F7
:100A60000221544801F0CCF87BE05D4B5D491869E8
:100A700005F0D4F910B10120FFF7ADFE01F020FE22
:100A8000534B1B6803F59C530833984240F28E8009
:100A90002368012001332360BDE83840FFF79BBE87
:100AA00001F00EFE4A4B1B6803F57D43E833984284
:100AB0007CD9052379E00220FFF78AFE0320FFF7A7
:100AC0008AFE0120FFF784FE4BE001F0F9FD434B65
:100AD0001A683F4B1B6803F5F43348333BE00220B0
:100AE000FFF776FE0320FFF773FE3A4B0025012047
:100AF0001D70FFF76DFE344A2B46128804212D48E5
:100B000001F07EF801F0DCFD344B1A68304B1B68B5
:100B100003F5213388331EE0294A0023128803217C
:100B2000244801F06DF8244A00231288022121484C
:100B300001F066F8244A0023128804211D4801F0C0
:100B40005FF801F0BDFD254B1A68214B1B6803F5CA
:100B5000433303F5A07342F2107101FB0233984254
:100B600024D92368013320E00420FFF731FE01F08F
:100B7000A7FD42F21071194B1A68154B1B6803F55B
:100B8000563303F5587301FB023398420ED923689C
:100B9000012001332360FFF71BFEBDE8384002202F
:100BA000FFF716BE0D4A00231360236038BD00BF57
:100BB00068010020F0010020340100205C010020C9
:100BC00038010020E4000020D0000020E8000020D0
:100BD0007C020020E4010020F0000020340200200C
:100BE000400200200080D44308B503F0BFFC24215C
:100BF00003F016FB03F0BAFC036800219B689847DA
:100C0000064B00221A7003F0B1FC03F010FB044AFB
:100C1000137883F00103137008BD00BF300000207B
:100C20002C0100201FB52549684602F0CEFA244C5D
:100C30006846FFF717FC684602F080FA214A22490D
:100C4000204602F025FE214A21492046214C02F08F
:100C50001FFE0121072003F0E1FB204601F03AF8D6
:100C600020461D4901F044F82046002340F6B832E2
:100C7000012100F0C5FF002340F6543219462046FA
:100C800000F0BEFF03F072FC03F0B4FA134C03F063
:100C90006DFC242103F0C4FAFF23237003F066FCEB
:100CA000036821789B68984701210846FFF79CFF5D
:100CB00003F05CFC03F0BBFA04B010BD5B640A08EF
:100CC00065380A08B9610A08DD000A08C2610A0825
:100CD000ED000A08F00100200080BB443000002035
:100CE0002DE9F3413B4B93F90E4003F03FFC2146C5
:100CF00003F096FA03F03AFC03F099FA002832D197
:100D00000446661C02231022F1B2009331480123ED
:100D100000F07AFE2F4800F0DDFE2F4B2F4D43F8F8
:100D2000240004F06BFE2E4904F0B2FD2D4904F0BE
:100D30006DFF2D4B074653F8240004F05FFE01467B
:100D4000384604F0AFFE042E45F824003446D8D1CE
:100D50002C682649204605F043F820B12449204656
:100D600004F098FD2860234B93F90E4003F0FEFB3E
:100D7000214603F055FA03F0F9FB03F058FA30BBB3
:100D80001D4F1E4E1E4D042402231022E1B200937B
:100D90001848012300F038FE164800F09BFE47F883
:100DA000040F04F02BFE0E4904F072FD0D4904F00F
:100DB0002DFF804656F8040F04F020FE0146404601
:100DC00004F070FE0134092C45F8040FDCD102B0A8
:100DD000BDE8F081140200203C0100204002002008
:100DE00000A8B5450032B84698600A0800001644CD
:100DF000000070412402002044010020A0600A0885
:100E00004802002038B5046805467CB16368013BA0
:100E100063605BB9236820469B689847A368013BE1
:100E2000A3601BB923682046DB689847284638BD75
:100E300010B5294CCCB0E06A04F08AF9CDE916016E
:100E4000A06A04F085F9CDE91401606A04F080F924
:100E5000CDE91201206A04F07BF9CDE91001E069C7
:100E600004F076F9CDE90E01A06904F071F9CDE93D
:100E70000C01606904F06CF9CDE90A01206904F005
:100E800067F9CDE90801E06804F062F9CDE90601EF
:100E9000A06804F05DF9CDE90401606804F058F938
:100EA000CDE90201206804F053F90C4ACDE90001B4
:100EB000C8211AA801F022FE094B1AAA1B78094979
:100EC0008DF8003018A83C2302F0F2FD19A8FFF7B6
:100ED00099FF4CB010BD00BF00000020FF610A0860
:100EE000D40000203B620A082DE9F0432A4CC5B02B
:100EF0000221204600F02BFE03210546204600F08B
:100F000026FE00210646204600F021FE012107466C
:100F1000204600F01CFE04218046204600F017FE0B
:100F200008218146204600F012FE1C4C0F90CDF89F
:100F30003890CDF834800C970B960A95206904F010
:100F400007F9CDE90801E06804F002F9CDE90601EE
:100F5000A06804F0FDF8CDE90401606804F0F8F839
:100F6000CDE90201206804F0F3F80D4ACDE9000153
:100F7000C82112A801F0C2FD0A4B12AA1B780A4927
:100F80008DF8003010A83C2302F092FD11A8FFF765
:100F900039FF45B0BDE8F083F00100204002002099
:100FA00043620A08D400002074620A0800000000AE
:100FB0002DE9F047484888B001F055F810B146488F
:100FC00001F0DAF901F07CFB444E454C33680746EA
:100FD00020604BB904F09AF83BA3D3E9002303F057
:100FE00059FF04F0E1FB30603E4D2B6853B93846A1
:100FF00004F08CF836A3D3E9002303F04BFF04F090
:10100000D3FB2860384FFFF7CDF83849386804F033
:1010100005FF10B10820FFF7DEFB3449386904F002
:10102000FDFE10B10120FFF7D6FB314F23683A686F
:101030009B1A40F26B72934202D901F041FB386077
:10104000236832689A1A2B4B9A421F4612D92A4BB0
:101050000021186804F0C4FE48B1284904A802F031
:10106000B4F804A8FFF73AF804A802F067F801F012
:1010700027FB306023682A689B1ABB4212D91E4B9B
:101080000021986804F0ACFE48B11C4904A802F0A5
:101090009CF804A8FFF72AF804A802F04FF801F022
:1010A0000FFB2860164B226819681D46521AB2F5CC
:1010B000FA6F2ED3084800F0D6FF18BBFFF7D0F820
:1010C00024E000BFAFF300800000000000F92541DC
:1010D0000000000000F9354170010020E801002007
:1010E0006C010020EC01002040020020004003447D
:1010F00030010020FF9E2400000000207B620A08CF
:10110000AC0000200121072003F099F901F0D8FA82
:101110002860834D23682A689B1A40F6B7329342B1
:1011200040F2FB807F4B1B7813B901F0C9FA2860AD
:10113000DFF830A27C4FDFF8308200250AEBC509CA
:101140004846FFF703FA04F04FFB386001460646B5
:1011500004F06EFE50B14846FFF7F8F904F044FB86
:1011600038600146064604F063FE08B948F8256079
:101170000135FFF717F80C2DE0D16C4D23682A6874
:101180009B1AB3F5C87F0AD3FFF7AAFD01F098FABE
:10119000286001F095FA01F093FAFFF703F8644B29
:1011A0001B680BB1FFF7E4FB624B1B680BB1FFF749
:1011B00015FB614D23682A689B1A40F6B7329342AB
:1011C00040F2938001F07CFA2860FFF78DFEFEF775
:1011D000E9FF5A4904A801F0F8FF0221584800F03D
:1011E000B6FC0A220146684602F02DF8009904A8D0
:1011F000FFF78CF8684601F0A1FF04A801F09EFFFC
:10120000504904A801F0E1FF03214D4800F09FFC84
:101210000A220146684602F016F8009904A8FFF772
:1012200075F8684601F08AFF04A801F087FF464977
:1012300004A801F0CAFF0021414800F088FC0A22FE
:101240000146684601F0FFFF009904A8FFF75EF829
:10125000684601F073FF04A801F070FF3B4904A841
:1012600001F0B3FF0121364800F071FC0A2201466B
:10127000684601F0E8FF009904A8FFF747F86846C0
:1012800001F05CFF04A801F059FF314904A801F006
:101290009CFF04212A4800F05AFC0A2201466846B5
:1012A00001F0D1FF009904A8FFF730F8684601F07B
:1012B00045FF04A801F042FF264904A801F085FF7C
:1012C00008211F4800F043FC0A220146684601F04D
:1012D000BAFF009904A8FFF719F8684601F02EFF3D
:1012E00004A801F02BFFFFF74FF91B4D23682A6874
:1012F0009B1A1A4A934202D901F0E2F92860184D6C
:1013000023682A689B1AB3F5FA5F04D3FFF790FDB0
:1013100001F0D6F92860FEF745FF08B0BDE8F08778
:1013200080020020620100203C020020CC0000204E
:101330003402002038020020E001002022610A0867
:10134000F001002039610A0850610A0867610A0843
:101350007D620A0882620A08F8000020BFD40100FA
:101360006401002000400240000000202DE9F0410F
:10137000304B314E0125314C1D7001F041F94FF4D5
:1013800080632F4A47F230513046FEF713FFDFF8F3
:10139000F08030462B4E22462B4903F007F92B4FA5
:1013A0004146304601F011FF3046294E224639466B
:1013B00003F0FCF84146304601F007FF3046254E69
:1013C0002246394603F0F2F800220421304600F0AC
:1013D00013FA3046204E2246204903F0E7F8204F0A
:1013E0006821304600F000FB30461E4E224639464A
:1013F00003F0DCF86E21304600F0F6FA30461A4E63
:101400002246394603F0D2F8184B40F25B72184975
:10141000304600F03FFD22461649304603F0C6F83C
:101420002A464021144800F08FFBBDE8F0411348E4
:1014300000F0C4B9D4000020B4000020A4000020B3
:10144000952B0A080402002063010A083D310A08AE
:10145000D001002060020020140200204F180A086A
:10146000011A0A082402002070010020F1050A0870
:1014700087620A08D1250A08F0010020FC0000203C
:101480005B640A0801F0BCB802881C23534342681D
:10149000D118D3588A885A83704738B504460D4608
:1014A00001F0AEF800216060284602F0B7FF258009
:1014B000204638BD38B5054602F0C4FD0021288815
:1014C00001F0A6F802F0C0FD7D24013C14F0FF04F9
:1014D0002DD0022001F0ECF8288801F0B1F810F0CE
:1014E000FF0FF2D002F0AEFD2846FFF7CDFF01213D
:1014F000288801F08DF802F0A7FD4FF4F07001F09C
:10150000D7F802F09FFD0021288801F081F84620DD
:1015100001F0CEF8288801F093F8C0B2B0FA80F458
:1015200002F092FD4FF4CD70640901F0C1F820463D
:1015300038BD38B511F00105044613D002F082FD24
:101540002046FFF7A1FF0121208801F061F80A2061
:1015500001F0AEF82088002101F05AF802F074FD85
:10156000372012E002F06EFD2046FFF78DFF0121CB
:10157000208801F04DF8412001F09AF82088294692
:1015800001F046F802F060FD0520BDE8384001F0AA
:101590008FB810B5044602F055FD2046FFF774FFE2
:1015A0000121208801F034F8032001F081F80021A6
:1015B000208801F02DF80A2001F07AF8208801F047
:1015C0003FF8044602F040FD352001F071F8E0B22A
:1015D00010BD2DE9F041054688461746082601242E
:1015E00018EA040F14BF012100212846FFF7A1FFCC
:1015F0006400013EE4B2F3D18FB102F023FD2A88EA
:101600001C2353436A68D118D3588A8801211A834E
:10161000288800F0FDFFBDE8F04102F015BDBDE8EF
:10162000F081F8B507460826002501243846FFF763
:10163000B0FF00B125436400013EE4B2F6D1284674
:10164000F8BD70B500220C4655210646FFF7C1FFD4
:10165000651E073415F8011F00223046FFF7B9FF59
:10166000A542F7D170BD0022CC21FFF7B2BF002305
:1016700003748374437400F11002083002F8013DD2
:101680008242FBD170472DE9F047857C04468846AD
:10169000002D5ED1FFF70EFF20B92074A074607496
:1016A000BDE8F0872A46F02120460126FFF791FF8A
:1016B000AA4637462046FFF76CFF81462046FFF7D3
:1016C00068FFB9F1010F02D101281BD137E0814534
:1016D00004EB05031ED1227C974207D21A7A1642E8
:1016E00014BF4FF001094FF0000904E00CBF4FF0A8
:1016F00001094FF00009B9F1000F03D1082F08D8F4
:10170000677406E06219137A4FF0010933431372CC
:1017100004E0BA461A7A22EA06021A7249462046BC
:101720007600FFF706FF16F0FF0604BF0135EDB2A5
:1017300007F1010708BF0126072DFFB2BAD9402FD4
:1017400007D984F810A0BAF1000F12D10123A374B5
:101750000FE000202074A0746074E31D08F1FF38CE
:101760000F3413F8012FA34208F8012FF9D1BDE877
:10177000F087237A002BECD00120EEE730B5054648
:1017800000200139C9B2FF2913D015F8014B0822F6
:1017900080EA040313F0010F4FEA50001CBF80F0F1
:1017A0008C03D8B2531E13F0FF024FEA5404EFD15A
:1017B000E7E730BD00F024BF00F022BF034609492F
:1017C00000F10C0203C982E8030000225A619A6109
:1017D0001A771A6220219A620A22596283F82C2011
:1017E0001846704798620A08024B00221A7000F0EF
:1017F00007BF00BF8402002070B504460023636069
:10180000A360E3602361636123766376A27614208C
:101810000E46FEF744FC054610B13146FFF73DFE8B
:101820002560204670BD38B500F110050C460068F3
:101830002946FFF728FF031E17BF2B68236023608C
:101840006B6818BF0120636008BF002038BD10B569
:1018500004461421006802F0B7FE204610BD00685F
:10186000FFF705BFF8B5837E04460D4616461BB943
:101870000B78002B00F0A4802068FFF71BFEA37EEE
:1018800023B11EB92068FFF7EEFE03E02946206869
:10189000FFF7D7FE002244212068FFF79AFE40F2AE
:1018A000E92001F0D3FE2068FFF704FEA37E23B1F8
:1018B0001EB92068FFF7D7FE03E029462068FFF72E
:1018C000C0FE0022BE212068FFF783FE2B78262B66
:1018D00004D1002211462068FFF77BFEE61C04F1CC
:1018E0000C072068FFF79DFE06F8010FBE42F8D1F5
:1018F0000821201DFFF742FF237B20769842637664
:101900005ED12B78222B1BD016D8102B58D1E37A1E
:10191000A088102B08BFA37A4FEAC00002BF20F0B6
:101920000F00C3F10C03C01800B204F067F84FF0C9
:10193000765104F0B7F8F8BD262B1FD0282B3FD1E5
:10194000227A237902F06002202A05D0402A06D0AC
:1019500042B923F0070304E023F0030301E023F07E
:10196000010323712379607943EA002000B203F078
:10197000DDFB0022134B03F03FFC1EE0A579284657
:1019800003F0D4FB064660790F46C00804F036F831
:1019900003F0DEFB00220C4B03F02EFC0B46290665
:1019A000024648BF09494FF0000058BF084903F0FC
:1019B00023FC32463B4603F06DFA03F015FFF8BDF9
:1019C0000448F8BD0000B03F0000A03F0000F0BF99
:1019D0000000F03F0000C07F027E407E131A584294
:1019E0005841704700F00CBE38B50C46054644F02F
:1019F000680402F0BBFD02F0FDFBAC73284638BD65
:101A0000704700000000000038B5044602F0FD05F4
:101A10009DF810000C2D607202D0102A18BF0C2205
:101A200022712279013963710C3A43EA41030221A0
:101A300092FBF1F242EA83038B40237203F066FBD0
:101A400002F0A6FF0EA3D3E9002303F0FFFC03F08E
:101A500083FE237A1843207202F088FDA17B02F0F6
:101A6000DBFB02F083FD217A036841F080019B6873
:101A70002172984702F07AFDBDE8384002F0D7BBEA
:101A8000EF39FAFE422EE63F70B504460323837217
:101A900002F06CFDA27AA17B02F0BBFB002502F0F4
:101AA00065FD03686E1C1B69984770B102F05EFD0E
:101AB0000368EDB25B6998472544E872A37A35461E
:101AC00023449B7ADB11E371E9E7E079003018BF2A
:101AD000012070BD10B50446002303602046FFF7C7
:101AE000D3FF0028FAD123790E2B0FD0102B19D059
:101AF0000C2B21D1E37A03F00F02237B43EA02236C
:101B0000B3F5006FA8BFA3F5805314E0E37A03F0A8
:101B10003F02237B43EA0223B3F5005FA8BFA3F58E
:101B2000804308E0E27A237B43EA0223B3F5004FC7
:101B3000A8BFA3F580332360206810BD00F060BD0E
:101B40000368C9B29B68184701704270704700EB88
:101B50004101488870470000F8B51D4643780746A4
:101B60000C46164603B302F00BFA224901F01AFCA8
:101B700002F006FA0A22214601F051FC02F000FAB6
:101B80001D4901F00FFC02F0FBF90A22314601F079
:101B900074FC02F0F5F9194901F004FC02F0F0F9C7
:101BA0000A22294601F06BFC02F0E0FC397802F0D1
:101BB00033FB02F0DBFCA1000631FFF7C1FF02F0AE
:101BC000D5FC3146FFF7BCFF02F0D0FC310AFFF72D
:101BD000B7FF02F0CBFC2946FFF7B2FF02F0C6FCCC
:101BE000290AFFF7ADFF02F0C1FCBDE8F84002F0A2
:101BF0001EBB00BFA0620A08B5620A08BA620A08E2
:101C0000F0B540F6FF7E7245A8BF724622EAE27543
:101C1000ACB200EB4102548006460F461A4693B11F
:101C20001DB900234FF4805204E0754505D14FF4EF
:101C300080530022394630460AE0C4F57F630F33F3
:101C40009BB2002204E07545EBD0002DEFD0234677
:101C5000BDE8F040FFF780BF38B504460D4602F0FE
:101C600085FC217802F0D8FA02F080FC036829464E
:101C70009B68984702F07AFC02F0D9FA02F076FCF1
:101C80000122217802F0C5FA02F070FC03685B695A
:101C90009847C0B238BD70B5064614460D4602F0EE
:101CA00065FC317802F0B8FA02F060FC036829465E
:101CB0009B68984702F05AFC036821469B68984746
:101CC00002F054FCBDE8704002F0B1BA00221146A7
:101CD000FFF7E1BF10B5044602F048FC02F08AFAB3
:101CE0002046BDE81040FFF7F1BF000000000000F3
:101CF00073B5437804460D468BB102F041F93C4977
:101D000001F050FB02F03CF90646284603F020FAA9
:101D10000223009302460B46304601F069FC284638
:101D200003F016FA30A3D3E9002303F065FA03F0B9
:101D30005BFD01462F4803F069FF4FF07E5103F031
:101D4000A7FD637805468BB102F01AF92A4901F024
:101D500029FB02F015F90646284603F0F9F902239B
:101D6000009302460B46304601F042FC284603F041
:101D7000EFF9224B002203F08DF802F081FD03F011
:101D800013FD6378C6B253B102F0FAF81C4901F0B2
:101D900009FB02F0F5F80A22314601F042FB00216E
:101DA0002046FFF759FF054600F06F0242F010028F
:101DB00020460021FFF76FFF32462046FE21FFF745
:101DC0006AFF2A4600212046FFF765FF052001F043
:101DD0003DFC204665F05E02D2B2002102B0BDE8B3
:101DE0007040FFF758BF00BFCDCCCCCCCCCCEC3F83
:101DF000BF620A0820BCBE45D7620A080000E03F67
:101E0000ED620A0800F0FCBB38B50B4B846905464F
:101E100003607CB16368013B63605BB92368204663
:101E20009B689847A368013BA3601BB923682046C1
:101E3000DB689847284638BD44630A0810B5044655
:101E4000FFF7E2FF20461C2102F0BEFB204610BD3A
:101E500038B51D46059B044603630023436302B166
:101E6000826419B104F1380001F0DCF9049BE069E7
:101E70002365069BA4F84C50FF2BB8BFFF23A4F8A2
:101E8000543008B1FEF711F9B4F85400FEF709F91F
:101E9000E06138BD2DE9FF410446174698460E46DD
:101EA000002501F0F3F8E5610A4904F1380001F07A
:101EB0008CF9FF2302930F2300932046A564CDF8ED
:101EC00004803B462A463146FFF7C2FF204604B055
:101ED000BDE8F0815B640A084163704710B50446B1
:101EE000204600F067FF0028FAD0204600F017FFD8
:101EF000C0B210BD2DE9F0470546C4698A46FFF718
:101F0000EDFF4FF0010846462070EB69002793F87B
:101F1000009009F0F0092846FFF7E0FFEB69741C18
:101F2000985500F07F0303FB08770306A4B2BFB205
:101F30004FEAC81801D52646EDE7631EB9F1300F08
:101F40008AF8003013D12846D5F81C80FFF7C6FF69
:101F500008F804002846D5F81C80FFF7BFFFF41CE2
:101F60000236B6B2A4B208F80600022300E000234D
:101F70001B1B9EB2A3199BB29F420BD92846FFF7A9
:101F8000ADFFB5F85430A34284BFEB691855013456
:101F9000A4B2EFE7B5F85400A0422CBF20460020C1
:101FA000BDE8F087F7B507468E461E461D4600245D
:101FB00005F07F0302A9ED09214418BF43F0800317
:101FC000013401F8043CE4B2002DF1D1C4F1040362
:101FD000D11802F803E0A54206DA01A82B1B285C01
:101FE000134458710135F6E7721C2244384600F05C
:101FF0003DFE054600F064FB013478623444A8B22B
:10200000231A5842584103B0F0BD10B50446C369C5
:10201000E0221A70C36900225A70C169022200F0DE
:1020200025FE204600F002FF00F04AFB6062A0623D
:1020300010BDF0B50D4602339BB26C1A15F8016B5A
:10204000A4B23EB1B0F854709F4203D95C1CD65480
:10205000A3B2F2E7191B0A44211202F8021C02F88B
:10206000014C1846F0BD38B5054600F0A0FF002829
:1020700014BF0124002402D1284600F0D7FE2046D8
:1020800038BD00002DE9F04387B004468946174665
:102090001E46DDF83880FFF7E6FF0546002840F0D1
:1020A000BD80A16C39B90346B4F84C20A16B204621
:1020B00001F00EF809E0684601F0ECFE2B46B4F89A
:1020C0004C206946204600F0CBFE002800F0A2809C
:1020D000012323849DF84C30042B15D1524B1868F2
:1020E0009A880090ADF804209B79E26900988DF8F9
:1020F0000630C2F80500531DBDF804109DF80620F7
:1021000099809A710C2312E06A46484BD4F81CC09F
:10211000186859681B7A03C213706B4603CBCCF85E
:102120000500CCF8091013788CF80D300E23B8F1A7
:10213000000F0AD09DF840209DF83C10520142F05B
:10214000060242EAC102D2B200E002229DF8481023
:1021500009B902F0FD022FB116B942F0800201E088
:1021600042F0C002E169581CCA54226DE1691212A2
:102170000A54E169206D9A1C88540333E269494688
:102180002046FFF756FFB8F1000F0BD00346E26977
:1021900041462046FFF74DFFE2690346119920466C
:1021A000FFF747FF67B10346E26939462046FFF76C
:1021B00040FF2EB10346E26931462046FFF739FF62
:1021C000431F9BB2E26910212046FFF7EBFE00F0AF
:1021D00077FA4FF47A766062A062204600F0EAFD5A
:1021E00040B900F06DFAA36AC01A236D7343984298
:1021F000F3D90FE069462046FFF77CFE042809D199
:10220000E369DE7836B900F05BFA0125A06284F854
:102210002C6004E0204600F009FE00E0002528467E
:1022200007B0BDE8F08300BFFF620A0806630A0832
:102230007FB50423059301230493002303930293A2
:10224000019300931A46FFF71DFF07B05DF804FBEA
:102250002DE9F14F0D9E04468B4691469A469DF816
:1022600028809DF82C509DF83070FFF7FCFE002868
:102270004BD0B4F854200021E06903F00CFE052394
:10228000E26959462046FFF7D4FE6B1E012B12D897
:10229000238CE26901339BB223841B121354411C2B
:1022A000E369228C89B2023080B25A541EB1238C69
:1022B0005A1C22843380002291B283188A459BB233
:1022C00009D9B4F8546001329E4204D919F801606A
:1022D000E169CE54F0E7B8F1000F0CBF3021312195
:1022E0000FB141F00801022D02D141F0040103E0D9
:1022F000012D08BF41F002012046053BE2699BB277
:1023000001B0BDE8F04FFFF74DBE01B0BDE8F08F62
:1023100038B504460D46FFF7A6FE90B1E369622288
:102320001A70E36902225A70E3692A129A70E3690B
:102330000422DD70E169204600F098FC003018BFEF
:10234000012038BD38B504460D46FFF78CFE90B12C
:10235000E36972221A70E36902225A70E3692A1251
:102360009A70E3690422DD70E169204600F07EFC8A
:10237000003018BF012038BD2DE9F04F83B000AF09
:102380000446FFF770FE8146002800F0F68000F05A
:1023900097F9226D4FF47A735343A26A0546821A65
:1023A0009A4203D8626A821A934217D294F82C3068
:1023B0002BB1204600F03AFD4FF00009DDE0E26964
:1023C000C0211170E26920465370E169022200F0D9
:1023D0004DFC01236562A56284F82C30204600F094
:1023E000E9FC002800F0C980F91D2046FFF782FDB6
:1023F0000246002800F0C180E369A562187800F069
:10240000F00130297DD1D4F830B0BBF1000F00F0DD
:10241000B48097F807C0EA4603EB0C00817890F887
:1024200001E001EB0E2E1FFA8EFE0EF1080121F0E5
:102430000701ADEB010D684600218EB2B64506D905
:102440000CEB01061E44F67846540131F5E70021F5
:1024500000F80E101E780CF1030106F00606022E9D
:10246000CCEB02021ED1714413F801801944497863
:10247000CEEB020201EB08280CF105017144053A8C
:102480001944D847E36940221A70E3691FFA88F8B3
:102490005E70E3694FEA28229A70E369042283F8A8
:1024A000038020E0042E24D1714413F801801944E4
:1024B0004978CEEB020201EB08280CF105017144CA
:1024C000053A1944D847E36950221A70E369022299
:1024D0005A70E3691FFA88F84FEA28229A70324648
:1024E000E36983F80380E169204600F0BFFB656281
:1024F00005E0033A7144CEEB02021944D847D546B1
:102500003BE0502908D19978DB78204603EB012184
:1025100089B2FFF7FDFE30E040290CD0602908D1D8
:102520009978DB78204603EB012189B2FFF70AFF97
:1025300023E070290DD1616BF9B1042A1DD110F08F
:10254000060F1AD19878DB7803EB002080B2884719
:1025500013E0902911D0C0290AD1D0221A70E36962
:1025600000225A70E1690222204600F07FFB04E05D
:10257000D02904BF002384F82C3048460C37BD46D0
:10258000BDE8F08F70B504460E461546FFF76BFDAB
:10259000E8B1238C01339BB203B901232384238C3C
:1025A000E2691B125371E369228C31469A71E26928
:1025B00007232046FFF73DFDE36982211D54031FD9
:1025C000E2692046BDE870409BB2FFF7EBBC70BDEE
:1025D00010B50446FFF747FD10B12046FFF715FD83
:1025E000E06908B1FDF761FD04F1380000F0A6FDD7
:1025F0002046FFF709FC204610BD00F001B800009E
:1026000008B5024B1B681B68019308BDB0010608A2
:1026100008B5024B1B689B68019308BDB001060812
:1026200008B5024B1B68DB68019308BDB0010608C2
:1026300008B5024B1B681B69019308BDB001060871
:1026400008B5024B1B685B69019308BDB001060821
:1026500008B5024B1B681B6A019308BDB001060850
:1026600008B5024B1B685B6A019308BDB001060800
:1026700008B5024B1B68DB69019308BDB40106086D
:1026800008B5024B1B681B6A019308BDB40106081C
:1026900008B5024B1B685B68019308BD9C010608E6
:1026A00008B5024B1B689B68019308BD9C01060896
:1026B00008B5024B1B68DB68019308BD9C01060846
:1026C00008B5024B1B685B69019308BD9C010608B5
:1026D00008B5024B1B689B6E019308BDB801060844
:1026E00008B5024B1B685B68019308BDD001060862
:1026F00008B5024B1B689B68019308BDD001060812
:1027000008B5024B1B681B69019308BDD001060880
:1027100008B5024B1B685B69019308BDD001060830
:1027200008B5024B1B681B6B019308BDD00106085E
:1027300008B5024B1B68DB6E019308BDD00106088B
:1027400008B5024B1B689B69019308BDC4010608CC
:1027500008B5024B1B685B6A019308BDC4010608FB
:1027600008B5024B1B689B6A019308BDC4010608AB
:1027700008B5024B1B68DB6A019308BDC40106085B
:1027800008B5024B1B681B6B019308BDC40106080A
:1027900008B5024B1B685B6B019308BDC4010608BA
:1027A00008B5024B1B689B6B019308BDC40106086A
:1027B00008B5024B1B681B6C019308BDC4010608D9
:1027C00008B5024B1B68DB6C019308BDAC01060821
:1027D00008B5024B1B685B6D019308BDAC01060890
:1027E00008B5024B1B689B6D019308BDAC01060840
:1027F00008B5024B1B68DB6D019308BDAC010608F0
:1028000008B5024B1B681B6E019308BDAC0106089E
:1028100008B5024B1B685B6E019308BDAC0106084E
:1028200008B5024B1B689B6E019308BDAC010608FE
:1028300008B5024B1B68DB6E019308BDAC010608AE
:1028400008B5024B1B681B6F019308BDAC0106085D
:1028500008B5024B1B685B6F019308BDAC0106080D
:1028600008B5034B1B68D3F88030019308BD000006
:10287000AC01060808B5024B1B681B68019308BD34
:10288000BC01060808B5024B1B685B68019308BDD4
:10289000BC01060808B5024B1B689B68019308BD84
:1028A000BC01060808B5024B1B68DB68019308BD34
:1028B000BC01060808B5024B1B681B69019308BDE3
:1028C000BC01060808B5024B1B681B6A019308BDD2
:1028D000BC01060808B5024B1B681B6B019308BDC1
:1028E000BC01060808B5024B1B685B6C019308BD70
:1028F000BC01060808B5024B1B681B68019308BDA4
:10290000D801060808B5024B1B681B69019308BD76
:10291000D801060808B5024B1B685B69019308BD26
:10292000D801060808B5024B1B689B69019308BDD6
:10293000D801060808B5024B1B68DB69019308BD86
:10294000D801060808B5024B1B681B6A019308BD35
:10295000D801060808B5024B1B685B6C019308BDE3
:10296000C001060808B5024B1B689B6C019308BDAB
:10297000C001060808B5024B1B681B6D019308BD1A
:10298000A801020808B5024B1B685B68019308BDEB
:10299000A401060808B5024B1B685B69019308BDDA
:1029A000A401060808B5024B1B68DB6C019308BD47
:1029B000A401060808B5024B1B685B6D019308BDB6
:1029C000A401060808B5034B1B68D3F890300193A7
:1029D00008BD0000A401060808B5034B1B68D3F826
:1029E0009C30019308BD0000A401060808B5024B05
:1029F0001B685B68019308BDC801060808B5024B57
:102A00001B689B68019308BDC801060808B5024B06
:102A10001B68DB68019308BDC801060808B5024BB6
:102A20001B681B69019308BDC801060808B5024B65
:102A30001B685B69019308BDC801060808B5024B15
:102A40001B689B69019308BDC801060808B5024BC5
:102A50001B68DB69019308BDC801060808B5024B75
:102A60001B681B6A019308BDC801060808B5024B24
:102A70001B681B6B019308BDC801060808B5024B13
:102A80001B685B6B019308BDC801060808B5024BC3
:102A90001B685B68019308BDCC01060808B5024BB2
:102AA0001B685B69019308BDCC01060808B5024BA1
:102AB0001B681B6A019308BDCC01060808B5024BD0
:102AC0001B68DB6B019308BDCC01060808B5024BFF
:102AD0001B681B68019308BDA001060808B5024BDE
:102AE0001B685B68019308BDA001060808B5024B8E
:102AF0001B689B68019308BDA001060808B5024B3E
:102B00001B68DB69019308BDA001060808B5024BEC
:102B10001B685B6A019308BDA001060808B5024B5B
:102B20001B68DB6A019308BDA001060808B5024BCB
:102B30001B681B6B019308BDA001060808B5024B7A
:102B40001B68DB6B019308BDA0010608704710B538
:102B50000446102101F038FD204610BD70B5044632
:102B60000E46074B0025036040F80C5FFFF7D8FDC9
:102B700030462671FFF77CFDA560204670BD00BF82
:102B800018630A080079FFF77BBD014600228C20FC
:102B9000FFF79EBD0020FFF7F8BF00004FF6FF7261
:102BA000034B0020187058809A80FFF7EBBE00BFDF
:102BB0008602002010B5044603F0CBF90138231833
:102BC0002046984206D20278197800F8011B03F8D3
:102BD0000129F6E710BD70B50C46911E222920D8B8
:102BE0002546294610B9234430220EE0B0FBF2F608
:102BF00002FB1600C1B2092805F8011B94BF303151
:102C0000573105F8011C3046EBE7994202D201F832
:102C1000012BFAE7002320460B70FFF7CBFF20467D
:102C200070BD002070BD38B5031E0C4615460BDA8A
:102C3000B3F1004F4FF02D0214BF58421846012344
:102C40000A702A46194400E00123FFF7C4FF20461A
:102C500038BD37B502AC036804F8011DDD6B0122F5
:102C600047F230532146A84703B030BD10B4036883
:102C7000DC6B47F23053A44610BC604737B502AC5A
:102C8000036804F8011DDD6B214613460122A847A5
:102C900003B030BD704770470020704710B5044640
:102CA000142101F091FC204610BDFDF7FCB910B5D0
:102CB000044603689B689847A368013BA3602BB94F
:102CC00023682046BDE81040DB68184710BD0000AF
:102CD00070B5044606464D69044B8C3544F8043BF8
:102CE0000FCD0FC42B683046237070BDDC640A081A
:102CF00010B543690446B3F88620B3F884309A428D
:102D000005D06269B2F884301344187910BD0368A5
:102D10001B6998470028F4D14FF0FF3010BD10B563
:102D200043690446B3F88620B3F884309A4208D049
:102D30006269B2F88430591CA2F8841013441879DF
:102D400010BD03681B6998470028F1D14FF0FF3090
:102D500010BDF8B543691746B3F88620B3F8843040
:102D600005469A420E4606D103681B69984710B97A
:102D70004FF0FF3414E069693046B1F88430B1F89F
:102D800086401944E41ABC4228BF3C46043122461E
:102D900003F076F86A69B2F884302344A2F88430EC
:102DA0002046F8BD42690023A2F884304269A2F8A7
:102DB0008630704738B542690446B2F886301BB198
:102DC000B2F884209A420CD0206901F0EDFA036831
:102DD000DB68984718B363691868FFF753FD18B9A3
:102DE0001DE0FFF7DFFFEFE76069B0F886107F298D
:102DF00015D8051DC1F18002002329440068FFF7A2
:102E000059FD00280BDD6369B3F886200AB9A3F8E1
:102E100084206269B2F886301844A2F8860062699C
:102E2000B2F88630B2F88400181A38BD38B5436954
:102E300004461868FFF726FD18B163691868FFF7A4
:102E400041FD6569FFF746FD286060691122002198
:102E50008C3003F020F82046BDE83840FFF7A2BFD1
:102E60002DE9F0411F4603688AB0DB6A06460C462E
:102E700015469847384601F097FA0368DB6898478B
:102E8000002856D000972B46062201210220D6F8B2
:102E90001480FFF7FFFC2023C8F8000000270293EE
:102EA000736903971B6801200193234B02AA0093C7
:102EB00022493B46FFF75EFD73691868FFF7E2FCA5
:102EC000002836D03046FFF76DFF0223ADF80830FA
:102ED0002B0A8DF80A30E3794FF4FA508DF80C3054
:102EE000A3798DF80B508DF80D3063798DF80E3085
:102EF00014F8043F8DF80F30FFF72CFD7369054679
:102F0000102202A91868FFF7CDFC80462846FFF77B
:102F100021FD0FCC75698C350FC523682B70B8F176
:102F2000000F05D033683046DB6A9847384600E02A
:102F300001200AB0BDE8F0818F630A0888630A089F
:102F400010B5436904461868FFF79CFC08B90020D7
:102F500010BD206901F028FA0368DB689847002853
:102F6000F5D063691868FFF785FCB0FA80F0400976
:102F700010BD2DE9F3410025456004460E46174675
:102F80009846FFF7DDFF60B160690195CDF80080DC
:102F90002B463A4631460068FFF7A4FC002803DAC6
:102FA00001E04FF0FF30606002B0BDE8F08138B55D
:102FB0000446FFF7C5FF00BB6369B3F88610B3F89A
:102FC0008420914219D11868FFF75CFC28B163692D
:102FD0001868FFF74FFC012801D000250EE0236898
:102FE00020461B699847002814BF0125002505D1FC
:102FF00023682046DB6A984700E00125284638BD53
:1030000008B5FFF79DFF003018BF012008BD10B5BF
:10301000044600230160A0F88430A0F88630883090
:1030200000F0EAFE204610BD4FF47A7270B582605F
:10303000144A002343600260436183610446A02078
:103040000E46FDF72CF8054610B13146FFF7DFFFBD
:103050001420FDF724F8034628B101224260826063
:10306000094A05610260A0696561A36128B14368EE
:10307000013B43600BB9FFF71AFE2046FFF792FEB3
:10308000204670BD44630A0828630A0810B5044648
:10309000FFF720FC01462046FFF7C6FF204610BD83
:1030A00010B504460068FFF7EDFB10B12068FFF78C
:1030B00009FC204610BD10B504692046FFF7F0FF5B
:1030C00024B12046BDE81040FCF7EDBF10BD000064
:1030D0002DE9F0431F4603688FB0DB6A06460D46B4
:1030E00090469847134801F012F900B302A800F087
:1030F00083FE284602F02DFF002481B200943B4657
:1031000003AA2846FFF72EFC80B9336809ADD3F82F
:103110002090094B03AC08930FCC0FC5236842469F
:103120002B7008A93B463046C84700E020460FB048
:10313000BDE8F08310070020DC640A0810B50446DF
:103140000068FFF7CBFC204610BD10B504460068B0
:1031500008B1FFF7C3FC00232360A360636010BDC8
:1031600038B504460D4600680131FFF7BFFC10B1C9
:1031700084E82100012038BD10B50368044613B16E
:1031800043688B4207D22046FFF7EAFF20B1A368CD
:103190000BB922681370012010BD70B50E461146A0
:1031A00004461546FFF7E8FF18B92046FFF7CDFFA4
:1031B00009E02A463146A560206802F061FE2268D7
:1031C000A3680021D154204670BD38B500230446C1
:1031D00003604360836003730D4639B1084602F013
:1031E000B8FE294602462046FFF7D7FF204638BDE5
:1031F000884210B50B46044607D0096819B19A6891
:10320000FFF7CBFF01E0FFF7A0FF204610BD10B590
:10321000044600230360436083600373FFF7E8FF05
:10322000204610BD38B505460C4641B1084602F0AF
:1032300090FE214602462846FFF7AFFF01E0FFF768
:1032400084FF284638BD10B5044600238AB02360A9
:103250006360A3602373084601A9FFF7E4FC01A99A
:103260002046FFF7DFFF20460AB010BD70B50446C8
:103270000E4609B9002070BD6AB18368D518294689
:10328000FFF77AFF0028F5D02068A368314618447C
:1032900002F03CFEA560012070BD8A680968FFF756
:1032A000E5BF38B505460C46084641B102F051FE6F
:1032B000214602462846BDE83840FFF7D7BF38BD53
:1032C00010B58A6809680446FFF7D0FF10B9204698
:1032D000FFF73BFF204610BD38B504460D4641B10F
:1032E000084602F036FE294602462046FFF7BEFF9A
:1032F00010B92046FFF729FF204638BD006808B105
:1033000002F0ACBD704700000EB4FFB509AC54F834
:10331000047B054623463A46052102A80194FFF79F
:10332000F5FB06460B492846FFF74FFF3146284676
:10333000FFF722FF286830B123463A46711C0194FA
:10334000FFF7E4FBA860284604B0BDE8F04003B0F6
:10335000704700BF5B640A08F8B506460D468F1833
:103360000024BD420CD0336815F8011B9B68304621
:103370009847002801DB0444F3E7002C08BF04460B
:103380002046F8BD70B505460C46084649B102F026
:10339000E0FD2B68024621462846BDE87040DB6808
:1033A000184770BD08B5FFF7EDFF08BD03689B68BF
:1033B000184738B50D210546FFF7F8FF0A210446E6
:1033C0002846FFF7F3FF204438BD012A98BF0A22A0
:1033D00030B50B468BB000218DF824100DF123047D
:1033E000B3FBF2F505FB1233DBB2092B94BF30338C
:1033F0003733DBB2214604F801392B46002DEFD1DB
:10340000FFF7C0FF0BB030BD10B422B90368C9B2DA
:103410009B6810BC1847D2B210BCFFF7D6BFFFF7AD
:10342000F3BF38B50546FFF7EFFF04462846FFF720
:10343000C0FF204438BD2DE9F04107460E46154631
:103440002AB9BDE8F0410368C9B29B6818470A2A47
:1034500002D1002901DA04E0D2B2BDE8F041FFF761
:10346000B4BF2D21FFF7A2FF2A4604467142384619
:10347000FFF7ABFF2044BDE8F081FFF7DCBF38B5B4
:103480000546FFF7D8FF04462846FFF792FF204481
:1034900038BD00002DE9F84319468046104617460E
:1034A0001E469DF8205002F041F908B1474912E04C
:1034B00026F000444FF0FF32454B3846214602F0DB
:1034C00035F968B94FF0FF32414B3846214602F0DA
:1034D0000FF928B93F494046FFF754FFBDE8F8838C
:1034E0004FF060423C4B3846314602F015F908B1C6
:1034F0003A49F0E74FF06042394B3846314602F026
:10350000EDF80028F4D1002200233846314602F0BD
:10351000E5F838B12D214046FFF748FF06F1004697
:10352000044600E004462F494FF0000900205FFAEE
:1035300089F39D4206D900222B4B01F087FF09F148
:103540000109F4E73A46334601F0A4FC0F4606466B
:1035500002F02AF90A22014681464046FFF735FF6C
:1035600004447DB3484601F0D1FD02460B46304687
:10357000394601F08DFC06460F4640461B49FFF7D1
:1035800001FF0444184B00223046394601F034FE56
:103590000F46064602F0E0F80A2201468146404600
:1035A000FFF749FF0444484601F0C0FD02460B46C0
:1035B0003046394601F06CFC013D15F0FF0506462A
:1035C0000F46DFD12046BDE8F88300BFA3630A0899
:1035D000FFFFEF7FAD630A08FFFFEF41A7630A0813
:1035E000FFFFEFC10000E03F00002440AB630A088A
:1035F00037B59DF8181005460091FFF74BFF0446BC
:103600002846FFF7D6FE204403B030BD00231A46FB
:1036100019464068FFF70ABA0B68036013B15A688D
:1036200001325A6070470000014A024B1A6070472D
:1036300027640A088C020020024B1A68024B1A60A9
:10364000704700BF34000020900200200021FFF7E7
:10365000A1B910B50446FCF768FD204610BD13B5AE
:103660000B46044603C88DE8030093E8030084E892
:1036700003009DE8030083E8030002B010BD0000D2
:10368000034800238360034A034900F08FBF00BF53
:1036900094020020A400002053360A0808B5144BF9
:1036A00033B100F06DFC03681B699847002816DCF5
:1036B000104B33B100F026FD03681B6998470028C2
:1036C00010DC0D4B0BB1AFF300800C4B7BB100F065
:1036D00093FC03681B699847002806DC08BDAFF31C
:1036E0000080E5E7AFF30080EBE7AFF3008008BDB3
:1036F00000000000000000000000000000000000CA
:1037000008B5FFF7CBFFFEF7DBFF014B186008BDE4
:10371000380700200248034A0349121A02F0B0BBDE
:103720000040024064400240A0670A0807B5002339
:1037300000931A466FF07701FFF74EF903B05DF87A
:1037400004FB000007B543880A2B08D0502B09D191
:10375000094B1B683BB103B05DF804EB1847FFF75A
:10376000E5FF06E0002300931A466FF07701FFF7AC
:1037700033F903B05DF804FBA402002038B5104C07
:10378000104D2368AB42104B0CBF012200221A706F
:1037900002D0FFF7BFFF2560FEF77AFF044602F074
:1037A00083FB0A4B13B12046AFF30080002107488A
:1037B000FFF784F9BDE8384000210548FFF702B95A
:1037C000604002401E1C279AA80200200000000052
:1037D00045370A0870470020704710B5044610218D
:1037E00000F0F2FE204610BD08B508B1FFF7F5FF66
:1037F00008BD002202604FF69C72828010B5B1F9BC
:10380000044084808A8002680C6804600A6010BDED
:1038100010B504460068FFF761F9204610BD38B5C1
:10382000C468F4B12378022B03D104F10C00FFF734
:10383000EFFF656835B12846FCF777FC1021284674
:1038400000F0C2FEA56835B12846FCF76EFC1021D9
:10385000284600F0B9FE2046BDE83840142100F0AB
:10386000B3BE38BD10B588B004466846FFF7ADFC5E
:10387000694604A8FFF7CBFC04A8A047044604A8A7
:10388000FFF75CFC6846FFF759FC204608B010BD06
:10389000F0B507460E46154685B010242246002195
:1038A000684602F0F8FA002269461046ADF800407A
:1038B000029703960195FFF7E9F805B0F0BD13B53F
:1038C000044691E8050000234B600B6020606260B5
:1038D00001A801930093FDF795FA204602B010BDB0
:1038E000F7B50C4606460F4654F8043B02AD45F8C2
:1038F000083D214601A8FFF78FFE29463046FFF715
:10390000DEFF01A8FDF77EFA2046FDF77BFA384678
:10391000082100F059FE304603B0F0BD38B5002351
:103920000446036010200D46FCF7B9FB28B10123C3
:1039300043608360024BC56003602060204638BD51
:10394000C0640A08826810B50AB900F04EFEC36868
:10395000BDE81040184708B5006800F11001FFF7F6
:10396000F1FF08BD826810B50AB900F03EFEC368D9
:10397000BDE81040184708B5006800F11001FFF7D6
:10398000F1FF08BD38B5002383608B6804460D46FF
:103990002BB102229847EB68E360AB68A360204636
:1039A00038BD0000F0B589B004686846FFF721FF14
:1039B0004FF0020200238DF80830D4E84F3F002B6F
:1039C00003D1C4E8412F0029F7D102D08DF8083087
:1039D00063E014F10C0503D069462846FFF709FFA0
:1039E000BFF35F8F01236370BFF35F8F04F10803A0
:1039F000002053E8006F43E80002002AF9D1BFF32A
:103A00005F8F002E49D0FEF7CDFF20B1294630460A
:103A1000FFF798FF3AE0314602A8FFF7B3FFE068EE
:103A2000B4F9105008B102F079FA06901020ADF800
:103A30001C50FCF734FB0546E8B1002787601820CE
:103A4000FCF72DFB044688B10146876002A8FFF70A
:103A500006FE049BA268A360059B0492E26806A987
:103A6000E36004F110000592FFF7C3FE0D4B2C60DC
:103A7000EB600D4BAB6006A8FFF7CAFE02A8FCF78F
:103A800054FB002229460948FEF794FF3046FCF714
:103A90004CFB1021304600F097FD6846FFF7B8FE5A
:103AA00009B0F0BD57390A08CD3B0A0851410A0850
:103AB0002DE9F04F8BB006460F46904699469DF88B
:103AC00050A0FEF7EBFF07AD834630BB4FF62E73D9
:103AD000059005A92846ADF81830FFF78AFE142096
:103AE000FCF7DDFA044658B102230370012343704A
:103AF000C0F804B0C0F808B029460C30FFF779FED2
:103B00003046214640F8044BFFF708FF2846FFF7F0
:103B10007FFE05A8FFF77CFE52E000240C23142052
:103B20006C60AC600793FCF7BAFA014618B10470F8
:103B300044704460846004A80391FFF7EFFE224BB9
:103B400008200893FCF7ABFA044628B1039B04A9AC
:103B500040F8043BFFF760FD00955FFA8AF34A46A0
:103B6000414638460994FEF7A1FF20B9039B5B78D4
:103B700003F0FF0283B1039B04A906A80593FFF796
:103B80004BFD05A93046FFF79AFE06A8FDF73AF966
:103B900004A8FDF737F913E04FF69C7305A903A8B5
:103BA0000592ADF81830FFF7FDFE05A8FFF730FECF
:103BB00005A80999FFF794FE06A8FDF723F9DAE7AF
:103BC00030460BB0BDE8F08F3D3D0A08022AF8B53B
:103BD000044606D0032A17D0012A22D10B680360BD
:103BE0001FE018200E68FCF75AFA054650B131461E
:103BF000FFF7C8FE3069B6F9147008B102F08EF90B
:103C00002861AF8225600CE0046854B104F1100013
:103C1000FFF7FEFD2046FCF788FA1821204600F049
:103C2000D3FC0020F8BD38B5002383608B680446C0
:103C30000D462BB102229847EB68E360AB68A360A6
:103C4000204638BD022A70B5044606D0032A11D09A
:103C5000012A18D10B68036015E014200E68FCF7E8
:103C60001EFA054620B13146FFF7DDFF337C2B7489
:103C7000256008E0046834B12046FCF756FA1421A8
:103C8000204600F0A1FC002070BD0000F0B50C46FD
:103C9000BFF35F8F87B0002350E8006F40E8003229
:103CA000002AF9D1BFF35F8F002E3FD01846FEF7F0
:103CB00079FE074620B121463046FFF753FE2EE03D
:103CC000314601A8FFF7AFFF237810208DF814309C
:103CD000FCF7E5F90546D0B187601420FCF7DFF961
:103CE000044678B18760014601A8FFF7B8FC039B42
:103CF000A268A360049B0392E268E3609DF814301D
:103D0000049223740A4B2C60EB600A4BAB6001A851
:103D1000FCF70BFA002229460748FEF74BFE304617
:103D2000FCF703FA1021304600F04EFC07B0F0BD5E
:103D300077390A08453C0A0851410A0830B504465B
:103D400085B00D4668461146FFF7CAFD7CB124B226
:103D500028460DB102F0E2F8029002A96846ADF8DB
:103D60000C40FFF71FFE02A8FFF752FD1DE04FF0C9
:103D7000010200988DF80840D0E84F3FA34203D1DC
:103D8000C0E8412F0029F7D102D08DF808300CE0AF
:103D900010F10C014FF0010318BF0373BFF35F8FE5
:103DA000043000F8033CFFF771FF01A8FDF72AF883
:103DB00005B030BD704710B50446182100F004FC72
:103DC000204610BDF8B50F4600F10806051D002479
:103DD00016F8011D0A223846FFF721FBAE420444C3
:103DE00007D0002CF4D02E213846FFF7DFFA044428
:103DF000EEE72046F8BD000010B50446044B112242
:103E000040F8043B002102F046F8204610BD00BFF8
:103E1000DC640A080346074A10B543F8042B01F195
:103E2000100251F8044B914243F8044BF9D10A783F
:103E30001A7010BDDC640A08024A41600260042264
:103E400002757047DC640A0810B59DF8084044EA22
:103E5000032343EA024242EA0161042341600375FD
:103E600010BD000037B5044D05609DF81850009551
:103E7000FFF7EAFF03B030BDDC640A0837B50D7800
:103E80008B784A78C97800912946FFF7DDFF03B0A7
:103E900030BD000010B50446024B0360FFF7EEFF93
:103EA000204610BDDC640A0841747047704708B5AD
:103EB0000021007CFEF736FD30EA200028BF4FF0DD
:103EC000FF3008BD08B50121007CFEF72BFD30EA6C
:103ED000200028BF4FF0FF3008BD08B5007CFEF77A
:103EE00019FD20EAE07008BD08B5007CFEF70AFD68
:103EF00020EAE07008BD007CFEF724BD10B5044642
:103F0000142100F061FB204610BD38B50446007C4A
:103F10000D46FEF7FFFC002801DC607C28B1294635
:103F2000207CFEF707FD20EAE07038BD10B504469E
:103F3000002363604FF47A73A360054B0846236047
:103F40000123217463741146FEF7D4FC204610BD92
:103F5000F0640A0810B504461422002101F09BFF0A
:103F6000054B20466360054BE36040F2011323815B
:103F70008123238210BD00BF31030020B002002046
:103F800030B50E4D87B001A8FFF7E4FF296811F0A6
:103F9000010410D12846FCF78AF860B101AA214635
:103FA0000748FFF7C3FF2846FCF786F8054A06498D
:103FB000034800F0FBFA024807B030BDAC02002015
:103FC00034040020A4000020AD3E0A0810B50446C9
:103FD0001422002101F05FFF054B20466360054B72
:103FE000E36040F2011323818123238210BD00BFCF
:103FF000E40400204C04002010B50E4C86B001A84B
:10400000FFF7E4FF2368DB0710D42046FCF74FF8E6
:1040100060B101AA01210848FFF788FF2046FCF79C
:104020004BF8064A0649044800F0C0FA024806B0B8
:1040300010BD00BF48040020D0040020A4000020D0
:10404000AD3E0A08FEF70CBBFEF702BB7047417499
:10405000704708B5007CFEF7ABFB20EAE07008BDB6
:1040600008B5007CFEF77CFB20EAE07008BD08B5CF
:10407000007CFEF785FB30EA200028BF4FF0FF30C0
:1040800008BD08B5007CFEF773FB30EA200028BFAE
:104090004FF0FF3008BD007CFEF77ABB10B5044638
:1040A000142100F091FA204610BD70B5457C0446FD
:1040B0000E4625B9007CFEF77BFB002805DD314666
:1040C000207CBDE87040FEF743BB284670BD000071
:1040D00010B5044608461146002262604FF47A7219
:1040E000A260054A20742260012262741A46FEF71B
:1040F00027FB204610BD00BF20650A08007CFEF7A4
:104100004FBB000038B50C4D296811F0010411D1E6
:104110002846FBF7CCFF68B1084A2146084B0948FE
:10412000FFF7D6FF2846FBF7C7FF074A07490548B0
:1041300000F03CFA034838BD8006002084060020C9
:10414000FC050020E8050020A40000204D400A08DE
:1041500010B5836804460BB900F047FAC368984766
:10416000A3681BB103222146204698472046BDE89C
:104170001040102100F028BA7047F8B506461546E1
:104180000C468F18BC4206D0336814F8011B9B689C
:1041900030469847F6E72846F8BD0022007CFEF737
:1041A0002FBB0021007CFEF733BB0021007CFEF713
:1041B00037BB0021007CFEF73BBB0021007CFEF7F3
:1041C0003FBB10B50446142100F0FEF9204610BD97
:1041D00010B5044608464FF47A73A360044B0021DF
:1041E000207461602360FEF73BFB204610BD00BFDA
:1041F00050650A0800231A461946007CFEF7E0BA0B
:1042000013B50024007C0094FEF7E2FAC0B202B0BD
:1042100010BD0123FFF7F4BF0022007CFEF7E0BAD7
:10422000C9B2FFF7F9BF0022007CFEF7E1BA012115
:10423000FFF7F9BF0021007CFEF70ABB0022114600
:104240004068FEF7EBBBF0B5164689B011220F4669
:104250000446002103A801F01EFE304601F079FE5D
:104260000025009581B27B6803AA3046FEF77AFBF1
:1042700020B129462046FFF7DFFD03E003A92046D1
:10428000FFF7C8FD204609B0F0BD00221146406886
:10429000FEF7E4BB002211464068FEF7EFBB0022A8
:1042A0004068FEF7E3BB002281F001014068FEF7A1
:1042B000CDBB00231A4619464068FEF7BFBB00225B
:1042C00011464068FEF79ABB002202214068FEF7C3
:1042D0009DBB00231A464068FEF788BB024B0422B0
:1042E0005A60024A1A6070470807002078650A0879
:1042F00000231A464068FEF779BB0022022140687D
:10430000FEF784BB002211464068FEF777BB00220F
:1043100011464068FEF782BB00231A4619464068E2
:10432000FEF784BB00231A4619464068FEF786BB99
:10433000002281F001014068FEF788BB002240683E
:10434000FEF794BB002211464068FEF797BB00229F
:1043500011464068FEF782BB70B516468EB0044623
:1043600008A8FFF749FD1122002103A801F093FDE1
:10437000304601F0EEFD00250A4B009581B25B68E6
:1043800003AA3046FEF7EEFA20B129462046FFF791
:1043900053FD03E003A92046FFF73CFD20460EB085
:1043A00070BD00BF08070020034B044A04280CBF5F
:1043B00010461846704700BF10070020080700206D
:1043C000024B034A1A6000225A607047100700200F
:1043D000AC650A0810B504460F48FEF7D3FB28B1B8
:1043E000A4F10D03022B01D8002010BD00F0BEF88F
:1043F000FFF720FF08B1012CF6D9FFF783FEFFF786
:104400007DFE18B1A4F11203012BEDD9172C8CBF3E
:104410000020012010BD00BF18070020172838B564
:1044200004460D460AD8FF2908D0FFF7D3FF28B16C
:1044300029462046BDE83840FEF7EAB838BD38B511
:1044400004460D46FEF7ECF8FF2810D0062804D8E5
:104450004D2323FA00F0C30709D42046FFF7BAFF23
:1044600028B129462046BDE83840FEF7E1B838BDFE
:1044700070B50C4C0C4E0D4D00212046FEF76EFB26
:1044800020460B4C3246294600F090F80121204688
:10449000FEF764FB324629462046BDE8704000F036
:1044A00085B800BF18070020A40000204D2B0A0883
:1044B0002807002030B504461B4D89B02068FEF760
:1044C000EFF8FEF7FDF82B682268C01A9042F5D38A
:1044D000236833B3E36823B3251D2369284698472F
:1044E000002304A9684602930693FFF7B8F8029BDD
:1044F000069A06930292039B079A294604A8039200
:104500000793FFF7ACF8069BE268E360079B06920F
:10451000226904A823610792FBF707FE6846FBF7B0
:1045200004FE09B030BD00BF3807002008B5FFF712
:10453000C1FFBDE808400020FEF7EAB813B5084CFB
:1045400000231A46194600932046FFF78BFC2046AD
:10455000044A054902B0BDE8104000F027B800BF8A
:104560003C070020A4000020B53D0A0838B50B4DDB
:10457000296811F001040FD12846FBF798FD58B1C6
:1045800021460748FFF724FE2846FBF795FD054A1C
:104590000549034800F00AF8014838BD54070020D7
:1045A00058070020A400002079410A080B46014664
:1045B000184601F057BC0000024B1868BFF35F8F2C
:1045C000704700BF6C070020FBF76DBD10B50028D9
:1045D00014BF044601242046FEF778FA20B9FFF7FD
:1045E000EBFF08B18047F6E710BD08B5FEF796FA75
:1045F000184B1A68D1075CBF01221A60164B1A6863
:10460000D2075CBF01221A60144B1A68D0075CBF46
:1046100001221A60124B1A68D1075CBF01221A608E
:10462000104B1A68D2075CBF01221A600E4B1A6841
:10463000D0075CBF01221A600C4B1A68D1075CBF1F
:1046400001221A600A4B1A68D2075CBF01221A6065
:10465000704700BF8C0700208807002084070020D7
:10466000800700207C0700207807002074070020C6
:1046700070070020244B1A68D0075CBF01221A6023
:10468000224B1A68D1075CBF01221A60204B1A68BE
:10469000D2075CBF01221A601E4B1A68D0075CBFAC
:1046A00001221A601C4B1A68D1075CBF01221A60F4
:1046B0001A4B1A68D2075CBF01221A60184B1A689D
:1046C000D0075CBF01221A60164B1A68D1075CBF85
:1046D00001221A60144B1A68D2075CBF01221A60CB
:1046E000124B1A68D0075CBF01221A60104B1A687F
:1046F000D1075CBF01221A600E4B1A68D2075CBF5B
:1047000001221A60704700BFBC070020B8070020D4
:10471000B4070020B0070020AC070020A807002045
:10472000A4070020A00700209C0700209807002075
:104730009407002090070020244B1A68D0075CBF24
:1047400001221A60224B1A68D1075CBF01221A604D
:10475000204B1A68D2075CBF01221A601E4B1A68F0
:10476000D0075CBF01221A601C4B1A68D1075CBFDE
:1047700001221A601A4B1A68D2075CBF01221A6024
:10478000184B1A68D0075CBF01221A60164B1A68D2
:10479000D1075CBF01221A60144B1A68D2075CBFB4
:1047A00001221A60124B1A68D0075CBF01221A60FE
:1047B000104B1A68D1075CBF01221A600E4B1A68B1
:1047C000D2075CBF01221A60704700BFEC070020CF
:1047D000E8070020E4070020E0070020DC070020B5
:1047E000D8070020D4070020D0070020CC070020E5
:1047F000C8070020C4070020C0070020184B1A6813
:10480000D1075CBF01221A60164B1A68D2075CBF41
:1048100001221A60144B1A68D0075CBF01221A608B
:10482000124B1A68D1075CBF01221A60104B1A683C
:10483000D2075CBF01221A600E4B1A68D0075CBF1A
:1048400001221A600C4B1A68D1075CBF01221A6062
:104850000A4B1A68D2075CBF01221A60704700BF7A
:104860000C08002008080020040800200008002090
:10487000FC070020F8070020F4070020F0070020C4
:10488000C1F30A522DE9F843A2F2FF36132E0B466C
:1048900004460D46884607461CDC002E3FDB3A4A9C
:1048A000864642FA06F901EA0902024317D034A308
:1048B000D3E9002300F0EEFA0022002300F02CFFE1
:1048C00020B1002D40DB28EA09050027384629469B
:1048D000BDE8F883332E06DDB6F5806F2FD0204675
:1048E0001946BDE8F883A2F213424FF0FF3929FAC6
:1048F00002F910EA090FF2D021A3D3E9002300F056
:10490000C9FA0022002300F007FF0028DED0002DA6
:1049100020DB454627EA090738462946D8E718A389
:10492000D3E9002300F0B6FA0022002300F0F4FEE1
:104930000028CBD0002D18DB00273D46C6E70246F5
:104940000B4600F0A7FACCE74FF4801343FA06F6C3
:10495000B044B8E7142E10D00123C6F1340603FA90
:1049600006F6371928BF9844D3E725F00042074BD5
:10497000224318BF1D460027A8E705F10108C8E734
:104980009C7500883CE4377EFFFF0F000000F0BFFD
:104990002DE9F0418AB004460D4600F079F8374B16
:1049A000064693F900800F46B8F1FF3F0DD022462E
:1049B0002B462046294600F0B9FE30B900220023DC
:1049C0002046294600F0A8FE20B1304639460AB0FC
:1049D000BDE8F0812A4B0890CDE90245CDE90445B8
:1049E0000193B8F1000F19D1264F4FF060462046D1
:1049F000294600220023CDE9066700F065FE002865
:104A000034D002230093684600F036FAA8B1089B20
:104A1000C3B9DDE906010AB0BDE8F0811A4F0026EE
:104A20002046294600220023CDE9066700F04CFE0F
:104A300068B1022398450093E5D1FEF77FF8222361
:104A40000360E4E7FEF77AF8089B0360E1E70123DF
:104A5000B8F1020F00930BD1FEF770F82123036029
:104A60000A4800F00BFACDE90601D0E701230093D4
:104A7000684600F001FA0028F2D1EDE73800002086
:104A8000DC650A08FFFFEFC70000F0FFE0650A08D9
:104A90002DE9F04FB1F5801F85B006460F460B4655
:104AA0005ADA024621F00044224300F0F780002940
:104AB000C0F279810022D64B00F09EFB0B460F46D8
:104AC000D44906468B426FF0350249DCC3F3130527
:104AD00005F5152404F6647404F4801E8EF07F51ED
:104AE00081F440111B15A3F2FF3341EA05079C181E
:104AF00030460022C84B394604EB1E5400F0C8F97A
:104B0000AB1CC3F31303022B82468B464FF000020B
:104B10002FDC002300F0D8FD002800F0C880002C16
:104B200000F04A81204600F001FBA5A3D3E9002351
:104B300006460F4600F060FBA3A3D3E9002304461A
:104B40000D463046394600F057FB02460B462046DC
:104B5000294600F09FF909E0AE4900228B42B5DDFD
:104B600032463B463046394600F094F905B0BDE880
:104B7000F08F4FF0804300F08DF902460B4650460F
:104B8000594600F063FC064620460F4600F0CEFA78
:104B90003246CDE900013B4630463946CDE9026751
:104BA00000F02AFB02460B468046894600F024FBB3
:104BB00087A3D3E9002306460F4600F01DFB86A31A
:104BC000D3E9002300F066F932463B4600F014FBBF
:104BD00083A3D3E9002300F05DF932463B4600F0A1
:104BE0000BFB81A3D3E9002300F054F942464B4666
:104BF00000F002FB7EA3D3E90023804689463046BD
:104C0000394600F0F9FA7CA3D3E9002300F042F919
:104C100032463B4600F0F0FA79A3D3E9002300F0D6
:104C200039F932463B4600F0E7FA0B460246494660
:104C3000404600F02FF9A5F5C223C5F5D725A3F20C
:104C40007A4351351D43002D8046894656DD0022AA
:104C5000724B5046594600F0CFFA52465B4600F080
:104C6000CBFA06460F46002C68D132463B464046FA
:104C7000494600F00FF9DDE9022300F0BDFA0246D3
:104C80000B463046394600F003F902460B465046C3
:104C9000594600F0FDF805B0BDE8F08F0022002372
:104CA00000205F4900F0D2FB05B0BDE8F08F56A3AD
:104CB000D3E900235046594600F09EFA02460B46BF
:104CC0000020564900F0E4F8524606460F465B467F
:104CD0005046594600F090FA02460B463046394697
:104CE00000F08AFA06460F46002C40F09B800246F0
:104CF0000B465046594600F0CBF837E7002C00F041
:104D0000A5802FA3D3E90023DDE9000100F074FAA8
:104D100042464B4604460D465046594600F0B8F808
:104D2000DDE9022300F068FA27A3D3E90023064651
:104D30000F46DDE9000100F05FFA21E020A3D3E98E
:104D40000023DDE9000100F057FA32463B460446F5
:104D50000D464046494600F09DF8DDE9022300F08B
:104D60004BFA19A3D3E9002380468946DDE9000107
:104D700000F042FA02460B464046494600F08AF8E7
:104D800002460B463046394600F082F852465B46F2
:104D900000F07EF802460B462046294600F078F8DF
:104DA00005B0BDE8F08F02460B4600F071F8002216
:104DB000002300F04BFBD9E600200021D6E600BF1F
:104DC0000000E0FE422EE63F763C7935EF39EA3DC1
:104DD00044523EDF12F1C23FDE03CB966446C73F2A
:104DE000599322942449D23F935555555555E53F43
:104DF0009FC678D0099AC33FAF788E1DC571CC3F4E
:104E000004FA97999999D93F555555555555D53F18
:104E100000005043FFFFEF7F0000F03F0000E03F45
:104E2000000050C3204600F081F90FA3D3E900230E
:104E30008046894600F0E0F90DA3D3E9002304463B
:104E40000D464046494600F0D7F999E702460B4621
:104E50005046594600F01CF8DDE9022300F0CCF979
:104E600013E700BFAFF300800000E0FE422EE63FF4
:104E7000763C7935EF39EA3D002070470020014942
:104E8000704700BF0000F87F81F0004102E000BFE2
:104E900083F0004330B54FEA41044FEA430594EAFA
:104EA000050F08BF90EA020F1FBF54EA000C55EA35
:104EB000020C7FEA645C7FEA655C00F0E2804FEA06
:104EC0005454D4EB5555B8BF6D420CDD2C4480EAE8
:104ED000020281EA030382EA000083EA010180EA18
:104EE000020281EA0303362D88BF30BD11F0004F66
:104EF0004FEA01314FF4801C4CEA113102D040429C
:104F000061EB410113F0004F4FEA03334CEA1333D6
:104F100002D0524263EB430394EA050F00F0A780EE
:104F2000A4F10104D5F1200E0DDB02FA0EFC22FAE9
:104F300005F2801841F1000103FA0EF2801843FADD
:104F400005F359410EE0A5F120050EF1200E012ACE
:104F500003FA0EFC28BF4CF0020C43FA05F3C0180C
:104F600051EBE37101F0004507D54FF0000EDCF185
:104F7000000C7EEB00006EEB0101B1F5801F1BD32E
:104F8000B1F5001F0CD349085FEA30004FEA3C0C32
:104F900004F101044FEA445212F5800F80F09A8028
:104FA000BCF1004F08BF5FEA500C50F1000041EB2C
:104FB000045141EA050130BD5FEA4C0C404141EB30
:104FC000010111F4801FA4F10104E9D191F0000F57
:104FD00004BF01460020B1FA81F308BF2033A3F1DA
:104FE0000B03B3F120020CDA0C3208DD02F1140CD1
:104FF000C2F10C0201FA0CF021FA02F10CE002F10C
:105000001402D8BFC2F1200C01FA02F120FA0CFC04
:10501000DCBF41EA0C019040E41AA2BF01EB04514D
:10502000294330BD6FEA04041F3C1CDA0C340EDC4B
:1050300004F11404C4F1200220FA04F001FA02F38E
:1050400040EA030021FA04F345EA030130BDC4F14C
:105050000C04C4F1200220FA02F001FA04F340EA41
:105060000300294630BD21FA04F0294630BD94F0F2
:10507000000F83F4801306BF81F480110134013DD9
:105080004EE77FEA645C18BF7FEA655C29D094EA4A
:10509000050F08BF90EA020F05D054EA000C04BFC8
:1050A0001946104630BD91EA030F1EBF00210020B3
:1050B00030BD5FEA545C05D14000494128BF41F052
:1050C000004130BD14F580043CBF01F5801130BDB6
:1050D00001F0004545F0FE4141F470014FF0000041
:1050E00030BD7FEA645C1ABF194610467FEA655CF2
:1050F0001CBF0B46024650EA013406BF52EA033594
:1051000091EA030F41F4002130BD00BF90F0000F81
:1051100004BF0021704730B54FF4806404F13204BD
:105120004FF000054FF0000150E700BF90F0000F76
:1051300004BF0021704730B54FF4806404F132049D
:1051400010F0004548BF40424FF000013EE700BF6D
:1051500042004FEAE2014FEA31014FEA02701FBFFD
:1051600012F07F4393F07F4F81F06051704792F0CF
:10517000000F14BF93F07F4F704730B54FF4607449
:1051800001F0004521F0004120E700BF50EA010294
:1051900008BF704730B54FF000050AE050EA010241
:1051A00008BF704730B511F0004502D5404261EBB1
:1051B00041014FF4806404F132045FEA915C3FF4F2
:1051C000DCAE4FF003025FEADC0C18BF03325FEA8B
:1051D000DC0C18BF033202EBDC02C2F1200300FA40
:1051E00003FC20FA02F001FA03FE40EA0E0021FA65
:1051F00002F11444C1E600BF70B54FF0FF0C4CF44F
:10520000E06C1CEA11541DBF1CEA135594EA0C0F04
:1052100095EA0C0F00F0DEF82C4481EA030621EA3F
:105220004C5123EA4C5350EA013518BF52EA03357A
:1052300041F4801143F4801338D0A0FB02CE4FF02C
:105240000005E1FB02E506F00042E0FB03E54FF05C
:105250000006E1FB03569CF0000F18BF4EF0010E54
:10526000A4F1FF04B6F5007F64F5407404D25FEA50
:105270004E0E6D4146EB060642EAC62141EA555103
:105280004FEAC52040EA5E504FEACE2EB4F1FD0C45
:1052900088BFBCF5E06F1ED8BEF1004F08BF5FEAC3
:1052A000500E50F1000041EB045170BD06F0004675
:1052B00046EA010140EA020081EA0301B4EB5C0422
:1052C000C2BFD4EB0C0541EA045170BD41F480111A
:1052D0004FF0000E013C00F3AB8014F1360FDEBF3F
:1052E000002001F0004170BDC4F10004203C35DA1B
:1052F0000C341BDC04F11404C4F1200500FA05F39E
:1053000020FA04F001FA05F240EA020001F000423E
:1053100021F0004110EBD37021FA04F642EB0601B4
:105320005EEA430E08BF20EAD37070BDC4F10C04DE
:10533000C4F1200500FA04F320FA05F001FA04F2A2
:1053400040EA020001F0004110EBD37041F100018E
:105350005EEA430E08BF20EAD37070BDC4F1200599
:1053600000FA05F24EEA020E20FA04F301FA05F201
:1053700043EA020321FA04F001F0004121FA04F2A9
:1053800020EA020000EBD3705EEA430E08BF20EA79
:10539000D37070BD94F0000F0FD101F000464000B3
:1053A00041EB010111F4801F08BF013CF7D041EA35
:1053B000060195F0000F18BF704703F00046520039
:1053C00043EB030313F4801F08BF013DF7D043EA0A
:1053D0000603704794EA0C0F0CEA135518BF95EAC0
:1053E0000C0F0CD050EA410618BF52EA4306D1D147
:1053F00081EA030101F000414FF0000070BD50EA66
:10540000410606BF1046194652EA430619D094EAEF
:105410000C0F02D150EA013613D195EA0C0F05D1D9
:1054200052EA03361CBF104619460AD181EA03012D
:1054300001F0004141F0FE4141F470014FF00000E5
:1054400070BD41F0FE4141F4780170BD70B54FF080
:10545000FF0C4CF4E06C1CEA11541DBF1CEA135500
:1054600094EA0C0F95EA0C0F00F0A7F8A4EB0504E2
:1054700081EA030E52EA03354FEA013100F08880D9
:105480004FEA03334FF0805545EA131343EA1263A2
:105490004FEA022245EA111545EA10654FEA002657
:1054A0000EF000419D4208BF964244F1FD0404F510
:1054B000407402D25B084FEA3202B61A65EB03056C
:1054C0005B084FEA32024FF480104FF4002CB6EB29
:1054D000020E75EB030E22BFB61A754640EA0C00A9
:1054E0005B084FEA3202B6EB020E75EB030E22BFE9
:1054F000B61A754640EA5C005B084FEA3202B6EB2A
:10550000020E75EB030E22BFB61A754640EA9C00E8
:105510005B084FEA3202B6EB020E75EB030E22BFB8
:10552000B61A754640EADC0055EA060E18D04FEA76
:10553000051545EA16754FEA06164FEAC30343EA16
:1055400052734FEAC2025FEA1C1CC0D111F4801FE3
:105550000BD141EA00014FF000004FF0004CB6E7DC
:1055600011F4801F04BF01430020B4F1FD0C88BF7B
:10557000BCF5E06F3FF6AFAEB5EB030C04BFB6EB86
:10558000020C5FEA500C50F1000041EB045170BD79
:105590000EF0004E4EEA113114EB5C04C2BFD4EBA6
:1055A0000C0541EA045170BD41F480114FF0000E2A
:1055B000013C90E645EA060E8DE60CEA135594EAA6
:1055C0000C0F08BF95EA0C0F3FF43BAF94EA0C0FA9
:1055D0000AD150EA01347FF434AF95EA0C0F7FF41E
:1055E00025AF104619462CE795EA0C0F06D152EA72
:1055F00003353FF4FDAE1046194622E750EA410656
:1056000018BF52EA43067FF4C5AE50EA41047FF466
:105610000DAF52EA43057FF4EBAE12E74FF0FF3CCB
:1056200006E000BF4FF0010C02E000BF4FF0010C9C
:105630004DF804CD4FEA410C7FEA6C5C4FEA430C15
:1056400018BF7FEA6C5C1BD001B050EA410C0CBF64
:1056500052EA430C91EA030F02BF90EA020F0020C6
:10566000704710F1000F91EA030F58BF994208BF2D
:1056700090422CBFD8176FEAE37040F001007047EA
:105680004FEA410C7FEA6C5C02D150EA013C07D141
:105690004FEA430C7FEA6C5CD6D152EA033CD3D08C
:1056A0005DF8040B704700BF8446104662468C4686
:1056B0001946634600E000BF01B5FFF7B7FF0028B9
:1056C00048BF10F1000F01BD4DF808EDFFF7F4FFE2
:1056D0000CBF012000205DF808FB00BF4DF808ED6D
:1056E000FFF7EAFF34BF012000205DF808FB00BF90
:1056F0004DF808EDFFF7E0FF94BF012000205DF8B2
:1057000008FB00BF4DF808EDFFF7CEFF94BF012066
:1057100000205DF808FB00BF4DF808EDFFF7C4FF5F
:1057200034BF012000205DF808FB00BF4FEA410CA8
:105730007FEA6C5C02D150EA013C0AD14FEA430C8B
:105740007FEA6C5C02D152EA033C02D14FF00000C8
:1057500070474FF0010070474FEA410212F5001206
:1057600015D211D56FF47873B3EB625212D94FEAA8
:10577000C12343F0004343EA505311F0004F23FA92
:1057800002F018BF404270474FF00000704750EAE7
:10579000013005D111F0004008BF6FF000407047A4
:1057A0004FF00000704700BF4A0011D212F50012FE
:1057B00011D20DD56FF47873B3EB62520ED44FEA69
:1057C000C12343F0004343EA505323FA02F07047E9
:1057D0004FF00000704750EA013002D14FF0FF3027
:1057E00070474FF0000070474FEA4102B2F1E043CA
:1057F00024BFB3F5001CDCF1FE5C0DD901F0004CB8
:105800004FEAC0024CEA5070B2F1004F40EB830007
:1058100008BF20F00100704711F0804F21D113F133
:105820003872BCBF01F00040704741F480114FEA6C
:105830005252C2F11802C2F1200C10FA0CF320FAF5
:1058400002F018BF40F001004FEAC1234FEAD32312
:1058500003FA0CFC40EA0C0023FA02F34FEA43037C
:10586000CCE77FEA625307D150EA01331EBF4FF005
:10587000FE4040F44000704701F0004040F0FE4020
:1058800040F40000704700BF80F0004002E000BF1D
:1058900081F0004142001FBF5FEA410392EA030F1B
:1058A0007FEA226C7FEA236C6AD04FEA1262D2EB65
:1058B0001363C1BFD218414048404140B8BF5B426A
:1058C000192B88BF704710F0004F40F4000020F003
:1058D0007F4018BF404211F0004F41F4000121F019
:1058E0007F4118BF494292EA030F3FD0A2F1010263
:1058F00041FA03FC10EB0C00C3F1200301FA03F1A1
:1059000000F0004302D5494260EB4000B0F5000FC3
:1059100013D3B0F1807F06D340084FEA310102F182
:105920000102FE2A51D2B1F1004F40EBC25008BF34
:1059300020F0010040EA03007047490040EB0000FE
:1059400010F4000FA2F10102EDD1B0FA80FCACF12D
:10595000080CB2EB0C0200FA0CF0AABF00EBC2502C
:1059600052421843BCBFD0401843704792F0000F1A
:1059700081F4000106BF80F400000132013BB5E76D
:105980004FEA41037FEA226C18BF7FEA236C21D0E3
:1059900092EA030F04D092F0000F08BF0846704748
:1059A00090EA010F1CBF0020704712F07F4F04D116
:1059B000400028BF40F00040704712F100723CBF29
:1059C00000F50000704700F0004343F0FE4040F453
:1059D000000070477FEA226216BF08467FEA236311
:1059E0000146420206BF5FEA412390EA010F40F4FC
:1059F000800070474FF0000304E000BF10F0004348
:105A000048BF40425FEA000C08BF704743F096432E
:105A100001464FF000001CE050EA010208BF704749
:105A20004FF000030AE000BF50EA010208BF7047D0
:105A300011F0004302D5404261EB41015FEA010CE5
:105A400002BF84460146002043F0B64308BFA3F1DD
:105A50008053A3F50003BCFA8CF2083AA3EBC253BF
:105A600010DB01FA02FC634400FA02FCC2F12002DE
:105A7000BCF1004F20FA02F243EB020008BF20F015
:105A80000100704702F1200201FA02FCC2F120027B
:105A900050EA4C0021FA02F243EB020008BF20EA70
:105AA000DC7070474FF0FF0C1CEAD0521EBF1CEA9E
:105AB000D15392EA0C0F93EA0C0F6FD01A4480EA8C
:105AC000010C400218BF5FEA41211ED04FF0006375
:105AD00043EA501043EA5111A0FB01310CF00040A1
