:02000004080AE8
:1000000000000A08804D0A080000060006000501ED
:08001000040278050000000065
:0400180000470A088B
:1000200009480A4908B5884205D0094A824202D0E7
:10003000121A04F075FA0748074A0021121A04F050
:100040007AFA064808BD00BF00000020B44C0A0838
:10005000A4000020A400002040070020400700204A
:1000600070B501F015FF074B074C1E46E41AA408B3
:100070000025A54204D056F8253098470135F8E709
:1000800070BD00BFF84B0A08484C0A0800F0E0B900
:1000900008B500F0C5FBBDE8084001F0BBBE01F0AB
:1000A00001BC01F007BC0078B0FA80F0400970474D
:1000B00001230370704703681847012A02D0022AFF
:1000C00002D004E0016002E00B6800B10360002090
:1000D0007047000010B501F0C5FCB0F5805F044624
:1000E00005DC82B200230421024801F0D5F8204645
:1000F00010BD00BFD000002010B501F0B3FCB0F57A
:10010000805F044605DC82B200230821024801F02A
:10011000C3F8204610BD00BFD000002010B5012359
:100120000374836804460BB1C06806E0006828B118
:1001300083680BB902F0A9FDC36898470123637473
:100140000020BDE8104001F02FBA10B583680446C6
:1001500013B1032201469847204610BD38B5044626
:1001600070B1056835B12846FFF7EFFF102128462A
:1001700002F07AFD2046BDE83840142102F074BD3B
:1001800038BD10B543690446BBB1586801F0ECF9BD
:1001900078B963695A7C12B9586801F0EDF963695E
:1001A000586801F0F1F960690023636128B1FFF735
:1001B000D5FF606908B1FFF7D1FF201DFFF7C5FF2C
:1001C000204610BD08B501F0B7F9014B186008BD15
:1001D0006806002030B51D4687B00023044604930E
:1001E00022B1214B02920593204B04930023E3603C
:1001F000049B21603BB1022202A9201D9847059B68
:100200002361049BE3601A49142002F02FFD30B1F2
:1002100000230374036043608360C36043746061C0
:10022000A0B1144B0922836063691349DC606069E3
:10023000124B8DE82100043001F08EF930B963696A
:100240001B7C4BB9012001F067F9F8E760690023D6
:10025000636108B1FFF782FFFFF7B4FF02A8FFF761
:1002600074FF204607B030BDB7000A08BB000A087B
:10027000844A0A08CD2B0A0834470A081D010A08D7
:1002800010B502F0C3FC02F029FB0A4C02F0BEFCE0
:10029000242102F039FBFF23237002F0B7FC03682E
:1002A00021789B68984702F0B1FCBDE8104002F04D
:1002B00032BB00BF3000002070B50646002400228B
:1002C00031460A4800F01EFE0546084800F0D4FEFC
:1002D00028B90134042CF2D10020054970BD032C4B
:1002E000FAD0284603F084FA70BD00BF90010020C8
:1002F00000C058C0022A05D0032A06D0012A06D120
:100300000843704720EA01007047484070470020CA
:1003100070470000082870B504460E461ADC02F04B
:1003200075FC242102F0F0FA0B4D013C0121A140A3
:1003300032462878C9B2FFF7DDFF287002F066FC6C
:10034000036829789B68984702F060FCBDE870401C
:1003500002F0E1BA70BD00BF300000200221FFF7BB
:10036000D9BF000008B50320FFF7F8FF0220FFF710
:10037000F5FF0420FFF7F2FF014B0020187008BDC5
:100380006401002008B50520FFF7E8FF0720FFF70C
:10039000E5FF0620FFF7E2FF014B0020187008BDC3
:1003A000650100200321FFF7B5BF000008B5032059
:1003B000FFF7F8FF0220FFF7F5FF0420FFF7F2FF39
:1003C000054A137883F0010313701BB101F0B4F8F0
:1003D000024B1860012008BD64010020AC00002021
:1003E00008B50520FFF7DEFF0720FFF7DBFF06203B
:1003F000FFF7D8FF054A137883F0010313701BB190
:1004000001F09AF8024B1860002008BD6501002039
:10041000CC00002008B502F0F9FB242102F074FAA8
:1004200002F0F4FB036800219B689847064B00220A
:100430001A7002F0EBFB02F06EFA044A137883F0B4
:100440000103137008BD00BF30000020040100202C
:100450007FB54749684601F0D8FA6846FFF782FF42
:10046000684601F08BFA4249684601F0CEFA6846C8
:10047000FFF788FF684601F081FAFFF701FF41F2BC
:10048000883001F06DFC3B4800F039FDC82001F0D8
:1004900067FC394E002400250C2101FB046135481E
:1004A00000F011FD4FF4967001F05AFC334B43F805
:1004B000245001340C2CEFD1314A3249324801F03A
:1004C00071FD324A3249304801F06CFD01210720AC
:1004D00002F00CFB2F4800F046FF2F492D4800F09A
:1004E0004FFF00234FF42F6201212A4800F0D4FE71
:1004F0000023194640F6B832264800F0CDFE00230E
:100500004FF42F620321234800F0C6FE002340F67B
:10051000B83202211F4800F0BFFE002340F63C72B3
:1005200004211C4800F0B8FE40F63C72002308216C
:10053000184800F0B1FE02F069FB02F0CFF9174C49
:1005400002F064FB242102F0DFF9FF23237002F0A4
:100550005DFB036821789B68984701210846FFF7F7
:1005600059FF02F053FB02F0D6F904B070BD00BF92
:100570003B470A0890010020004002400000002094
:1005800041470A08F9000A08791F0A0846470A087D
:10059000D5000A08D00000200080BB4430000020B5
:1005A0002DE9F341374B93F90E4002F02FFB214622
:1005B00002F0AAF902F02AFB02F0ADF990B1324B39
:1005C00093F90E4002F022FB214602F09DF902F061
:1005D0001DFB02F0A0F9002850D12C4F2C4E2D4DC0
:1005E000042428E00446651C02231022E9B200938B
:1005F0002448012300F058FD224800F0BBFD264BA3
:1006000043F8240003F04AFD244903F091FC2449F7
:1006100003F04CFE234B064653F8240003F03EFD46
:100620000146304603F08EFD1F4B042D43F8240095
:100630002C46D8D1C3E702231022E1B2009312481E
:10064000012300F031FD104800F094FD47F8040F3D
:1006500003F024FD114903F06BFC114903F026FE61
:10066000804656F8040F03F019FD0146404603F09A
:1006700069FD0134092C45F8040FDCD102B0BDE856
:10068000F08100BF4401002054010020140100202B
:100690001C470A08780100200C01002000A8B5457D
:1006A0000032B84614470A087001002038B50468C3
:1006B00005467CB16368013B63605BB923682046F3
:1006C0009B689847A368013BA3601BB92368204639
:1006D000DB689847284638BD10B5294CCCB0E06A95
:1006E00003F086F8CDE91601A06A03F081F8CDE9A0
:1006F0001401606A03F07CF8CDE91201206A03F06E
:1007000077F8CDE91001E06903F072F8CDE90E0148
:10071000A06903F06DF8CDE90C01606903F068F899
:10072000CDE90A01206903F063F8CDE90801E0682A
:1007300003F05EF8CDE90601A06803F059F8CDE9B1
:100740000401606803F054F8CDE90201206803F069
:100750004FF80C4ACDE90001C8211AA801F0BAF8F7
:10076000094B1AAA1B7809498DF8003018A83C23B8
:1007700001F028FD19A8FFF799FF4CB010BD00BF8C
:10078000000000207F470A08A9000020BB470A0894
:1007900010B51F4CC4B0E06903F02AF8CDE90E0192
:1007A000A06903F025F8CDE90C01606903F020F899
:1007B000CDE90A01206903F01BF8CDE90801E068E2
:1007C00003F016F8CDE90601A06803F011F8CDE9B1
:1007D0000401606803F00CF8CDE90201206803F021
:1007E00007F80C4ACDE90001C82112A801F072F8FF
:1007F000094B12AA1B7809498DF8003010A83C2338
:1008000001F0E0FC11A8FFF751FF44B010BD00BF9C
:100810007001002093470A08A9000020C3470A0876
:100820002DE9F04F7B4E85B033687B4C2BB92368A4
:1008300003F5F42303F590733360784D2B680BB9FF
:1008400023682B60FFF7BEFC00F076FE744F20603B
:100850003B68C01A40F26B73984202D900F06CFEFC
:100860003860326823689B1A6E4A93420DD96E49EC
:10087000684601F0CAF86846FFF798FD684601F03F
:100880007DF800F059FE634B1860FFF79BFC2A6867
:1008900023689B1A634A93420DD96349684601F065
:1008A000B4F86846FFF79CFD684601F067F800F071
:1008B00043FE5A4B18605D4E236832689B1A40F61F
:1008C000B732934232D95A4B1D781DB100F034FE35
:1008D00030602BE0DFF890A1DFF89081DFF8909195
:1008E0000C2707FB05A73846FFF7E6FC03F0CCFA18
:1008F00001468346C8F8000003F0EAFD10B949F844
:1009000025B00DE03846FFF7D7FC03F0BDFA0146ED
:100910000746C8F8000003F0DBFD08B949F8257068
:100920000135FFF74FFC0C2DDAD1CFE7414D23689D
:100930002A689B1AB3F5C87F44D3FFF731FE00F055
:10094000FBFD286000F0F8FD3B4B3C4D1B683C4E26
:10095000C01A286000F0F0FD3A4B1B68C01A3060E6
:10096000FFF730FC384B1B78A3B142F6E0632A68EE
:100970009A420FD9354B3649186903F09FFD48B1AB
:100980003449684601F041F86846FFF7EBFC6846D9
:1009900000F0F4FF304B1B78A3B142F6E0633268FD
:1009A0009A420FD9294B2A49186803F087FD48B1AC
:1009B0002849684601F029F86846FFF7E3FC6846D5
:1009C00000F0DCFF254D23682A689B1A40F6B732F9
:1009D000934204D900F0B0FD2860FFF7D9FE204D06
:1009E00023682A689B1AB3F5166F02D300F0A4FDA2
:1009F00028601C4D23682A689B1AB3F5FA5F04D35C
:100A0000FFF76AFE00F098FD2860FFF7DBFB05B0FA
:100A1000BDE8F08F340100203001002038010020B3
:100A2000080100203F420F00CA470A086801002061
:100A3000A80000202C010020AC000020AC01002008
:100A4000B0010020CC0000206401002070010020D3
:100A500000009143CD470A08650100203C010020B9
:100A600040010020C8000020004002406C0100202E
:100A700000000020F8B51F4B1F4E01251F4C1D70B4
:100A800000F00AFD4FF400731D4A44F62061304621
:100A9000FFF7A0FB30461B4E22461B4902F0D6F85A
:100AA00000220421304600F0F7F93046174E224666
:100AB000174902F0CBF8174F6821304600F0E4FAEE
:100AC0003046154E2246394602F0C0F86E213046B7
:100AD00000F0DAFA22463946304602F0B7F82A46E4
:100AE00040210E4800F080FBBDE8F8400C4800F0C3
:100AF000B5B900BFA9000020B0000020A40000206C
:100B00005D190A089001002083010A0844010020B1
:100B1000EF0E0A08A1100A0854010020D00000209E
:100B2000D400002000F0B8BC02881C235343426864
:100B3000D118D3588A885A83704738B504460D4671
:100B400000F0AAFC00216060284601F0CFFF25805C
:100B5000204638BD38B5054601F0E8FD002128885B
:100B600000F0A2FC01F0E4FD7D24013C14F0FF0440
:100B70002DD0022000F0D8FC288800F09DFC10F059
:100B8000FF0FF2D001F0D2FD2846FFF7CDFF012183
:100B9000288800F089FC01F0CBFD4FF4F07000F0E4
:100BA000C3FC01F0C3FD0021288800F07DFC462035
:100BB00000F0BAFC288800F07FFCC0B2B0FA80F4E4
:100BC00001F0B6FD4FF4CD70640900F0ADFC204695
:100BD00038BD38B511F00105044613D001F0A6FD6B
:100BE0002046FFF7A1FF0121208800F05DFC0A20CC
:100BF00000F09AFC2088002100F056FC01F098FDDE
:100C0000372012E001F092FD2046FFF78DFF012111
:100C1000208800F049FC412000F086FC208829460D
:100C200000F042FC01F084FD0520BDE8384000F0F2
:100C30007BBC10B5044601F079FD2046FFF774FF38
:100C40000121208800F030FC032000F06DFC002121
:100C5000208800F029FC0A2000F066FC208800F0C3
:100C60002BFC044601F064FD352000F05DFCE0B291
:100C700010BD2DE9F0410546884617460826012497
:100C800018EA040F14BF012100212846FFF7A1FF35
:100C90006400013EE4B2F3D18FB101F047FD2A8830
:100CA0001C2353436A68D118D3588A8801211A83B8
:100CB000288800F0F9FBBDE8F04101F039BDBDE83E
:100CC000F081F8B507460826002501243846FFF7CD
:100CD000B0FF00B125436400013EE4B2F6D12846DE
:100CE000F8BD70B500220C4655210646FFF7C1FF3E
:100CF000651E073415F8011F00223046FFF7B9FFC3
:100D0000A542F7D170BD0022CC21FFF7B2BF00236E
:100D100003748374437400F11002083002F8013D3B
:100D20008242FBD170472DE9F047857C0446884616
:100D3000002D5ED1FFF70EFF20B92074A0746074FF
:100D4000BDE8F0872A46F02120460126FFF791FFF3
:100D5000AA4637462046FFF76CFF81462046FFF73C
:100D600068FFB9F1010F02D101281BD137E081459D
:100D700004EB05031ED1227C974207D21A7A164251
:100D800014BF4FF001094FF0000904E00CBF4FF011
:100D900001094FF00009B9F1000F03D1082F08D85D
:100DA000677406E06219137A4FF001093343137236
:100DB00004E0BA461A7A22EA06021A724946204626
:100DC0007600FFF706FF16F0FF0604BF0135EDB20F
:100DD00007F1010708BF0126072DFFB2BAD9402F3E
:100DE00007D984F810A0BAF1000F12D10123A3741F
:100DF0000FE000202074A0746074E31D08F1FF3838
:100E00000F3413F8012FA34208F8012FF9D1BDE8E0
:100E1000F087237A002BECD00120EEE730B50546B1
:100E200000200139C9B2FF2913D015F8014B08225F
:100E300080EA040313F0010F4FEA50001CBF80F05A
:100E40008C03D8B2531E13F0FF024FEA5404EFD1C3
:100E5000E7E730BD00F020BB00F01EBB03460949A8
:100E600000F10C0203C982E8030000225A619A6172
:100E70001A771A6220219A620A22596283F82C207A
:100E800018467047D4470A08024B00221A7000F037
:100E900003BB00BFB401002070B5044600236360AB
:100EA000A360E3602361636123766376A2761420F6
:100EB0000E46FFF7F4F8054610B13146FFF73DFE48
:100EC0002560204670BD38B500F110050C4600685D
:100ED0002946FFF728FF031E17BF2B6823602360F6
:100EE0006B6818BF0120636008BF002038BD10B5D3
:100EF00004461421006801F0B7FE204610BD0068CA
:100F0000FFF705BFF8B5837E04460D4616461BB9AC
:100F10000B78002B00F0A4802068FFF71BFEA37E57
:100F200023B11EB92068FFF7EEFE03E029462068D2
:100F3000FFF7D7FE002244212068FFF79AFE40F217
:100F4000EE2000F00DFF2068FFF704FEA37E23B122
:100F50001EB92068FFF7D7FE03E029462068FFF797
:100F6000C0FE0022BE212068FFF783FE2B78262BCF
:100F700004D1002211462068FFF77BFEE61C04F135
:100F80000C072068FFF79DFE06F8010FBE42F8D15E
:100F90000821201DFFF742FF237B207698426376CD
:100FA0005ED12B78222B1BD016D8102B58D1E37A88
:100FB000A088102B08BFA37A4FEAC00002BF20F020
:100FC0000F00C3F10C03C01800B203F067F84FF034
:100FD000765103F0B7F8F8BD262B1FD0282B3FD150
:100FE000227A237902F06002202A05D0402A06D016
:100FF00042B923F0070304E023F0030301E023F0E8
:10100000010323712379607943EA002000B202F0E2
:10101000DDFB0022134B02F03FFC1EE0A5792846C1
:1010200002F0D4FB064660790F46C00803F036F89C
:1010300002F0DEFB00220C4B02F02EFC0B462906D0
:10104000024648BF09494FF0000058BF084902F066
:1010500023FC32463B4602F06DFA02F015FFF8BD64
:101060000448F8BD0000B03F0000A03F0000F0BF02
:101070000000F03F0000C07F027E407E131A5842FD
:101080005841704700F008BA38B50C46054644F0A0
:10109000680401F0BBFD01F021FCAC73284638BDAB
:1010A000704700000000000038B5044602F0FD055E
:1010B0009DF810000C2D607202D0102A18BF0C226F
:1010C00022712279013963710C3A43EA410302210A
:1010D00092FBF1F242EA83038B40237202F066FB3B
:1010E00001F0A6FF0EA3D3E9002302F0FFFC02F0FB
:1010F00083FE237A1843207201F088FDA17B01F062
:10110000FFFB01F083FD217A036841F080019B68B9
:101110002172984701F07AFDBDE8384001F0FBBB31
:10112000EF39FAFE422EE63F70B504460323837280
:1011300001F06CFDA27AA17B01F0DFFB002501F03C
:1011400065FD03686E1C1B69984770B101F05EFD78
:101150000368EDB25B6998472544E872A37A354687
:1011600023449B7ADB11E371E9E7E079003018BF93
:10117000012070BD10B50446002303602046FFF730
:10118000D3FF0028FAD123790E2B0FD0102B19D0C2
:101190000C2B21D1E37A03F00F02237B43EA0223D5
:1011A000B3F5006FA8BFA3F5805314E0E37A03F012
:1011B0003F02237B43EA0223B3F5005FA8BFA3F5F8
:1011C000804308E0E27A237B43EA0223B3F5004F31
:1011D000A8BFA3F580332360206810BD00F05CB980
:1011E0000368C9B29B6818470170427070470000DD
:1011F000F8B51D46437807460C46164603B301F082
:1012000033FA224900F059FC01F02EFA0A22214655
:1012100000F090FC01F028FA1D4900F04EFC01F0AE
:1012200023FA0A22314600F0B3FC01F01DFA1949F5
:1012300000F043FC01F018FA0A22294600F0AAFC4B
:1012400001F0E4FC397801F05BFB01F0DFFCA10068
:101250000631FFF7C5FF01F0D9FC3146FFF7C0FFAB
:1012600001F0D4FC310AFFF7BBFF01F0CFFC2946A7
:10127000FFF7B6FF01F0CAFC290AFFF7B1FF01F042
:10128000C5FCBDE8F84001F046BB00BFDC470A08DA
:10129000F1470A08F6470A08F0B540F6FF76B24271
:1012A000A8BF324622EAE27407468E46A5B21A4625
:1012B00093B11CB900234FF4805204E0B44205D12D
:1012C0004FF480530022714638460AE0C5F57F632B
:1012D0000F339BB2002204E0B442EBD0002CEFD0DD
:1012E0002B46BDE8F040FFF783BF38B504460D46F6
:1012F00001F08CFC217801F003FB01F087FC03680E
:1013000029469B68984701F081FC01F004FB01F03D
:101310007DFC0122217801F0F0FA01F077FC0368EE
:101320005B699847C0B238BD70B5064614460D4695
:1013300001F06CFC317801F0E3FA01F067FC03681E
:1013400029469B68984701F061FC036821469B6829
:10135000984701F05BFCBDE8704001F0DCBA002268
:101360001146FFF7E1BF10B5044601F04FFC01F054
:10137000B5FA2046BDE81040FFF7F1BF00000000BD
:1013800073B5437804460D468BB101F06DF93C49C5
:1013900000F093FB01F068F90646284602F028FAAF
:1013A0000223009302460B46304600F0ABFC284671
:1013B00002F01EFA30A3D3E9002302F06DFA02F026
:1013C00063FD01462F4802F071FF4FF07E5102F09D
:1013D000AFFD637805468BB101F046F92A4900F06C
:1013E0006CFB01F041F90646284602F001FA02239F
:1013F000009302460B46304600F084FC284602F07B
:10140000F7F9224B002202F095F801F089FD02F075
:101410001BFD6378C6B253B101F026F91C4900F0F8
:101420004CFB01F021F90A22314600F085FB002136
:101430002046FFF75AFF054600F06F0242F0100207
:1014400020460021FFF770FF32462046FE21FFF7BD
:101450006BFF2A4600212046FFF766FF052000F0BB
:101460007FFC204665F05E02D2B2002102B0BDE8EA
:101470007040FFF759BF00BFCDCCCCCCCCCCEC3FFB
:10148000FB470A0820BCBE4513480A080000E03F9D
:1014900029480A0800F000B808B5024B1B681B6811
:1014A000019308BDB001060808B5024B1B689B6894
:1014B000019308BDB001060808B5024B1B685B69C3
:1014C000019308BDB001060808B5024B1B681B6AF2
:1014D000019308BDB001060808B5024B1B685B6AA2
:1014E000019308BDB001060808B5024B1B68DB6913
:1014F000019308BDB401060808B5024B1B681B6ABE
:10150000019308BDB401060808B5024B1B685B686F
:10151000019308BD9C01060808B5024B1B689B6837
:10152000019308BD9C01060808B5024B1B68DB68E7
:10153000019308BD9C01060808B5024B1B685B6956
:10154000019308BD9C01060808B5024B1B689B6E01
:10155000019308BDB801060808B5024B1B685B681B
:10156000019308BDD001060808B5024B1B689B68B3
:10157000019308BDD001060808B5024B1B681B6922
:10158000019308BDD001060808B5024B1B685B69D2
:10159000019308BDD001060808B5024B1B681B6B00
:1015A000019308BDD001060808B5024B1B68DB6E2D
:1015B000019308BDD001060808B5024B1B689B6962
:1015C000019308BDC401060808B5024B1B685B6A9D
:1015D000019308BDC401060808B5024B1B689B6A4D
:1015E000019308BDC401060808B5024B1B68DB6AFD
:1015F000019308BDC401060808B5024B1B681B6BAC
:10160000019308BDC401060808B5024B1B685B6B5B
:10161000019308BDC401060808B5024B1B689B6B0B
:10162000019308BDC401060808B5024B1B681B6C7A
:10163000019308BDC401060808B5024B1B68DB6CAA
:10164000019308BDAC01060808B5024B1B685B6D31
:10165000019308BDAC01060808B5024B1B689B6DE1
:10166000019308BDAC01060808B5024B1B68DB6D91
:10167000019308BDAC01060808B5024B1B681B6E40
:10168000019308BDAC01060808B5024B1B685B6EF0
:10169000019308BDAC01060808B5024B1B689B6EA0
:1016A000019308BDAC01060808B5024B1B68DB6E50
:1016B000019308BDAC01060808B5024B1B681B6FFF
:1016C000019308BDAC01060808B5024B1B685B6FAF
:1016D000019308BDAC01060808B5034B1B68D3F89D
:1016E0008030019308BD0000AC01060808B5024B2C
:1016F0001B681B68019308BDD801060808B5024B9A
:101700001B681B69019308BDD801060808B5024B88
:101710001B685B69019308BDD801060808B5024B38
:101720001B689B69019308BDD801060808B5024BE8
:101730001B68DB69019308BDD801060808B5024B98
:101740001B681B6A019308BDD801060808B5024B47
:101750001B689B6C019308BDC001060808B5024BCD
:101760001B685B68019308BDA401060808B5024B1D
:101770001B685B69019308BDA401060808B5024B0C
:101780001B68DB6C019308BDA401060808B5024B79
:101790001B685B6D019308BDA401060808B5034BE7
:1017A0001B68D3F89030019308BD0000A40106081F
:1017B00008B5034B1B68D3F89C30019308BD0000AB
:1017C000A401060808B5024B1B685B68019308BDBD
:1017D000C801060808B5024B1B689B68019308BD49
:1017E000C801060808B5024B1B68DB68019308BDF9
:1017F000C801060808B5024B1B681B69019308BDA8
:10180000C801060808B5024B1B685B69019308BD57
:10181000C801060808B5024B1B689B69019308BD07
:10182000C801060808B5024B1B68DB69019308BDB7
:10183000C801060808B5024B1B681B6A019308BD66
:10184000C801060808B5024B1B681B6B019308BD55
:10185000C801060808B5024B1B685B6B019308BD05
:10186000C801060808B5024B1B685B68019308BDF8
:10187000CC01060808B5024B1B685B69019308BDE3
:10188000CC01060808B5024B1B681B6A019308BD12
:10189000CC01060808B5024B1B68DB6B019308BD41
:1018A000CC01060808B5024B1B681B68019308BDF4
:1018B000A001060808B5024B1B685B68019308BDD0
:1018C000A001060808B5024B1B689B68019308BD80
:1018D000A001060808B5024B1B68DB69019308BD2F
:1018E000A001060808B5024B1B68DB6A019308BD1E
:1018F000A001060808B5024B1B681B6B019308BDCD
:10190000A001060808B5024B1B68DB6B019308BDFC
:10191000A0010608704710B50446102101F0A4F993
:10192000204610BD70B504460E46074B00250360E7
:1019300040F80C5FFFF730FE30462671FFF7D4FD0C
:10194000A560204670BD00BF44480A080079FFF733
:10195000D3BD014600228C20FFF7F6BD0020FFF723
:10196000F8BF00004FF6FF72034B0020187058803C
:101970009A80FFF7F3BE00BFB601002010B5044601
:101980000068FFF797FF204610BD10B504460068B9
:1019900008B1FFF78FFF00232360A360636010BDD1
:1019A00038B504460D4600680131FFF78BFF10B1D2
:1019B00084E82100012038BD10B50368044613B146
:1019C00043688B4207D22046FFF7EAFF20B1A368A5
:1019D0000BB922681370012010BD70B50E46114678
:1019E00004461546FFF7E8FF18B92046FFF7CDFF7C
:1019F00009E02A463146A560206802F091FD226880
:101A0000A3680021D154204670BD38B50023044698
:101A100003604360836003730D4639B1084602F0EA
:101A2000D6FD294602462046FFF7D7FF204638BD9F
:101A3000884210B50B46044607D0096819B19A6868
:101A4000FFF7CBFF01E0FFF7A0FF204610BD10B568
:101A5000044600230360436083600373FFF7E8FFDD
:101A6000204610BD006808B102F048BD7047F8B5C7
:101A700006460D468F180024BD420CD0336815F879
:101A8000011B9B6830469847002801DB0444F3E7BC
:101A9000002C08BF04462046F8BD70B505460C462C
:101AA000084649B102F093FD2B68024621462846BC
:101AB000BDE87040DB68184770BD08B5FFF7EDFF63
:101AC00008BD03689B68184738B50D210546FFF728
:101AD000F8FF0A2104462846FFF7F3FF204438BDEB
:101AE000012A98BF0A2230B50B468BB000218DF831
:101AF00024100DF12304B3FBF2F505FB1233DBB226
:101B0000092B94BF30333733DBB2214604F8013957
:101B10002B46002DEFD1FFF7C0FF0BB030BD10B446
:101B200022B90368C9B29B6810BC1847D2B210BC76
:101B3000FFF7D6BFFFF7F3BF38B50546FFF7EFFF56
:101B400004462846FFF7C0FF204438BD2DE9F04188
:101B500007460E4615462AB9BDE8F0410368C9B2EA
:101B60009B6818470A2A02D1002901DA04E0D2B2A0
:101B7000BDE8F041FFF7B4BF2D21FFF7A2FF2A46D1
:101B8000044671423846FFF7ABFF2044BDE8F081C0
:101B9000FFF7DCBF38B50546FFF7D8FF04462846F7
:101BA000FFF792FF204438BD2DE9F84319468046DF
:101BB000104617461E469DF8205002F007F908B15E
:101BC000474912E026F000444FF0FF32454B3846BB
:101BD000214602F0FBF868B94FF0FF32414B38461E
:101BE000214602F0D5F828B93F494046FFF755FF96
:101BF000BDE8F8834FF060423C4B3846314602F076
:101C0000DBF808B13A49F0E74FF06042394B38460B
:101C1000314602F0B3F80028F4D100220023384600
:101C2000314602F0ABF838B12D214046FFF749FFAD
:101C300006F10046044600E004462F494FF0000933
:101C400000205FFA89F39D4206D900222B4B01F058
:101C50004DFF09F10109F4E73A46334601F06AFC09
:101C60000F46064602F0F0F80A2201468146404639
:101C7000FFF736FF04447DB3484601F097FD024666
:101C80000B463046394601F053FC06460F464046A7
:101C90001B49FFF702FF0444184B00223046394627
:101CA00001F0FAFD0F46064602F0A6F80A220146A8
:101CB00081464046FFF74AFF0444484601F086FD4E
:101CC00002460B463046394601F032FC013D15F024
:101CD000FF0506460F46DFD12046BDE8F88300BF6A
:101CE0004C480A08FFFFEF7F56480A08FFFFEF4104
:101CF00050480A08FFFFEFC10000E03F0000244009
:101D000054480A0837B59DF8181005460091FFF7AA
:101D10004BFF04462846FFF7D7FE204403B030BDF2
:101D200000231A4619464068FFF76CBD0B68036034
:101D300013B15A6801325A6070470000014A024BE1
:101D40001A607047D0480A08BC010020024B1A688C
:101D5000024B1A60704700BF34000020C001002011
:101D60000021FFF703BD10B50446FEF7EEF920464B
:101D700010BD13B50B46044603C88DE8030093E875
:101D8000030084E803009DE8030083E8030002B039
:101D900010BD0000034800238360034A034900F09C
:101DA00055BF00BFC4010020A4000020671D0A0821
:101DB00008B5144B33B100F057FC03681B69984712
:101DC000002816DC104B33B100F010FD03681B69CE
:101DD0009847002810DC0D4B0BB1AFF300800C4B83
:101DE0007BB100F07DFC03681B699847002806DC86
:101DF00008BDAFF30080E5E7AFF30080EBE7AFF39A
:101E0000008008BD0000000000000000000000008D
:101E10000000000008B5FFF7CBFFFFF78DFB014B7B
:101E2000186008BD680600200248034A0349121AD8
:101E300002F076BB0040024064400240504C0A0869
:101E400007B5002300931A466FF07701FFF7B0FC47
:101E500003B05DF804FB000007B543880A2B08D0E7
:101E6000502B09D1094B1B683BB103B05DF804EB63
:101E70001847FFF7E5FF06E0002300931A466FF0CE
:101E80007701FFF795FC03B05DF804FBD401002057
:101E900038B5104C104D2368AB42104B0CBF0122DB
:101EA00000221A7002D0FFF7BFFF2560FFF72CFB5E
:101EB000044602F049FB0A4B13B12046AFF3008001
:101EC00000210748FFF7E6FCBDE83840002105483F
:101ED000FFF764BC604002401E1C279AD801002016
:101EE00000000000591E0A0870470020704710B516
:101EF0000446102100F0B8FE204610BD08B508B118
:101F0000FFF7F5FF08BD002202604FF69C72828049
:101F100010B5B1F9044084808A8002680C680460BE
:101F20000A6010BD10B504460068FFF7C3FC2046E8
:101F300010BD38B5C468F4B12378022B03D104F185
:101F40000C00FFF7EFFF656835B12846FEF7FDF896
:101F50001021284600F088FEA56835B12846FEF716
:101F6000F4F81021284600F07FFE2046BDE83840F6
:101F7000142100F079BE38BD10B588B0044668461B
:101F8000FFF743FD694604A8FFF761FD04A8A047D9
:101F9000044604A8FFF7F2FC6846FFF7EFFC204672
:101FA00008B010BDF0B507460E46154685B01024A2
:101FB00022460021684602F0BEFA00226946104619
:101FC000ADF80040029703960195FFF74BFC05B072
:101FD000F0BD13B5044691E8050000234B600B608B
:101FE0002060626001A801930093FEF75FFB20462A
:101FF00002B010BDF7B50C4606460F4654F8043B38
:1020000002AD45F8083D214601A8FFF78FFE29469D
:102010003046FFF7DEFF01A8FEF748FB2046FEF73B
:1020200045FB3846082100F01FFE304603B0F0BDE6
:1020300038B500230446036010200D46FEF72FF844
:1020400028B1012343608360024BC56003602060B8
:10205000204638BD6C490A08826810B50AB900F0FC
:1020600014FEC368BDE81040184708B5006800F1C9
:102070001001FFF7F1FF08BD826810B50AB900F042
:1020800004FEC368BDE81040184708B5006800F1B9
:102090001001FFF7F1FF08BD38B5002383608B689E
:1020A00004460D462BB102229847EB68E360AB680B
:1020B000A360204638BD0000F0B589B004686846CA
:1020C000FFF721FF4FF0020200238DF80830D4E81B
:1020D0004F3F002B03D1C4E8412F0029F7D102D094
:1020E0008DF8083063E014F10C0503D069462846EA
:1020F000FFF709FFBFF35F8F01236370BFF35F8FAB
:1021000004F10803002053E8006F43E80002002AAE
:10211000F9D1BFF35F8F002E49D0FFF72FFB20B11D
:1021200029463046FFF798FF3AE0314602A8FFF70C
:10213000B3FFE068B4F9105008B102F02DFA069030
:102140001020ADF81C50FDF7AAFF0546E8B10027A6
:1021500087601820FDF7A3FF044688B10146876019
:1021600002A8FFF706FE049BA268A360059B0492E9
:10217000E26806A9E36004F110000592FFF7C3FED0
:102180000D4B2C60EB600D4BAB6006A8FFF7CAFE51
:1021900002A8FDF7DAFF002229460948FFF7F6FA00
:1021A0003046FDF7D2FF1021304600F05DFD684655
:1021B000FFF7B8FE09B0F0BD6B200A08E1220A085B
:1021C00039280A082DE9F04F8BB006460F46904695
:1021D00099469DF850A0FFF74DFB07AD834630BBF5
:1021E0004FF62E73059005A92846ADF81830FFF775
:1021F0008AFE1420FDF753FF044658B102230370F2
:1022000001234370C0F804B0C0F808B029460C3070
:10221000FFF779FE3046214640F8044BFFF708FFF0
:102220002846FFF77FFE05A8FFF77CFE52E000245A
:102230000C2314206C60AC600793FDF730FF01465F
:1022400018B1047044704460846004A80391FFF7DF
:10225000EFFE224B08200893FDF721FF044628B12A
:10226000039B04A940F8043BFFF760FD00955FFA6B
:102270008AF34A46414638460994FFF703FB20B9E2
:10228000039B5B7803F0FF0283B1039B04A906A8BC
:102290000593FFF74BFD05A93046FFF79AFE06A808
:1022A000FEF704FA04A8FEF701FA13E04FF69C7358
:1022B00005A903A80592ADF81830FFF7FDFE05A8A3
:1022C000FFF730FE05A80999FFF794FE06A8FEF770
:1022D000EDF9DAE730460BB0BDE8F08F51240A087B
:1022E000022AF8B5044606D0032A17D0012A22D1C3
:1022F0000B6803601FE018200E68FDF7D0FE05464E
:1023000050B13146FFF7C8FE3069B6F9147008B114
:1023100002F042F92861AF8225600CE0046854B1F4
:1023200004F11000FFF7FEFD2046FDF70EFF182117
:10233000204600F099FC0020F8BD38B500238360EA
:102340008B6804460D462BB102229847EB68E36088
:10235000AB68A360204638BD022A70B5044606D09B
:10236000032A11D0012A18D10B68036015E014204C
:102370000E68FDF794FE054620B13146FFF7DDFFFC
:10238000337C2B74256008E0046834B12046FDF7E7
:10239000DCFE1421204600F067FC002070BD000028
:1023A000F0B50C46BFF35F8F87B0002350E8006F95
:1023B00040E80032002AF9D1BFF35F8F002E3FD0F2
:1023C0001846FFF7DBF9074620B121463046FFF7F4
:1023D00053FE2EE0314601A8FFF7AFFF237810200F
:1023E0008DF81430FDF75BFE0546D0B187601420F0
:1023F000FDF755FE044678B18760014601A8FFF756
:10240000B8FC039BA268A360049B0392E268E360AC
:102410009DF81430049223740A4B2C60EB600A4B35
:10242000AB6001A8FDF791FE002229460748FFF79F
:10243000ADF93046FDF789FE1021304600F014FC5E
:1024400007B0F0BD8B200A0859230A0839280A086A
:1024500030B5044685B00D4668461146FFF7CAFD03
:102460007CB124B228460DB102F096F8029002A980
:102470006846ADF80C40FFF71FFE02A8FFF752FDBB
:102480001DE04FF0010200988DF80840D0E84F3F62
:10249000A34203D1C0E8412F0029F7D102D08DF823
:1024A00008300CE010F10C014FF0010318BF03736A
:1024B000BFF35F8F043000F8033CFFF771FF01A802
:1024C000FEF7F4F805B030BD704710B5044618218A
:1024D00000F0CAFB204610BDF8B50F4600F1080613
:1024E000051D002416F8011D0A223846FFF722FBBD
:1024F000AE42044407D0002CF4D02E213846FFF71A
:10250000E0FA0444EEE72046F8BD000010B50446AA
:10251000044B112240F8043B002102F00CF8204645
:1025200010BD00BF88490A080346074A10B543F8A2
:10253000042B01F1100251F8044B914243F8044B73
:10254000F9D10A781A7010BD88490A08024A416018
:10255000026004220275704788490A0810B59DF888
:10256000084044EA032343EA024242EA01610423A9
:102570004160037510BD000037B5044D05609DF83E
:1025800018500095FFF7EAFF03B030BD88490A08EC
:1025900041747047704708B50021007CFFF7BEF812
:1025A00030EA200028BF4FF0FF3008BD08B50121F8
:1025B000007CFFF7B3F830EA200028BF4FF0FF306F
:1025C00008BD08B5007CFFF7A1F820EAE07008BD5F
:1025D00008B5007CFFF792F820EAE07008BD007CA7
:1025E000FFF7ACB810B50446142100F03DFB2046BF
:1025F00010BD38B50446007C0D46FFF787F800286B
:1026000001DC607C28B12946207CFFF78FF820EAA6
:10261000E07038BD10B50446002363604FF47A7350
:10262000A360054B0846236001232174637411469F
:10263000FFF75CF8204610BD9C490A0810B5044617
:102640001422002101F077FF054B20466360054B03
:10265000E36040F2011323818123238210BD00BF78
:1026600061020020E001002030B50E4D87B001A8C6
:10267000FFF7E4FF296811F0010410D12846FDF7A7
:1026800012FD60B101AA21460748FFF7C3FF2846A3
:10269000FDF70EFD054A0649034800F0D7FA024847
:1026A00007B030BDDC01002064030020A40000203E
:1026B00095250A0810B504461422002101F03BFFBD
:1026C000054B20466360054BE36040F20113238114
:1026D0008123238210BD00BF140400207C0300204E
:1026E00010B50E4C86B001A8FFF7E4FF2368DB07A6
:1026F00010D42046FDF7D7FC60B101AA012108489B
:10270000FFF788FF2046FDF7D3FC064A0649044838
:1027100000F09CFA024806B010BD00BF780300200C
:1027200000040020A400002095250A08FEF7D4BE6E
:10273000FEF7CABE70474174704708B5007CFEF7CB
:1027400073FF20EAE07008BD08B5007CFEF744FF87
:1027500020EAE07008BD08B5007CFEF74DFF30EAC6
:10276000200028BF4FF0FF3008BD08B5007CFEF701
:102770003BFF30EA200028BF4FF0FF3008BD007C4F
:10278000FEF742BF10B50446142100F06DFA204652
:1027900010BD70B5457C04460E4625B9007CFEF799
:1027A00043FF002805DD3146207CBDE87040FEF780
:1027B0000BBF284670BD000010B504460846114600
:1027C000002262604FF47A72A260054A207422608F
:1027D000012262741A46FEF7EFFE204610BD00BFCC
:1027E000CC490A08007CFEF717BF000038B50C4D35
:1027F000296811F0010411D12846FDF754FC68B195
:10280000084A2146084B0948FFF7D6FF2846FDF73E
:102810004FFC074A0749054800F018FA034838BD3D
:10282000B0050020B40500202C050020180500206C
:10283000A400002035270A0810B5836804460BB9A8
:1028400000F023FAC3689847A3681BB1032221460E
:10285000204698472046BDE81040102100F004BAF9
:102860007047F8B5064615460C468F18BC4206D090
:10287000336814F8011B9B6830469847F6E72846F2
:10288000F8BD0022007CFEF7F7BE0021007CFEF7B9
:10289000FBBE0021007CFEF7FFBE0021007CFEF79E
:1028A00003BF0021007CFEF707BF10B504461421CA
:1028B00000F0DAF9204610BD10B5044608464FF482
:1028C0007A73A360044B0021207461602360FEF7DB
:1028D00003FF204610BD00BFFC490A0800231A462A
:1028E0001946007CFEF7A8BE13B50024007C0094B6
:1028F000FEF7AAFEC0B202B010BD0123FFF7F4BF7D
:102900000022007CFEF7A8BEC9B2FFF7F9BF002283
:10291000007CFEF7A9BE0121FFF7F9BF0021007C72
:10292000FEF7D2BE002211464068FEF763BFF0B545
:10293000164689B011220F460446002103A801F073
:10294000FAFD304601F043FE0025009581B27B6818
:1029500003AA3046FEF7FAFE20B129462046FFF7CB
:10296000F5FD03E003A92046FFF7DEFD204609B090
:10297000F0BD002211464068FEF75CBF0022114600
:102980004068FEF767BF00224068FEF75BBF002289
:1029900081F001014068FEF745BF00231A46194641
:1029A0004068FEF737BF002211464068FEF712BFAD
:1029B000002202214068FEF715BF00231A46406836
:1029C000FEF700BF024B04225A60024A1A607047A9
:1029D00038060020244A0A0800231A464068FEF7F9
:1029E000F1BE002202214068FEF7FCBE0022114623
:1029F0004068FEF7EFBE002211464068FEF7FABEBF
:102A000000231A4619464068FEF7FCBE00231A460A
:102A100019464068FEF7FEBE002281F001014068C1
:102A2000FEF700BF00224068FEF70CBF00221146EF
:102A30004068FEF70FBF002211464068FEF7FABE5D
:102A400070B516468EB0044608A8FFF75FFD112248
:102A5000002103A801F06FFD304601F0B8FD00250C
:102A60000A4B009581B25B6803AA3046FEF76EFE02
:102A700020B129462046FFF769FD03E003A920465F
:102A8000FFF752FD20460EB070BD00BF3806002093
:102A9000024B034A1A6000225A6070474006002029
:102AA000584A0A0810B504460F48FEF74FFF28B1F0
:102AB000A4F10D03022B01D8002010BD00F0A6F8F0
:102AC000FFF72CFF08B1012CF6D9FFF78FFEFFF7B7
:102AD00089FE18B1A4F11203012BEDD9172C8CBF7C
:102AE0000020012010BD00BF48060020172838B57F
:102AF00004460D460AD8FF2908D0FFF7D3FF28B1B6
:102B000029462046BDE83840FEF7CEBC38BD00005F
:102B100070B50C4C0C4E0D4D00212046FEF702FF07
:102B200020460B4C3246294600F090F80121204601
:102B3000FEF7F8FE324629462046BDE8704000F018
:102B400085B800BF48060020A400002015190A0817
:102B50005806002030B504461B4D89B02068FEF7AA
:102B6000DBFCFEF7E9FC2B682268C01A9042F5D323
:102B7000236833B3E36823B3251D236928469847A8
:102B8000002304A9684602930693FFF7F2F8029B1C
:102B9000069A06930292039B079A294604A8039279
:102BA0000793FFF7E6F8069BE268E360079B06924F
:102BB000226904A823610792FDF7C7FA6846FDF76A
:102BC000C4FA09B030BD00BF6806002008B5FFF7A1
:102BD000C1FFBDE808400020FEF7D6BC13B5084C85
:102BE00000231A46194600932046FFF7C5FC2046ED
:102BF000044A054902B0BDE8104000F027B800BF04
:102C00006C060020A4000020C9240A0838B50B4D2A
:102C1000296811F001040FD12846FDF744FA58B194
:102C200021460748FFF748FE2846FDF741FA054AC6
:102C30000549034800F00AF8014838BD8406002021
:102C400088060020A400002061280A080B460146DF
:102C5000184601F057BC0000024B1868BFF35F8FA5
:102C6000704700BF9C060020FDF71BBA10B5002876
:102C700014BF044601242046FEF714FE20B9FFF7D6
:102C8000EBFF08B18047F6E710BD08B5FEF72AFE56
:102C9000184B1A68D1075CBF01221A60164B1A68DC
:102CA000D2075CBF01221A60144B1A68D0075CBFC0
:102CB00001221A60124B1A68D1075CBF01221A6008
:102CC000104B1A68D2075CBF01221A600E4B1A68BB
:102CD000D0075CBF01221A600C4B1A68D1075CBF99
:102CE00001221A600A4B1A68D2075CBF01221A60DF
:102CF000704700BFBC060020B8060020B4060020C4
:102D0000B0060020AC060020A8060020A406002083
:102D1000A0060020244B1A68D0075CBF01221A606D
:102D2000224B1A68D1075CBF01221A60204B1A6837
:102D3000D2075CBF01221A601E4B1A68D0075CBF25
:102D400001221A601C4B1A68D1075CBF01221A606D
:102D50001A4B1A68D2075CBF01221A60184B1A6816
:102D6000D0075CBF01221A60164B1A68D1075CBFFE
:102D700001221A60144B1A68D2075CBF01221A6044
:102D8000124B1A68D0075CBF01221A60104B1A68F8
:102D9000D1075CBF01221A600E4B1A68D2075CBFD4
:102DA00001221A60704700BFEC060020E8060020F0
:102DB000E4060020E0060020DC060020D806002003
:102DC000D4060020D0060020CC060020C806002033
:102DD000C4060020C0060020244B1A68D0075CBF40
:102DE00001221A60224B1A68D1075CBF01221A60C7
:102DF000204B1A68D2075CBF01221A601E4B1A686A
:102E0000D0075CBF01221A601C4B1A68D1075CBF57
:102E100001221A601A4B1A68D2075CBF01221A609D
:102E2000184B1A68D0075CBF01221A60164B1A684B
:102E3000D1075CBF01221A60144B1A68D2075CBF2D
:102E400001221A60124B1A68D0075CBF01221A6077
:102E5000104B1A68D1075CBF01221A600E4B1A682A
:102E6000D2075CBF01221A60704700BF1C07002018
:102E70001807002014070020100700200C0700206E
:102E8000080700200407002000070020FC0600209F
:102E9000F8060020F4060020F0060020184B1A68FF
:102EA000D1075CBF01221A60164B1A68D2075CBFBB
:102EB00001221A60144B1A68D0075CBF01221A6005
:102EC000124B1A68D1075CBF01221A60104B1A68B6
:102ED000D2075CBF01221A600E4B1A68D0075CBF94
:102EE00001221A600C4B1A68D1075CBF01221A60DC
:102EF0000A4B1A68D2075CBF01221A60704700BFF4
:102F00003C0700203807002034070020300700204D
:102F10002C0700202807002024070020200700207D
:102F2000C1F30A522DE9F843A2F2FF36132E0B46E5
:102F300004460D46884607461CDC002E3FDB3A4A15
:102F4000864642FA06F901EA0902024317D034A381
:102F5000D3E9002300F0EEFA0022002300F02CFF5A
:102F600020B1002D40DB28EA090500273846294614
:102F7000BDE8F883332E06DDB6F5806F2FD02046EE
:102F80001946BDE8F883A2F213424FF0FF3929FA3F
:102F900002F910EA090FF2D021A3D3E9002300F0CF
:102FA000C9FA0022002300F007FF0028DED0002D20
:102FB00020DB454627EA090738462946D8E718A303
:102FC000D3E9002300F0B6FA0022002300F0F4FE5B
:102FD0000028CBD0002D18DB00273D46C6E702466F
:102FE0000B4600F0A7FACCE74FF4801343FA06F63D
:102FF000B044B8E7142E10D00123C6F1340603FA0A
:1030000006F6371928BF9844D3E725F00042074B4E
:10301000224318BF1D460027A8E705F10108C8E7AD
:103020009C7500883CE4377EFFFF0F000000F0BF76
:103030002DE9F0418AB004460D4600F079F8374B8F
:10304000064693F900800F46B8F1FF3F0DD02246A7
:103050002B462046294600F0B9FE30B90022002355
:103060002046294600F0A8FE20B1304639460AB075
:10307000BDE8F0812A4B0890CDE90245CDE9044531
:103080000193B8F1000F19D1264F4FF0604620464A
:10309000294600220023CDE9066700F065FE0028DE
:1030A00034D002230093684600F036FAA8B1089B9A
:1030B000C3B9DDE906010AB0BDE8F0811A4F002668
:1030C0002046294600220023CDE9066700F04CFE89
:1030D00068B1022398450093E5D1FEF713FC222343
:1030E0000360E4E7FEF70EFC089B0360E1E70123C1
:1030F000B8F1020F00930BD1FEF704FC212303600B
:103100000A4800F00BFACDE90601D0E7012300934D
:10311000684600F001FA0028F2D1EDE738000020FF
:10312000884A0A08FFFFEFC70000F0FF8C4A0A0830
:103130002DE9F04FB1F5801F85B006460F460B46CE
:103140005ADA024621F00044224300F0F7800029B9
:10315000C0F279810022D64B00F09EFB0B460F4651
:10316000D44906468B426FF0350249DCC3F31305A0
:1031700005F5152404F6647404F4801E8EF07F5166
:1031800081F440111B15A3F2FF3341EA05079C1897
:1031900030460022C84B394604EB1E5400F0C8F9F3
:1031A000AB1CC3F31303022B82468B464FF0000285
:1031B0002FDC002300F0D8FD002800F0C880002C90
:1031C00000F04A81204600F001FBA5A3D3E90023CB
:1031D00006460F4600F060FBA3A3D3E90023044694
:1031E0000D463046394600F057FB02460B46204656
:1031F000294600F09FF909E0AE4900228B42B5DD77
:1032000032463B463046394600F094F905B0BDE8F9
:10321000F08F4FF0804300F08DF902460B46504688
:10322000594600F063FC064620460F4600F0CEFAF1
:103230003246CDE900013B4630463946CDE90267CA
:1032400000F02AFB02460B468046894600F024FB2C
:1032500087A3D3E9002306460F4600F01DFB86A393
:10326000D3E9002300F066F932463B4600F014FB38
:1032700083A3D3E9002300F05DF932463B4600F01A
:103280000BFB81A3D3E9002300F054F942464B46DF
:1032900000F002FB7EA3D3E9002380468946304636
:1032A000394600F0F9FA7CA3D3E9002300F042F993
:1032B00032463B4600F0F0FA79A3D3E9002300F050
:1032C00039F932463B4600F0E7FA0B4602464946DA
:1032D000404600F02FF9A5F5C223C5F5D725A3F286
:1032E0007A4351351D43002D8046894656DD002224
:1032F000724B5046594600F0CFFA52465B4600F0FA
:10330000CBFA06460F46002C68D132463B46404673
:10331000494600F00FF9DDE9022300F0BDFA02464C
:103320000B463046394600F003F902460B4650463C
:10333000594600F0FDF805B0BDE8F08F00220023EB
:1033400000205F4900F0D2FB05B0BDE8F08F56A326
:10335000D3E900235046594600F09EFA02460B4638
:103360000020564900F0E4F8524606460F465B46F8
:103370005046594600F090FA02460B463046394610
:1033800000F08AFA06460F46002C40F09B80024669
:103390000B465046594600F0CBF837E7002C00F0BA
:1033A000A5802FA3D3E90023DDE9000100F074FA22
:1033B00042464B4604460D465046594600F0B8F882
:1033C000DDE9022300F068FA27A3D3E900230646CB
:1033D0000F46DDE9000100F05FFA21E020A3D3E908
:1033E0000023DDE9000100F057FA32463B4604466F
:1033F0000D464046494600F09DF8DDE9022300F005
:103400004BFA19A3D3E9002380468946DDE9000180
:1034100000F042FA02460B464046494600F08AF860
:1034200002460B463046394600F082F852465B466B
:1034300000F07EF802460B462046294600F078F858
:1034400005B0BDE8F08F02460B4600F071F800228F
:10345000002300F04BFBD9E600200021D6E600BF98
:103460000000E0FE422EE63F763C7935EF39EA3D3A
:1034700044523EDF12F1C23FDE03CB966446C73FA3
:10348000599322942449D23F935555555555E53FBC
:103490009FC678D0099AC33FAF788E1DC571CC3FC7
:1034A00004FA97999999D93F555555555555D53F92
:1034B00000005043FFFFEF7F0000F03F0000E03FBF
:1034C000000050C3204600F081F90FA3D3E9002388
:1034D0008046894600F0E0F90DA3D3E900230446B5
:1034E0000D464046494600F0D7F999E702460B469B
:1034F0005046594600F01CF8DDE9022300F0CCF9F3
:1035000013E700BFAFF300800000E0FE422EE63F6D
:10351000763C7935EF39EA3D0020704700200149BB
:10352000704700BF0000F87F81F0004102E000BF5B
:1035300083F0004330B54FEA41044FEA430594EA73
:10354000050F08BF90EA020F1FBF54EA000C55EAAE
:10355000020C7FEA645C7FEA655C00F0E2804FEA7F
:103560005454D4EB5555B8BF6D420CDD2C4480EA61
:10357000020281EA030382EA000083EA010180EA91
:10358000020281EA0303362D88BF30BD11F0004FDF
:103590004FEA01314FF4801C4CEA113102D0404215
:1035A00061EB410113F0004F4FEA03334CEA133350
:1035B00002D0524263EB430394EA050F00F0A78068
:1035C000A4F10104D5F1200E0DDB02FA0EFC22FA63
:1035D00005F2801841F1000103FA0EF2801843FA57
:1035E00005F359410EE0A5F120050EF1200E012A48
:1035F00003FA0EFC28BF4CF0020C43FA05F3C01886
:1036000051EBE37101F0004507D54FF0000EDCF1FE
:10361000000C7EEB00006EEB0101B1F5801F1BD3A7
:10362000B1F5001F0CD349085FEA30004FEA3C0CAB
:1036300004F101044FEA445212F5800F80F09A80A1
:10364000BCF1004F08BF5FEA500C50F1000041EBA5
:10365000045141EA050130BD5FEA4C0C404141EBA9
:10366000010111F4801FA4F10104E9D191F0000FD0
:1036700004BF01460020B1FA81F308BF2033A3F153
:103680000B03B3F120020CDA0C3208DD02F1140C4A
:10369000C2F10C0201FA0CF021FA02F10CE002F185
:1036A0001402D8BFC2F1200C01FA02F120FA0CFC7E
:1036B000DCBF41EA0C019040E41AA2BF01EB0451C7
:1036C000294330BD6FEA04041F3C1CDA0C340EDCC5
:1036D00004F11404C4F1200220FA04F001FA02F308
:1036E00040EA030021FA04F345EA030130BDC4F1C6
:1036F0000C04C4F1200220FA02F001FA04F340EABB
:103700000300294630BD21FA04F0294630BD94F06B
:10371000000F83F4801306BF81F480110134013D52
:103720004EE77FEA645C18BF7FEA655C29D094EAC3
:10373000050F08BF90EA020F05D054EA000C04BF41
:103740001946104630BD91EA030F1EBF002100202C
:1037500030BD5FEA545C05D14000494128BF41F0CB
:10376000004130BD14F580043CBF01F5801130BD2F
:1037700001F0004545F0FE4141F470014FF00000BA
:1037800030BD7FEA645C1ABF194610467FEA655C6B
:103790001CBF0B46024650EA013406BF52EA03350D
:1037A00091EA030F41F4002130BD00BF90F0000FFB
:1037B00004BF0021704730B54FF4806404F1320437
:1037C0004FF000054FF0000150E700BF90F0000FF0
:1037D00004BF0021704730B54FF4806404F1320417
:1037E00010F0004548BF40424FF000013EE700BFE7
:1037F00042004FEAE2014FEA31014FEA02701FBF77
:1038000012F07F4393F07F4F81F06051704792F048
:10381000000F14BF93F07F4F704730B54FF46074C2
:1038200001F0004521F0004120E700BF50EA01020D
:1038300008BF704730B54FF000050AE050EA0102BA
:1038400008BF704730B511F0004502D5404261EB2A
:1038500041014FF4806404F132045FEA915C3FF46B
:10386000DCAE4FF003025FEADC0C18BF03325FEA04
:10387000DC0C18BF033202EBDC02C2F1200300FAB9
:1038800003FC20FA02F001FA03FE40EA0E0021FADE
:1038900002F11444C1E600BF70B54FF0FF0C4CF4C8
:1038A000E06C1CEA11541DBF1CEA135594EA0C0F7E
:1038B00095EA0C0F00F0DEF82C4481EA030621EAB9
:1038C0004C5123EA4C5350EA013518BF52EA0335F4
:1038D00041F4801143F4801338D0A0FB02CE4FF0A6
:1038E0000005E1FB02E506F00042E0FB03E54FF0D6
:1038F0000006E1FB03569CF0000F18BF4EF0010ECE
:10390000A4F1FF04B6F5007F64F5407404D25FEAC9
:103910004E0E6D4146EB060642EAC62141EA55517C
:103920004FEAC52040EA5E504FEACE2EB4F1FD0CBE
:1039300088BFBCF5E06F1ED8BEF1004F08BF5FEA3C
:10394000500E50F1000041EB045170BD06F00046EE
:1039500046EA010140EA020081EA0301B4EB5C049B
:10396000C2BFD4EB0C0541EA045170BD41F4801193
:103970004FF0000E013C00F3AB8014F1360FDEBFB8
:10398000002001F0004170BDC4F10004203C35DA94
:103990000C341BDC04F11404C4F1200500FA05F317
:1039A00020FA04F001FA05F240EA020001F00042B8
:1039B00021F0004110EBD37021FA04F642EB06012E
:1039C0005EEA430E08BF20EAD37070BDC4F10C0458
:1039D000C4F1200500FA04F320FA05F001FA04F21C
:1039E00040EA020001F0004110EBD37041F1000108
:1039F0005EEA430E08BF20EAD37070BDC4F1200513
:103A000000FA05F24EEA020E20FA04F301FA05F27A
:103A100043EA020321FA04F001F0004121FA04F222
:103A200020EA020000EBD3705EEA430E08BF20EAF2
:103A3000D37070BD94F0000F0FD101F0004640002C
:103A400041EB010111F4801F08BF013CF7D041EAAE
:103A5000060195F0000F18BF704703F000465200B2
:103A600043EB030313F4801F08BF013DF7D043EA83
:103A70000603704794EA0C0F0CEA135518BF95EA39
:103A80000C0F0CD050EA410618BF52EA4306D1D1C0
:103A900081EA030101F000414FF0000070BD50EADF
:103AA000410606BF1046194652EA430619D094EA69
:103AB0000C0F02D150EA013613D195EA0C0F05D153
:103AC00052EA03361CBF104619460AD181EA0301A7
:103AD00001F0004141F0FE4141F470014FF000005F
:103AE00070BD41F0FE4141F4780170BD70B54FF0FA
:103AF000FF0C4CF4E06C1CEA11541DBF1CEA13557A
:103B000094EA0C0F95EA0C0F00F0A7F8A4EB05045B
:103B100081EA030E52EA03354FEA013100F0888052
:103B20004FEA03334FF0805545EA131343EA12631B
:103B30004FEA022245EA111545EA10654FEA0026D0
:103B40000EF000419D4208BF964244F1FD0404F589
:103B5000407402D25B084FEA3202B61A65EB0305E5
:103B60005B084FEA32024FF480104FF4002CB6EBA2
:103B7000020E75EB030E22BFB61A754640EA0C0022
:103B80005B084FEA3202B6EB020E75EB030E22BF62
:103B9000B61A754640EA5C005B084FEA3202B6EBA3
:103BA000020E75EB030E22BFB61A754640EA9C0062
:103BB0005B084FEA3202B6EB020E75EB030E22BF32
:103BC000B61A754640EADC0055EA060E18D04FEAF0
:103BD000051545EA16754FEA06164FEAC30343EA90
:103BE00052734FEAC2025FEA1C1CC0D111F4801F5D
:103BF0000BD141EA00014FF000004FF0004CB6E756
:103C000011F4801F04BF01430020B4F1FD0C88BFF4
:103C1000BCF5E06F3FF6AFAEB5EB030C04BFB6EBFF
:103C2000020C5FEA500C50F1000041EB045170BDF2
:103C30000EF0004E4EEA113114EB5C04C2BFD4EB1F
:103C40000C0541EA045170BD41F480114FF0000EA3
:103C5000013C90E645EA060E8DE60CEA135594EA1F
:103C60000C0F08BF95EA0C0F3FF43BAF94EA0C0F22
:103C70000AD150EA01347FF434AF95EA0C0F7FF497
:103C800025AF104619462CE795EA0C0F06D152EAEB
:103C900003353FF4FDAE1046194622E750EA4106CF
:103CA00018BF52EA43067FF4C5AE50EA41047FF4E0
:103CB0000DAF52EA43057FF4EBAE12E74FF0FF3C45
:103CC00006E000BF4FF0010C02E000BF4FF0010C16
:103CD0004DF804CD4FEA410C7FEA6C5C4FEA430C8F
:103CE00018BF7FEA6C5C1BD001B050EA410C0CBFDE
:103CF00052EA430C91EA030F02BF90EA020F002040
:103D0000704710F1000F91EA030F58BF994208BFA6
:103D100090422CBFD8176FEAE37040F00100704763
:103D20004FEA410C7FEA6C5C02D150EA013C07D1BA
:103D30004FEA430C7FEA6C5CD6D152EA033CD3D005
:103D40005DF8040B704700BF8446104662468C46FF
:103D50001946634600E000BF01B5FFF7B7FF002832
:103D600048BF10F1000F01BD4DF808EDFFF7F4FF5B
:103D70000CBF012000205DF808FB00BF4DF808EDE6
:103D8000FFF7EAFF34BF012000205DF808FB00BF09
:103D90004DF808EDFFF7E0FF94BF012000205DF82B
:103DA00008FB00BF4DF808EDFFF7CEFF94BF0120E0
:103DB00000205DF808FB00BF4DF808EDFFF7C4FFD9
:103DC00034BF012000205DF808FB00BF4FEA410C22
:103DD0007FEA6C5C02D150EA013C0AD14FEA430C05
:103DE0007FEA6C5C02D152EA033C02D14FF0000042
:103DF00070474FF0010070474FEA410212F5001280
:103E000015D211D56FF47873B3EB625212D94FEA21
:103E1000C12343F0004343EA505311F0004F23FA0B
:103E200002F018BF404270474FF00000704750EA60
:103E3000013005D111F0004008BF6FF0004070471D
:103E40004FF00000704700BF4A0011D212F5001277
:103E500011D20DD56FF47873B3EB62520ED44FEAE2
:103E6000C12343F0004343EA505323FA02F0704762
:103E70004FF00000704750EA013002D14FF0FF30A0
:103E800070474FF0000070474FEA4102B2F1E04343
:103E900024BFB3F5001CDCF1FE5C0DD901F0004C31
:103EA0004FEAC0024CEA5070B2F1004F40EB830081
:103EB00008BF20F00100704711F0804F21D113F1AD
:103EC0003872BCBF01F00040704741F480114FEAE6
:103ED0005252C2F11802C2F1200C10FA0CF320FA6F
:103EE00002F018BF40F001004FEAC1234FEAD3238C
:103EF00003FA0CFC40EA0C0023FA02F34FEA4303F6
:103F0000CCE77FEA625307D150EA01331EBF4FF07E
:103F1000FE4040F44000704701F0004040F0FE4099
:103F200040F40000704700BF80F0004002E000BF96
:103F300081F0004142001FBF5FEA410392EA030F94
:103F40007FEA226C7FEA236C6AD04FEA1262D2EBDE
:103F50001363C1BFD218414048404140B8BF5B42E3
:103F6000192B88BF704710F0004F40F4000020F07C
:103F70007F4018BF404211F0004F41F4000121F092
:103F80007F4118BF494292EA030F3FD0A2F10102DC
:103F900041FA03FC10EB0C00C3F1200301FA03F11A
:103FA00000F0004302D5494260EB4000B0F5000F3D
:103FB00013D3B0F1807F06D340084FEA310102F1FC
:103FC0000102FE2A51D2B1F1004F40EBC25008BFAE
:103FD00020F0010040EA03007047490040EB000078
:103FE00010F4000FA2F10102EDD1B0FA80FCACF1A7
:103FF000080CB2EB0C0200FA0CF0AABF00EBC250A6
:1040000052421843BCBFD0401843704792F0000F93
:1040100081F4000106BF80F400000132013BB5E7E6
:104020004FEA41037FEA226C18BF7FEA236C21D05C
:1040300092EA030F04D092F0000F08BF08467047C1
:1040400090EA010F1CBF0020704712F07F4F04D18F
:10405000400028BF40F00040704712F100723CBFA2
:1040600000F50000704700F0004343F0FE4040F4CC
:10407000000070477FEA226216BF08467FEA23638A
:104080000146420206BF5FEA412390EA010F40F475
:10409000800070474FF0000304E000BF10F00043C1
:1040A00048BF40425FEA000C08BF704743F09643A8
:1040B00001464FF000001CE050EA010208BF7047C3
:1040C0004FF000030AE000BF50EA010208BF70474A
:1040D00011F0004302D5404261EB41015FEA010C5F
:1040E00002BF84460146002043F0B64308BFA3F157
:1040F0008053A3F50003BCFA8CF2083AA3EBC25339
:1041000010DB01FA02FC634400FA02FCC2F1200257
:10411000BCF1004F20FA02F243EB020008BF20F08E
:104120000100704702F1200201FA02FCC2F12002F4
:1041300050EA4C0021FA02F243EB020008BF20EAE9
:10414000DC7070474FF0FF0C1CEAD0521EBF1CEA17
:10415000D15392EA0C0F93EA0C0F6FD01A4480EA05
:10416000010C400218BF5FEA41211ED04FF00063EE
:1041700043EA501043EA5111A0FB01310CF000401A
:10418000B1F5000F3EBF490041EAD3715B0040EA40
:10419000010062F17F02FD2A1DD8B3F1004F40EB10
:1041A000C25008BF20F00100704790F0000F0CF0E3
:1041B000004C08BF49024CEA502040EA51207F3AA7
:1041C000C2BFD2F1FF0340EAC250704740F4000082
:1041D0004FF00003013A5DDC12F1190FDCBF00F073
:1041E00000407047C2F10002410021FA02F1C2F121
:1041F000200200FA02FC5FEA310040F1000053EABD
:104200004C0308BF20EADC70704792F0000F00F00A
:10421000004C02BF400010F4000F013AF9D040EA10
:104220000C0093F0000F01F0004C02BF490011F4A4
:10423000000F013BF9D041EA0C018FE70CEAD153A2
:1042400092EA0C0F18BF93EA0C0F0AD030F0004C22
:1042500018BF31F0004CD8D180EA010000F00040D6
:10426000704790F0000F17BF90F0004F084691F094
:10427000000F91F0004F14D092EA0C0F01D14202CE
:104280000FD193EA0C0F03D14B0218BF084608D197
:1042900080EA010000F0004040F0FE4040F40000E1
:1042A000704740F0FE4040F4400070474FF0FF0C74
:1042B0001CEAD0521EBF1CEAD15392EA0C0F93EABB
:1042C0000C0F69D0A2EB030280EA010C49024FEA0D
:1042D000402037D04FF0805343EA111143EA1013C6
:1042E0000CF000408B4238BF5B0042F17D024FF47E
:1042F000000C8B4224BF5B1A40EA0C00B3EB510F59
:1043000024BFA3EB510340EA5C00B3EB910F24BF41
:10431000A3EB910340EA9C00B3EBD10F24BFA3EBC6
:10432000D10340EADC001B0118BF5FEA1C1CE0D18E
:10433000FD2A3FF650AF8B4240EBC25008BF20F041
:10434000010070470CF0004C4CEA50207F32C2BF95
:10435000D2F1FF0340EAC250704740F400004FF032
:104360000003013A37E792F0000F00F0004C02BF63
:10437000400010F4000F013AF9D040EA0C0093F02D
:10438000000F01F0004C02BF490011F4000F013B87
:10439000F9D041EA0C0195E70CEAD15392EA0C0FEF
:1043A00008D142027FF47DAF93EA0C0F7FF470AF27
:1043B000084676E793EA0C0F04D14B023FF44CAF6A
:1043C00008466EE730F0004C18BF31F0004CCAD1FF
:1043D00030F000427FF45CAF31F000437FF43CAF3B
:1043E0005FE700BF4FF0FF3C06E000BF4FF0010C5D
:1043F00002E000BF4FF0010C4DF804CD4FEA40023F
:104400004FEA41037FEA226C18BF7FEA236C11D088
:1044100001B052EA530C18BF90EA010F58BFB2EB3B
:10442000030088BFC81738BF6FEAE17018BF40F0BB
:10443000010070477FEA226C02D15FEA402C05D16F
:104440007FEA236CE4D15FEA412CE1D05DF8040BF4
:10445000704700BF844608466146FFE70FB5FFF787
:10446000C9FF002848BF10F1000F0FBD4DF808ED3F
:10447000FFF7F4FF0CBF012000205DF808FB00BF30
:104480004DF808EDFFF7EAFF34BF012000205DF88A
:1044900008FB00BF4DF808EDFFF7E0FF94BF0120D7
:1044A00000205DF808FB00BF4DF808EDFFF7D2FFD4
:1044B00094BF012000205DF808FB00BF4DF808ED17
:1044C000FFF7C8FF34BF012000205DF808FB00BFE4
:1044D0004FEA40024FEA41037FEA226C02D15FEAD1
:1044E000402C08D17FEA236C02D15FEA412C02D133
:1044F0004FF0000070474FF0010070470A22002182
:1045000000F0F4B810B5054C13462CB10A4601462C
:104510000220AFF3008010BD204610BD0000000057
:1045200010B5431E0A44914204D011F8014B03F820
:10453000014FF8E710BD03460244934202D003F84E
:10454000011BFAE77047000038B5124B05461C689E
:10455000A36BD3B91820FDF7A5F943F20E33A0637E
:1045600003804AF6CD33438041F2342383804EF2F8
:104570006D63C3804DF6EC630381052343810B23F8
:10458000838101220023C0E90423A36B00221D6163
:104590005A6138BDA0000020024B0146186800F0A7
:1045A00003B800BFA000002070B5064608460C46C0
:1045B00000F00DF8451C29463046FDF79BF90646EC
:1045C00018B12A462146FFF7ABFF304670BD0346BF
:1045D00013F8012B002AFBD1181A0138704700008C
:1045E0002DE9F0470F4680463F48D0F800903D4601
:1045F00015F8014B09EB0400407800F0080000F0CA
:10460000FF0608B12F46F2E72D2C03D1BD1C7C78A4
:10461000012603E02B2C04BF7C78BD1C13B1102BAA
:104620000AD15BE0302C57D1287800F0DF00582801
:104630004DD16C7810230235002E14BF4FF0004C82
:104640006FF0004CBCFBF3FA0027384603FB1ACC92
:1046500009EB040E9EF801E01EF0040F01D0303C7F
:104660000BE01EF0030E1BD0BEF1010F0CBF4FF08C
:10467000370E4FF0570ECEEB0404A34210DDB7F116
:10468000FF3F0AD0504506D801D1644503DC03FB47
:104690000040012701E04FF0FF3715F8014BD7E745
:1046A0007B1C0CD1002E4FF0220314BF4FF00040B2
:1046B0006FF00040C8F800302AB9BDE8F08706B1B5
:1046C000404272B107B1691E1160BDE8F087302425
:1046D000002BB1D10823AFE70A23ADE7302CA3D0DC
:1046E000AAE7BDE8F08700BF3C00002013460A4659
:1046F000014602480068FFF773BF00BFA00000201A
:1047000021000A0861000A088D000A0891000A08C1
:1047100000000000881300002C0100002C010000A4
:1047200000000000F4010000000000000000000094
:10473000000000006170707764740061626F7274D1
:1047400000545856310054585632006F6E006F6650
:1047500066006465616374697661746500746F678F
:10476000676C6500666C69700072656C6179006FDA
:1047700075747075740062616E6B00616C6C0025FD
:104780002E326626252E326626252E326626252EC8
:10479000326626252E326626252E326626252E32B4
:1047A0006626252E326626252E326626252E326670
:1047B00026252E326626252E326600647354454D1A
:1047C00050530064735F70736900676F004F464613
:1047D00000000000FF000000FF000000536574743B
:1047E000696E672050574D20666F72204C454420FB
:1047F0000020746F2000202D3E2000417474656DF0
:104800007074696E6720746F2073657420667265BA
:10481000712000457374696D617465642070726500
:104820002D7363616C653A200046696E616C20707F
:1048300072652D7363616C653A2000000000000012
:104840000000000015190A0817190A086E616E00A9
:104850006F7666002E00696E6600626175640053B3
:10486000657269616C0055534253657269616C31C0
:10487000007479706500706172616D00636D640031
:10488000696400686E64007374726D0066696C74AC
:10489000006C766C0061646448616E646C657200E3
:1048A00072656D6F766548616E646C657200656EE9
:1048B000756D48616E646C657273004A534F4E5358
:1048C000747265616D4C6F6748616E646C657200EF
:1048D00061707000253031307520005D2000256446
:1048E000002C200028293A2000205B00636F6465BB
:1048F000203D200025690064657461696C73203D6A
:1049000020000D0A006C6E00666E00636F64650027
:1049100064657461696C006E6F6E650074726163CA
:104920006500696E666F007761726E006572726F06
:10493000720070616E6963005A00252B3033643A4F
:10494000253032750025592D256D2D2564542548B7
:104950003A254D3A2553257A0061736374696D6574
:10496000000000000000000000000000E91E0A082E
:10497000EF1E0A08331F0A08FD1E0A08EB1E0A086C
:104980000000000000000000D9240A08C9240A0819
:10499000CB240A08000000000000000095250A084A
:1049A000E5250A08F3250A086F1A0A08D1250A081E
:1049B00097250A08AD250A08DF250A08C3250A0835
:1049C00091250A08000000000000000035270A08B1
:1049D00085270A0893270A086F1A0A0849270A0830
:1049E0006B270A0857270A087F270A0837270A086B
:1049F0003B270A08000000000000000061280A08A8
:104A0000AB280A0883280A0863280A088B280A08A2
:104A100093280A089B280A08A3280A080000000017
:104A200000000000BB290A08B1290A08A7290A08C2
:104A300025290A08211D0A089B290A088F290A0826
:104A400087290A087D290A0873290A082F290A08D4
:104A50000000000000000000D9290A08E3290A0824
:104A6000ED290A08F7290A08012A0A080D2A0A0866
:104A7000192A0A08252A0A082D2A0A08372A0A08A4
:104A8000412A0A08000000006C6F67000000000067
:104A9000002020202020202020202828282828200E
:104AA0002020202020202020202020202020202006
:104AB000208810101010101010101010101010106E
:104AC000100404040404040404040410101010105E
:104AD0001010414141414141010101010101010128
:104AE000010101010101010101010101101010107A
:104AF00010104242424242420202020202020202FA
:104B0000020202020202020202020202101010104D
:104B10002000000000000000000000000000000075
:104B20000000000000000000000000000000000085
:104B30000000000000000000000000000000000075
:104B40000000000000000000000000000000000065
:104B50000000000000000000000000000000000055
:104B60000000000000000000000000000000000045
:104B70000000000000000000000000000000000035
:104B80000000000000000000000000000000000025
:104B90000000000000000000000000000000000015
:104BA0000000000000000000000000000000000005
:104BB00000000000000000000000000000000000F5
:104BC00000000000000000000000000000000000E5
:104BD00000000000000000000000000000000000D5
:104BE00000000000000000000000000000000000C5
:104BF0000000000043000000750A0A08250B0A089F
:104C0000550E0A08590E0A08890E0A0885100A0866
:104C1000DD110A0895140A0865190A083D1D0A08DD
:104C20004D1D0A08951D0A08C5290A08912A0A0877
:104C3000112B0A08DD2B0A08912C0A08152D0A08E9
:104C4000D92D0A089D2E0A0800000000000000006F
:104C50000000000000000000000000000000000054
:104C60000000000000000000000000000000000044
:104C70000000000000000000000000000000000034
:104C80000000000000000000000000000000000024
:104C90000000000000000000000000000000000014
:104CA0000000000000000000000000000000000004
:044CB0000000000000
:104CB4000000C07F0000C07F000000000000000072
:104CC40000000000000000000000000000000000E0
:104CD40000000000000000000000000000000000D0
:104CE400FF00000059490A0801000000904A0A0820
:104CF40000000000944B0A08B44B0A08D44B0A087D
:104D0400000000000000000000000000000000009F
:104D1400F44B0A080000000000000000000000003E
:104D2400000000000000000000000000000000007F
:104D3400000000000000000000000000000000006F
:104D4400000000000000000000000000000000005F
:044D540040000020FB
:104D5800FFFFFFFF00000102030405060708090A18
:104D68000B0C0D0E0F101112131415161718191A13
:084D78001B1C1D1E1F2028005A
:044D8000785634121B
:04000005080A0020C5
:00000001FF
