:02000004080AE8
:1000000000000A08A04E0A080000050006000501CD
:080010000402EA0300000000F5
:1000180044480A0809480A4908B5884205D0094AE7
:10002800824202D0121A04F0EBFA0748074A00216C
:10003800121A04F0F0FA064808BD00BF00030020B9
:10004800D44D0A08A4030020A4030020180A0020A5
:10005800180A002070B502F03BF9074B074C1E4602
:10006800E41AA4080025A54204D056F8253098477C
:100078000135F8E770BD00BF244D0A086C4D0A0829
:1000880000F07CBB08B500F0ADFABDE8084002F00E
:10009800E1B801F083BD01F089BD0078B0FA80F0C5
:1000A8004009704701230370704703681847012A05
:1000B80002D0022A02D004E0016002E00B6800B11D
:1000C800036000207047000030B589B00546154927
:1000D800684601F022FE0024A200131D294604A848
:1000E80001F0ACFE04A9684601F061FE04A801F025
:1000F800CDFD684601F0D1FEB0F5805F04F1010442
:1001080007DB062CE8D1684601F0C0FD012009B0E4
:1001180030BD611E82B20023C9B2034801F078FAEB
:10012800EFE700BFF6490A087404002010B501F093
:10013800B4FEB0F5805F044605DC82B200230421DA
:10014800024801F065FA204610BD00BF7404002083
:1001580010B501F0A2FEB0F5805F044605DC82B25E
:1001680000230821024801F053FA204610BD00BFC1
:10017800740400201FB50146684601F00DFE69466B
:10018800044800F0BFFE684601F080FD012005B07C
:100198005DF804FBF403002010B5012303748368A1
:1001A80004460BB1C06806E0006828B183680BB943
:1001B80002F049FEC3689847012363740020BDE834
:1001C800104001F0BDBB10B58368044613B103228B
:1001D80001469847204610BD38B5044660B1056809
:1001E8002DB12846FFF7EFFF2846FFF754FF2046BA
:1001F800BDE83840FFF74FBF38BD10B54369044626
:10020800BBB1586801F074FB78B963695A7C12B9BC
:10021800586801F07DFB6369586801F081FB6069EB
:100228000023636128B1FFF7D7FF606908B1FFF7C2
:10023800D3FF201DFFF7C7FF204610BD30B51D4670
:1002480087B000230446049322B1224B02920593FF
:10025800214B04930023E360049B21603BB10222FD
:1002680002A9201D9847059B2361049BE3601B4955
:10027800142002F0D9FD30B10023037403604360F9
:100288008360C3604374606198B1154B0922836031
:1002980063691449DC606069134B8DE82100043000
:1002A80001F01EFB28B963691B7C43B901F028FBE8
:1002B800F9E760690023636108B1FFF78DFF01F07A
:1002C800F7FA0A4B186002A8FFF77DFF204607B02F
:1002D80030BD00BFB3000A08B7000A08B04B0A08CF
:1002E800952D0A0858480A08A1010A084009002063
:1002F8000368C9B29B68184773B5064600240022F4
:100308003146134800F0BEFF0546114801F074F865
:1003180050B90134032CF2D102F044FB0D4901F02D
:10032800FAFD00240C4D0EE0022CF5D0284603F00F
:100338003FFB04460D4602F035FB0223009322469C
:100348002B4601F005FF2046294602B070BD00BFCC
:10035800D40300205F480A0800C058C02DE9F341C3
:10036800384B93F90E4002F031FD214602F055FC5E
:1003780002F02CFD02F058FC60BB0446661C022308
:100388001022F1B200932F48012301F04DF82D48B7
:1003980001F0B0F82C4B2D4D43F8240003F05EFF1C
:1003A8002B4903F0A5FE2B4904F060F82A4B0746B9
:1003B80053F8240003F052FF0146384603F0A2FF29
:1003C800042E45F824003446D8D16868234903F040
:1003D80091FE6860224B93F90E4002F0F7FC21462B
:1003E80002F01BFC02F0F2FC02F01EFC30BB1D4FB9
:1003F8001D4E1E4D042402231022E1B2009318481A
:10040800012301F011F8164801F074F847F8040FB9
:1004180003F024FF0E4903F06BFE0E4904F026F8A2
:10042800804656F8040F03F019FF0146404603F0D2
:1004380069FF0134092C45F8040FDCD102B0BDE88E
:10044800F08100BF3C040020B403002078040020A1
:1004580000A8B5450032B8462C490A080000A0405B
:100468004C040020BC03002034490A088004002002
:1004780038B5046805467CB16368013B63605BB9C5
:10048800236820469B689847A368013BA3601BB973
:1004980023682046DB689847284638BD10B5294CA4
:1004A800CCB0E06A03F084FACDE91601A06A03F043
:1004B8007FFACDE91401606A03F07AFACDE91201F6
:1004C800206A03F075FACDE91001E06903F070FACB
:1004D800CDE90E01A06903F06BFACDE90C01606962
:1004E80003F066FACDE90A01206903F061FACDE963
:1004F8000801E06803F05CFACDE90601A06803F0A2
:1005080057FACDE90401606803F052FACDE9020117
:10051800206803F04DFA0C4ACDE90001C8211AA859
:1005280001F054FB094B1AAA1B7809498DF80030D1
:1005380018A83C2302F044F819A8FFF799FF4CB01B
:1005480010BD00BF04030020A3480A086C04002063
:10055800DF480A0810B51F4CC4B0E06903F028FA58
:10056800CDE90E01A06903F023FACDE90C01606919
:1005780003F01EFACDE90A01206903F019FACDE962
:100588000801E06803F014FACDE90601A06803F059
:100598000FFACDE90401606803F00AFACDE9020117
:1005A800206803F005FA0C4ACDE90001C82112A819
:1005B80001F00CFB094B12AA1B7809498DF8003091
:1005C80010A83C2301F0FCFF11A8FFF751FF44B02D
:1005D80010BD00BF78040020B7480A086C0400204A
:1005E800E7480A082DE9F84F01F062F9524D534CDB
:1005F8002B682060C01AB0F5487F02D301F058F983
:1006080028604F4E236832689B1A40F6FB029342DB
:100618002CD9DFF850A1DFF85081DFF85091002580
:100628000C2707FB05A73846FFF766FE03F00CFD0D
:10063800C8F800000146834603F0B4FF10B949F832
:1006480025B00DE03846FFF757FE03F0FDFCC8F86B
:1006580000000146074603F0A5FF08B949F82570D0
:1006680001350C2DDCD101F023F93060354D2368BC
:100678002A689B1AB3F5FA7F04D3FFF76FFE01F0DF
:1006880017F92860304D23682A689B1A40F6B7325C
:10069800934204D901F00CF92860FFF75BFF2B4D5A
:1006A80023682A689B1AB3F5967F15D301F000F9E1
:1006B800286002F08BFB242102F0AFFA02F086FBDF
:1006C8000021FFF715FE02F081FB02F0ADFA204A87
:1006D800137883F0010313701E4D23682A689B1A50
:1006E80042F6DF62934220D901F0E2F82860FFF772
:1006F800D5FE194A194B11881888014409B2B1F579
:10070800805FAABF40F6FF7111801180B2F9002006
:10071800A4BF40421880B2F5487F06DC0E4A4FF469
:10072800487111801A8852421A8001F0C1F80C4BA6
:100738001860BDE8F88F00BFB0030020A8030020B0
:10074800AC0300207004002064040020680400202A
:100758005C040020F00300200003002002030020B6
:1007680040090020004002406004002004030020EB
:100778000246014801F01BBE8B230A0838B5202128
:10078800404800F0A9FA10213E4800F0A7FA0022DC
:1007980011463C4800F0B5FA3A4800F099FB3A494E
:1007A8003A48FFF7E5FF3A493A48FFF7E1FF3A4987
:1007B8003A48FFF7DDFF3A493A48FFF7D9FF314891
:1007C80000F06CFB0121072002F070FA00230422DC
:1007D8003549364801F0C2F9002302223449354828
:1007E80001F0BCF9344800F07AFF3449324800F08F
:1007F80083FF002340F6183201212F4800F008FF3C
:10080800002319464FF400622B4800F001FF002333
:100818004FF400620321284800F0FAFE00234FF449
:1008280000620221244800F0F3FE00234FF44862DE
:100838000421214800F0ECFE00234FF4486208210F
:100848001D4800F0E5FE02F0C1FA02F0CBF902F013
:10085800BDFA242102F0E1F902F0B8FAFF21FFF70E
:1008680047FD02F0B3FA02F0DFF9154800F006FD83
:10087800144D0024291912480C3400F0E4FC842C8F
:10088800F8D138BDF40300207D010A08EE480A08B3
:1008980059010A08FB480A0835010A0800490A08EC
:1008A800D1000A0805490A080F490A0817490A0821
:1008B800B403002021490A08740400200080BB44C6
:1008C800D403002000400240F8B51F4B1F4E0125FD
:1008D8001F4C1D7000F09CFF4FF400731D4A44F636
:1008E80020613046FFF7AAFC30461B4E22461B49C2
:1008F80002F08CFA00220421304600F08DFC3046CC
:10090800174E2246174902F081FA174F68213046E0
:1009180000F07AFD3046154E2246394602F076FA46
:100928006E21304600F070FD22463946304602F00E
:100938006DFA2A4640210E4800F012FEBDE8F84044
:100948000C4800F0B3B900BF6C0400202404002058
:10095800A40300204D1C0A08D403002003020A083F
:100968003C04002077120A0829140A084C040020C5
:1009780074040020F403002002881C2353434268B7
:10098800D118D3588A885A83704738B504460D461B
:1009980000F03EFF00216060284602F087F92580BC
:1009A800204638BD38B5054602F05EF80021288893
:1009B80000F036FF02F05AF87D24013C14F0FF04E1
:1009C8002DD0022000F06CFF288800F031FF10F0D5
:1009D800FF0FF2D002F048F82846FFF7CDFF0121BB
:1009E800288800F01DFF02F041F84FF4F07000F085
:1009F80057FF02F039F80021288800F011FF46203F
:100A080000F04EFF288800F013FFC0B2B0FA80F45F
:100A180002F02CF84FF4CD70640900F041FF204635
:100A280038BD38B511F00105044613D002F01CF8A2
:100A38002046FFF7A1FF0121208800F0F1FE0A20DF
:100A480000F02EFF2088002100F0EAFE02F00EF8E8
:100A5800372012E002F008F82046FFF78DFF012149
:100A6800208800F0DDFE412000F01AFF208829468A
:100A780000F0D6FE01F0FAFF0520BDE8384000F08E
:100A88000FBF10B5044601F0EFFF2046FFF774FFD3
:100A98000121208800F0C4FE032000F001FF00219E
:100AA800208800F0BDFE0A2000F0FAFE208800F041
:100AB800BFFE044601F0DAFF352000F0F1FEE0B297
:100AC80010BD2DE9F0410546884617460826012441
:100AD80018EA040F14BF012100212846FFF7A1FFDF
:100AE8006400013EE4B2F3D18FB101F0BDFF2A8862
:100AF8001C2353436A68D118D3588A8801211A8362
:100B0800288800F08DFEBDE8F04101F0AFBFBDE8D8
:100B1800F081F8B507460826002501243846FFF776
:100B2800B0FF00B125436400013EE4B2F6D1284687
:100B3800F8BD70B500220C4655210646FFF7C1FFE7
:100B4800651E073415F8011F00223046FFF7B9FF6C
:100B5800A542F7D170BD0022CC21FFF7B2BF002318
:100B680003748374437400F11002083002F8013DE5
:100B78008242FBD170472DE9F047857C04468846C0
:100B8800002D5ED1FFF70EFF20B92074A0746074A9
:100B9800BDE8F0872A46F02120460126FFF791FF9D
:100BA800AA4637462046FFF76CFF81462046FFF7E6
:100BB80068FFB9F1010F02D101281BD137E0814547
:100BC80004EB05031ED1227C974207D21A7A1642FB
:100BD80014BF4FF001094FF0000904E00CBF4FF0BB
:100BE80001094FF00009B9F1000F03D1082F08D807
:100BF800677406E06219137A4FF0010933431372E0
:100C080004E0BA461A7A22EA06021A7249462046CF
:100C18007600FFF706FF16F0FF0604BF0135EDB2B8
:100C280007F1010708BF0126072DFFB2BAD9402FE7
:100C380007D984F810A0BAF1000F12D10123A374C8
:100C48000FE000202074A0746074E31D08F1FF38E1
:100C58000F3413F8012FA34208F8012FF9D1BDE88A
:100C6800F087237A002BECD00120EEE730B505465B
:100C780000200139C9B2FF2913D015F8014B082209
:100C880080EA040313F0010F4FEA50001CBF80F004
:100C98008C03D8B2531E13F0FF024FEA5404EFD16D
:100CA800E7E730BD00F0B4BD00F0B2BD0346094926
:100CB80000F10C0203C982E8030000225A619A611C
:100CC8001A771A6220219A620A22596283F82C2024
:100CD800184670474C490A084162704708294FF086
:100CE800010308DD0022C260A1F108029340C3F5A8
:100CF8008073036103E08B40C3F58073C3600162B6
:100D08007047C16002617047022B06D0032B07D0E1
:100D1800012B08D141EA0200704721EA020070471E
:100D280081EA02007047002070472DE9F8431D460C
:100D3800073323F0070300AFADEB030D04466E46FF
:100D4800D7F820800023AB4204DB4FF480705FFAB1
:100D580081F920E052F82300F0540133F3E7E8B1B9
:100D680002F034F8616A01F058FF02F02FF80368C6
:100D780049469B689847002D06DD02F027F803686E
:100D88002A46DB683146984702F020F801F04CFF0C
:100D9800A36A0133A362A36A032BE0DD0025032BBA
:100DA800257213DC0123237202F010F84246616AAF
:100DB80001F02AFF2E4645450ADA02F007F80368D3
:100DC80001355B69984700EB0626F4E74FF4807617
:100DD80030460023A362BD46BDE8F8831FB5002353
:100DE80004AA012442F8043D0094FFF79EFF04B0D2
:100DF80010BD10B512210446FFF7F0FF1321206043
:100E08002046FFF7EBFF606010BD1FB504AC44F847
:100E1800042D012300932246FFF787FF04B010BD7D
:100E280010B504460A461221FFF7EFFF2046BDE839
:100E38001040FFF7DEBF10B504460A461321FFF73E
:100E4800E4FF2046BDE81040FFF7D3BF082938B5B6
:100E5800054613464FF001040FDD0939027C04FAF8
:100E680001F10A4219D1CAB20179FFF74DFF0146D3
:100E78002846BDE83840FFF7DEBF0139027B04FA97
:100E880001F10A4209D1CAB20178FFF73DFF0146D4
:100E98002846BDE83840FFF7C3BF38BD10B5C16864
:100EA8000446C9430368C9B21943FFF7B9FF21696A
:100EB8006368C943C9B22046BDE810401943FFF72B
:100EC800BABF13B501240094FFF72FFF02B010BD7D
:100ED80010B5044601F07AFF01F084FE04F10C021B
:100EE800022300212046FFF7ECFF04F114022046FC
:100EF80002230C21FFF7E5FF2046BDE81040FFF76D
:100F080078BF00002DE9F04F884691B0AB490546FF
:100F18000CA800F002FF0CA9404600F08BFF8246A7
:100F28000CA800F0B3FEA64904A800F0F6FEBAF13A
:100F3800000FC0F25B8100263446B1463746009662
:100F48000196D8F80830002B00F0FC80BAF1000FA9
:100F580026DB5346002241460CA800F06FFF0CA97F
:100F680004A800F024FF0CA800F090FE0AF101028A
:100F780041460CA800F08AFF0CA9404600F017FF74
:100F88000CA800F083FE8D490CA800F0C6FE0CA941
:100F9800404600F04FFF82460CA800F077FE07E0BD
:100FA800414604A800F0E9FE8549404600F007FFE5
:100FB800844908A800F0B1FE08A904A800F010FFB1
:100FC80080B981490CA800F0A8FE0CA904A800F07B
:100FD80007FF10F1000B0CA818BF4FF0010B00F031
:100FE80055FE01E04FF0010B08A800F04FFEBBF1E1
:100FF800000F05D01CB1002F18BF022400E0022406
:10100800724908A800F089FE08A904A800F0E8FEC3
:1010180080B96F490CA800F080FE0CA904A800F064
:10102800DFFE10F1000B0CA818BF4FF0010B00F009
:101038002DFE01E04FF0010B08A800F027FEBBF1E0
:10104800000F644908A818BF012400F066FE08A92B
:1010580004A800F0C5FE80B95F490CA800F05DFE49
:101068000CA904A800F0BCFE10F1000B0CA818BFD6
:101078004FF0010B00F00AFE01E04FF0010B08A849
:1010880000F004FE009BBBF1000F18BF03244BB116
:1010980004A800F002FF0028C8BF8146009BC8BF13
:1010A8000023009336B104A800F0F7FE0028C4BF5F
:1010B80007460026494908A800F02FFE08A904A8F9
:1010C80000F08EFE80B946490CA800F026FE0CA957
:1010D80004A800F085FE10F1000B0CA818BF4FF013
:1010E800010B00F0D3FD01E04FF0010B08A800F060
:1010F800CDFD009BBBF1000F18BF012339490CA897
:10110800009300F00AFE0CA904A800F069FE8346CB
:101118000CA800F0BBFDBBF1000F33490CA818BFA9
:10112800012600F0FAFD0CA904A800F059FE834638
:101138000CA800F0ABFD019BBBF1000F18BF012309
:101148000193FEE6019B002B33D0012F07DD012C14
:101158001FD1EB686A68DB43DBB2134323E0012C41
:1011680005D1EB682A68DB43DBB2134309E0022CA4
:1011780003D12A68EB68134003E0032C02D12B68E3
:10118800DB43029302992846FFF74AFE012F34D029
:10119800DDE7022C03D16A68EB68134003E0032CF7
:1011A80002D16B68DB43039303992846FFF743FE9C
:1011B80023E0EFB1013F09EBC70919E0054A0A0826
:1011C800F6490A086F480A0878480A0872480A085F
:1011D80076480A0881480A0888480A088D480A0893
:1011E80093480A089A480A089F480A080024A14612
:1011F800224649462846FFF729FE04A800F046FD86
:10120800012011B0BDE8F08F024B00221A7000F0E7
:10121800FFBA00BF9804002070B50446002363603D
:10122800A360E3602361636123766376A27614206A
:101238000E46FEF72EFF054610B13146FFF7A5FB17
:101248002560204670BD38B500F110050C460068D1
:101258002946FFF790FC031E17BF2B682360236005
:101268006B6818BF0120636008BF002038BD10B547
:1012780004460068FEF70FFF204610BD0068FFF720
:101288006EBC0000F8B5837E04460D4616461BB9B1
:101298000B78002B00F0A4802068FFF783FBA37E67
:1012A80023B11EB92068FFF756FC03E029462068E1
:1012B800FFF73FFC002244212068FFF702FC40F2C0
:1012C800EE2000F06DFF2068FFF76CFBA37E23B1D2
:1012D8001EB92068FFF73FFC03E029462068FFF7A6
:1012E80028FC0022BE212068FFF7EBFB2B78262B79
:1012F80004D1002211462068FFF7E3FBE61C04F145
:101308000C072068FFF705FC06F8010FBE42F8D16C
:101318000821201DFFF7AAFC237B207698426376DC
:101328005ED12B78222B1BD016D8102B58D1E37AFC
:10133800A088102B08BFA37A4FEAC00002BF20F094
:101348000F00C3F10C03C01800B202F087FF4FF082
:10135800765102F0D7FFF8BD262B1FD0282B3FD19E
:10136800227A237902F06002202A05D0402A06D08A
:1013780042B923F0070304E023F0030301E023F05C
:10138800010323712379607943EA002000B202F057
:10139800FDFA0022134B02F05FFB1EE0A5792846F8
:1013A80002F0F4FA064660790F46C00802F056FFCC
:1013B80002F0FEFA00220C4B02F04EFB0B46290607
:1013C800024648BF09494FF0000058BF084902F0DB
:1013D80043FB32463B4602F08DF902F035FEF8BD7C
:1013E8000448F8BD0000B03F0000A03F0000F0BF77
:1013F8000000F03F0000C07F027E407E131A584272
:101408005841704700F004BA38B50C46054644F018
:10141800680401F0DBFC01F0E5FBAC73284638BD3D
:10142800704700000000000038B5044602F0FD05D2
:101438009DF810000C2D607202D0102A18BF0C22E3
:1014480022712279013963710C3A43EA410302217E
:1014580092FBF1F242EA83038B40237202F086FA90
:1014680001F0C6FE0EA3D3E9002302F01FFC02F030
:10147800A3FD237A1843207201F0A8FCA17B01F098
:10148800C8FB01F0A3FC217A036841F080019B6846
:101498002172984701F09AFCBDE8384001F0C4BBBE
:1014A800EF39FAFE422EE63F70B5044603238372F5
:1014B80001F08CFCA27AA17B01F0A3FB002501F0CE
:1014C80085FC03686E1C1B69984770B101F07EFCAF
:1014D8000368EDB25B6998472544E872A37A3546FC
:1014E80023449B7ADB11E371E9E7E079003018BF08
:1014F800012070BD10B50446002303602046FFF7A5
:10150800D3FF0028FAD123790E2B0FD0102B19D036
:101518000C2B21D1E37A03F00F02237B43EA022349
:10152800B3F5006FA8BFA3F5805314E0E37A03F086
:101538003F02237B43EA0223B3F5005FA8BFA3F56C
:10154800804308E0E27A237B43EA0223B3F5004FA5
:10155800A8BFA3F580332360206810BD00F058B9F8
:101568000170427070470000F8B51D464378074681
:101578000C46164603B301F015FA224900F0B8FCF0
:1015880001F010FA0A22214600F0F9FC01F00AFAEB
:101598001D4900F0ADFC01F005FA0A22314600F0C1
:1015A8001CFD01F0FFF9194900F0A2FC01F0FAF95D
:1015B8000A22294600F013FD01F008FC397801F0F1
:1015C80028FB01F003FCA1000631FEF791FE01F0B3
:1015D800FDFB3146FEF78CFE01F0F8FB310AFEF701
:1015E80087FE01F0F3FB2946FEF782FE01F0EEFBD1
:1015F800290AFEF77DFE01F0E9FBBDE8F84001F09D
:1016080013BB00BF65490A087A490A087F490A08D6
:10161800F0B540F6FF76B242A8BF324622EAE2743D
:1016280007468E46A5B21A4693B11CB900234FF45B
:10163800805204E0B44205D14FF480530022714631
:1016480038460AE0C5F57F630F339BB2002204E0F9
:10165800B442EBD0002CEFD02B46BDE8F040FFF7AA
:1016680083BF38B504460D4601F0B0FB217801F080
:10167800D0FA01F0ABFB036829469B68984701F054
:10168800A5FB01F0D1FA01F0A1FB0122217801F0BC
:10169800B8FA01F09BFB03685B699847C0B238BD94
:1016A80070B5064614460D4601F090FB317801F0FE
:1016B800B0FA01F08BFB036829469B68984701F054
:1016C80085FB036821469B68984701F07FFBBDE8CE
:1016D800704001F0A9BA00221146FFF7E1BF10B52A
:1016E800044601F073FB01F07DFA2046BDE8104086
:1016F800FFF7F1BF0000000073B5437804460D46BC
:101708008BB101F04FF93C4900F0F2FB01F04AF9C6
:101718000646284602F04CF90223009302460B467F
:10172800304600F015FD284602F042F930A3D3E90F
:10173800002302F091F902F087FC01462F4802F0DD
:1017480095FE4FF07E5102F0D3FC637805468BB1CD
:1017580001F028F92A4900F0CBFB01F023F90646ED
:10176800284602F025F90223009302460B4630462C
:1017780000F0EEFC284602F01BF9224B002201F093
:10178800B9FF01F0ADFC02F03FFC6378C6B253B17B
:1017980001F008F91C4900F0ABFB01F003F90A223B
:1017A800314600F0EEFB00212046FFF75AFF0546C0
:1017B80000F06F0242F0100220460021FFF770FF90
:1017C80032462046FE21FFF76BFF2A4600212046BD
:1017D800FFF766FF052000F0E3FC204665F05E0297
:1017E800D2B2002102B0BDE87040FFF759BF00BF78
:1017F800CDCCCCCCCCCCEC3F84490A0820BCBE452F
:101808009C490A080000E03FB2490A0800F000B805
:1018180008B5024B1B681B68019308BDB001060898
:1018280008B5024B1B689B68019308BDB001060808
:1018380008B5024B1B685B69019308BDB001060837
:1018480008B5024B1B681B6A019308BDB001060866
:1018580008B5024B1B685B6A019308BDB001060816
:1018680008B5024B1B68DB69019308BDB401060883
:1018780008B5024B1B681B6A019308BDB401060832
:1018880008B5024B1B685B68019308BD9C010608FC
:1018980008B5024B1B689B68019308BD9C010608AC
:1018A80008B5024B1B68DB68019308BD9C0106085C
:1018B80008B5024B1B685B69019308BD9C010608CB
:1018C80008B5024B1B689B6E019308BDB80106085A
:1018D80008B5024B1B68DB6E019308BDB80106080A
:1018E80008B5024B1B685B68019308BDD001060868
:1018F80008B5024B1B689B68019308BDD001060818
:1019080008B5024B1B68DB68019308BDD0010608C7
:1019180008B5024B1B681B69019308BDD001060876
:1019280008B5024B1B685B69019308BDD001060826
:1019380008B5024B1B681B6B019308BDD001060854
:1019480008B5024B1B68DB6E019308BDD001060881
:1019580008B5024B1B689B69019308BDC4010608C2
:1019680008B5024B1B685B6A019308BDC4010608F1
:1019780008B5024B1B689B6A019308BDC4010608A1
:1019880008B5024B1B68DB6A019308BDC401060851
:1019980008B5024B1B681B6B019308BDC401060800
:1019A80008B5024B1B685B6B019308BDC4010608B0
:1019B80008B5024B1B689B6B019308BDC401060860
:1019C80008B5024B1B681B6C019308BDC4010608CF
:1019D80008B5024B1B68DB6C019308BDAC01060817
:1019E80008B5024B1B685B6D019308BDAC01060886
:1019F80008B5024B1B689B6D019308BDAC01060836
:101A080008B5024B1B68DB6D019308BDAC010608E5
:101A180008B5024B1B681B6E019308BDAC01060894
:101A280008B5024B1B685B6E019308BDAC01060844
:101A380008B5024B1B689B6E019308BDAC010608F4
:101A480008B5024B1B68DB6E019308BDAC010608A4
:101A580008B5024B1B681B6F019308BDAC01060853
:101A680008B5024B1B685B6F019308BDAC01060803
:101A780008B5034B1B68D3F88030019308BD0000FC
:101A8800AC01060808B5024B1B681B68019308BD2A
:101A9800D801060808B5024B1B681B69019308BDED
:101AA800D801060808B5024B1B685B69019308BD9D
:101AB800D801060808B5024B1B689B69019308BD4D
:101AC800D801060808B5024B1B68DB69019308BDFD
:101AD800D801060808B5024B1B681B6A019308BDAC
:101AE800D801060808B5024B1B685B68019308BD5E
:101AF800A401060808B5024B1B685B69019308BD81
:101B0800A401060808B5024B1B68DB6C019308BDED
:101B1800A401060808B5024B1B685B6D019308BD5C
:101B2800A401060808B5034B1B68D3F8903001934D
:101B380008BD0000A401060808B5034B1B68D3F8CC
:101B48009C30019308BD0000A401060808B5024BAB
:101B58001B681B69019308BDC801060808B5024B3C
:101B68001B681B68019308BDCC01060808B5024B29
:101B78001B685B68019308BDCC01060808B5024BD9
:101B88001B681B6A019308BDCC01060808B5024B07
:101B98001B68DB6B019308BDCC01060808B5024B36
:101BA8001B681B68019308BDA001060808B5024B15
:101BB8001B685B68019308BDA001060808B5024BC5
:101BC8001B689B68019308BDA001060808B5024B75
:101BD8001B68DB69019308BDA001060808B5024B24
:101BE8001B68DB6A019308BDA001060808B5024B13
:101BF8001B681B6B019308BDA0010608704710B550
:101C08000446FEF748FA204610BD000070B50446A9
:101C18000E46074B0025036040F80C5FFFF788FE6F
:101C280030462671FFF71CFEA560204670BD00BF38
:101C3800CC490A080079FFF71BBE014600228C2018
:101C4800FFF73EBE0020FFF7F8BF00004FF69C7379
:101C580037B50D4C002563804FF6FF732846A380E7
:101C68002570FFF73FFF02A840F8045D2A46294681
:101C7800FFF72EFE019B1E2B04D103232370112393
:101C88006580A38003B030BD9A04002010B50446D7
:101C98000068FFF78BFF204610BD10B504460068AA
:101CA80008B1FFF783FF00232360A360636010BDC2
:101CB80038B504460D4600680131FFF77FFF10B1C3
:101CC80084E82100012038BD10B50368044613B12B
:101CD80043688B4207D22046FFF7EAFF20B1A3688A
:101CE8000BB922681370012010BD70B50E4611465D
:101CF80004461546FFF7E8FF18B92046FFF7CDFF61
:101D080009E02A463146A560206802F079FC22687D
:101D1800A3680021D154204670BD38B5002304467D
:101D280003604360836003730D4639B1084602F0CF
:101D3800C6FC294602462046FFF7D7FF204638BD95
:101D480038B5054600680C4660B16A688B689A42E7
:101D580006D3096802F090FCA368AB6000230AE090
:101D6800FFF724FF23682B6063686B60A368AB6090
:101D7800002323606360A36038BD884210B50B461A
:101D8800044607D0096819B19A68FFF7AEFF01E069
:101D9800FFF783FF204610BD10B5044600230360FB
:101DA800436083600373FFF7E8FF204610BD884255
:101DB80010B5044601D0FFF7C3FF204610BD38B563
:101DC80005460C4641B1084602F079FC2146024618
:101DD8002846FFF78AFF01E0FFF75FFF284638BD76
:101DE800884270B515D083688A6893420FD183B151
:101DF80004680D68013C14F8010F50B102F012FD9F
:101E0800064615F8010B02F00DFD8642F3D00020BE
:101E180070BD012070BD10B58368934207D904686E
:101E28000968A01802F053FC08B1001B10BD4FF060
:101E3800FF3010BD0022FFF7EEBF00002DE9F04192
:101E48001C469A4288BF13460E46154688BF25464B
:101E58000D4988BF1C460746FFF75FFFB1688D42F2
:101E68000FD88C4228BF0C463368002213F8048030
:101E78001A55316838462944FFF7A1FF336803F83B
:101E880004803846BDE8F081F6490A0810B50446D2
:101E98008B68FFF7D3FF204610BD006808B102F039
:101EA80097BB7047F8B506460D468F180024BD420B
:101EB8000CD0336815F8011B9B68304698470028FA
:101EC80001DB0444F3E7002C08BF04462046F8BDB4
:101ED80070B505460C46084649B102F0F0FB2B6880
:101EE800024621462846BDE87040DB68184770BDA9
:101EF80008B5FFF7EDFF08BD03689B68184738B5BC
:101F08000D210546FFF7F8FF0A2104462846FFF78A
:101F1800F3FF204438BD38B50546FFF7D9FF04461E
:101F28002846FFF7ECFF204438BD012A98BF0A2253
:101F380030B50B468BB000218DF824100DF1230429
:101F4800B3FBF2F505FB1233DBB2092B94BF303338
:101F58003733DBB2214604F801392B46002DEFD187
:101F6800FFF7B6FF0BB030BD10B422B90368C9B291
:101F78009B6810BC1847D2B210BCFFF7D6BFFFF75A
:101F8800F3BF38B50546FFF7EFFF04462846FFF7CD
:101F9800B6FF204438BD2DE9F04107460E461546E8
:101FA8002AB9BDE8F0410368C9B29B6818470A2AF4
:101FB80002D1002901DA04E0D2B2BDE8F041FFF70E
:101FC800B4BF2D21FFF798FF2A46044671423846D0
:101FD800FFF7ABFF2044BDE8F081FFF7DCBF38B561
:101FE8000546FFF7D8FF04462846FFF788FF204438
:101FF80038BD00002DE9F8431946804610461746BB
:102008001E469DF8205001F0C1FF08B1474912E073
:1020180026F000444FF0FF32454B3846214601F088
:10202800B5FF68B94FF0FF32414B3846214601F001
:102038008FFF28B93F494046FFF74AFFBDE8F883BC
:102048004FF060423C4B3846314601F095FF08B1ED
:102058003A49F0E74FF06042394B3846314601F0D3
:102068006DFF0028F4D1002200233846314601F0E4
:1020780065FF38B12D214046FFF73EFF06F10046C7
:10208800044600E004462F494FF0000900205FFA9B
:1020980089F39D4206D900222B4B01F007FE09F176
:1020A8000109F4E73A46334601F024FB0F46064699
:1020B80001F0AAFF0A22014681464046FFF735FF94
:1020C80004447DB3484601F051FC02460B463046B5
:1020D800394601F00DFB06460F4640461B49FFF7FF
:1020E800F7FE0444184B00223046394601F0B4FC90
:1020F8000F46064601F060FF0A2201468146404627
:10210800FFF749FF0444484601F040FC02460B46ED
:102118003046394601F0ECFA013D15F0FF05064658
:102128000F46DFD12046BDE8F88300BFD4490A082E
:10213800FFFFEF7FDE490A08FFFFEF41D8490A0891
:10214800FFFFEFC10000E03F00002440DC490A081F
:1021580037B59DF8181005460091FFF74BFF044668
:102168002846FFF7CCFE204403B030BD0B6803605F
:1021780013B15A6801325A6070470000014A024B95
:102188001A6070479B4A0A08A0040020024B1A688C
:10219800024B1A60704700BF34030020A4040020DB
:1021A8000021FFF7A7BC10B50446FEF70CF820463F
:1021B80010BD13B50B46044603C88DE8030093E829
:1021C800030084E803009DE8030083E8030002B0ED
:1021D80010BD0000034800238360034A034900F050
:1021E80015BE00BFA8040020A4030020AF210A08E0
:1021F80008B5144B33B100F0D5FB03681B69984749
:10220800002816DC104B33B100F076FC03681B691C
:102218009847002810DC0D4B0BB1AFF300800C4B36
:102228007BB100F0FBFB03681B699847002806DCBC
:1022380008BDAFF30080E5E7AFF30080EBE7AFF34D
:10224800008008BD00000000000000000000000041
:102258000000000008B5FFF7CBFFFFF729FB014B93
:10226800186008BD400900200248034A0349121AB1
:1022780002F0C6B90040024064400240704D0A08AE
:1022880007B5002300931A466FF07701FFF754FC57
:1022980003B05DF804FB000007B543880A2B08D09B
:1022A800502B09D1094B1B683BB103B05DF804EB17
:1022B8001847FFF7E5FF06E0002300931A466FF082
:1022C8007701FFF739FC03B05DF804FBB804002080
:1022D80038B5104C104D2368AB42104B0CBF01228F
:1022E80000221A7002D0FFF7BFFF2560FFF7C8FA77
:1022F80002F09AF90A4B1BB1FFF7C2FAAFF300805C
:1023080000210748FFF742FCBDE838400021054896
:10231800FFF708BC604002401E1C279ABC0400203E
:1023280000000000A1220A0870470020704710B57D
:102338000446FDF7B0FE204610BD08B508B1FFF70A
:10234800F6FF08BD38B5C468D4B12378022B02D192
:10235800E068FFF72BFC65682DB12846FDF733FFD1
:102368002846FDF798FEA5682DB12846FDF72BFFF6
:102378002846FDF790FE2046BDE83840FDF78BBEA5
:1023880038BD10B588B004466846FFF7C6FC6946F4
:1023980004A8FFF701FD04A8A047044604A8FFF716
:1023A80075FC6846FFF772FC204608B010BDF0B512
:1023B80007460E46154685B0102422460021684679
:1023C80002F029F9002269461046ADF8004002974C
:1023D80003960195FFF7CAFB05B0F0BD13B5044697
:1023E80091E8050000234B600B602060626001A843
:1023F80001930093FEF73CF8204602B010BDF7B5F4
:102408000C4606460F4654F8043B02AD45F8083D15
:10241800214601A8FFF7AAFE29463046FFF7DEFF4E
:1024280001A8FEF725F82046FEF722F83846FDF702
:1024380032FE304603B0F0BD826810B50AB900F02C
:1024480002FDC368BDE81040184708B5006800F1F0
:102458001001FFF7F1FF08BD826810B50AB900F056
:10246800F2FCC368BDE81040184708B5006800F1E1
:102478001001FFF7F1FF08BD38B5002383608B68B2
:1024880004460D462BB102229847EB68E360AB681F
:10249800A360204638BD00002DE9F0414FF69C733B
:1024A80004684FF0020086B0B1F904208B80002345
:1024B8000F688DF800300B60D4E84F1F994203D1A4
:1024C800C4E8450F002DF7D102D08DF800106BE05D
:1024D80014F10C051CBFE7602282BFF35F8F18BFA1
:1024E8001F4601236370BFF35F8F04F108030020C8
:1024F80053E8006F43E80002002AF9D1BFF35F8F69
:10250800002E51D0FFF7FEFA20B129463046FFF7DA
:1025180093FF43E031466846FFF7AEFFE068B4F941
:10252800105008B102F0B0F804901020ADF8145023
:10253800FDF7AFFD054630B34FF00008C0F808803E
:102548001820FDF7A6FD0446C0B1C0F80880014672
:102558006846FFF72EFE029BA268A360039B0292C7
:10256800E268E360BDF814300392A3824FF69C73CF
:10257800ADF81430049BCDF8108023610D4B2C600E
:10258800EB600D4BAB600498FFF710FB6846FDF756
:102598001AFE002229460948FFF7BCFA3046FDF723
:1025A80012FE3046FDF777FD3846FFF7FFFA06B012
:1025B800BDE8F08153240A08B1260A084D2B0A0801
:1025C8002DE9F04F8BB007AD4FF0000B064699464A
:1025D80014200C230F4690469DF850A0C5F804B06F
:1025E800C5F808B00793FDF754FD044638B180F8E4
:1025F80000B080F801B0C0F804B0C0F808B00023FB
:10260800102003940493FDF744FD28B1012343608F
:102618008360234BC4600360224B04900820089316
:10262800FDF737FD044628B1039B04A940F8043B95
:10263800FFF79CFD00955FFA8AF34A464146384603
:102648000994FFF79BFAB8B9039B5B7803F0FF0284
:1026580093B94FF69C7305A903A80592ADF81830F5
:10266800FFF71AFF0598FFF7A1FA05A80999FFF7E0
:10267800C6FE06A8FDF7FCFE039B04A906A8059361
:10268800FFF774FD05A93046FFF7A8FE06A8FDF779
:10269800EFFE04A8FDF7ECFE30460BB0BDE8F08F66
:1026A800F44A0A0819280A08022AF8B5044606D086
:1026B800032A17D0012A20D10B6803601DE01820D7
:1026C8000E68FDF7E6FC054650B13146FFF7D4FE2B
:1026D8003069B6F9147008B101F0D6FF2861AF82ED
:1026E80025600AE0046844B12069FFF75FFA2046D4
:1026F800FDF769FD2046FDF7CEFC0020F8BD38B592
:10270800002383608B6804460D462BB1022298474C
:10271800EB68E360AB68A360204638BD022A70B559
:10272800044606D0032A11D0012A17D10B6803608A
:1027380014E014200E68FDF7ACFC054620B13146C4
:10274800FFF7DDFF337C2B74256007E004682CB1AC
:102758002046FDF738FD2046FDF79DFC002070BDA2
:10276800F0B50C46BFF35F8F87B0002350E8006FC9
:1027780040E80032002AF9D1BFF35F8F002E3ED027
:102788001846FFF7BFF9074620B121463046FFF744
:1027980063FE2EE0314601A8FFF7B1FF2378102031
:1027A8008DF81430FDF775FC0546D0B1876014200C
:1027B800FDF76FFC044678B18760014601A8FFF772
:1027C800F8FC039BA268A360049B0392E268E360A1
:1027D8009DF81430049223740A4B2C60EB600A4B6A
:1027E800AB6001A8FDF7EFFC002229460748FFF778
:1027F80091F93046FDF7E7FC3046FDF74CFC07B091
:10280800F0BD00BF73240A0825270A084D2B0A08C3
:1028180030B5044685B00D4668461146FFF7EFFD12
:102828007CB124B228460DB101F02EFF029002A916
:102838006846ADF80C40FFF72FFE0298FFF7B6F98F
:102848001DE04FF0010200988DF80840D0E84F3F96
:10285800A34203D1C0E8412F0029F7D102D08DF857
:1028680008300CE010F10C014FF0010318BF03739E
:10287800BFF35F8F043000F8033CFFF771FF01A836
:10288800FDF7F6FD05B030BD704710B50446FDF7FD
:1028980002FC204610BDF8B50F4600F10806051DDC
:1028A800002416F8011D0A223846FFF768FBAE42DD
:1028B800044407D0002CF4D02E213846FFF71CFB27
:1028C8000444EEE72046F8BD10B59DF8084044EAF8
:1028D800032343EA024242EA01610423416003758B
:1028E80010BD000037B5044D05609DF818500095DF
:1028F800FFF7EAFF03B030BD104B0A084174704778
:1029080070470021007CFFF7D5B80121007CFFF754
:10291800D1B8007CFFF7C6B8007CFFF7BBB838B564
:102928000446007C0D46FFF7BDF8002801DC607CFA
:1029380020B12946207CFFF7C5F8012038BD007C6E
:10294800FFF7C8B810B50446FDF7A5FB204610BD33
:1029580010B50446002363604FF47A73A360054BF7
:10296800084623600123217463741146FFF78AF82F
:10297800204610BD244B0A0810B504461422002135
:1029880001F049FE054B20466360054BE36040F2C9
:10299800011323818123238210BD00BF4505002038
:1029A800C404002030B50E4D87B001A8FFF7E4FF3E
:1029B800296811F0010410D12846FDF76EFB60B1BB
:1029C80001AA21460748FFF7C3FF2846FDF76AFB1F
:1029D800054A0649034800F019FA024807B030BD15
:1029E800C004002048060020A403002009290A0882
:1029F80010B504461422002101F00DFE054B2046B7
:102A08006360054BE36040F2011323818123238235
:102A180010BD00BFF80600206006002010B50E4C5F
:102A280086B001A8FFF7E4FF2368DB0710D420462F
:102A3800FDF733FB60B101AA01210848FFF788FFC1
:102A48002046FDF72FFB064A0649044800F0DEF948
:102A5800024806B010BD00BF5C060020E406002056
:102A6800A403002009290A08FEF7F2BEFEF7E8BE13
:102A7800704741747047007CFEF7A2BF007CFEF7E8
:102A880077BF007CFEF784BF007CFEF779BF007C2F
:102A9800FEF786BF10B50446FDF7FDFA204610BDC7
:102AA80070B5457C04460E4625B9007CFEF788FFC4
:102AB800002805DD3146207CBDE87040FEF750BF98
:102AC800284670BD10B504460846114600226260CB
:102AD8004FF47A72A260054A20742260012262745F
:102AE8001A46FEF735FF204610BD00BF544B0A08B2
:102AF800007CFEF75DBF000038B50C4D296811F069
:102B0800010411D12846FDF7C8FA68B1084A2146E0
:102B1800084B0948FFF7D6FF2846FDF7C3FA074ACE
:102B28000749054800F072F9034838BD94080020A9
:102B38009808002010080020FC070020A4030020AB
:102B4800792A0A0810B5836804460BB900F07BF9A6
:102B5800C3689847A3681BB10322214620469847BB
:102B68002046BDE81040FDF796BA7047F8B506460E
:102B780015460C468F18BC4206D0336814F8011B62
:102B88009B6830469847F6E72846F8BD0022007C47
:102B9800FEF73EBF0021007CFEF742BF0021007C0B
:102BA800FEF746BF0021007CFEF74ABF0021007CEB
:102BB800FEF74EBF10B50446FDF76DFA204610BD6E
:102BC80010B5044608464FF47A73A360044B0021FD
:102BD800207461602360FEF74BFF204610BD00BFE4
:102BE800844B0A0800231A461946007CFEF7F0BEFB
:102BF80013B50024007C0094FEF7F2FEC0B202B0C8
:102C080010BD0123FFF7F4BF0123D2B2C9B2FFF709
:102C1800EFBF0022007CFEF7EBBEC9B2FFF7F9BF99
:102C28000022007CFEF7ECBE0121FFF7F9BF00216E
:102C3800007CFEF715BF7047002211461046FEF7CC
:102C480085BF00000348044B044A0549036000F0AF
:102C5800DDB800BF1C090020AC4B0A08A403002003
:102C68003F2C0A0810B504460F48FEF7E3FF28B1C9
:102C7800A4F10D03022B01D8002010BD00F0A6F826
:102C8800FFF7D5FF08B1012CF6D9FFF735FFFFF79D
:102C98002FFF18B1A4F11203012BEDD9172C8CBF0B
:102CA8000020012010BD00BF20090020172838B5DA
:102CB80004460D460AD8FF2908D0FFF7D3FF28B1EC
:102CC80029462046BDE83840FEF7AABD38BD0000B9
:102CD80070B50C4C0C4E0D4D00212046FEF796FFAA
:102CE80020460B4C3246294600F090F80121204638
:102CF800FEF78CFF324629462046BDE8704000F0BA
:102D080085B800BF20090020A4030020051C0A087C
:102D18003009002030B504461B4D89B02068FEF705
:102D2800B7FDFEF7C5FD2B682268C01A9042F5D39F
:102D3800236833B3E36823B3251D236928469847DE
:102D4800002304A9684602930693FFF732FA029B10
:102D5800069A06930292039B079A294604A80392AF
:102D68000793FFF726FA069BE268E360079B069243
:102D7800226904A823610792FDF725FA6846FDF742
:102D880022FA09B030BD00BF4009002008B5FFF79E
:102D9800C1FFBDE808400020FEF7C2BD13B5084CCE
:102DA80000231A46194600932046FFF79BFD20464C
:102DB800044A054902B0BDE8104000F027B800BF3A
:102DC80044090020A403002091280A0838B50B4DB7
:102DD800296811F001040FD12846FDF75EF958B1B2
:102DE80021460748FFF7ECFE2846FDF75BF9054A40
:102DF8000549034800F00AF8014838BD5C0900207D
:102E080060090020A4030020732B0A080B46014622
:102E1800184601F0E1BB0000024B1868BFF35F8F52
:102E2800704700BF7409002010B5002814BF04467D
:102E380001242046FEF7B2FE20B9FFF7EDFF08B1E6
:102E48008047F6E710BD08B5FEF7C8FE184B1A68AC
:102E5800D1075CBF01221A60164B1A68D2075CBF03
:102E680001221A60144B1A68D0075CBF01221A604D
:102E7800124B1A68D1075CBF01221A60104B1A68FE
:102E8800D2075CBF01221A600E4B1A68D0075CBFDC
:102E980001221A600C4B1A68D1075CBF01221A6024
:102EA8000A4B1A68D2075CBF01221A60704700BF3C
:102EB80094090020900900208C090020880900202E
:102EC80084090020800900207C090020780900205E
:102ED800244B1A68D0075CBF01221A60224B1A687B
:102EE800D1075CBF01221A60204B1A68D2075CBF69
:102EF80001221A601E4B1A68D0075CBF01221A60B3
:102F08001C4B1A68D1075CBF01221A601A4B1A6859
:102F1800D2075CBF01221A60184B1A68D0075CBF41
:102F280001221A60164B1A68D1075CBF01221A6089
:102F3800144B1A68D2075CBF01221A60124B1A6838
:102F4800D0075CBF01221A60104B1A68D1075CBF1A
:102F580001221A600E4B1A68D2075CBF01221A6060
:102F6800704700BFC4090020C0090020BC09002028
:102F7800B8090020B4090020B0090020AC090020DD
:102F8800A8090020A4090020A00900209C0900200D
:102F980098090020244B1A68D0075CBF01221A60E8
:102FA800224B1A68D1075CBF01221A60204B1A68AD
:102FB800D2075CBF01221A601E4B1A68D0075CBF9B
:102FC80001221A601C4B1A68D1075CBF01221A60E3
:102FD8001A4B1A68D2075CBF01221A60184B1A688C
:102FE800D0075CBF01221A60164B1A68D1075CBF74
:102FF80001221A60144B1A68D2075CBF01221A60BA
:10300800124B1A68D0075CBF01221A60104B1A686D
:10301800D1075CBF01221A600E4B1A68D2075CBF49
:1030280001221A60704700BFF4090020F00900204F
:10303800EC090020E8090020E4090020E00900204C
:10304800DC090020D8090020D4090020D00900207C
:10305800CC090020C8090020184B1A68D1075CBFAA
:1030680001221A60164B1A68D2075CBF01221A6047
:10307800144B1A68D0075CBF01221A60124B1A68F9
:10308800D1075CBF01221A60104B1A68D2075CBFD7
:1030980001221A600E4B1A68D0075CBF01221A6021
:1030A8000C4B1A68D1075CBF01221A600A4B1A68D8
:1030B800D2075CBF01221A60704700BF140A0020C3
:1030C800100A00200C0A0020080A0020040A002028
:1030D800000A0020FC090020F80900200000000078
:1030E800C1F30A522DE9F843A2F2FF36132E0B461C
:1030F80004460D46884607461CDC002E3FDB3A4A4C
:10310800864642FA06F901EA0902024317D034A3B7
:10311800D3E9002300F0EEFA0022002300F02CFF90
:1031280020B1002D40DB28EA09050027384629464A
:10313800BDE8F883332E06DDB6F5806F2FD0204624
:103148001946BDE8F883A2F213424FF0FF3929FA75
:1031580002F910EA090FF2D021A3D3E9002300F005
:10316800C9FA0022002300F007FF0028DED0002D56
:1031780020DB454627EA090738462946D8E718A339
:10318800D3E9002300F0B6FA0022002300F0F4FE91
:103198000028CBD0002D18DB00273D46C6E70246A5
:1031A8000B4600F0A7FACCE74FF4801343FA06F673
:1031B800B044B8E7142E10D00123C6F1340603FA40
:1031C80006F6371928BF9844D3E725F00042074B85
:1031D800224318BF1D460027A8E705F10108C8E7E4
:1031E8009C7500883CE4377EFFFF0F000000F0BFAD
:1031F8002DE9F0418AB004460D4600F079F8374BC6
:10320800064693F900800F46B8F1FF3F0DD02246DD
:103218002B462046294600F0B9FE30B9002200238B
:103228002046294600F0A8FE20B1304639460AB0AB
:10323800BDE8F0812A4B0890CDE90245CDE9044567
:103248000193B8F1000F19D1264F4FF06046204680
:10325800294600220023CDE9066700F065FE002814
:1032680034D002230093684600F036FAA8B1089BD0
:10327800C3B9DDE906010AB0BDE8F0811A4F00269E
:103288002046294600220023CDE9066700F04CFEBF
:1032980068B1022398450093E5D101F0ABF92223E8
:1032A8000360E4E701F0A6F9089B0360E1E7012366
:1032B800B8F1020F00930BD101F09CF921230360B0
:1032C8000A4800F00BFACDE90601D0E70123009384
:1032D800684600F001FA0028F2D1EDE73803002033
:1032E800B44B0A08FFFFEFC70000F0FFB84B0A080D
:1032F8002DE9F04FB1F5801F85B006460F460B4605
:103308005ADA024621F00044224300F0F7800029EF
:10331800C0F279810022D64B00F09EFB0B460F4687
:10332800D44906468B426FF0350249DCC3F31305D6
:1033380005F5152404F6647404F4801E8EF07F519C
:1033480081F440111B15A3F2FF3341EA05079C18CD
:1033580030460022C84B394604EB1E5400F0C8F929
:10336800AB1CC3F31303022B82468B464FF00002BB
:103378002FDC002300F0D8FD002800F0C880002CC6
:1033880000F04A81204600F001FBA5A3D3E9002301
:1033980006460F4600F060FBA3A3D3E900230446CA
:1033A8000D463046394600F057FB02460B4620468C
:1033B800294600F09FF909E0AE4900228B42B5DDAD
:1033C80032463B463046394600F094F905B0BDE830
:1033D800F08F4FF0804300F08DF902460B465046BF
:1033E800594600F063FC064620460F4600F0CEFA28
:1033F8003246CDE900013B4630463946CDE9026701
:1034080000F02AFB02460B468046894600F024FB62
:1034180087A3D3E9002306460F4600F01DFB86A3C9
:10342800D3E9002300F066F932463B4600F014FB6E
:1034380083A3D3E9002300F05DF932463B4600F050
:103448000BFB81A3D3E9002300F054F942464B4615
:1034580000F002FB7EA3D3E900238046894630466C
:10346800394600F0F9FA7CA3D3E9002300F042F9C9
:1034780032463B4600F0F0FA79A3D3E9002300F086
:1034880039F932463B4600F0E7FA0B460246494610
:10349800404600F02FF9A5F5C223C5F5D725A3F2BC
:1034A8007A4351351D43002D8046894656DD00225A
:1034B800724B5046594600F0CFFA52465B4600F030
:1034C800CBFA06460F46002C68D132463B464046AA
:1034D800494600F00FF9DDE9022300F0BDFA024683
:1034E8000B463046394600F003F902460B46504673
:1034F800594600F0FDF805B0BDE8F08F0022002322
:1035080000205F4900F0D2FB05B0BDE8F08F56A35C
:10351800D3E900235046594600F09EFA02460B466E
:103528000020564900F0E4F8524606460F465B462E
:103538005046594600F090FA02460B463046394646
:1035480000F08AFA06460F46002C40F09B8002469F
:103558000B465046594600F0CBF837E7002C00F0F0
:10356800A5802FA3D3E90023DDE9000100F074FA58
:1035780042464B4604460D465046594600F0B8F8B8
:10358800DDE9022300F068FA27A3D3E90023064601
:103598000F46DDE9000100F05FFA21E020A3D3E93E
:1035A8000023DDE9000100F057FA32463B460446A5
:1035B8000D464046494600F09DF8DDE9022300F03B
:1035C8004BFA19A3D3E9002380468946DDE90001B7
:1035D80000F042FA02460B464046494600F08AF897
:1035E80002460B463046394600F082F852465B46A2
:1035F80000F07EF802460B462046294600F078F88F
:1036080005B0BDE8F08F02460B4600F071F80022C5
:10361800002300F04BFBD9E600200021D6E600BFCE
:103628000000E0FE422EE63F763C7935EF39EA3D70
:1036380044523EDF12F1C23FDE03CB966446C73FD9
:10364800599322942449D23F935555555555E53FF2
:103658009FC678D0099AC33FAF788E1DC571CC3FFD
:1036680004FA97999999D93F555555555555D53FC8
:1036780000005043FFFFEF7F0000F03F0000E03FF5
:10368800000050C3204600F081F90FA3D3E90023BE
:103698008046894600F0E0F90DA3D3E900230446EB
:1036A8000D464046494600F0D7F999E702460B46D1
:1036B8005046594600F01CF8DDE9022300F0CCF929
:1036C80013E700BFAFF300800000E0FE422EE63FA4
:1036D800763C7935EF39EA3D0020704700200149F2
:1036E800704700BF0000F87F81F0004102E000BF92
:1036F80083F0004330B54FEA41044FEA430594EAAA
:10370800050F08BF90EA020F1FBF54EA000C55EAE4
:10371800020C7FEA645C7FEA655C00F0E2804FEAB5
:103728005454D4EB5555B8BF6D420CDD2C4480EA97
:10373800020281EA030382EA000083EA010180EAC7
:10374800020281EA0303362D88BF30BD11F0004F15
:103758004FEA01314FF4801C4CEA113102D040424B
:1037680061EB410113F0004F4FEA03334CEA133386
:1037780002D0524263EB430394EA050F00F0A7809E
:10378800A4F10104D5F1200E0DDB02FA0EFC22FA99
:1037980005F2801841F1000103FA0EF2801843FA8D
:1037A80005F359410EE0A5F120050EF1200E012A7E
:1037B80003FA0EFC28BF4CF0020C43FA05F3C018BC
:1037C80051EBE37101F0004507D54FF0000EDCF135
:1037D800000C7EEB00006EEB0101B1F5801F1BD3DE
:1037E800B1F5001F0CD349085FEA30004FEA3C0CE2
:1037F80004F101044FEA445212F5800F80F09A80D8
:10380800BCF1004F08BF5FEA500C50F1000041EBDB
:10381800045141EA050130BD5FEA4C0C404141EBDF
:10382800010111F4801FA4F10104E9D191F0000F06
:1038380004BF01460020B1FA81F308BF2033A3F189
:103848000B03B3F120020CDA0C3208DD02F1140C80
:10385800C2F10C0201FA0CF021FA02F10CE002F1BB
:103868001402D8BFC2F1200C01FA02F120FA0CFCB4
:10387800DCBF41EA0C019040E41AA2BF01EB0451FD
:10388800294330BD6FEA04041F3C1CDA0C340EDCFB
:1038980004F11404C4F1200220FA04F001FA02F33E
:1038A80040EA030021FA04F345EA030130BDC4F1FC
:1038B8000C04C4F1200220FA02F001FA04F340EAF1
:1038C8000300294630BD21FA04F0294630BD94F0A2
:1038D800000F83F4801306BF81F480110134013D89
:1038E8004EE77FEA645C18BF7FEA655C29D094EAFA
:1038F800050F08BF90EA020F05D054EA000C04BF78
:103908001946104630BD91EA030F1EBF0021002062
:1039180030BD5FEA545C05D14000494128BF41F001
:10392800004130BD14F580043CBF01F5801130BD65
:1039380001F0004545F0FE4141F470014FF00000F0
:1039480030BD7FEA645C1ABF194610467FEA655CA1
:103958001CBF0B46024650EA013406BF52EA033543
:1039680091EA030F41F4002130BD00BF90F0000F31
:1039780004BF0021704730B54FF4806404F132046D
:103988004FF000054FF0000150E700BF90F0000F26
:1039980004BF0021704730B54FF4806404F132044D
:1039A80010F0004548BF40424FF000013EE700BF1D
:1039B80042004FEAE2014FEA31014FEA02701FBFAD
:1039C80012F07F4393F07F4F81F06051704792F07F
:1039D800000F14BF93F07F4F704730B54FF46074F9
:1039E80001F0004521F0004120E700BF50EA010244
:1039F80008BF704730B54FF000050AE050EA0102F1
:103A080008BF704730B511F0004502D5404261EB60
:103A180041014FF4806404F132045FEA915C3FF4A1
:103A2800DCAE4FF003025FEADC0C18BF03325FEA3A
:103A3800DC0C18BF033202EBDC02C2F1200300FAEF
:103A480003FC20FA02F001FA03FE40EA0E0021FA14
:103A580002F11444C1E600BF70B54FF0FF0C4CF4FE
:103A6800E06C1CEA11541DBF1CEA135594EA0C0FB4
:103A780095EA0C0F00F0DEF82C4481EA030621EAEF
:103A88004C5123EA4C5350EA013518BF52EA03352A
:103A980041F4801143F4801338D0A0FB02CE4FF0DC
:103AA8000005E1FB02E506F00042E0FB03E54FF00C
:103AB8000006E1FB03569CF0000F18BF4EF0010E04
:103AC800A4F1FF04B6F5007F64F5407404D25FEA00
:103AD8004E0E6D4146EB060642EAC62141EA5551B3
:103AE8004FEAC52040EA5E504FEACE2EB4F1FD0CF5
:103AF80088BFBCF5E06F1ED8BEF1004F08BF5FEA73
:103B0800500E50F1000041EB045170BD06F0004624
:103B180046EA010140EA020081EA0301B4EB5C04D1
:103B2800C2BFD4EB0C0541EA045170BD41F48011C9
:103B38004FF0000E013C00F3AB8014F1360FDEBFEE
:103B4800002001F0004170BDC4F10004203C35DACA
:103B58000C341BDC04F11404C4F1200500FA05F34D
:103B680020FA04F001FA05F240EA020001F00042EE
:103B780021F0004110EBD37021FA04F642EB060164
:103B88005EEA430E08BF20EAD37070BDC4F10C048E
:103B9800C4F1200500FA04F320FA05F001FA04F252
:103BA80040EA020001F0004110EBD37041F100013E
:103BB8005EEA430E08BF20EAD37070BDC4F1200549
:103BC80000FA05F24EEA020E20FA04F301FA05F2B1
:103BD80043EA020321FA04F001F0004121FA04F259
:103BE80020EA020000EBD3705EEA430E08BF20EA29
:103BF800D37070BD94F0000F0FD101F00046400063
:103C080041EB010111F4801F08BF013CF7D041EAE4
:103C1800060195F0000F18BF704703F000465200E8
:103C280043EB030313F4801F08BF013DF7D043EAB9
:103C38000603704794EA0C0F0CEA135518BF95EA6F
:103C48000C0F0CD050EA410618BF52EA4306D1D1F6
:103C580081EA030101F000414FF0000070BD50EA15
:103C6800410606BF1046194652EA430619D094EA9F
:103C78000C0F02D150EA013613D195EA0C0F05D189
:103C880052EA03361CBF104619460AD181EA0301DD
:103C980001F0004141F0FE4141F470014FF0000095
:103CA80070BD41F0FE4141F4780170BD70B54FF030
:103CB800FF0C4CF4E06C1CEA11541DBF1CEA1355B0
:103CC80094EA0C0F95EA0C0F00F0A7F8A4EB050492
:103CD80081EA030E52EA03354FEA013100F0888089
:103CE8004FEA03334FF0805545EA131343EA126352
:103CF8004FEA022245EA111545EA10654FEA002607
:103D08000EF000419D4208BF964244F1FD0404F5BF
:103D1800407402D25B084FEA3202B61A65EB03051B
:103D28005B084FEA32024FF480104FF4002CB6EBD8
:103D3800020E75EB030E22BFB61A754640EA0C0058
:103D48005B084FEA3202B6EB020E75EB030E22BF98
:103D5800B61A754640EA5C005B084FEA3202B6EBD9
:103D6800020E75EB030E22BFB61A754640EA9C0098
:103D78005B084FEA3202B6EB020E75EB030E22BF68
:103D8800B61A754640EADC0055EA060E18D04FEA26
:103D9800051545EA16754FEA06164FEAC30343EAC6
:103DA80052734FEAC2025FEA1C1CC0D111F4801F93
:103DB8000BD141EA00014FF000004FF0004CB6E78C
:103DC80011F4801F04BF01430020B4F1FD0C88BF2B
:103DD800BCF5E06F3FF6AFAEB5EB030C04BFB6EB36
:103DE800020C5FEA500C50F1000041EB045170BD29
:103DF8000EF0004E4EEA113114EB5C04C2BFD4EB56
:103E08000C0541EA045170BD41F480114FF0000ED9
:103E1800013C90E645EA060E8DE60CEA135594EA55
:103E28000C0F08BF95EA0C0F3FF43BAF94EA0C0F58
:103E38000AD150EA01347FF434AF95EA0C0F7FF4CD
:103E480025AF104619462CE795EA0C0F06D152EA21
:103E580003353FF4FDAE1046194622E750EA410605
:103E680018BF52EA43067FF4C5AE50EA41047FF416
:103E78000DAF52EA43057FF4EBAE12E74FF0FF3C7B
:103E880006E000BF4FF0010C02E000BF4FF0010C4C
:103E98004DF804CD4FEA410C7FEA6C5C4FEA430CC5
:103EA80018BF7FEA6C5C1BD001B050EA410C0CBF14
:103EB80052EA430C91EA030F02BF90EA020F002076
:103EC800704710F1000F91EA030F58BF994208BFDD
:103ED80090422CBFD8176FEAE37040F0010070479A
:103EE8004FEA410C7FEA6C5C02D150EA013C07D1F1
:103EF8004FEA430C7FEA6C5CD6D152EA033CD3D03C
:103F08005DF8040B704700BF8446104662468C4635
:103F18001946634600E000BF01B5FFF7B7FF002868
:103F280048BF10F1000F01BD4DF808EDFFF7F4FF91
:103F38000CBF012000205DF808FB00BF4DF808ED1C
:103F4800FFF7EAFF34BF012000205DF808FB00BF3F
:103F58004DF808EDFFF7E0FF94BF012000205DF861
:103F680008FB00BF4DF808EDFFF7CEFF94BF012016
:103F780000205DF808FB00BF4DF808EDFFF7C4FF0F
:103F880034BF012000205DF808FB00BF4FEA410C58
:103F98007FEA6C5C02D150EA013C0AD14FEA430C3B
:103FA8007FEA6C5C02D152EA033C02D14FF0000078
:103FB80070474FF0010070474FEA410212F50012B6
:103FC80015D211D56FF47873B3EB625212D94FEA58
:103FD800C12343F0004343EA505311F0004F23FA42
:103FE80002F018BF404270474FF00000704750EA97
:103FF800013005D111F0004008BF6FF00040704754
:104008004FF00000704700BF4A0011D212F50012AD
:1040180011D20DD56FF47873B3EB62520ED44FEA18
:10402800C12343F0004343EA505323FA02F0704798
:104038004FF00000704750EA013002D14FF0FF30D6
:1040480070474FF0000070474FEA4102B2F1E04379
:1040580024BFB3F5001CDCF1FE5C0DD901F0004C67
:104068004FEAC0024CEA5070B2F1004F40EB8300B7
:1040780008BF20F00100704711F0804F21D113F1E3
:104088003872BCBF01F00040704741F480114FEA1C
:104098005252C2F11802C2F1200C10FA0CF320FAA5
:1040A80002F018BF40F001004FEAC1234FEAD323C2
:1040B80003FA0CFC40EA0C0023FA02F34FEA43032C
:1040C800CCE77FEA625307D150EA01331EBF4FF0B5
:1040D800FE4040F44000704701F0004040F0FE40D0
:1040E80040F40000704700BF80F0004002E000BFCD
:1040F80081F0004142001FBF5FEA410392EA030FCB
:104108007FEA226C7FEA236C6AD04FEA1262D2EB14
:104118001363C1BFD218414048404140B8BF5B4219
:10412800192B88BF704710F0004F40F4000020F0B2
:104138007F4018BF404211F0004F41F4000121F0C8
:104148007F4118BF494292EA030F3FD0A2F1010212
:1041580041FA03FC10EB0C00C3F1200301FA03F150
:1041680000F0004302D5494260EB4000B0F5000F73
:1041780013D3B0F1807F06D340084FEA310102F132
:104188000102FE2A51D2B1F1004F40EBC25008BFE4
:1041980020F0010040EA03007047490040EB0000AE
:1041A80010F4000FA2F10102EDD1B0FA80FCACF1DD
:1041B800080CB2EB0C0200FA0CF0AABF00EBC250DC
:1041C80052421843BCBFD0401843704792F0000FCA
:1041D80081F4000106BF80F400000132013BB5E71D
:1041E8004FEA41037FEA226C18BF7FEA236C21D093
:1041F80092EA030F04D092F0000F08BF08467047F8
:1042080090EA010F1CBF0020704712F07F4F04D1C5
:10421800400028BF40F00040704712F100723CBFD8
:1042280000F50000704700F0004343F0FE4040F402
:10423800000070477FEA226216BF08467FEA2363C0
:104248000146420206BF5FEA412390EA010F40F4AB
:10425800800070474FF0000304E000BF10F00043F7
:1042680048BF40425FEA000C08BF704743F09643DE
:1042780001464FF000001CE050EA010208BF7047F9
:104288004FF000030AE000BF50EA010208BF704780
:1042980011F0004302D5404261EB41015FEA010C95
:1042A80002BF84460146002043F0B64308BFA3F18D
:1042B8008053A3F50003BCFA8CF2083AA3EBC2536F
:1042C80010DB01FA02FC634400FA02FCC2F120028E
:1042D800BCF1004F20FA02F243EB020008BF20F0C5
:1042E8000100704702F1200201FA02FCC2F120022B
:1042F80050EA4C0021FA02F243EB020008BF20EA20
:10430800DC7070474FF0FF0C1CEAD0521EBF1CEA4D
:10431800D15392EA0C0F93EA0C0F6FD01A4480EA3B
:10432800010C400218BF5FEA41211ED04FF0006324
:1043380043EA501043EA5111A0FB01310CF0004050
:10434800B1F5000F3EBF490041EAD3715B0040EA76
:10435800010062F17F02FD2A1DD8B3F1004F40EB46
:10436800C25008BF20F00100704790F0000F0CF019
:10437800004C08BF49024CEA502040EA51207F3ADD
:10438800C2BFD2F1FF0340EAC250704740F40000B8
:104398004FF00003013A5DDC12F1190FDCBF00F0A9
:1043A80000407047C2F10002410021FA02F1C2F157
:1043B800200200FA02FC5FEA310040F1000053EAF3
:1043C8004C0308BF20EADC70704792F0000F00F041
:1043D800004C02BF400010F4000F013AF9D040EA47
:1043E8000C0093F0000F01F0004C02BF490011F4DB
:1043F800000F013BF9D041EA0C018FE70CEAD153D9
:1044080092EA0C0F18BF93EA0C0F0AD030F0004C58
:1044180018BF31F0004CD8D180EA010000F000400C
:10442800704790F0000F17BF90F0004F084691F0CA
:10443800000F91F0004F14D092EA0C0F01D1420204
:104448000FD193EA0C0F03D14B0218BF084608D1CD
:1044580080EA010000F0004040F0FE4040F4000017
:10446800704740F0FE4040F4400070474FF0FF0CAA
:104478001CEAD0521EBF1CEAD15392EA0C0F93EAF1
:104488000C0F69D0A2EB030280EA010C49024FEA43
:10449800402037D04FF0805343EA111143EA1013FC
:1044A8000CF000408B4238BF5B0042F17D024FF4B4
:1044B800000C8B4224BF5B1A40EA0C00B3EB510F8F
:1044C80024BFA3EB510340EA5C00B3EB910F24BF78
:1044D800A3EB910340EA9C00B3EBD10F24BFA3EBFD
:1044E800D10340EADC001B0118BF5FEA1C1CE0D1C5
:1044F800FD2A3FF650AF8B4240EBC25008BF20F078
:10450800010070470CF0004C4CEA50207F32C2BFCB
:10451800D2F1FF0340EAC250704740F400004FF068
:104528000003013A37E792F0000F00F0004C02BF99
:10453800400010F4000F013AF9D040EA0C0093F063
:10454800000F01F0004C02BF490011F4000F013BBD
:10455800F9D041EA0C0195E70CEAD15392EA0C0F25
:1045680008D142027FF47DAF93EA0C0F7FF470AF5D
:10457800084676E793EA0C0F04D14B023FF44CAFA0
:1045880008466EE730F0004C18BF31F0004CCAD135
:1045980030F000427FF45CAF31F000437FF43CAF71
:1045A8005FE700BF4FEA40024FEA41037FEA226C0F
:1045B80002D15FEA402C08D17FEA236C02D15FEA7E
:1045C800412C02D14FF0000070474FF001007047B6
:1045D8000A22002100F01CB910B5054C13462CB175
:1045E8000A4601460220AFF3008010BD204610BDE8
:1045F80000000000014B1868704700BFA0030020AE
:1046080010B5431E0A44914204D011F8014B03F837
:10461800014FF8E710BD03460244934202D003F865
:10462800011BFAE77047000038B5124B05461C68B5
:10463800A36BD3B91820FDF7B1FA43F20E33A06388
:1046480003804AF6CD33438041F2342383804EF20F
:104658006D63C3804DF6EC630381052343810B230F
:10466800838101220023C0E90423A36B00221D617A
:104678005A6138BDA0030020034611F8012B03F846
:10468800012B002AF9D17047024B0146186800F047
:1046980003B800BFA003002070B5064608460C46C4
:1046A80000F00DF8451C29463046FDF79FFA0646EE
:1046B80018B12A462146FFF7A3FF304670BD0346CE
:1046C80013F8012B002AFBD1181A01387047F0B5EE
:1046D800037863B90B78002B18BF0020F0BD15F8DC
:1046E800012F62B114F8017F30469742F7D0034694
:1046F800461C007810B14D1E5C1EF0E7F0BD184650
:10470800F0BD00002DE9F0470F4680463F48D0F83D
:1047180000903D4615F8014B09EB0400407800F085
:10472800080000F0FF0608B12F46F2E72D2C03D150
:10473800BD1C7C78012603E02B2C04BF7C78BD1CB3
:1047480013B1102B0AD15BE0302C57D1287800F038
:10475800DF0058284DD16C7810230235002E14BF85
:104768004FF0004C6FF0004CBCFBF3FA00273846C2
:1047780003FB1ACC09EB040E9EF801E01EF0040FAF
:1047880001D0303C0BE01EF0030E1BD0BEF1010F30
:104798000CBF4FF0370E4FF0570ECEEB0404A34278
:1047A80010DDB7F1FF3F0AD0504506D801D1644566
:1047B80003DC03FB0040012701E04FF0FF3715F849
:1047C800014BD7E77B1C0CD1002E4FF0220314BFFE
:1047D8004FF000406FF00040C8F800302AB9BDE83B
:1047E800F08706B1404272B107B1691E1160BDE899
:1047F800F0873024002BB1D10823AFE70A23ADE7B7
:10480800302CA3D0AAE7BDE8F08700BF3C03002006
:1048180013460A46014602480068FFF773BF00BF07
:10482800A0030020044B1B6803445B7803F00303D8
:10483800012B08BF203070473C0300201D000A08E8
:104848005D000A0889000A088D000A0800000000B7
:1048580061707077647400496E76616C6964207267
:10486800656164696E67006F6E006F6666006465F7
:10487800616374697661746500746F67676C65005D
:10488800666C69700072656C6179006F757470751B
:10489800740062616E6B00616C6C00252E326626B6
:1048A800252E326626252E326626252E32662625A8
:1048B8002E326626252E326626252E326626252E8F
:1048C800326626252E326626252E326626252E327B
:1048D8006626252E326600647354454D5053006495
:1048E800735F7073690052656C6179436F6E74729F
:1048F8006F6C005458563100545856320053657442
:1049080044616D706572004D43503334323800692C
:104918003263646576696365005261775F616463D9
:104928005B305D00F4010000C8000000F4010000E5
:1049380000000000C800000000000000F4010000B2
:10494800C8000000FF000000FF000000202D20002C
:10495800496E70757420537461747573005365746F
:1049680074696E672050574D20666F72204C45441D
:10497800200020746F2000202D3E200041747465B3
:104988006D7074696E6720746F2073657420667229
:1049980065712000457374696D6174656420707277
:1049A800652D7363616C653A200046696E616C2001
:1049B8007072652D7363616C653A20000000000019
:1049C80000000000051C0A08071C0A086E616E003A
:1049D8006F7666002E00696E66006C6E00666E006B
:1049E800636F64650064657461696C000D0A002575
:1049F8003031307520005D20002564002C2000280F
:104A0800293A2000205B00636F6465203D20002563
:104A1800690064657461696C73203D20006261758A
:104A2800640053657269616C00555342536572693D
:104A3800616C31007479706500706172616D00633A
:104A48006D6400696400686E64007374726D00665A
:104A5800696C74006C766C0061646448616E646CA7
:104A680065720072656D6F766548616E646C65721B
:104A780000656E756D48616E646C657273004A53AB
:104A88004F4E53747265616D4C6F6748616E646C0C
:104A9800657200617070006E6F6E6500747261639C
:104AA8006500696E666F007761726E006572726F7D
:104AB800720070616E6963005A00252B3033643AC6
:104AC800253032750025592D256D2D25645425482E
:104AD8003A254D3A2553257A0061736374696D65EB
:104AE80000000000000000000000000031230A0858
:104AF80037230A084D230A0843230A0833230A08E0
:104B080000000000000000009F280A0891280A08F9
:104B180093280A08000000000000000009290A087C
:104B28004D290A0827290A08AD1E0A0821290A085A
:104B38000B290A0813290A0847290A081B290A0801
:104B480005290A080000000000000000792A0A0868
:104B58009D2A0A08A92A0A08AD1E0A08852A0A08F1
:104B6800912A0A088B2A0A08972A0A087B2A0A081F
:104B78007F2A0A080000000000000000732B0A08C2
:104B8800BD2B0A08952B0A08752B0A089D2B0A08C5
:104B9800A52B0A08AD2B0A08B52B0A08000000004F
:104BA80000000000412C0A08000000006C6F67003C
:104BB800000000000020202020202020202028287D
:104BC80028282820202020202020202020202020C5
:104BD8002020202020881010101010101010101005
:104BE8001010101010040404040404040404041035
:104BF80010101010101041414141414101010101C3
:104C0800010101010101010101010101010101018C
:104C18001010101010104242424242420202020298
:104C2800020202020202020202020202020202025C
:104C3800101010102000000000000000000000000C
:104C4800000000000000000000000000000000005C
:104C5800000000000000000000000000000000004C
:104C6800000000000000000000000000000000003C
:104C7800000000000000000000000000000000002C
:104C8800000000000000000000000000000000001C
:104C9800000000000000000000000000000000000C
:104CA80000000000000000000000000000000000FC
:104CB80000000000000000000000000000000000EC
:104CC80000000000000000000000000000000000DC
:104CD80000000000000000000000000000000000CC
:104CE80000000000000000000000000000000000BC
:104CF80000000000000000000000000000000000AC
:104D0800000000000000000000000000000000009B
:104D1800000000000000000043000000D1080A085D
:104D2800AD0C0A08B10C0A0811120A080D140A0879
:104D380065150A0815180A08551C0A0885210A0865
:104D480095210A08DD210A084D2C0A08D92C0A08E1
:104D5800A52D0A08552E0A08D92E0A089D2F0A08DB
:084D680061300A0800000000A0
:104D70000000000000000000000000000000000033
:104D80000000000000000000000000000000000023
:104D90000000000000000000000000000000000013
:104DA0000000000000000000000000000000000003
:104DB00000000000000000000000000000000000F3
:104DC00000000000000000000000000000000000E3
:044DD00000000000DF
:104DD400200364000000C07F0000C07F00000000CA
:104DE40000000000000000000000000000000000BF
:104DF40000000000000000000000000000000000AF
:104E040000000000E14A0A0801000000BC4B0A0847
:104E140000000000C04C0A08E04C0A08004D0A08D3
:104E2400000000000000000000000000000000007E
:104E3400204D0A08000000000000000000000000EF
:104E4400000000000000000000000000000000005E
:104E5400000000000000000000000000000000004E
:104E6400000000000000000000000000000000003E
:044E740040030020D7
:104E7800FFFFFFFF00000102030405060708090AF7
:104E88000B0C0D0E0F101112131415161718191AF2
:084E98001B1C1D1E1F20280039
:044EA00078563412FA
:04000005080A0018CD
:00000001FF
