:02000004080AE8
:1000000000000A08F0550A08000006000600050175
:08001000040278050000000065
:040018003C4F0A0847
:1000200009480A4908B5884205D0094A824202D0E7
:10003000121A04F065FE0748074A0021121A04F05C
:100040006AFE064808BD00BF0000002024550A08CB
:10005000A4000020A4000020440700204407002042
:1000600070B502F0FDFA074B074C1E46E41AA408CF
:100070000025A54204D056F8253098470135F8E709
:1000800070BD00BF6C540A08BC540A0800F0E8BCFC
:1000900008B500F0B7FBBDE8084002F0A3BA01F0D4
:1000A00055BF01F05BBF0078B0FA80F0400970479F
:1000B00001230370704703681847012A02D0022AFF
:1000C00002D004E0016002E00B6800B10360002090
:1000D0007047000030B589B005461549684601F003
:1000E000E8FF0024A200131D294604A802F072F8BC
:1000F00004A9684602F027F804A801F093FF6846B7
:1001000002F097F8B0F5805F04F1010407DB042CDE
:10011000E8D1684601F086FF012009B030BD611EBC
:1001200082B20023C9B2034801F00AFCEFE700BF26
:1001300078510A08D000002010B502F07AF8B0F526
:10014000805F044605DC82B200230421024801F0EE
:10015000F7FB204610BD00BFD000002010B502F014
:1001600068F8B0F5805F044605DC82B20023082100
:10017000024801F0E5FB204610BD00BFD000002082
:100180001FB50146684601F0D3FF6946044801F0F7
:100190004FF8684601F046FF012005B05DF804FB0A
:1001A000D400002010B501230374836804460BB10A
:1001B000C06806E0006828B183680BB903F053F902
:1001C000C3689847012363740020BDE8104001F024
:1001D0003FBD10B58368044613B10322014698471A
:1001E000204610BD38B5044670B1056835B12846C3
:1001F000FFF7EFFF1021284603F024F92046BDE861
:100200003840142103F01EB938BD10B543690446C7
:10021000BBB1586801F0FCFC78B963695A7C12B92B
:10022000586801F0FDFC6369586801F001FD6069E0
:100230000023636128B1FFF7D5FF606908B1FFF7BC
:10024000D1FF201DFFF7C5FF204610BD30B51D466C
:1002500087B000230446049322B1224B02920593F7
:10026000214B04930023E360049B21603BB10222F5
:1002700002A9201D9847059B2361049BE3601B494D
:10028000142003F0E1F830B10023037403604360ED
:100290008360C36043746061A0B1154B0922836021
:1002A00063691449DC606069134B8DE821000430F8
:1002B00001F0A6FC30B963691B7C4BB9012001F049
:1002C0007FFCF8E760690023636108B1FFF78AFFEC
:1002D00001F086FC094B186002A8FFF77AFF204660
:1002E00007B030BDB7000A08BB000A08F8520A0878
:1002F000A9330A08704F0A08A5010A086C060020F5
:1003000010B503F071F802F0D1FE0A4C03F06CF85E
:10031000242102F0E6FEFF23237003F065F8036852
:1003200021789B68984703F05FF8BDE8104002F021
:10033000DFBE00BF3000002010B503F055F802F01A
:10034000B5FE0A4C03F050F8242102F0CAFE002347
:10035000237003F049F8036821789B68984703F0FD
:1003600043F8BDE8104002F0C3BE00BF30000020DB
:10037000F8B5144D01232B70FFF7C2FF4FF4FA605C
:1003800002F0D6F8104801F010F9C82002F0D0F8B9
:100390000E4F002400260C2101FB04710A4801F0D5
:1003A000E8F84FF4967002F0C3F8094B43F8246064
:1003B00001340C2CEFD100242C70FFF7BDFF204638
:1003C000F8BD00BFA80000209401002000400240BA
:1003D0000000002070B506460024002231460A487D
:1003E00001F0E6F80546084801F09CF928B9013407
:1003F000042CF2D10020054970BD032CFAD0284608
:1004000003F0E6FD70BD00BF9401002000C058C09D
:10041000022A05D0032A06D0012A06D108437047D4
:1004200020EA0100704748407047002070470000F4
:10043000082870B504460E461ADC02F0D5FF2421C8
:1004400002F04FFE0B4D013C0121A14032462878BD
:10045000C9B2FFF7DDFF287002F0C6FF03682978F4
:100460009B68984702F0C0FFBDE8704002F040BEB4
:1004700070BD00BF300000200221FFF7D9BF00008F
:1004800010B50320FFF7F8FF0220FFF7F5FF042067
:10049000FFF7F2FF064B00241C7001F0A1FB054B97
:1004A00000F5B92000F58C601860204610BD00BF33
:1004B000340100203C01002008B50520FFF7DCFFD7
:1004C0000720FFF7D9FF0620FFF7D6FF014B0020DA
:1004D000187008BD680100200321FFF7A9BF0000C4
:1004E00008B50320FFF7F8FF0220FFF7F5FF04200F
:1004F000FFF7F2FF054A137883F0010313701BB175
:1005000001F06EFB024B1860012008BD3401002091
:10051000AC00002008B50520FFF7DEFF0720FFF73D
:10052000DBFF0620FFF7D8FF054A137883F00103AD
:1005300013701BB101F054FB024B1860002008BD82
:1005400068010020CC00002008B502F04DFF2421F6
:1005500002F0C7FD02F048FF036800219B6898473E
:10056000064B00221A7002F03FFF02F0C1FD044A60
:10057000137883F00103137008BD00BF3000002022
:10058000040100202DE9F341374B93F90E4002F0AE
:100590002BFF214602F0A5FD02F026FF02F0A8FD88
:1005A00090B1324B93F90E4002F01EFF214602F04B
:1005B00098FD02F019FF02F09BFD002850D12C4F4E
:1005C0002C4E2D4D042428E00446651C02231022E5
:1005D000E9B200932448012301F0BAF8224801F05F
:1005E0001DF9264B43F8240004F048F9244904F08F
:1005F0008FF8244904F04AFA234B064653F82400A6
:1006000004F03CF90146304604F08CF91F4B042DF0
:1006100043F824002C46D8D1C3E702231022E1B2CC
:1006200000931248012301F093F8104801F0F6F806
:1006300047F8040F04F022F9114904F069F8114950
:1006400004F024FA804656F8040F04F017F9014626
:10065000404604F067F90134092C45F8040FDCD159
:1006600002B0BDE8F08100BF480100205801002021
:1006700014010020584F0A087C0100200C010020C2
:1006800000A8B5450032B846504F0A087401002052
:1006900038B5046805467CB16368013B63605BB9AB
:1006A000236820469B689847A368013BA3601BB959
:1006B00023682046DB689847284638BD10B5294C8A
:1006C000CCB0E06A03F084FCCDE91601A06A03F027
:1006D0007FFCCDE91401606A03F07AFCCDE91201D8
:1006E000206A03F075FCCDE91001E06903F070FCAD
:1006F000CDE90E01A06903F06BFCCDE90C01606946
:1007000003F066FCCDE90A01206903F061FCCDE944
:100710000801E06803F05CFCCDE90601A06803F085
:1007200057FCCDE90401606803F052FCCDE90201F9
:10073000206803F04DFC0C4ACDE90001C8211AA83D
:1007400001F01CFC094B1AAA1B7809498DF80030EE
:1007500018A83C2302F01EF919A8FFF799FF4CB026
:1007600010BD00BF00000020AB4F0A08A900002008
:10077000E74F0A0810B51F4CC4B0E06903F028FC2D
:10078000CDE90E01A06903F023FCCDE90C016069FD
:1007900003F01EFCCDE90A01206903F019FCCDE944
:1007A0000801E06803F014FCCDE90601A06803F03D
:1007B0000FFCCDE90401606803F00AFCCDE90201F9
:1007C000206803F005FC0C4ACDE90001C82112A8FD
:1007D00001F0D4FB094B12AA1B7809498DF80030AF
:1007E00010A83C2302F0D6F811A8FFF751FF44B03F
:1007F00010BD00BF74010020BF4F0A08A9000020EF
:10080000EF4F0A082DE9F04F794E85B03368794CE7
:100810002BB9236803F56A3303F5C0733360764D53
:100820002B680BB923682B6001F0DAF9734F206055
:100830003B68C01A40F26B73984202D901F0D0F9BC
:100840003860326823689B1A6D4A93420DD96D490E
:10085000684601F02EFC6846FFF742FE684601F04C
:10086000E1FB01F0BDF9624B18602A6823689B1A0E
:10087000634A93420DD96349684601F01AFC684601
:10088000FFF748FE684601F0CDFB01F0A9F95A4B8D
:1008900018605D4E236832689B1A40F63B729342A3
:1008A00030D95A4B1D781DB101F09AF9306029E01A
:1008B000DFF894A1DFF89481DFF894910C2707FB0F
:1008C00005A73846FFF786FD03F0CEFE01468346B6
:1008D000C8F8000004F0ECF910B949F825B00DE0B3
:1008E0003846FFF777FD03F0BFFE01460746C8F81C
:1008F000000004F0DDF908B949F8257001350C2D28
:10090000DCD1D1E7424D23682A689B1AB3F5C87F32
:1009100043D3FFF737FE01F063F9286001F060F977
:100920003C4B3D4D1B68C01A286001F059F93B4B08
:100930003B4A1B681646C01A3A4B10601B78A3B19D
:1009400042F210732A689A420FD9374B3749186917
:1009500004F0A4F948B13649684601F0AAFB68469C
:10096000FFF78EFD684601F05DFB324B1B78A3B1AB
:1009700042F2107332689A420FD92B4B2B491868F8
:1009800004F08CF948B12A49684601F092FB6846A8
:10099000FFF792FD684601F045FB274D23682A6862
:1009A0009B1A40F6B732934204D901F019F9286036
:1009B000FFF7E0FE214D23682A689B1AB3F5166FF6
:1009C00002D301F00DF928601D4D23682A689B1A97
:1009D00042F6DF62934204D9FFF770FE01F000F99E
:1009E000286001F0FDF8174B186005B0BDE8F08FE6
:1009F00038010020300100203C01002008010020C7
:100A0000FF520700F64F0A086C010020A8000020E2
:100A10002C010020AC000020B0010020CC00002000
:100A2000B40100203401002074010020000096432E
:100A3000F94F0A086801002040010020440100200D
:100A4000C80000206C060020004002407001002019
:100A5000000000200246014801F08CBE49270A0828
:100A600070B54FF47A7001F063FD4C4800F09DFDC5
:100A7000642001F05DFD4A4E002400250C2101FB9D
:100A80000461464800F075FD4FF4967001F050FD8A
:100A9000444B43F8245001340C2CEFD12021424820
:100AA00000F0B0FA1021404800F0AEFA00221146E2
:100AB0003D4800F0BCFA3C4800F0A0FB3B493C48F4
:100AC000FFF7C8FF3B493C48FFF7C4FF3B493C48A0
:100AD000FFF7C0FF3B493C48FFF7BCFF3B493C48A0
:100AE000FFF7B8FF3B493C48FFF7B4FF3B493C48A0
:100AF000FFF7B0FF2C4800F067FB0121072002F050
:100B0000E3FB384800F083FF3749364800F08CFF9C
:100B100000234FF42F620121324800F011FF00231F
:100B2000194640F6B8322F4800F00AFF00234FF470
:100B30002F6203212B4800F003FF002340F6B83258
:100B40000221284800F0FCFE002340F63C720421FC
:100B5000244800F0F5FE40F64852002308212148C1
:100B600000F0EEFE02F040FC02F0A0FA1F4C02F092
:100B70003BFC242102F0B5FAFF23237002F034FC81
:100B8000036821789B68984701210846FFF7DCFC41
:100B900002F02AFCBDE8704002F0AABA94010020DD
:100BA0000040024000000020D400002081010A081B
:100BB000FD4F0A0871030A080A500A085D010A0875
:100BC00014500A0839010A0819500A08E1040A08F1
:100BD0001E500A0815050A0826500A08D5000A08FA
:100BE0002E500A08D00000200080BB4430000020B6
:100BF000F8B51F4B1F4E01251F4C1D7000F0A0FFC4
:100C00004FF400731D4A44F620613046FFF71EFB87
:100C100030461B4E22461B4902F006FC00220421EE
:100C2000304600F08FFC3046174E2246174902F03E
:100C3000FBFB174F6821304600F07CFD3046154E17
:100C40002246394602F0F0FB6E21304600F072FD7C
:100C500022463946304602F0E7FB2A4640210E483C
:100C600000F016FEBDE8F8400C4800F0B5B900BF32
:100C7000A9000020B0000020A400002005200A08E0
:100C8000940100200B020A08480100209B150A0865
:100C90004D170A0858010020D0000020D400002081
:100CA00000F04EBF02881C2353434268D118D3582A
:100CB0008A885A83704738B504460D4600F040FFD5
:100CC00000216060284602F0FFFA2580204638BDEA
:100CD00038B5054602F012F90021288800F038FFE7
:100CE00002F00EF97D24013C14F0FF042DD0022007
:100CF00000F06EFF288800F033FF10F0FF0FF2D0F5
:100D000002F0FCF82846FFF7CDFF0121288800F00B
:100D10001FFF02F0F5F84FF4F07000F059FF02F0F9
:100D2000EDF80021288800F013FF462000F050FF66
:100D3000288800F015FFC0B2B0FA80F402F0E0F8A5
:100D40004FF4CD70640900F043FF204638BD38B53C
:100D500011F00105044613D002F0D0F82046FFF749
:100D6000A1FF0121208800F0F3FE0A2000F030FFEF
:100D70002088002100F0ECFE02F0C2F8372012E0DB
:100D800002F0BCF82046FFF78DFF0121208800F01B
:100D9000DFFE412000F01CFF2088294600F0D8FE2D
:100DA00002F0AEF80520BDE8384000F011BF10B5E4
:100DB000044602F0A3F82046FFF774FF01212088C3
:100DC00000F0C6FE032000F003FF0021208800F0A1
:100DD000BFFE0A2000F0FCFE208800F0C1FE0446A1
:100DE00002F08EF8352000F0F3FEE0B210BD2DE9E0
:100DF000F0410546884617460826012418EA040FE4
:100E000014BF012100212846FFF7A1FF6400013E25
:100E1000E4B2F3D18FB102F071F82A881C23534356
:100E20006A68D118D3588A8801211A83288800F06B
:100E30008FFEBDE8F04102F063B8BDE8F081F8B57F
:100E400007460826002501243846FFF7B0FF00B109
:100E500025436400013EE4B2F6D12846F8BD70B5E2
:100E600000220C4655210646FFF7C1FF651E0734D8
:100E700015F8011F00223046FFF7B9FFA542F7D150
:100E800070BD0022CC21FFF7B2BF0023037483742E
:100E9000437400F11002083002F8013D8242FBD198
:100EA00070472DE9F047857C04468846002D5ED1C9
:100EB000FFF70EFF20B92074A0746074BDE8F087BE
:100EC0002A46F02120460126FFF791FFAA46374621
:100ED0002046FFF76CFF81462046FFF768FFB9F117
:100EE000010F02D101281BD137E0814504EB050336
:100EF0001ED1227C974207D21A7A164214BF4FF0B5
:100F000001094FF0000904E00CBF4FF001094FF058
:100F10000009B9F1000F03D1082F08D8677406E063
:100F20006219137A4FF001093343137204E0BA4691
:100F30001A7A22EA06021A72494620467600FFF71C
:100F400006FF16F0FF0604BF0135EDB207F10107F9
:100F500008BF0126072DFFB2BAD9402F07D984F860
:100F600010A0BAF1000F12D10123A3740FE00020EA
:100F70002074A0746074E31D08F1FF380F3413F877
:100F8000012FA34208F8012FF9D1BDE8F087237A99
:100F9000002BECD00120EEE730B5054600200139EA
:100FA000C9B2FF2913D015F8014B082280EA0403C7
:100FB00013F0010F4FEA50001CBF80F08C03D8B231
:100FC000531E13F0FF024FEA5404EFD1E7E730BDA0
:100FD00000F0B6BD00F0B4BD0346094900F10C02B3
:100FE00003C982E8030000225A619A611A771A62E3
:100FF00020219A620A22596283F82C2018467047F1
:1010000038500A084162704708294FF0010308DD93
:101010000022C260A1F108029340C3F5807303610E
:1010200003E08B40C3F58073C36001627047C16009
:1010300002617047022B06D0032B07D0012B08D189
:1010400041EA0200704721EA0200704781EA02008B
:101050007047002070472DE9F8431D46073323F001
:10106000070300AFADEB030D04466E46D7F82080B2
:101070000023AB4204DB4FF480705FFA81F920E07B
:1010800052F82300F0540133F3E7E8B102F0ACF971
:10109000616A02F026F802F0A7F9036849469B68E6
:1010A0009847002D06DD02F09FF903682A46DB68A9
:1010B0003146984702F098F902F01AF8A36A013312
:1010C000A362A36A032BE0DD0025032B257213DC4A
:1010D0000123237202F088F94246616A01F0F8FFA9
:1010E0002E4645450ADA02F07FF9036801355B694F
:1010F000984700EB0626F4E74FF48076304600234D
:10110000A362BD46BDE8F8831FB5002304AA0124ED
:1011100042F8043D0094FFF79EFF04B010BD10B5E7
:1011200012210446FFF7F0FF132120602046FFF74D
:10113000EBFF606010BD1FB504AC44F8042D012323
:1011400000932246FFF787FF04B010BD10B5044698
:101150000A461221FFF7EFFF2046BDE81040FFF7D7
:10116000DEBF10B504460A461321FFF7E4FF204610
:10117000BDE81040FFF7D3BF082938B50546134630
:101180004FF001040FDD0939027C04FA01F10A4233
:1011900019D1CAB20179FFF74DFF01462846BDE8D3
:1011A0003840FFF7DEBF0139027B04FA01F10A4241
:1011B00009D1CAB20178FFF73DFF01462846BDE8D4
:1011C0003840FFF7C3BF38BD10B5C1680446C943F6
:1011D0000368C9B21943FFF7B9FF21696368C943BE
:1011E000C9B22046BDE810401943FFF7BABF13B596
:1011F00001240094FFF72FFF02B010BD10B5044684
:1012000002F0F2F801F052FF04F10C020223002177
:101210002046FFF7ECFF04F11402204602230C21C4
:10122000FFF7E5FF2046BDE81040FFF778BF00005C
:101230002DE9F04F884691B0AB4905460CA800F067
:1012400038FF0CA9404600F0C1FF82460CA800F010
:10125000E9FEA64904A800F02CFFBAF1000FC0F285
:101260005B8100263446B146374600960196D8F891
:101270000830002B00F0FC80BAF1000F26DB53464B
:10128000002241460CA800F0A5FF0CA904A800F01C
:101290005AFF0CA800F0C6FE0AF1010241460CA854
:1012A00000F0C0FF0CA9404600F04DFF0CA800F074
:1012B000B9FE8D490CA800F0FCFE0CA9404600F0D8
:1012C00085FF82460CA800F0ADFE07E0414604A869
:1012D00000F01FFF8549404600F03DFF844908A803
:1012E00000F0E7FE08A904A800F046FF80B9814994
:1012F0000CA800F0DEFE0CA904A800F03DFF10F1E0
:10130000000B0CA818BF4FF0010B00F08BFE01E0A2
:101310004FF0010B08A800F085FEBBF1000F05D0CF
:101320001CB1002F18BF022400E00224724908A853
:1013300000F0BFFE08A904A800F01EFF80B96F49A5
:101340000CA800F0B6FE0CA904A800F015FF10F1DF
:10135000000B0CA818BF4FF0010B00F063FE01E07A
:101360004FF0010B08A800F05DFEBBF1000F6449CF
:1013700008A818BF012400F09CFE08A904A800F0EA
:10138000FBFE80B95F490CA800F093FE0CA904A8ED
:1013900000F0F2FE10F1000B0CA818BF4FF0010B8B
:1013A00000F040FE01E04FF0010B08A800F03AFE0B
:1013B000009BBBF1000F18BF03244BB104A800F041
:1013C00038FF0028C8BF8146009BC8BF0023009398
:1013D00036B104A800F02DFF0028C4BF0746002640
:1013E000494908A800F065FE08A904A800F0C4FE59
:1013F00080B946490CA800F05CFE0CA904A800F0D6
:10140000BBFE10F1000B0CA818BF4FF0010B00F051
:1014100009FE01E04FF0010B08A800F003FE009B5D
:10142000BBF1000F18BF012339490CA8009300F04D
:1014300040FE0CA904A800F09FFE83460CA800F013
:10144000F1FDBBF1000F33490CA818BF012600F0D5
:1014500030FE0CA904A800F08FFE83460CA800F013
:10146000E1FD019BBBF1000F18BF01230193FEE6D4
:10147000019B002B33D0012F07DD012C1FD1EB681E
:101480006A68DB43DBB2134323E0012C05D1EB6830
:101490002A68DB43DBB2134309E0022C03D12A683C
:1014A000EB68134003E0032C02D12B68DB4302936B
:1014B00002992846FFF74AFE012F34D0DDE7022CBF
:1014C00003D16A68EB68134003E0032C02D16B6818
:1014D000DB43039303992846FFF743FE23E0EFB174
:1014E000013F09EBC70919E056510A0878510A086B
:1014F000774F0A08804F0A087A4F0A087E4F0A0879
:10150000894F0A08904F0A08954F0A089B4F0A080E
:10151000A24F0A08A74F0A080024A14622464946BE
:101520002846FFF729FE04A800F07CFD012011B039
:10153000BDE8F08F024B00221A7000F001BB00BF23
:10154000B801002070B5044600236360A360E36027
:101550002361636123766376A27614200E46FEF73C
:101560009EFD054610B13146FFF7A5FB25602046DC
:1015700070BD38B500F110050C4600682946FFF72C
:1015800090FC031E17BF2B68236023606B6818BF95
:101590000120636008BF002038BD10B50446142147
:1015A000006801F04FFF204610BD0068FFF76DBCDA
:1015B000F8B5837E04460D4616461BB90B78002B02
:1015C00000F0A4802068FFF783FBA37E23B11EB93F
:1015D0002068FFF756FC03E029462068FFF73FFC30
:1015E000002244212068FFF702FC40F2EE2000F0C8
:1015F0009FFF2068FFF76CFBA37E23B11EB9206814
:10160000FFF73FFC03E029462068FFF728FC002293
:10161000BE212068FFF7EBFB2B78262B04D100229C
:1016200011462068FFF7E3FBE61C04F10C07206875
:10163000FFF705FC06F8010FBE42F8D10821201D76
:10164000FFF7AAFC237B2076984263765ED12B7845
:10165000222B1BD016D8102B58D1E37AA088102B40
:1016600008BFA37A4FEAC00002BF20F00F00C3F109
:101670000C03C01800B203F001F94FF0765103F0EB
:1016800051F9F8BD262B1FD0282B3FD1227A237980
:1016900002F06002202A05D0402A06D042B923F089
:1016A000070304E023F0030301E023F001032371A7
:1016B0002379607943EA002000B202F077FC00222F
:1016C000134B02F0D9FC1EE0A579284602F06EFC0F
:1016D000064660790F46C00803F0D0F802F078FCA7
:1016E00000220C4B02F0C8FC0B462906024648BFFC
:1016F00009494FF0000058BF084902F0BDFC3246CE
:101700003B4602F007FB02F0AFFFF8BD0448F8BD0E
:101710000000B03F0000A03F0000F0BF0000F03F1D
:101720000000C07F027E407E131A58425841704725
:1017300000F006BA38B50C46054644F0680401F0DE
:1017400053FE01F0B3FCAC73284638BD704700006F
:1017500038B5044602F0FD059DF810000C2D6072AE
:1017600002D0102A18BF0C2222712279013963712C
:101770000C3A43EA4103022192FBF1F242EA83036D
:101780008B40237202F002FC02F042F80EA3D3E970
:10179000002302F09BFD02F01FFF237A1843207202
:1017A00001F022FEA17B01F098FC01F01DFE217AE0
:1017B000036841F080019B682172984701F014FE94
:1017C000BDE8384001F094BCEF39FAFE422EE63F06
:1017D00070B504460323837201F006FEA27AA17B52
:1017E00001F073FC002501F0FFFD03686E1C1B690E
:1017F000984770B101F0F8FD0368EDB25B69984756
:101800002544E872A37A354623449B7ADB11E371C1
:10181000E9E7E079003018BF012070BD10B504463B
:10182000002303602046FFF7D3FF0028FAD1237975
:101830000E2B0FD0102B19D00C2B21D1E37A03F0F3
:101840000F02237B43EA0223B3F5006FA8BFA3F581
:10185000805314E0E37A03F03F02237B43EA022340
:10186000B3F5005FA8BFA3F5804308E0E27A237BCD
:1018700043EA0223B3F5004FA8BFA3F580332360EA
:10188000206810BD00F05CB90368C9B29B681847B6
:101890000170427070470000F8B51D464378074656
:1018A0000C46164603B301F0C7FA224900F0ECFCDF
:1018B00001F0C2FA0A22214600F023FD01F0BCFA31
:1018C0001D4900F0E1FC01F0B7FA0A22314600F0B0
:1018D00046FD01F0B1FA194900F0D6FC01F0ACFA6E
:1018E0000A22294600F03DFD01F07EFD397801F025
:1018F000F4FB01F079FDA1000631FFF7C5FF01F00F
:1019000073FD3146FFF7C0FF01F06EFD310AFFF7AE
:10191000BBFF01F069FD2946FFF7B6FF01F064FD4A
:10192000290AFFF7B1FF01F05FFDBDE8F84001F0C3
:10193000DFBB00BF51500A0866500A086B500A0806
:10194000F0B540F6FF76B242A8BF324622EAE27412
:1019500007468E46A5B21A4693B11CB900234FF430
:10196000805204E0B44205D14FF480530022714606
:1019700038460AE0C5F57F630F339BB2002204E0CE
:10198000B442EBD0002CEFD02B46BDE8F040FFF77F
:1019900083BF38B504460D4601F026FD217801F0DD
:1019A0009CFB01F021FD036829469B68984701F0E4
:1019B0001BFD01F09DFB01F017FD0122217801F0D4
:1019C00084FB01F011FD03685B699847C0B238BD24
:1019D00070B5064614460D4601F006FD317801F05B
:1019E0007CFB01F001FD036829469B68984701F0E4
:1019F000FBFC036821469B68984701F0F5FCBDE8B5
:101A0000704001F075BB00221146FFF7E1BF10B531
:101A1000044601F0E9FC01F049FB2046BDE8104016
:101A2000FFF7F1BF0000000073B5437804460D4690
:101A30008BB101F001FA3C4900F026FC01F0FCF901
:101A40000646284602F0C4FA0223009302460B46DB
:101A5000304600F03FFD284602F0BAFA30A3D3E941
:101A6000002302F009FB02F0FFFD01462F4803F0BE
:101A70000DF84FF07E5102F04BFE637805468BB1B6
:101A800001F0DAF92A4900F0FFFB01F0D5F906462A
:101A9000284602F09DFA0223009302460B46304688
:101AA00000F018FD284602F093FA224B002202F0C3
:101AB00031F901F025FE02F0B7FD6378C6B253B1EB
:101AC00001F0BAF91C4900F0DFFB01F0B5F90A2278
:101AD000314600F018FC00212046FFF75AFF05466A
:101AE00000F06F0242F0100220460021FFF770FF65
:101AF00032462046FE21FFF76BFF2A460021204692
:101B0000FFF766FF052000F013FD204665F05E023A
:101B1000D2B2002102B0BDE87040FFF759BF00BF4C
:101B2000CDCCCCCCCCCCEC3F70500A0820BCBE4510
:101B300088500A080000E03F9E500A0800F000B8F4
:101B400008B5024B1B681B68019308BDB00106086D
:101B500008B5024B1B689B68019308BDB0010608DD
:101B600008B5024B1B685B69019308BDB00106080C
:101B700008B5024B1B681B6A019308BDB00106083B
:101B800008B5024B1B685B6A019308BDB0010608EB
:101B900008B5024B1B68DB69019308BDB401060858
:101BA00008B5024B1B681B6A019308BDB401060807
:101BB00008B5024B1B685B68019308BD9C010608D1
:101BC00008B5024B1B689B68019308BD9C01060881
:101BD00008B5024B1B68DB68019308BD9C01060831
:101BE00008B5024B1B685B69019308BD9C010608A0
:101BF00008B5024B1B689B6E019308BDB80106082F
:101C000008B5024B1B685B68019308BDD00106084C
:101C100008B5024B1B689B68019308BDD0010608FC
:101C200008B5024B1B681B69019308BDD00106086B
:101C300008B5024B1B685B69019308BDD00106081B
:101C400008B5024B1B681B6B019308BDD001060849
:101C500008B5024B1B68DB6E019308BDD001060876
:101C600008B5024B1B689B69019308BDC4010608B7
:101C700008B5024B1B685B6A019308BDC4010608E6
:101C800008B5024B1B689B6A019308BDC401060896
:101C900008B5024B1B68DB6A019308BDC401060846
:101CA00008B5024B1B681B6B019308BDC4010608F5
:101CB00008B5024B1B685B6B019308BDC4010608A5
:101CC00008B5024B1B689B6B019308BDC401060855
:101CD00008B5024B1B681B6C019308BDC4010608C4
:101CE00008B5024B1B68DB6C019308BDAC0106080C
:101CF00008B5024B1B685B6D019308BDAC0106087B
:101D000008B5024B1B689B6D019308BDAC0106082A
:101D100008B5024B1B68DB6D019308BDAC010608DA
:101D200008B5024B1B681B6E019308BDAC01060889
:101D300008B5024B1B685B6E019308BDAC01060839
:101D400008B5024B1B689B6E019308BDAC010608E9
:101D500008B5024B1B68DB6E019308BDAC01060899
:101D600008B5024B1B681B6F019308BDAC01060848
:101D700008B5024B1B685B6F019308BDAC010608F8
:101D800008B5034B1B68D3F88030019308BD0000F1
:101D9000AC01060808B5024B1B681B68019308BD1F
:101DA000D801060808B5024B1B681B69019308BDE2
:101DB000D801060808B5024B1B685B69019308BD92
:101DC000D801060808B5024B1B689B69019308BD42
:101DD000D801060808B5024B1B68DB69019308BDF2
:101DE000D801060808B5024B1B681B6A019308BDA1
:101DF000D801060808B5024B1B689B6C019308BD0F
:101E0000C001060808B5024B1B685B68019308BD5A
:101E1000A401060808B5024B1B685B69019308BD65
:101E2000A401060808B5024B1B68DB6C019308BDD2
:101E3000A401060808B5024B1B685B6D019308BD41
:101E4000A401060808B5034B1B68D3F89030019332
:101E500008BD0000A401060808B5034B1B68D3F8B1
:101E60009C30019308BD0000A401060808B5024B90
:101E70001B685B68019308BDC801060808B5024BE2
:101E80001B689B68019308BDC801060808B5024B92
:101E90001B68DB68019308BDC801060808B5024B42
:101EA0001B681B69019308BDC801060808B5024BF1
:101EB0001B685B69019308BDC801060808B5024BA1
:101EC0001B689B69019308BDC801060808B5024B51
:101ED0001B68DB69019308BDC801060808B5024B01
:101EE0001B681B6A019308BDC801060808B5024BB0
:101EF0001B681B6B019308BDC801060808B5024B9F
:101F00001B685B6B019308BDC801060808B5024B4E
:101F10001B685B68019308BDCC01060808B5024B3D
:101F20001B685B69019308BDCC01060808B5024B2C
:101F30001B681B6A019308BDCC01060808B5024B5B
:101F40001B68DB6B019308BDCC01060808B5024B8A
:101F50001B681B68019308BDA001060808B5024B69
:101F60001B685B68019308BDA001060808B5024B19
:101F70001B689B68019308BDA001060808B5024BC9
:101F80001B68DB69019308BDA001060808B5024B78
:101F90001B68DB6A019308BDA001060808B5024B67
:101FA0001B681B6B019308BDA001060808B5024B16
:101FB0001B68DB6B019308BDA0010608704710B5D4
:101FC0000446102101F03EFA204610BD70B50446CB
:101FD0000E46074B0025036040F80C5FFFF730FE0C
:101FE00030462671FFF7D4FDA560204670BD00BFC6
:101FF000B8500A080079FFF7D3BD014600228C20B3
:10200000FFF7F6BD0020FFF7F8BF00004FF6FF72A4
:10201000034B0020187058809A80FFF7F3BE00BF72
:10202000BA01002010B504460068FFF797FF20466C
:1020300010BD10B50446006808B1FFF78FFF0023FC
:102040002360A360636010BD38B504460D46006888
:102050000131FFF78BFF10B184E82100012038BD6A
:1020600010B50368044613B143688B4207D220467B
:10207000FFF7EAFF20B1A3680BB9226813700120B3
:1020800010BD70B50E46114604461546FFF7E8FF31
:1020900018B92046FFF7CDFF09E02A463146A56072
:1020A000206802F02DFE2268A3680021D15420464A
:1020B00070BD38B50023044603604360836003733A
:1020C0000D4639B1084602F07AFE294602462046FE
:1020D000FFF7D7FF204638BD38B5054600680C46E7
:1020E00060B16A688B689A4206D3096802F044FEC0
:1020F000A368AB6000230AE0FFF730FF23682B6082
:1021000063686B60A368AB60002323606360A360B7
:1021100038BD884210B50B46044607D0096819B18E
:102120009A68FFF7AEFF01E0FFF783FF204610BD7E
:1021300010B5044600230360436083600373FFF718
:10214000E8FF204610BD884210B5044601D0FFF7D5
:10215000C3FF204610BD38B505460C4641B10846C0
:1021600002F02DFE214602462846FFF78AFF01E0D5
:10217000FFF75FFF284638BD884270B515D08368E9
:102180008A6893420FD183B104680D68013C14F84A
:10219000010F50B102F0C6FE064615F8010B02F021
:1021A000C1FE8642F3D0002070BD012070BD10B585
:1021B0008368934207D904680968A01802F007FEF3
:1021C00008B1001B10BD4FF0FF3010BD0022FFF71B
:1021D000EEBF00002DE9F0411C469A4288BF13462D
:1021E0000E46154688BF25460D4988BF1C46074642
:1021F000FFF75FFFB1688D420FD88C4228BF0C46B5
:102200003368002213F804801A553168384629448F
:10221000FFF7A1FF336803F804803846BDE8F0817A
:1022200078510A0810B504468B68FFF7D3FF2046A3
:1022300010BD006808B102F051BD7047F8B5064600
:102240000D468F180024BD420CD0336815F8011BD1
:102250009B6830469847002801DB0444F3E7002CD4
:1022600008BF04462046F8BD70B505460C46084632
:1022700049B102F0A4FD2B68024621462846BDE87C
:102280007040DB68184770BD08B5FFF7EDFF08BD6B
:1022900003689B68184738B50D210546FFF7F8FF1E
:1022A0000A2104462846FFF7F3FF204438BD012ADF
:1022B00098BF0A2230B50B468BB000218DF8241050
:1022C0000DF12304B3FBF2F505FB1233DBB2092B4E
:1022D00094BF30333733DBB2214604F801392B4643
:1022E000002DEFD1FFF7C0FF0BB030BD10B422B905
:1022F0000368C9B29B6810BC1847D2B210BCFFF784
:10230000D6BFFFF7F3BF38B50546FFF7EFFF04462A
:102310002846FFF7C0FF204438BD2DE9F0410746AD
:102320000E4615462AB9BDE8F0410368C9B29B685C
:1023300018470A2A02D1002901DA04E0D2B2BDE826
:10234000F041FFF7B4BF2D21FFF7A2FF2A46044654
:1023500071423846FFF7ABFF2044BDE8F081FFF73C
:10236000DCBF38B50546FFF7D8FF04462846FFF71F
:1023700092FF204438BD00002DE9F84319468046FD
:10238000104617461E469DF8205002F00FF908B17E
:10239000474912E026F000444FF0FF32454B3846E3
:1023A000214602F003F968B94FF0FF32414B38463D
:1023B000214602F0DDF828B93F494046FFF754FFB7
:1023C000BDE8F8834FF060423C4B3846314602F09E
:1023D000E3F808B13A49F0E74FF06042394B38462C
:1023E000314602F0BBF80028F4D100220023384621
:1023F000314602F0B3F838B12D214046FFF748FFCF
:1024000006F10046044600E004462F494FF000095B
:1024100000205FFA89F39D4206D900222B4B01F080
:1024200055FF09F10109F4E73A46334601F072FC21
:102430000F46064602F0F8F80A2201468146404659
:10244000FFF735FF04447DB3484601F09FFD024687
:102450000B463046394601F05BFC06460F464046C7
:102460001B49FFF701FF0444184B00223046394650
:1024700001F002FE0F46064602F0AEF80A220146BF
:1024800081464046FFF749FF0444484601F08EFD6F
:1024900002460B463046394601F03AFC013D15F044
:1024A000FF0506460F46DFD12046BDE8F88300BF92
:1024B000C0500A08FFFFEF7FCA500A08FFFFEF4134
:1024C000C4500A08FFFFEFC10000E03F00002440B5
:1024D000C8500A0837B59DF8181005460091FFF757
:1024E0004BFF04462846FFF7D6FE204403B030BD1C
:1024F00000231A4619464068FFF7D8BC0B680360F2
:1025000013B15A6801325A6070470000014A024B09
:102510001A60704744510A08C0010020024B1A6833
:10252000024B1A60704700BF34000020C401002035
:102530000021FFF76FBC10B50446FDF74AFE2046A8
:1025400010BD13B50B46044603C88DE8030093E89D
:10255000030084E803009DE8030083E8030002B061
:1025600010BD0000034800238360034A034900F0C4
:102570005BBF00BFC8010020A400002037250A0867
:1025800008B5144B33B100F057FC03681B6998473A
:10259000002816DC104B33B100F010FD03681B69F6
:1025A0009847002810DC0D4B0BB1AFF300800C4BAB
:1025B0007BB100F07DFC03681B699847002806DCAE
:1025C00008BDAFF30080E5E7AFF30080EBE7AFF3C2
:1025D000008008BD000000000000000000000000B6
:1025E0000000000008B5FFF7CBFFFFF7F9FA014B39
:1025F000186008BD6C0600200248034A0349121AFD
:1026000002F07EBB0040024064400240C0540A0811
:1026100007B5002300931A466FF07701FFF71CFC03
:1026200003B05DF804FB000007B543880A2B08D00F
:10263000502B09D1094B1B683BB103B05DF804EB8B
:102640001847FFF7E5FF06E0002300931A466FF0F6
:102650007701FFF701FC03B05DF804FBD80100200F
:1026600038B5104C104D2368AB42104B0CBF012203
:1026700000221A7002D0FFF7BFFF2560FFF798FA1B
:10268000044602F051FB0A4B13B12046AFF3008021
:1026900000210748FFF752FCBDE8384000210548FB
:1026A000FFF7D0BB604002401E1C279ADC010020CF
:1026B0000000000029260A0870470020704710B566
:1026C0000446102100F0BEFE204610BD08B508B13A
:1026D000FFF7F5FF08BD002202604FF69C72828072
:1026E00010B5B1F9044084808A8002680C680460E7
:1026F0000A6010BD10B504460068FFF72FFC2046A5
:1027000010BD38B5C468F4B12378022B03D104F1AD
:102710000C00FFF7EFFF656835B12846FDF759FD5E
:102720001021284600F08EFEA56835B12846FDF739
:1027300050FD1021284600F085FE2046BDE83840B7
:10274000142100F07FBE38BD10B588B0044668463D
:10275000FFF7AFFC694604A8FFF7EAFC04A8A0470E
:10276000044604A8FFF75EFC6846FFF75BFC2046C2
:1027700008B010BDF0B507460E46154685B01024CA
:1027800022460021684602F0C6FA00226946104639
:10279000ADF80040029703960195FFF7B7FB05B02F
:1027A000F0BD13B5044691E8050000234B600B60B3
:1027B0002060626001A801930093FDF769FF204645
:1027C00002B010BDF7B50C4606460F4654F8043B60
:1027D00002AD45F8083D214601A8FFF78FFE2946C6
:1027E0003046FFF7DEFF01A8FDF752FF2046FDF758
:1027F0004FFF3846082100F025FE304603B0F0BDFB
:1028000038B500230446036010200D46FDF747FC51
:1028100028B1012343608360024BC56003602060E0
:10282000204638BDE0510A08826810B50AB900F0A8
:102830001AFEC368BDE81040184708B5006800F1EB
:102840001001FFF7F1FF08BD826810B50AB900F06A
:102850000AFEC368BDE81040184708B5006800F1DB
:102860001001FFF7F1FF08BD38B5002383608B68C6
:1028700004460D462BB102229847EB68E360AB6833
:10288000A360204638BD0000F0B589B004686846F2
:10289000FFF721FF4FF0020200238DF80830D4E843
:1028A0004F3F002B03D1C4E8412F0029F7D102D0BC
:1028B0008DF8083063E014F10C0503D06946284612
:1028C000FFF709FFBFF35F8F01236370BFF35F8FD3
:1028D00004F10803002053E8006F43E80002002AD7
:1028E000F9D1BFF35F8F002E49D0FFF79BFA20B1DB
:1028F00029463046FFF798FF3AE0314602A8FFF735
:10290000B3FFE068B4F9105008B102F03DFA069048
:102910001020ADF81C50FDF7C2FB0546E8B10027BA
:1029200087601820FDF7BBFB044688B1014687602D
:1029300002A8FFF706FE049BA268A360059B049211
:10294000E26806A9E36004F110000592FFF7C3FEF8
:102950000D4B2C60EB600D4BAB6006A8FFF7CAFE79
:1029600002A8FDF736FC002229460948FFF762FA63
:102970003046FDF72EFC1021304600F063FD68461E
:10298000FFF7B8FE09B0F0BD3B280A08B12A0A08D3
:1029900009300A082DE9F04F8BB006460F469046E5
:1029A00099469DF850A0FFF7B9FA07AD834630BBB2
:1029B0004FF62E73059005A92846ADF81830FFF79D
:1029C0008AFE1420FDF76BFB044658B10223037006
:1029D00001234370C0F804B0C0F808B029460C3099
:1029E000FFF779FE3046214640F8044BFFF708FF19
:1029F0002846FFF77FFE05A8FFF77CFE52E0002483
:102A00000C2314206C60AC600793FDF748FB014673
:102A100018B1047044704460846004A80391FFF707
:102A2000EFFE224B08200893FDF739FB044628B13E
:102A3000039B04A940F8043BFFF760FD00955FFA93
:102A40008AF34A46414638460994FFF76FFA20B99F
:102A5000039B5B7803F0FF0283B1039B04A906A8E4
:102A60000593FFF74BFD05A93046FFF79AFE06A830
:102A7000FDF70EFE04A8FDF70BFE13E04FF69C7366
:102A800005A903A80592ADF81830FFF7FDFE05A8CB
:102A9000FFF730FE05A80999FFF794FE06A8FDF799
:102AA000F7FDDAE730460BB0BDE8F08F212C0A08BD
:102AB000022AF8B5044606D0032A17D0012A22D1EB
:102AC0000B6803601FE018200E68FDF7E8FA054662
:102AD00050B13146FFF7C8FE3069B6F9147008B13D
:102AE00002F052F92861AF8225600CE0046854B10D
:102AF00004F11000FFF7FEFD2046FDF76AFB1821E8
:102B0000204600F09FFC0020F8BD38B5002383600C
:102B10008B6804460D462BB102229847EB68E360B0
:102B2000AB68A360204638BD022A70B5044606D0C3
:102B3000032A11D0012A18D10B68036015E0142074
:102B40000E68FDF7ACFA054620B13146FFF7DDFF10
:102B5000337C2B74256008E0046834B12046FDF70F
:102B600038FB1421204600F06DFC002070BD0000F1
:102B7000F0B50C46BFF35F8F87B0002350E8006FBD
:102B800040E80032002AF9D1BFF35F8F002E3FD01A
:102B90001846FFF747F9074620B121463046FFF7B0
:102BA00053FE2EE0314601A8FFF7AFFF2378102037
:102BB0008DF81430FDF773FA0546D0B18760142004
:102BC000FDF76DFA044678B18760014601A8FFF76A
:102BD000B8FC039BA268A360049B0392E268E360D5
:102BE0009DF81430049223740A4B2C60EB600A4B5E
:102BF000AB6001A8FDF7EDFA002229460748FFF770
:102C000019F93046FDF7E5FA1021304600F01AFCBC
:102C100007B0F0BD5B280A08292B0A0809300A080A
:102C200030B5044685B00D4668461146FFF7CAFD2B
:102C30007CB124B228460DB102F0A6F8029002A998
:102C40006846ADF80C40FFF71FFE02A8FFF752FDE3
:102C50001DE04FF0010200988DF80840D0E84F3F8A
:102C6000A34203D1C0E8412F0029F7D102D08DF84B
:102C700008300CE010F10C014FF0010318BF037392
:102C8000BFF35F8F043000F8033CFFF771FF01A82A
:102C9000FDF7FEFC05B030BD704710B504461821A5
:102CA00000F0D0FB204610BDF8B50F4600F1080635
:102CB000051D002416F8011D0A223846FFF721FBE6
:102CC000AE42044407D0002CF4D02E213846FFF742
:102CD000DFFA0444EEE72046F8BD000010B50446D4
:102CE000044B112240F8043B002102F014F8204666
:102CF00010BD00BFFC510A080346074A10B543F84F
:102D0000042B01F1100251F8044B914243F8044B9B
:102D1000F9D10A781A7010BDFC510A08024A4160C4
:102D20000260042202757047FC510A0810B59DF834
:102D3000084044EA032343EA024242EA01610423D1
:102D40004160037510BD000037B5044D05609DF866
:102D500018500095FFF7EAFF03B030BDFC510A0898
:102D600041747047704708B50021007CFFF72AF8CE
:102D700030EA200028BF4FF0FF3008BD08B5012120
:102D8000007CFFF71FF830EA200028BF4FF0FF302B
:102D900008BD08B5007CFFF70DF820EAE07008BD1B
:102DA00008B5007CFEF7FEFF20EAE07008BD007C5D
:102DB000FFF718B810B50446142100F043FB204675
:102DC00010BD38B50446007C0D46FEF7F3FF002821
:102DD00001DC607C28B12946207CFEF7FBFF20EA5D
:102DE000E07038BD10B50446002363604FF47A7379
:102DF000A360054B084623600123217463741146C8
:102E0000FEF7C8FF204610BD10520A0810B5044650
:102E10001422002101F07FFF054B20466360054B23
:102E2000E36040F2011323818123238210BD00BFA0
:102E300065020020E401002030B50E4D87B001A8E6
:102E4000FFF7E4FF296811F0010410D12846FDF7CF
:102E50002AF960B101AA21460748FFF7C3FF2846B7
:102E6000FDF726F9054A0649034800F0DDFA024855
:102E700007B030BDE001002068030020A40000205E
:102E8000652D0A0810B504461422002101F043FF05
:102E9000054B20466360054BE36040F2011323813C
:102EA0008123238210BD00BF18040020800300206E
:102EB00010B50E4C86B001A8FFF7E4FF2368DB07CE
:102EC00010D42046FDF7EFF860B101AA01210848AF
:102ED000FFF788FF2046FDF7EBF8064A064904484D
:102EE00000F0A2FA024806B010BD00BF7C0300202B
:102EF00004040020A4000020652D0A08FEF740BE4F
:102F0000FEF736BE70474174704708B5007CFEF787
:102F1000DFFE20EAE07008BD08B5007CFEF7B0FED9
:102F200020EAE07008BD08B5007CFEF7B9FE30EA83
:102F3000200028BF4FF0FF3008BD08B5007CFEF729
:102F4000A7FE30EA200028BF4FF0FF3008BD007C0C
:102F5000FEF7AEBE10B50446142100F073FA204609
:102F600010BD70B5457C04460E4625B9007CFEF7C1
:102F7000AFFE002805DD3146207CBDE87040FEF73D
:102F800077BE284670BD000010B5044608461146BD
:102F9000002262604FF47A72A260054A20742260B7
:102FA000012262741A46FEF75BFE204610BD00BF88
:102FB00040520A08007CFEF783BE000038B50C4D75
:102FC000296811F0010411D12846FDF76CF868B1A9
:102FD000084A2146084B0948FFF7D6FF2846FDF767
:102FE00067F8074A0749054800F01EFA034838BD4C
:102FF000B4050020B8050020300500201C05002085
:10300000A4000020052F0A0810B5836804460BB9F8
:1030100000F029FAC3689847A3681BB10322214630
:10302000204698472046BDE81040102100F00ABA1B
:103030007047F8B5064615460C468F18BC4206D0B8
:10304000336814F8011B9B6830469847F6E728461A
:10305000F8BD0022007CFEF763BE0021007CFEF775
:1030600067BE0021007CFEF76BBE0021007CFEF7EE
:103070006FBE0021007CFEF773BE10B5044614211C
:1030800000F0E0F9204610BD10B5044608464FF4A4
:103090007A73A360044B0021207461602360FEF703
:1030A0006FFE204610BD00BF70520A0800231A466A
:1030B0001946007CFEF714BE13B50024007C009472
:1030C000FEF716FEC0B202B010BD0123FFF7F4BF39
:1030D0000123D2B2C9B2FFF7EFBF0022007CFEF796
:1030E0000FBEC9B2FFF7F9BF0022007CFEF710BE89
:1030F0000121FFF7F9BF0021007CFEF739BE002255
:1031000011464068FEF7CABEF0B5164689B01122D6
:103110000F460446002103A801F0FDFD304601F0F2
:103120004EFE0025009581B27B6803AA3046FEF76B
:1031300061FE20B129462046FFF7F0FD03E003A918
:103140002046FFF7D9FD204609B0F0BD0022114608
:103150004068FEF7C3BE002211464068FEF7CEBEAF
:1031600000224068FEF7C2BE002281F001014068E3
:10317000FEF7ACBE00231A4619464068FEF79EBE15
:10318000002211464068FEF779BE00220221406805
:10319000FEF77CBE00231A464068FEF767BE0000BB
:1031A000024B04225A60024A1A6070473C06002013
:1031B00098520A0800231A464068FEF757BE0022BC
:1031C00002214068FEF762BE002211464068FEF709
:1031D00055BE002211464068FEF760BE00231A4625
:1031E00019464068FEF762BE00231A461946406839
:1031F000FEF764BE002281F001014068FEF766BE62
:1032000000224068FEF772BE002211464068FEF7B9
:1032100075BE002211464068FEF760BE70B51646C6
:103220008EB0044608A8FFF759FD1122002103A81B
:1032300001F071FD304601F0C2FD00250A4B0095FA
:1032400081B25B6803AA3046FEF7D4FD20B129465F
:103250002046FFF763FD03E003A92046FFF74CFD7E
:1032600020460EB070BD00BF3C060020024B034A52
:103270001A6000225A60704744060020CC520A08A7
:1032800010B504460F48FEF7B5FE28B1A4F10D03B2
:10329000022B01D8002010BD00F0A6F8FFF72BFF8D
:1032A00008B1012CF6D9FFF789FEFFF783FE18B1AC
:1032B000A4F11203012BEDD9172C8CBF00200120A3
:1032C00010BD00BF4C060020172838B504460D4637
:1032D0000AD8FF2908D0FFF7D3FF28B12946204696
:1032E000BDE83840FEF734BC38BD000070B50C4C6A
:1032F0000C4E0D4D00212046FEF768FE20460B4C7B
:103300003246294600F090F801212046FEF75EFE85
:10331000324629462046BDE8704000F085B800BF1F
:103320004C060020A4000020BD1F0A085C060020F7
:1033300030B504461B4D89B02068FEF741FCFEF70E
:103340004FFC2B682268C01A9042F5D3236833B330
:10335000E36823B3251D236928469847002304A961
:10336000684602930693FFF7ECF8029B069A0693D1
:103370000292039B079A294604A803920793FFF73A
:10338000E0F8069BE268E360079B0692226904A8C6
:1033900023610792FCF71DFF6846FCF71AFF09B08E
:1033A00030BD00BF6C06002008B5FFF7C1FFBDE8C7
:1033B00008400020FEF73CBC13B5084C00231A4619
:1033C000194600932046FFF7BFFC2046044A0549F2
:1033D00002B0BDE8104000F027B800BF7006002022
:1033E000A4000020992C0A0838B50B4D296811F06B
:1033F00001040FD12846FCF756FE58B12146074874
:10340000FFF742FE2846FCF753FE054A05490348EC
:1034100000F00AF8014838BD880600208C0600201C
:10342000A400002031300A080B460146184601F07E
:1034300059BC0000024B1868BFF35F8F704700BF94
:10344000A0060020FCF72DBE10B5002814BF0446CE
:1034500001242046FEF77AFD20B9FFF7EBFF08B103
:103460008047F6E710BD08B5FEF790FD184B1A68C7
:10347000D1075CBF01221A60164B1A68D2075CBFE5
:1034800001221A60144B1A68D0075CBF01221A602F
:10349000124B1A68D1075CBF01221A60104B1A68E0
:1034A000D2075CBF01221A600E4B1A68D0075CBFBE
:1034B00001221A600C4B1A68D1075CBF01221A6006
:1034C0000A4B1A68D2075CBF01221A60704700BF1E
:1034D000C0060020BC060020B8060020B40600206C
:1034E000B0060020AC060020A8060020A40600209C
:1034F000244B1A68D0075CBF01221A60224B1A685D
:10350000D1075CBF01221A60204B1A68D2075CBF4A
:1035100001221A601E4B1A68D0075CBF01221A6094
:103520001C4B1A68D1075CBF01221A601A4B1A683B
:10353000D2075CBF01221A60184B1A68D0075CBF23
:1035400001221A60164B1A68D1075CBF01221A606B
:10355000144B1A68D2075CBF01221A60124B1A681A
:10356000D0075CBF01221A60104B1A68D1075CBFFC
:1035700001221A600E4B1A68D2075CBF01221A6042
:10358000704700BFF0060020EC060020E80600208F
:10359000E4060020E0060020DC060020D80600201B
:1035A000D4060020D0060020CC060020C80600204B
:1035B000C4060020244B1A68D0075CBF01221A60A1
:1035C000224B1A68D1075CBF01221A60204B1A688F
:1035D000D2075CBF01221A601E4B1A68D0075CBF7D
:1035E00001221A601C4B1A68D1075CBF01221A60C5
:1035F0001A4B1A68D2075CBF01221A60184B1A686E
:10360000D0075CBF01221A60164B1A68D1075CBF55
:1036100001221A60144B1A68D2075CBF01221A609B
:10362000124B1A68D0075CBF01221A60104B1A684F
:10363000D1075CBF01221A600E4B1A68D2075CBF2B
:1036400001221A60704700BF200700201C070020DD
:103650001807002014070020100700200C07002086
:10366000080700200407002000070020FC060020B7
:10367000F8060020F4060020184B1A68D1075CBF3A
:1036800001221A60164B1A68D2075CBF01221A6029
:10369000144B1A68D0075CBF01221A60124B1A68DB
:1036A000D1075CBF01221A60104B1A68D2075CBFB9
:1036B00001221A600E4B1A68D0075CBF01221A6003
:1036C0000C4B1A68D1075CBF01221A600A4B1A68BA
:1036D000D2075CBF01221A60704700BF400700207C
:1036E0003C07002038070020340700203007002066
:1036F0002C070020280700202407002000000000DD
:10370000C1F30A522DE9F843A2F2FF36132E0B46FD
:1037100004460D46884607461CDC002E3FDB3A4A2D
:10372000864642FA06F901EA0902024317D034A399
:10373000D3E9002300F0EEFA0022002300F02CFF72
:1037400020B1002D40DB28EA09050027384629462C
:10375000BDE8F883332E06DDB6F5806F2FD0204606
:103760001946BDE8F883A2F213424FF0FF3929FA57
:1037700002F910EA090FF2D021A3D3E9002300F0E7
:10378000C9FA0022002300F007FF0028DED0002D38
:1037900020DB454627EA090738462946D8E718A31B
:1037A000D3E9002300F0B6FA0022002300F0F4FE73
:1037B0000028CBD0002D18DB00273D46C6E7024687
:1037C0000B4600F0A7FACCE74FF4801343FA06F655
:1037D000B044B8E7142E10D00123C6F1340603FA22
:1037E00006F6371928BF9844D3E725F00042074B67
:1037F000224318BF1D460027A8E705F10108C8E7C6
:103800009C7500883CE4377EFFFF0F000000F0BF8E
:103810002DE9F0418AB004460D4600F079F8374BA7
:10382000064693F900800F46B8F1FF3F0DD02246BF
:103830002B462046294600F0B9FE30B9002200236D
:103840002046294600F0A8FE20B1304639460AB08D
:10385000BDE8F0812A4B0890CDE90245CDE9044549
:103860000193B8F1000F19D1264F4FF06046204662
:10387000294600220023CDE9066700F065FE0028F6
:1038800034D002230093684600F036FAA8B1089BB2
:10389000C3B9DDE906010AB0BDE8F0811A4F002680
:1038A0002046294600220023CDE9066700F04CFEA1
:1038B00068B1022398450093E5D1FEF777FB2223F8
:1038C0000360E4E7FEF772FB089B0360E1E7012376
:1038D000B8F1020F00930BD1FEF768FB21230360C0
:1038E0000A4800F00BFACDE90601D0E70123009366
:1038F000684600F001FA0028F2D1EDE73800002018
:10390000FC520A08FFFFEFC70000F0FF00530A084F
:103910002DE9F04FB1F5801F85B006460F460B46E6
:103920005ADA024621F00044224300F0F7800029D1
:10393000C0F279810022D64B00F09EFB0B460F4669
:10394000D44906468B426FF0350249DCC3F31305B8
:1039500005F5152404F6647404F4801E8EF07F517E
:1039600081F440111B15A3F2FF3341EA05079C18AF
:1039700030460022C84B394604EB1E5400F0C8F90B
:10398000AB1CC3F31303022B82468B464FF000029D
:103990002FDC002300F0D8FD002800F0C880002CA8
:1039A00000F04A81204600F001FBA5A3D3E90023E3
:1039B00006460F4600F060FBA3A3D3E900230446AC
:1039C0000D463046394600F057FB02460B4620466E
:1039D000294600F09FF909E0AE4900228B42B5DD8F
:1039E00032463B463046394600F094F905B0BDE812
:1039F000F08F4FF0804300F08DF902460B465046A1
:103A0000594600F063FC064620460F4600F0CEFA09
:103A10003246CDE900013B4630463946CDE90267E2
:103A200000F02AFB02460B468046894600F024FB44
:103A300087A3D3E9002306460F4600F01DFB86A3AB
:103A4000D3E9002300F066F932463B4600F014FB50
:103A500083A3D3E9002300F05DF932463B4600F032
:103A60000BFB81A3D3E9002300F054F942464B46F7
:103A700000F002FB7EA3D3E900238046894630464E
:103A8000394600F0F9FA7CA3D3E9002300F042F9AB
:103A900032463B4600F0F0FA79A3D3E9002300F068
:103AA00039F932463B4600F0E7FA0B4602464946F2
:103AB000404600F02FF9A5F5C223C5F5D725A3F29E
:103AC0007A4351351D43002D8046894656DD00223C
:103AD000724B5046594600F0CFFA52465B4600F012
:103AE000CBFA06460F46002C68D132463B4640468C
:103AF000494600F00FF9DDE9022300F0BDFA024665
:103B00000B463046394600F003F902460B46504654
:103B1000594600F0FDF805B0BDE8F08F0022002303
:103B200000205F4900F0D2FB05B0BDE8F08F56A33E
:103B3000D3E900235046594600F09EFA02460B4650
:103B40000020564900F0E4F8524606460F465B4610
:103B50005046594600F090FA02460B463046394628
:103B600000F08AFA06460F46002C40F09B80024681
:103B70000B465046594600F0CBF837E7002C00F0D2
:103B8000A5802FA3D3E90023DDE9000100F074FA3A
:103B900042464B4604460D465046594600F0B8F89A
:103BA000DDE9022300F068FA27A3D3E900230646E3
:103BB0000F46DDE9000100F05FFA21E020A3D3E920
:103BC0000023DDE9000100F057FA32463B46044687
:103BD0000D464046494600F09DF8DDE9022300F01D
:103BE0004BFA19A3D3E9002380468946DDE9000199
:103BF00000F042FA02460B464046494600F08AF879
:103C000002460B463046394600F082F852465B4683
:103C100000F07EF802460B462046294600F078F870
:103C200005B0BDE8F08F02460B4600F071F80022A7
:103C3000002300F04BFBD9E600200021D6E600BFB0
:103C40000000E0FE422EE63F763C7935EF39EA3D52
:103C500044523EDF12F1C23FDE03CB966446C73FBB
:103C6000599322942449D23F935555555555E53FD4
:103C70009FC678D0099AC33FAF788E1DC571CC3FDF
:103C800004FA97999999D93F555555555555D53FAA
:103C900000005043FFFFEF7F0000F03F0000E03FD7
:103CA000000050C3204600F081F90FA3D3E90023A0
:103CB0008046894600F0E0F90DA3D3E900230446CD
:103CC0000D464046494600F0D7F999E702460B46B3
:103CD0005046594600F01CF8DDE9022300F0CCF90B
:103CE00013E700BFAFF300800000E0FE422EE63F86
:103CF000763C7935EF39EA3D0020704700200149D4
:103D0000704700BF0000F87F81F0004102E000BF73
:103D100083F0004330B54FEA41044FEA430594EA8B
:103D2000050F08BF90EA020F1FBF54EA000C55EAC6
:103D3000020C7FEA645C7FEA655C00F0E2804FEA97
:103D40005454D4EB5555B8BF6D420CDD2C4480EA79
:103D5000020281EA030382EA000083EA010180EAA9
:103D6000020281EA0303362D88BF30BD11F0004FF7
:103D70004FEA01314FF4801C4CEA113102D040422D
:103D800061EB410113F0004F4FEA03334CEA133368
:103D900002D0524263EB430394EA050F00F0A78080
:103DA000A4F10104D5F1200E0DDB02FA0EFC22FA7B
:103DB00005F2801841F1000103FA0EF2801843FA6F
:103DC00005F359410EE0A5F120050EF1200E012A60
:103DD00003FA0EFC28BF4CF0020C43FA05F3C0189E
:103DE00051EBE37101F0004507D54FF0000EDCF117
:103DF000000C7EEB00006EEB0101B1F5801F1BD3C0
:103E0000B1F5001F0CD349085FEA30004FEA3C0CC3
:103E100004F101044FEA445212F5800F80F09A80B9
:103E2000BCF1004F08BF5FEA500C50F1000041EBBD
:103E3000045141EA050130BD5FEA4C0C404141EBC1
:103E4000010111F4801FA4F10104E9D191F0000FE8
:103E500004BF01460020B1FA81F308BF2033A3F16B
:103E60000B03B3F120020CDA0C3208DD02F1140C62
:103E7000C2F10C0201FA0CF021FA02F10CE002F19D
:103E80001402D8BFC2F1200C01FA02F120FA0CFC96
:103E9000DCBF41EA0C019040E41AA2BF01EB0451DF
:103EA000294330BD6FEA04041F3C1CDA0C340EDCDD
:103EB00004F11404C4F1200220FA04F001FA02F320
:103EC00040EA030021FA04F345EA030130BDC4F1DE
:103ED0000C04C4F1200220FA02F001FA04F340EAD3
:103EE0000300294630BD21FA04F0294630BD94F084
:103EF000000F83F4801306BF81F480110134013D6B
:103F00004EE77FEA645C18BF7FEA655C29D094EADB
:103F1000050F08BF90EA020F05D054EA000C04BF59
:103F20001946104630BD91EA030F1EBF0021002044
:103F300030BD5FEA545C05D14000494128BF41F0E3
:103F4000004130BD14F580043CBF01F5801130BD47
:103F500001F0004545F0FE4141F470014FF00000D2
:103F600030BD7FEA645C1ABF194610467FEA655C83
:103F70001CBF0B46024650EA013406BF52EA033525
:103F800091EA030F41F4002130BD00BF90F0000F13
:103F900004BF0021704730B54FF4806404F132044F
:103FA0004FF000054FF0000150E700BF90F0000F08
:103FB00004BF0021704730B54FF4806404F132042F
:103FC00010F0004548BF40424FF000013EE700BFFF
:103FD00042004FEAE2014FEA31014FEA02701FBF8F
:103FE00012F07F4393F07F4F81F06051704792F061
:103FF000000F14BF93F07F4F704730B54FF46074DB
:1040000001F0004521F0004120E700BF50EA010225
:1040100008BF704730B54FF000050AE050EA0102D2
:1040200008BF704730B511F0004502D5404261EB42
:1040300041014FF4806404F132045FEA915C3FF483
:10404000DCAE4FF003025FEADC0C18BF03325FEA1C
:10405000DC0C18BF033202EBDC02C2F1200300FAD1
:1040600003FC20FA02F001FA03FE40EA0E0021FAF6
:1040700002F11444C1E600BF70B54FF0FF0C4CF4E0
:10408000E06C1CEA11541DBF1CEA135594EA0C0F96
:1040900095EA0C0F00F0DEF82C4481EA030621EAD1
:1040A0004C5123EA4C5350EA013518BF52EA03350C
:1040B00041F4801143F4801338D0A0FB02CE4FF0BE
:1040C0000005E1FB02E506F00042E0FB03E54FF0EE
:1040D0000006E1FB03569CF0000F18BF4EF0010EE6
:1040E000A4F1FF04B6F5007F64F5407404D25FEAE2
:1040F0004E0E6D4146EB060642EAC62141EA555195
:104100004FEAC52040EA5E504FEACE2EB4F1FD0CD6
:1041100088BFBCF5E06F1ED8BEF1004F08BF5FEA54
:10412000500E50F1000041EB045170BD06F0004606
:1041300046EA010140EA020081EA0301B4EB5C04B3
:10414000C2BFD4EB0C0541EA045170BD41F48011AB
:104150004FF0000E013C00F3AB8014F1360FDEBFD0
:10416000002001F0004170BDC4F10004203C35DAAC
:104170000C341BDC04F11404C4F1200500FA05F32F
:1041800020FA04F001FA05F240EA020001F00042D0
:1041900021F0004110EBD37021FA04F642EB060146
:1041A0005EEA430E08BF20EAD37070BDC4F10C0470
:1041B000C4F1200500FA04F320FA05F001FA04F234
:1041C00040EA020001F0004110EBD37041F1000120
:1041D0005EEA430E08BF20EAD37070BDC4F120052B
:1041E00000FA05F24EEA020E20FA04F301FA05F293
:1041F00043EA020321FA04F001F0004121FA04F23B
:1042000020EA020000EBD3705EEA430E08BF20EA0A
:10421000D37070BD94F0000F0FD101F00046400044
:1042200041EB010111F4801F08BF013CF7D041EAC6
:10423000060195F0000F18BF704703F000465200CA
:1042400043EB030313F4801F08BF013DF7D043EA9B
:104250000603704794EA0C0F0CEA135518BF95EA51
:104260000C0F0CD050EA410618BF52EA4306D1D1D8
:1042700081EA030101F000414FF0000070BD50EAF7
:10428000410606BF1046194652EA430619D094EA81
:104290000C0F02D150EA013613D195EA0C0F05D16B
:1042A00052EA03361CBF104619460AD181EA0301BF
:1042B00001F0004141F0FE4141F470014FF0000077
:1042C00070BD41F0FE4141F4780170BD70B54FF012
:1042D000FF0C4CF4E06C1CEA11541DBF1CEA135592
:1042E00094EA0C0F95EA0C0F00F0A7F8A4EB050474
:1042F00081EA030E52EA03354FEA013100F088806B
:104300004FEA03334FF0805545EA131343EA126333
:104310004FEA022245EA111545EA10654FEA0026E8
:104320000EF000419D4208BF964244F1FD0404F5A1
:10433000407402D25B084FEA3202B61A65EB0305FD
:104340005B084FEA32024FF480104FF4002CB6EBBA
:10435000020E75EB030E22BFB61A754640EA0C003A
:104360005B084FEA3202B6EB020E75EB030E22BF7A
:10437000B61A754640EA5C005B084FEA3202B6EBBB
:10438000020E75EB030E22BFB61A754640EA9C007A
:104390005B084FEA3202B6EB020E75EB030E22BF4A
:1043A000B61A754640EADC0055EA060E18D04FEA08
:1043B000051545EA16754FEA06164FEAC30343EAA8
:1043C00052734FEAC2025FEA1C1CC0D111F4801F75
:1043D0000BD141EA00014FF000004FF0004CB6E76E
:1043E00011F4801F04BF01430020B4F1FD0C88BF0D
:1043F000BCF5E06F3FF6AFAEB5EB030C04BFB6EB18
:10440000020C5FEA500C50F1000041EB045170BD0A
:104410000EF0004E4EEA113114EB5C04C2BFD4EB37
:104420000C0541EA045170BD41F480114FF0000EBB
:10443000013C90E645EA060E8DE60CEA135594EA37
:104440000C0F08BF95EA0C0F3FF43BAF94EA0C0F3A
:104450000AD150EA01347FF434AF95EA0C0F7FF4AF
:1044600025AF104619462CE795EA0C0F06D152EA03
:1044700003353FF4FDAE1046194622E750EA4106E7
:1044800018BF52EA43067FF4C5AE50EA41047FF4F8
:104490000DAF52EA43057FF4EBAE12E74FF0FF3C5D
:1044A00006E000BF4FF0010C02E000BF4FF0010C2E
:1044B0004DF804CD4FEA410C7FEA6C5C4FEA430CA7
:1044C00018BF7FEA6C5C1BD001B050EA410C0CBFF6
:1044D00052EA430C91EA030F02BF90EA020F002058
:1044E000704710F1000F91EA030F58BF994208BFBF
:1044F00090422CBFD8176FEAE37040F0010070477C
:104500004FEA410C7FEA6C5C02D150EA013C07D1D2
:104510004FEA430C7FEA6C5CD6D152EA033CD3D01D
:104520005DF8040B704700BF8446104662468C4617
:104530001946634600E000BF01B5FFF7B7FF00284A
:1045400048BF10F1000F01BD4DF808EDFFF7F4FF73
:104550000CBF012000205DF808FB00BF4DF808EDFE
:10456000FFF7EAFF34BF012000205DF808FB00BF21
:104570004DF808EDFFF7E0FF94BF012000205DF843
:1045800008FB00BF4DF808EDFFF7CEFF94BF0120F8
:1045900000205DF808FB00BF4DF808EDFFF7C4FFF1
:1045A00034BF012000205DF808FB00BF4FEA410C3A
:1045B0007FEA6C5C02D150EA013C0AD14FEA430C1D
:1045C0007FEA6C5C02D152EA033C02D14FF000005A
:1045D00070474FF0010070474FEA410212F5001298
:1045E00015D211D56FF47873B3EB625212D94FEA3A
:1045F000C12343F0004343EA505311F0004F23FA24
:1046000002F018BF404270474FF00000704750EA78
:10461000013005D111F0004008BF6FF00040704735
:104620004FF00000704700BF4A0011D212F500128F
:1046300011D20DD56FF47873B3EB62520ED44FEAFA
:10464000C12343F0004343EA505323FA02F070477A
:104650004FF00000704750EA013002D14FF0FF30B8
:1046600070474FF0000070474FEA4102B2F1E0435B
:1046700024BFB3F5001CDCF1FE5C0DD901F0004C49
:104680004FEAC0024CEA5070B2F1004F40EB830099
:1046900008BF20F00100704711F0804F21D113F1C5
:1046A0003872BCBF01F00040704741F480114FEAFE
:1046B0005252C2F11802C2F1200C10FA0CF320FA87
:1046C00002F018BF40F001004FEAC1234FEAD323A4
:1046D00003FA0CFC40EA0C0023FA02F34FEA43030E
:1046E000CCE77FEA625307D150EA01331EBF4FF097
:1046F000FE4040F44000704701F0004040F0FE40B2
:1047000040F40000704700BF80F0004002E000BFAE
:1047100081F0004142001FBF5FEA410392EA030FAC
:104720007FEA226C7FEA236C6AD04FEA1262D2EBF6
:104730001363C1BFD218414048404140B8BF5B42FB
:10474000192B88BF704710F0004F40F4000020F094
:104750007F4018BF404211F0004F41F4000121F0AA
:104760007F4118BF494292EA030F3FD0A2F10102F4
:1047700041FA03FC10EB0C00C3F1200301FA03F132
:1047800000F0004302D5494260EB4000B0F5000F55
:1047900013D3B0F1807F06D340084FEA310102F114
:1047A0000102FE2A51D2B1F1004F40EBC25008BFC6
:1047B00020F0010040EA03007047490040EB000090
:1047C00010F4000FA2F10102EDD1B0FA80FCACF1BF
:1047D000080CB2EB0C0200FA0CF0AABF00EBC250BE
:1047E00052421843BCBFD0401843704792F0000FAC
:1047F00081F4000106BF80F400000132013BB5E7FF
:104800004FEA41037FEA226C18BF7FEA236C21D074
:1048100092EA030F04D092F0000F08BF08467047D9
:1048200090EA010F1CBF0020704712F07F4F04D1A7
:10483000400028BF40F00040704712F100723CBFBA
:1048400000F50000704700F0004343F0FE4040F4E4
:10485000000070477FEA226216BF08467FEA2363A2
:104860000146420206BF5FEA412390EA010F40F48D
:10487000800070474FF0000304E000BF10F00043D9
:1048800048BF40425FEA000C08BF704743F09643C0
:1048900001464FF000001CE050EA010208BF7047DB
:1048A0004FF000030AE000BF50EA010208BF704762
:1048B00011F0004302D5404261EB41015FEA010C77
:1048C00002BF84460146002043F0B64308BFA3F16F
:1048D0008053A3F50003BCFA8CF2083AA3EBC25351
:1048E00010DB01FA02FC634400FA02FCC2F1200270
:1048F000BCF1004F20FA02F243EB020008BF20F0A7
:104900000100704702F1200201FA02FCC2F120020C
:1049100050EA4C0021FA02F243EB020008BF20EA01
:10492000DC7070474FF0FF0C1CEAD0521EBF1CEA2F
:10493000D15392EA0C0F93EA0C0F6FD01A4480EA1D
:10494000010C400218BF5FEA41211ED04FF0006306
:1049500043EA501043EA5111A0FB01310CF0004032
:10496000B1F5000F3EBF490041EAD3715B0040EA58
:10497000010062F17F02FD2A1DD8B3F1004F40EB28
:10498000C25008BF20F00100704790F0000F0CF0FB
:10499000004C08BF49024CEA502040EA51207F3ABF
:1049A000C2BFD2F1FF0340EAC250704740F400009A
:1049B0004FF00003013A5DDC12F1190FDCBF00F08B
:1049C00000407047C2F10002410021FA02F1C2F139
:1049D000200200FA02FC5FEA310040F1000053EAD5
:1049E0004C0308BF20EADC70704792F0000F00F023
:1049F000004C02BF400010F4000F013AF9D040EA29
:104A00000C0093F0000F01F0004C02BF490011F4BC
:104A1000000F013BF9D041EA0C018FE70CEAD153BA
:104A200092EA0C0F18BF93EA0C0F0AD030F0004C3A
:104A300018BF31F0004CD8D180EA010000F00040EE
:104A4000704790F0000F17BF90F0004F084691F0AC
:104A5000000F91F0004F14D092EA0C0F01D14202E6
:104A60000FD193EA0C0F03D14B0218BF084608D1AF
:104A700080EA010000F0004040F0FE4040F40000F9
:104A8000704740F0FE4040F4400070474FF0FF0C8C
:104A90001CEAD0521EBF1CEAD15392EA0C0F93EAD3
:104AA0000C0F69D0A2EB030280EA010C49024FEA25
:104AB000402037D04FF0805343EA111143EA1013DE
:104AC0000CF000408B4238BF5B0042F17D024FF496
:104AD000000C8B4224BF5B1A40EA0C00B3EB510F71
:104AE00024BFA3EB510340EA5C00B3EB910F24BF5A
:104AF000A3EB910340EA9C00B3EBD10F24BFA3EBDF
:104B0000D10340EADC001B0118BF5FEA1C1CE0D1A6
:104B1000FD2A3FF650AF8B4240EBC25008BF20F059
:104B2000010070470CF0004C4CEA50207F32C2BFAD
:104B3000D2F1FF0340EAC250704740F400004FF04A
:104B40000003013A37E792F0000F00F0004C02BF7B
:104B5000400010F4000F013AF9D040EA0C0093F045
:104B6000000F01F0004C02BF490011F4000F013B9F
:104B7000F9D041EA0C0195E70CEAD15392EA0C0F07
:104B800008D142027FF47DAF93EA0C0F7FF470AF3F
:104B9000084676E793EA0C0F04D14B023FF44CAF82
:104BA00008466EE730F0004C18BF31F0004CCAD117
:104BB00030F000427FF45CAF31F000437FF43CAF53
:104BC0005FE700BF4FF0FF3C06E000BF4FF0010C75
:104BD00002E000BF4FF0010C4DF804CD4FEA400257
:104BE0004FEA41037FEA226C18BF7FEA236C11D0A1
:104BF00001B052EA530C18BF90EA010F58BFB2EB54
:104C0000030088BFC81738BF6FEAE17018BF40F0D3
:104C1000010070477FEA226C02D15FEA402C05D187
:104C20007FEA236CE4D15FEA412CE1D05DF8040B0C
:104C3000704700BF844608466146FFE70FB5FFF79F
:104C4000C9FF002848BF10F1000F0FBD4DF808ED57
:104C5000FFF7F4FF0CBF012000205DF808FB00BF48
:104C60004DF808EDFFF7EAFF34BF012000205DF8A2
:104C700008FB00BF4DF808EDFFF7E0FF94BF0120EF
:104C800000205DF808FB00BF4DF808EDFFF7D2FFEC
:104C900094BF012000205DF808FB00BF4DF808ED2F
:104CA000FFF7C8FF34BF012000205DF808FB00BFFC
:104CB0004FEA40024FEA41037FEA226C02D15FEAE9
:104CC000402C08D17FEA236C02D15FEA412C02D14B
:104CD0004FF0000070474FF0010070470A2200219A
:104CE00000F016B910B5054C13462CB10A46014622
:104CF0000220AFF3008010BD204610BD0000000070
:104D000010B5431E0A44914204D011F8014B03F838
:104D1000014FF8E710BD03460244934202D003F866
:104D2000011BFAE77047000038B5124B05461C68B6
:104D3000A36BD3B91820FDF709F943F20E33A06332
:104D400003804AF6CD33438041F2342383804EF210
:104D50006D63C3804DF6EC630381052343810B2310
:104D6000838101220023C0E90423A36B00221D617B
:104D70005A6138BDA0000020034611F8012B03F84A
:104D8000012B002AF9D17047024B0146186800F048
:104D900003B800BFA000002070B5064608460C46C8
:104DA00000F00DF8451C29463046FDF7F7F8064699
:104DB00018B12A462146FFF7A3FF304670BD0346CF
:104DC00013F8012B002AFBD1181A01387047F0B5EF
:104DD000037863B90B78002B18BF0020F0BD15F8DD
:104DE000012F62B114F8017F30469742F7D0034695
:104DF000461C007810B14D1E5C1EF0E7F0BD184651
:104E0000F0BD00002DE9F0470F4680463F48D0F83E
:104E100000903D4615F8014B09EB0400407800F086
:104E2000080000F0FF0608B12F46F2E72D2C03D151
:104E3000BD1C7C78012603E02B2C04BF7C78BD1CB4
:104E400013B1102B0AD15BE0302C57D1287800F039
:104E5000DF0058284DD16C7810230235002E14BF86
:104E60004FF0004C6FF0004CBCFBF3FA00273846C3
:104E700003FB1ACC09EB040E9EF801E01EF0040FB0
:104E800001D0303C0BE01EF0030E1BD0BEF1010F31
:104E90000CBF4FF0370E4FF0570ECEEB0404A34279
:104EA00010DDB7F1FF3F0AD0504506D801D1644567
:104EB00003DC03FB0040012701E04FF0FF3715F84A
:104EC000014BD7E77B1C0CD1002E4FF0220314BFFF
:104ED0004FF000406FF00040C8F800302AB9BDE83C
:104EE000F08706B1404272B107B1691E1160BDE89A
:104EF000F0873024002BB1D10823AFE70A23ADE7B8
:104F0000302CA3D0AAE7BDE8F08700BF3C0000200A
:104F100013460A46014602480068FFF773BF00BF08
:104F2000A0000020044B1B6803445B7803F00303DC
:104F3000012B08BF203070473C00002021000A08E8
:104F400061000A088D000A0891000A0800000000AC
:104F5000881300002C0100002C010000000000005C
:104F6000F40100000000000000000000000000004C
:104F7000617070776474006F6E006F6666006465C0
:104F8000616374697661746500746F67676C65004E
:104F9000666C69700072656C6179006F757470750C
:104FA000740062616E6B00616C6C00252E326626A7
:104FB000252E326626252E326626252E3266262599
:104FC0002E326626252E326626252E326626252E80
:104FD000326626252E326626252E326626252E326C
:104FE0006626252E326600647354454D5053006486
:104FF000735F70736900676F004F46460052656CBF
:105000006179436F6E74726F6C0054656D70526598
:105010007365740054585631005458563200524546
:10502000565253453100524556525345320053654E
:105030007444616D70657200FF000000FF000000A5
:10504000202D2000496E707574205374617475733F
:105050000053657474696E672050574D20666F72F7
:10506000204C4544200020746F2000202D3E20005D
:10507000417474656D7074696E6720746F20736518
:105080007420667265712000457374696D61746582
:1050900064207072652D7363616C653A2000466907
:1050A0006E616C207072652D7363616C653A2000CF
:1050B0000000000000000000BD1F0A08BF1F0A0812
:1050C0006E616E006F7666002E00696E660062612A
:1050D00075640053657269616C0055534253657283
:1050E00069616C31007479706500706172616D0086
:1050F000636D6400696400686E64007374726D00AF
:1051000066696C74006C766C0061646448616E64FE
:105110006C65720072656D6F766548616E646C6572
:105120007200656E756D48616E646C657273004ADD
:10513000534F4E53747265616D4C6F6748616E6476
:105140006C65720061707000253031307520005D33
:1051500020002564002C200028293A2000205B0034
:10516000636F6465203D2000256900646574616992
:105170006C73203D20000D0A006C6E00666E0063AB
:105180006F64650064657461696C006E6F6E6500C4
:10519000747261636500696E666F007761726E009C
:1051A0006572726F720070616E6963005A00252B20
:1051B0003033643A253032750025592D256D2D2563
:1051C000645425483A254D3A2553257A0061736386
:1051D00074696D6500000000000000000000000020
:1051E000B9260A08BF260A0803270A08CD260A0896
:1051F000BB260A080000000000000000A92C0A08D5
:10520000992C0A089B2C0A080000000000000000EE
:10521000652D0A08B52D0A08C32D0A083D220A0883
:10522000A12D0A08672D0A087D2D0A08AF2D0A084E
:10523000932D0A08612D0A080000000000000000FC
:10524000052F0A08552F0A08632F0A083D220A086D
:10525000192F0A083B2F0A08272F0A084F2F0A0880
:10526000072F0A080B2F0A080000000000000000AA
:1052700031300A087B300A0853300A0833300A08F4
:105280005B300A0863300A086B300A0873300A087A
:10529000000000000000000095310A088B310A0868
:1052A00081310A08FF300A08F1240A0875310A081A
:1052B00069310A0861310A0857310A084D310A0874
:1052C00009310A080000000000000000B5310A089A
:1052D000BF310A08C9310A08D3310A08DD310A088A
:1052E000E9310A08F5310A0801320A0809320A08C8
:1052F00013320A081D320A08000000006C6F6700B4
:10530000000000000020202020202020202028282D
:105310002828282020202020202020202020202075
:1053200020202020208810101010101010101010B5
:1053300010101010100404040404040404040410E5
:105340001010101010104141414141410101010173
:10535000010101010101010101010101010101013D
:105360001010101010104242424242420202020249
:10537000020202020202020202020202020202020D
:1053800010101010200000000000000000000000BD
:10539000000000000000000000000000000000000D
:1053A00000000000000000000000000000000000FD
:1053B00000000000000000000000000000000000ED
:1053C00000000000000000000000000000000000DD
:1053D00000000000000000000000000000000000CD
:1053E00000000000000000000000000000000000BD
:1053F00000000000000000000000000000000000AD
:10540000000000000000000000000000000000009C
:10541000000000000000000000000000000000008C
:10542000000000000000000000000000000000007C
:10543000000000000000000000000000000000006C
:10544000000000000000000000000000000000005C
:10545000000000000000000000000000000000004C
:10546000000000000000000043000000F10B0A08EB
:10547000A10C0A08D10F0A08D50F0A0835150A0829
:1054800031170A0885180A083D1B0A080D200A086A
:105490000D250A081D250A0865250A08A1310A08F4
:1054A0006D320A08ED320A08B9330A086D340A0869
:1054B000F1340A08B5350A0879360A0800000000F8
:1054C00000000000000000000000000000000000DC
:1054D00000000000000000000000000000000000CC
:1054E00000000000000000000000000000000000BC
:1054F00000000000000000000000000000000000AC
:10550000000000000000000000000000000000009B
:10551000000000000000000000000000000000008B
:045520000000000087
:105524000000C07F0000C07F0000000000000000F9
:105534000000000000000000000000000000000067
:105544000000000000000000000000000000000057
:10555400FF000000CD510A080100000004530A08AE
:105564000000000008540A0828540A0848540A088D
:105574000000000000000000000000000000000027
:1055840068540A0800000000000000000000000049
:105594000000000000000000000000000000000007
:1055A40000000000000000000000000000000000F7
:1055B40000000000000000000000000000000000E7
:0455C4004000002083
:1055C800FFFFFFFF00000102030405060708090AA0
:1055D8000B0C0D0E0F101112131415161718191A9B
:0855E8001B1C1D1E1F202800E2
:0455F00078563412A3
:04000005080A0020C5
:00000001FF
